{
  "_format": "hh-sol-artifact-1",
  "contractName": "TokenRewards",
  "sourceName": "contracts/TokenRewards.sol",
  "abi": [
    {
      "inputs": [],
      "stateMutability": "nonpayable",
      "type": "constructor"
    },
    {
      "inputs": [],
      "name": "CannotClaimRewards",
      "type": "error"
    },
    {
      "inputs": [],
      "name": "RewardsClaimedForCycle",
      "type": "error"
    },
    {
      "inputs": [],
      "name": "ZeroAddressNotAllowed",
      "type": "error"
    },
    {
      "anonymous": false,
      "inputs": [
        {
          "indexed": true,
          "internalType": "address",
          "name": "previousOwner",
          "type": "address"
        },
        {
          "indexed": true,
          "internalType": "address",
          "name": "newOwner",
          "type": "address"
        }
      ],
      "name": "OwnershipTransferred",
      "type": "event"
    },
    {
      "anonymous": false,
      "inputs": [
        {
          "indexed": false,
          "internalType": "address",
          "name": "contractAddress",
          "type": "address"
        }
      ],
      "name": "RaffleContractAddressSet",
      "type": "event"
    },
    {
      "anonymous": false,
      "inputs": [
        {
          "indexed": false,
          "internalType": "address",
          "name": "tokenAddress",
          "type": "address"
        }
      ],
      "name": "RewardTokenAddressSet",
      "type": "event"
    },
    {
      "anonymous": false,
      "inputs": [
        {
          "indexed": false,
          "internalType": "address",
          "name": "walletAddress",
          "type": "address"
        }
      ],
      "name": "RewardWalletAddressSet",
      "type": "event"
    },
    {
      "anonymous": false,
      "inputs": [
        {
          "indexed": false,
          "internalType": "address",
          "name": "donor",
          "type": "address"
        },
        {
          "indexed": false,
          "internalType": "uint256",
          "name": "raffleID",
          "type": "uint256"
        },
        {
          "indexed": false,
          "internalType": "uint256",
          "name": "amount",
          "type": "uint256"
        }
      ],
      "name": "RewardsClaimedPerCycle",
      "type": "event"
    },
    {
      "inputs": [
        {
          "internalType": "address",
          "name": "donor",
          "type": "address"
        }
      ],
      "name": "getTotalRewardsClaimedPerUser",
      "outputs": [
        {
          "internalType": "uint256",
          "name": "",
          "type": "uint256"
        }
      ],
      "stateMutability": "view",
      "type": "function"
    },
    {
      "inputs": [],
      "name": "owner",
      "outputs": [
        {
          "internalType": "address",
          "name": "",
          "type": "address"
        }
      ],
      "stateMutability": "view",
      "type": "function"
    },
    {
      "inputs": [],
      "name": "renounceOwnership",
      "outputs": [],
      "stateMutability": "nonpayable",
      "type": "function"
    },
    {
      "inputs": [],
      "name": "rewardToken",
      "outputs": [
        {
          "internalType": "contract IERC20",
          "name": "",
          "type": "address"
        }
      ],
      "stateMutability": "view",
      "type": "function"
    },
    {
      "inputs": [
        {
          "internalType": "uint256",
          "name": "raffleID",
          "type": "uint256"
        },
        {
          "internalType": "address",
          "name": "donor",
          "type": "address"
        }
      ],
      "name": "sendRewardsToUser",
      "outputs": [],
      "stateMutability": "nonpayable",
      "type": "function"
    },
    {
      "inputs": [
        {
          "internalType": "address",
          "name": "_raffleContractAddress",
          "type": "address"
        }
      ],
      "name": "setRaffleContractAddress",
      "outputs": [],
      "stateMutability": "nonpayable",
      "type": "function"
    },
    {
      "inputs": [
        {
          "internalType": "address",
          "name": "_rewardTokenAddress",
          "type": "address"
        }
      ],
      "name": "setRewardTokenAddress",
      "outputs": [],
      "stateMutability": "nonpayable",
      "type": "function"
    },
    {
      "inputs": [
        {
          "internalType": "address",
          "name": "_rewardWalletAddress",
          "type": "address"
        }
      ],
      "name": "setRewardWalletAddress",
      "outputs": [],
      "stateMutability": "nonpayable",
      "type": "function"
    },
    {
      "inputs": [
        {
          "internalType": "address",
          "name": "newOwner",
          "type": "address"
        }
      ],
      "name": "transferOwnership",
      "outputs": [],
      "stateMutability": "nonpayable",
      "type": "function"
    }
  ],
  "bytecode": "0x608060405234801561001057600080fd5b5061001a3361001f565b61006f565b600080546001600160a01b038381166001600160a01b0319831681178455604051919092169283917f8be0079c531659141344cd1fd0a4f28419497f9722a3daafe3b4186f6b6457e09190a35050565b610d0d8061007e6000396000f3fe608060405234801561001057600080fd5b50600436106100a35760003560e01c80639a6acf2011610076578063c615d16b1161005b578063c615d16b14610128578063f2fde38b1461015f578063f7c618c11461017257600080fd5b80639a6acf2014610102578063a5163c921461011557600080fd5b806351cf8fd5146100a8578063715018a6146100bd5780638da5cb5b146100c557806393259c13146100ef575b600080fd5b6100bb6100b63660046109e2565b610185565b005b6100bb61026d565b6000546001600160a01b03165b6040516001600160a01b0390911681526020015b60405180910390f35b6100bb6100fd3660046109e2565b6102d3565b6100bb6101103660046109e2565b6103af565b6100bb610123366004610a06565b61048b565b6101516101363660046109e2565b6001600160a01b031660009081526006602052604090205490565b6040519081526020016100e6565b6100bb61016d3660046109e2565b610595565b6001546100d2906001600160a01b031681565b6000546001600160a01b031633146101e45760405162461bcd60e51b815260206004820181905260248201527f4f776e61626c653a2063616c6c6572206973206e6f7420746865206f776e657260448201526064015b60405180910390fd5b6001600160a01b03811661020b576040516342bcdf7f60e11b815260040160405180910390fd5b6003805473ffffffffffffffffffffffffffffffffffffffff19166001600160a01b0383169081179091556040519081527f7bf5a4c7333afbd3aaf7af058634f5b6a7091a9fe13f1d37cc98741c90b0da9c906020015b60405180910390a150565b6000546001600160a01b031633146102c75760405162461bcd60e51b815260206004820181905260248201527f4f776e61626c653a2063616c6c6572206973206e6f7420746865206f776e657260448201526064016101db565b6102d16000610677565b565b6000546001600160a01b0316331461032d5760405162461bcd60e51b815260206004820181905260248201527f4f776e61626c653a2063616c6c6572206973206e6f7420746865206f776e657260448201526064016101db565b6001600160a01b038116610354576040516342bcdf7f60e11b815260040160405180910390fd5b6004805473ffffffffffffffffffffffffffffffffffffffff19166001600160a01b0383169081179091556040519081527fce94d027b1b3699a41f21f78709ed35d979d77eef91b00945393a354a5a27fdf90602001610262565b6000546001600160a01b031633146104095760405162461bcd60e51b815260206004820181905260248201527f4f776e61626c653a2063616c6c6572206973206e6f7420746865206f776e657260448201526064016101db565b6001600160a01b038116610430576040516342bcdf7f60e11b815260040160405180910390fd5b6002805473ffffffffffffffffffffffffffffffffffffffff19166001600160a01b0383169081179091556040519081527f8f0027d0b2a35483f3f87c934e81b55ece66a97df9ae3173f9c0b6d8363edeb690602001610262565b60008281526005602090815260408083206001600160a01b038516845290915290205460ff166104e7576040517ff384e7fd00000000000000000000000000000000000000000000000000000000815260040160405180910390fd5b60006104f383836106d4565b6002546003546040517f23b872dd0000000000000000000000000000000000000000000000000000000081526001600160a01b03918216600482015285821660248201526044810184905292935016906323b872dd906064016020604051808303816000875af115801561056b573d6000803e3d6000fd5b505050506040513d601f19601f8201168201806040525081019061058f9190610a36565b50505050565b6000546001600160a01b031633146105ef5760405162461bcd60e51b815260206004820181905260248201527f4f776e61626c653a2063616c6c6572206973206e6f7420746865206f776e657260448201526064016101db565b6001600160a01b03811661066b5760405162461bcd60e51b815260206004820152602660248201527f4f776e61626c653a206e6577206f776e657220697320746865207a65726f206160448201527f646472657373000000000000000000000000000000000000000000000000000060648201526084016101db565b61067481610677565b50565b600080546001600160a01b0383811673ffffffffffffffffffffffffffffffffffffffff19831681178455604051919092169283917f8be0079c531659141344cd1fd0a4f28419497f9722a3daafe3b4186f6b6457e09190a35050565b60048054604080517fb6d1b2dd000000000000000000000000000000000000000000000000000000008152905160009384936001600160a01b03169263b6d1b2dd92818301926020928290030181865afa158015610736573d6000803e3d6000fd5b505050506040513d601f19601f8201168201806040525081019061075a9190610a58565b905060006107688585610780565b9050600061077586610875565b905050505092915050565b600480546040517f4c43adea00000000000000000000000000000000000000000000000000000000815260009283926001600160a01b031691634c43adea916107df9188918891019182526001600160a01b0316602082015260400190565b602060405180830381865afa1580156107fc573d6000803e3d6000fd5b505050506040513d601f19601f820116820180604052508101906108209190610a58565b9050600061082d85610875565b90506000600261083e836001610a87565b6108489190610aa6565b6002610855600186610bac565b61085f9190610aa6565b6108699190610a87565b93505050505b92915050565b600480546040517fa8754ef100000000000000000000000000000000000000000000000000000000815291820183905260009182916001600160a01b03169063a8754ef190602401600060405180830381865afa1580156108da573d6000803e3d6000fd5b505050506040513d6000823e601f3d908101601f191682016040526109029190810190610be1565b905060005b81518110156109c65760045482516001600160a01b0390911690634c43adea90869085908590811061093b5761093b610ca6565b60200260200101516040518363ffffffff1660e01b81526004016109729291909182526001600160a01b0316602082015260400190565b602060405180830381865afa15801561098f573d6000803e3d6000fd5b505050506040513d601f19601f820116820180604052508101906109b39190610a58565b50806109be81610cbc565b915050610907565b5050919050565b6001600160a01b038116811461067457600080fd5b6000602082840312156109f457600080fd5b81356109ff816109cd565b9392505050565b60008060408385031215610a1957600080fd5b823591506020830135610a2b816109cd565b809150509250929050565b600060208284031215610a4857600080fd5b815180151581146109ff57600080fd5b600060208284031215610a6a57600080fd5b5051919050565b634e487b7160e01b600052601160045260246000fd5b6000816000190483118215151615610aa157610aa1610a71565b500290565b600082610ac357634e487b7160e01b600052601260045260246000fd5b500490565b600181815b80851115610b03578160001904821115610ae957610ae9610a71565b80851615610af657918102915b93841c9390800290610acd565b509250929050565b600082610b1a5750600161086f565b81610b275750600061086f565b8160018114610b3d5760028114610b4757610b63565b600191505061086f565b60ff841115610b5857610b58610a71565b50506001821b61086f565b5060208310610133831016604e8410600b8410161715610b86575081810a61086f565b610b908383610ac8565b8060001904821115610ba457610ba4610a71565b029392505050565b60006109ff60ff841683610b0b565b634e487b7160e01b600052604160045260246000fd5b8051610bdc816109cd565b919050565b60006020808385031215610bf457600080fd5b825167ffffffffffffffff80821115610c0c57600080fd5b818501915085601f830112610c2057600080fd5b815181811115610c3257610c32610bbb565b8060051b604051601f19603f83011681018181108582111715610c5757610c57610bbb565b604052918252848201925083810185019188831115610c7557600080fd5b938501935b82851015610c9a57610c8b85610bd1565b84529385019392850192610c7a565b98975050505050505050565b634e487b7160e01b600052603260045260246000fd5b6000600019821415610cd057610cd0610a71565b506001019056fea264697066735822122087f264e92005eb5e3dc8032b68cbf181b88a7f465d735aaf5a4ebf690f93f14864736f6c634300080b0033",
  "linkReferences": {},
  "deployedLinkReferences": {}
}