{
  "_format": "hh-sol-artifact-1",
  "contractName": "Raffle",
  "sourceName": "contracts/Raffle.sol",
  "abi": [
    {
      "inputs": [
        {
          "internalType": "address",
          "name": "_usdc",
          "type": "address"
        }
      ],
      "stateMutability": "nonpayable",
      "type": "constructor"
    },
    {
      "inputs": [],
      "name": "DonationTooLow",
      "type": "error"
    },
    {
      "inputs": [],
      "name": "IncorrectTimesGiven",
      "type": "error"
    },
    {
      "inputs": [],
      "name": "RaffleHasEnded",
      "type": "error"
    },
    {
      "inputs": [],
      "name": "RaffleHasNotEnded",
      "type": "error"
    },
    {
      "inputs": [],
      "name": "ZeroAddressNotAllowed",
      "type": "error"
    },
    {
      "anonymous": false,
      "inputs": [
        {
          "indexed": false,
          "internalType": "address",
          "name": "walletAddress",
          "type": "address"
        }
      ],
      "name": "DAOWalletAddressSet",
      "type": "event"
    },
    {
      "anonymous": false,
      "inputs": [
        {
          "indexed": false,
          "internalType": "address",
          "name": "from",
          "type": "address"
        },
        {
          "indexed": false,
          "internalType": "uint256",
          "name": "raffleId",
          "type": "uint256"
        },
        {
          "indexed": false,
          "internalType": "uint256",
          "name": "amount",
          "type": "uint256"
        }
      ],
      "name": "DonationPlaced",
      "type": "event"
    },
    {
      "anonymous": false,
      "inputs": [
        {
          "indexed": true,
          "internalType": "address",
          "name": "previousOwner",
          "type": "address"
        },
        {
          "indexed": true,
          "internalType": "address",
          "name": "newOwner",
          "type": "address"
        }
      ],
      "name": "OwnershipTransferred",
      "type": "event"
    },
    {
      "anonymous": false,
      "inputs": [
        {
          "indexed": false,
          "internalType": "uint256",
          "name": "startTime",
          "type": "uint256"
        },
        {
          "indexed": false,
          "internalType": "uint256",
          "name": "endTime",
          "type": "uint256"
        },
        {
          "indexed": false,
          "internalType": "uint256",
          "name": "minimumDonationAmount",
          "type": "uint256"
        }
      ],
      "name": "RaffleCreated",
      "type": "event"
    },
    {
      "anonymous": false,
      "inputs": [
        {
          "indexed": true,
          "internalType": "bytes32",
          "name": "role",
          "type": "bytes32"
        },
        {
          "indexed": true,
          "internalType": "bytes32",
          "name": "previousAdminRole",
          "type": "bytes32"
        },
        {
          "indexed": true,
          "internalType": "bytes32",
          "name": "newAdminRole",
          "type": "bytes32"
        }
      ],
      "name": "RoleAdminChanged",
      "type": "event"
    },
    {
      "anonymous": false,
      "inputs": [
        {
          "indexed": true,
          "internalType": "bytes32",
          "name": "role",
          "type": "bytes32"
        },
        {
          "indexed": true,
          "internalType": "address",
          "name": "account",
          "type": "address"
        },
        {
          "indexed": true,
          "internalType": "address",
          "name": "sender",
          "type": "address"
        }
      ],
      "name": "RoleGranted",
      "type": "event"
    },
    {
      "anonymous": false,
      "inputs": [
        {
          "indexed": true,
          "internalType": "bytes32",
          "name": "role",
          "type": "bytes32"
        },
        {
          "indexed": true,
          "internalType": "address",
          "name": "account",
          "type": "address"
        },
        {
          "indexed": true,
          "internalType": "address",
          "name": "sender",
          "type": "address"
        }
      ],
      "name": "RoleRevoked",
      "type": "event"
    },
    {
      "anonymous": false,
      "inputs": [
        {
          "indexed": false,
          "internalType": "address",
          "name": "nftAuthorWallet",
          "type": "address"
        }
      ],
      "name": "nftAuthorWalletAddressSet",
      "type": "event"
    },
    {
      "inputs": [],
      "name": "CURATOR_ROLE",
      "outputs": [
        {
          "internalType": "bytes32",
          "name": "",
          "type": "bytes32"
        }
      ],
      "stateMutability": "view",
      "type": "function"
    },
    {
      "inputs": [],
      "name": "DAOWallet",
      "outputs": [
        {
          "internalType": "address",
          "name": "",
          "type": "address"
        }
      ],
      "stateMutability": "view",
      "type": "function"
    },
    {
      "inputs": [],
      "name": "DEFAULT_ADMIN_ROLE",
      "outputs": [
        {
          "internalType": "bytes32",
          "name": "",
          "type": "bytes32"
        }
      ],
      "stateMutability": "view",
      "type": "function"
    },
    {
      "inputs": [],
      "name": "USDC",
      "outputs": [
        {
          "internalType": "contract IERC20",
          "name": "",
          "type": "address"
        }
      ],
      "stateMutability": "view",
      "type": "function"
    },
    {
      "inputs": [
        {
          "components": [
            {
              "internalType": "address",
              "name": "nftContract",
              "type": "address"
            },
            {
              "internalType": "address",
              "name": "nftOwner",
              "type": "address"
            },
            {
              "internalType": "uint256",
              "name": "tokenID",
              "type": "uint256"
            },
            {
              "internalType": "uint256",
              "name": "startTime",
              "type": "uint256"
            },
            {
              "internalType": "uint256",
              "name": "endTime",
              "type": "uint256"
            },
            {
              "internalType": "uint256",
              "name": "minimumDonationAmount",
              "type": "uint256"
            }
          ],
          "internalType": "struct Raffle.Raffle",
          "name": "_raffle",
          "type": "tuple"
        }
      ],
      "name": "createRaffle",
      "outputs": [
        {
          "internalType": "uint256",
          "name": "",
          "type": "uint256"
        }
      ],
      "stateMutability": "nonpayable",
      "type": "function"
    },
    {
      "inputs": [
        {
          "components": [
            {
              "internalType": "uint256",
              "name": "raffleID",
              "type": "uint256"
            },
            {
              "internalType": "uint256",
              "name": "amount",
              "type": "uint256"
            },
            {
              "internalType": "uint256",
              "name": "timestamp",
              "type": "uint256"
            }
          ],
          "internalType": "struct Raffle.Donation",
          "name": "_donation",
          "type": "tuple"
        }
      ],
      "name": "donate",
      "outputs": [
        {
          "internalType": "uint256",
          "name": "",
          "type": "uint256"
        }
      ],
      "stateMutability": "payable",
      "type": "function"
    },
    {
      "inputs": [],
      "name": "donationCount",
      "outputs": [
        {
          "internalType": "uint256",
          "name": "",
          "type": "uint256"
        }
      ],
      "stateMutability": "view",
      "type": "function"
    },
    {
      "inputs": [
        {
          "internalType": "uint256",
          "name": "",
          "type": "uint256"
        }
      ],
      "name": "donations",
      "outputs": [
        {
          "internalType": "uint256",
          "name": "raffleID",
          "type": "uint256"
        },
        {
          "internalType": "uint256",
          "name": "amount",
          "type": "uint256"
        },
        {
          "internalType": "uint256",
          "name": "timestamp",
          "type": "uint256"
        }
      ],
      "stateMutability": "view",
      "type": "function"
    },
    {
      "inputs": [
        {
          "internalType": "uint256",
          "name": "",
          "type": "uint256"
        },
        {
          "internalType": "uint256",
          "name": "",
          "type": "uint256"
        }
      ],
      "name": "donorsArrayPerCycle",
      "outputs": [
        {
          "internalType": "address",
          "name": "",
          "type": "address"
        }
      ],
      "stateMutability": "view",
      "type": "function"
    },
    {
      "inputs": [
        {
          "internalType": "address",
          "name": "donor",
          "type": "address"
        },
        {
          "internalType": "uint256",
          "name": "raffleID",
          "type": "uint256"
        }
      ],
      "name": "getDonationCountPerAddressPerCycle",
      "outputs": [
        {
          "internalType": "uint256",
          "name": "",
          "type": "uint256"
        }
      ],
      "stateMutability": "nonpayable",
      "type": "function"
    },
    {
      "inputs": [
        {
          "internalType": "uint256",
          "name": "raffleID",
          "type": "uint256"
        }
      ],
      "name": "getDonorsPerCycle",
      "outputs": [
        {
          "internalType": "address[]",
          "name": "",
          "type": "address[]"
        }
      ],
      "stateMutability": "view",
      "type": "function"
    },
    {
      "inputs": [
        {
          "internalType": "uint256",
          "name": "raffleID",
          "type": "uint256"
        }
      ],
      "name": "getHighestDonationPerCycle",
      "outputs": [
        {
          "internalType": "uint256",
          "name": "",
          "type": "uint256"
        }
      ],
      "stateMutability": "view",
      "type": "function"
    },
    {
      "inputs": [
        {
          "internalType": "bytes32",
          "name": "role",
          "type": "bytes32"
        }
      ],
      "name": "getRoleAdmin",
      "outputs": [
        {
          "internalType": "bytes32",
          "name": "",
          "type": "bytes32"
        }
      ],
      "stateMutability": "view",
      "type": "function"
    },
    {
      "inputs": [
        {
          "internalType": "uint256",
          "name": "raffleID",
          "type": "uint256"
        }
      ],
      "name": "getTopDonor",
      "outputs": [
        {
          "internalType": "address",
          "name": "",
          "type": "address"
        }
      ],
      "stateMutability": "view",
      "type": "function"
    },
    {
      "inputs": [
        {
          "internalType": "uint256",
          "name": "raffleID",
          "type": "uint256"
        },
        {
          "internalType": "address",
          "name": "account",
          "type": "address"
        }
      ],
      "name": "getTotalDonationPerAddressPerCycle",
      "outputs": [
        {
          "internalType": "uint256",
          "name": "",
          "type": "uint256"
        }
      ],
      "stateMutability": "view",
      "type": "function"
    },
    {
      "inputs": [
        {
          "internalType": "uint256",
          "name": "raffleID",
          "type": "uint256"
        }
      ],
      "name": "getTotalDonationsPerCycle",
      "outputs": [
        {
          "internalType": "uint256",
          "name": "",
          "type": "uint256"
        }
      ],
      "stateMutability": "view",
      "type": "function"
    },
    {
      "inputs": [
        {
          "internalType": "bytes32",
          "name": "role",
          "type": "bytes32"
        },
        {
          "internalType": "address",
          "name": "account",
          "type": "address"
        }
      ],
      "name": "grantRole",
      "outputs": [],
      "stateMutability": "nonpayable",
      "type": "function"
    },
    {
      "inputs": [
        {
          "internalType": "bytes32",
          "name": "role",
          "type": "bytes32"
        },
        {
          "internalType": "address",
          "name": "account",
          "type": "address"
        }
      ],
      "name": "hasRole",
      "outputs": [
        {
          "internalType": "bool",
          "name": "",
          "type": "bool"
        }
      ],
      "stateMutability": "view",
      "type": "function"
    },
    {
      "inputs": [],
      "name": "nftAuthorWallet",
      "outputs": [
        {
          "internalType": "address",
          "name": "",
          "type": "address"
        }
      ],
      "stateMutability": "view",
      "type": "function"
    },
    {
      "inputs": [],
      "name": "owner",
      "outputs": [
        {
          "internalType": "address",
          "name": "",
          "type": "address"
        }
      ],
      "stateMutability": "view",
      "type": "function"
    },
    {
      "inputs": [],
      "name": "raffleCount",
      "outputs": [
        {
          "internalType": "uint256",
          "name": "",
          "type": "uint256"
        }
      ],
      "stateMutability": "view",
      "type": "function"
    },
    {
      "inputs": [
        {
          "internalType": "uint256",
          "name": "",
          "type": "uint256"
        }
      ],
      "name": "raffles",
      "outputs": [
        {
          "internalType": "address",
          "name": "nftContract",
          "type": "address"
        },
        {
          "internalType": "address",
          "name": "nftOwner",
          "type": "address"
        },
        {
          "internalType": "uint256",
          "name": "tokenID",
          "type": "uint256"
        },
        {
          "internalType": "uint256",
          "name": "startTime",
          "type": "uint256"
        },
        {
          "internalType": "uint256",
          "name": "endTime",
          "type": "uint256"
        },
        {
          "internalType": "uint256",
          "name": "minimumDonationAmount",
          "type": "uint256"
        }
      ],
      "stateMutability": "view",
      "type": "function"
    },
    {
      "inputs": [],
      "name": "renounceOwnership",
      "outputs": [],
      "stateMutability": "nonpayable",
      "type": "function"
    },
    {
      "inputs": [
        {
          "internalType": "bytes32",
          "name": "role",
          "type": "bytes32"
        },
        {
          "internalType": "address",
          "name": "account",
          "type": "address"
        }
      ],
      "name": "renounceRole",
      "outputs": [],
      "stateMutability": "nonpayable",
      "type": "function"
    },
    {
      "inputs": [
        {
          "internalType": "bytes32",
          "name": "role",
          "type": "bytes32"
        },
        {
          "internalType": "address",
          "name": "account",
          "type": "address"
        }
      ],
      "name": "revokeRole",
      "outputs": [],
      "stateMutability": "nonpayable",
      "type": "function"
    },
    {
      "inputs": [
        {
          "internalType": "uint256",
          "name": "raffleID",
          "type": "uint256"
        }
      ],
      "name": "sendNFTRewards",
      "outputs": [],
      "stateMutability": "nonpayable",
      "type": "function"
    },
    {
      "inputs": [
        {
          "internalType": "address",
          "name": "curator",
          "type": "address"
        }
      ],
      "name": "setCuratorRole",
      "outputs": [],
      "stateMutability": "nonpayable",
      "type": "function"
    },
    {
      "inputs": [
        {
          "internalType": "address",
          "name": "_DAOWallet",
          "type": "address"
        }
      ],
      "name": "setDAOWalletAddress",
      "outputs": [],
      "stateMutability": "nonpayable",
      "type": "function"
    },
    {
      "inputs": [
        {
          "internalType": "address",
          "name": "_nftAuthorWallet",
          "type": "address"
        }
      ],
      "name": "setNftAuthorWalletAddress",
      "outputs": [],
      "stateMutability": "nonpayable",
      "type": "function"
    },
    {
      "inputs": [
        {
          "internalType": "bytes4",
          "name": "interfaceId",
          "type": "bytes4"
        }
      ],
      "name": "supportsInterface",
      "outputs": [
        {
          "internalType": "bool",
          "name": "",
          "type": "bool"
        }
      ],
      "stateMutability": "view",
      "type": "function"
    },
    {
      "inputs": [
        {
          "internalType": "uint256",
          "name": "",
          "type": "uint256"
        },
        {
          "internalType": "address",
          "name": "",
          "type": "address"
        }
      ],
      "name": "totalDonationPerAddressPerCycle",
      "outputs": [
        {
          "internalType": "uint256",
          "name": "",
          "type": "uint256"
        }
      ],
      "stateMutability": "view",
      "type": "function"
    },
    {
      "inputs": [
        {
          "internalType": "address",
          "name": "newOwner",
          "type": "address"
        }
      ],
      "name": "transferOwnership",
      "outputs": [],
      "stateMutability": "nonpayable",
      "type": "function"
    }
  ],
  "bytecode": "0x60806040523480156200001157600080fd5b5060405162001f6e38038062001f6e833981016040819052620000349162000124565b6200003f33620000d4565b6001600255600780546001600160a01b0319166001600160a01b03831690811790915560405163095ea7b360e01b8152306004820152600019602482015263095ea7b3906044016020604051808303816000875af1158015620000a6573d6000803e3d6000fd5b505050506040513d601f19601f82011682018060405250810190620000cc919062000156565b50506200017a565b600080546001600160a01b038381166001600160a01b0319831681178455604051919092169283917f8be0079c531659141344cd1fd0a4f28419497f9722a3daafe3b4186f6b6457e09190a35050565b6000602082840312156200013757600080fd5b81516001600160a01b03811681146200014f57600080fd5b9392505050565b6000602082840312156200016957600080fd5b815180151581146200014f57600080fd5b611de4806200018a6000396000f3fe6080604052600436106101e35760003560e01c806382b02eed11610102578063c1996e7f11610095578063ea36c61711610064578063ea36c617146106a2578063eaf03b40146106da578063f2fde38b14610707578063f8626af81461072757600080fd5b8063c1996e7f146105ff578063d547741f1461061f578063dfdb5ae41461063f578063e83ed8501461065f57600080fd5b806391d14854116100d157806391d1485414610561578063a217fddf146105a7578063a54c120c146105bc578063a8754ef1146105d257600080fd5b806382b02eed146104e357806386d392ba1461050357806389a30271146105235780638da5cb5b1461054357600080fd5b80633f37175d1161017a5780635f99223b116101495780635f99223b146104335780636e33846114610460578063715018a6146104805780637859165f1461049557600080fd5b80633f37175d146103075780634a2cfb54146103275780634c43adea1461035b5780635d4bc0ce1461039e57600080fd5b80632abfab4d116101b65780632abfab4d146102915780632f2ff15d146102a757806336568abe146102c75780633b940eb5146102e757600080fd5b806301ffc9a7146101e857806321a135441461021d578063248a9ca31461023f5780632648bc7e1461027e575b600080fd5b3480156101f457600080fd5b50610208610203366004611986565b61077e565b60405190151581526020015b60405180910390f35b34801561022957600080fd5b5061023d6102383660046119c8565b610817565b005b34801561024b57600080fd5b5061027061025a3660046119c8565b6000908152600160208190526040909120015490565b604051908152602001610214565b61027061028c3660046119f7565b610b0b565b34801561029d57600080fd5b5061027060065481565b3480156102b357600080fd5b5061023d6102c2366004611a7d565b610e07565b3480156102d357600080fd5b5061023d6102e2366004611a7d565b610e33565b3480156102f357600080fd5b5061023d610302366004611aa9565b610ebf565b34801561031357600080fd5b50610270610322366004611ac4565b610f46565b34801561033357600080fd5b506102707f850d585eb7f024ccee5e68e55f2c26cc72e1e6ee456acf62135757a5eb9d4a1081565b34801561036757600080fd5b50610270610376366004611a7d565b6000918252600b602090815260408084206001600160a01b0393909316845291905290205490565b3480156103aa57600080fd5b506103fb6103b93660046119c8565b6008602052600090815260409020805460018201546002830154600384015460048501546005909501546001600160a01b039485169593909416939192909186565b604080516001600160a01b039788168152969095166020870152938501929092526060840152608083015260a082015260c001610214565b34801561043f57600080fd5b5061027061044e3660046119c8565b6000908152600e602052604090205490565b34801561046c57600080fd5b5061023d61047b366004611aa9565b611166565b34801561048c57600080fd5b5061023d61123c565b3480156104a157600080fd5b506104cb6104b03660046119c8565b6000908152600d60205260409020546001600160a01b031690565b6040516001600160a01b039091168152602001610214565b3480156104ef57600080fd5b506004546104cb906001600160a01b031681565b34801561050f57600080fd5b506104cb61051e366004611b58565b6112a2565b34801561052f57600080fd5b506007546104cb906001600160a01b031681565b34801561054f57600080fd5b506000546001600160a01b03166104cb565b34801561056d57600080fd5b5061020861057c366004611a7d565b60009182526001602090815260408084206001600160a01b0393909316845291905290205460ff1690565b3480156105b357600080fd5b50610270600081565b3480156105c857600080fd5b5061027060055481565b3480156105de57600080fd5b506105f26105ed3660046119c8565b6112da565b6040516102149190611b7a565b34801561060b57600080fd5b5061023d61061a366004611aa9565b611346565b34801561062b57600080fd5b5061023d61063a366004611a7d565b611415565b34801561064b57600080fd5b506003546104cb906001600160a01b031681565b34801561066b57600080fd5b5061027061067a366004611bc7565b6001600160a01b03919091166000908152600f60209081526040808320938352929052205490565b3480156106ae57600080fd5b506102706106bd366004611a7d565b600b60209081526000928352604080842090915290825290205481565b3480156106e657600080fd5b506102706106f53660046119c8565b6000908152600a602052604090205490565b34801561071357600080fd5b5061023d610722366004611aa9565b61143c565b34801561073357600080fd5b506107636107423660046119c8565b60096020526000908152604090208054600182015460029092015490919083565b60408051938452602084019290925290820152606001610214565b60007fffffffff0000000000000000000000000000000000000000000000000000000082167f7965db0b00000000000000000000000000000000000000000000000000000000148061081157507f01ffc9a7000000000000000000000000000000000000000000000000000000007fffffffff000000000000000000000000000000000000000000000000000000008316145b92915050565b6000546001600160a01b031633146108765760405162461bcd60e51b815260206004820181905260248201527f4f776e61626c653a2063616c6c6572206973206e6f7420746865206f776e657260448201526064015b60405180910390fd5b6000818152600860205260409020600401544210156108c1576040517fcdf268ad00000000000000000000000000000000000000000000000000000000815260040160405180910390fd5b60006108cc8261151b565b6000838152600d6020526040812054919250906001600160a01b031660008481526008602052604080822080546002909101549151637921219560e11b81523060048201526001600160a01b038086166024830152604482018490526001606483015260a0608483015260a48201949094529394509190911691829063f242432a9060c401600060405180830381600087803b15801561096b57600080fd5b505af115801561097f573d6000803e3d6000fd5b5050604051637921219560e11b81523060048201526001600160a01b038781166024830152604482018590526001606483015260a06084830152600060a48301528516925063f242432a915060c401600060405180830381600087803b1580156109e857600080fd5b505af11580156109fc573d6000803e3d6000fd5b5050600354604051637921219560e11b81523060048201526001600160a01b039182166024820152604481018590526001606482015260a06084820152600060a4820152908516925063f242432a915060c401600060405180830381600087803b158015610a6957600080fd5b505af1158015610a7d573d6000803e3d6000fd5b505060048054604051637921219560e11b815230928101929092526001600160a01b039081166024830152604482018590526001606483015260a06084830152600060a48301528516925063f242432a915060c401600060405180830381600087803b158015610aec57600080fd5b505af1158015610b00573d6000803e3d6000fd5b505050505050505050565b6000600280541415610b5f5760405162461bcd60e51b815260206004820152601f60248201527f5265656e7472616e637947756172643a207265656e7472616e742063616c6c00604482015260640161086d565b600280558151600081815260086020526040902060040154421115610bb0576040517fd328a25200000000000000000000000000000000000000000000000000000000815260040160405180910390fd5b6000818152600860209081526040909120600501549084015111610c00576040517f7957a08500000000000000000000000000000000000000000000000000000000815260040160405180910390fd5b60068054906000610c1083611c07565b90915550506006546000908152600960209081526040808320865181558287015160018201819055828801805160029093019290925542909152848452600b83528184203385529092528220805491929091610c6d908490611c22565b90915550506020808401516000838152600a90925260408220805491929091610c97908490611c22565b90915550506000818152600c6020908152604080832080546001810182559084528284200180546001600160a01b03191633908117909155848452600b8352818420908452825280832054848452600e90925290912054808210610d14576000838152600d6020526040902080546001600160a01b031916331790555b60075460035460208701516040517f23b872dd0000000000000000000000000000000000000000000000000000000081523360048201526001600160a01b03928316602482015260448101919091529116906323b872dd906064016020604051808303816000875af1158015610d8e573d6000803e3d6000fd5b505050506040513d601f19601f82011682018060405250810190610db29190611c3a565b50602080860151604080513381529283018690528201527fdd5f9bf5cf036a4da6a1035c7f29f422c275d1e6f6b9e2a552e3e54228b390a59060600160405180910390a1505060065460016002559392505050565b60008281526001602081905260409091200154610e2481336115c4565b610e2e8383611644565b505050565b6001600160a01b0381163314610eb15760405162461bcd60e51b815260206004820152602f60248201527f416363657373436f6e74726f6c3a2063616e206f6e6c792072656e6f756e636560448201527f20726f6c657320666f722073656c660000000000000000000000000000000000606482015260840161086d565b610ebb82826116cb565b5050565b6000546001600160a01b03163314610f195760405162461bcd60e51b815260206004820181905260248201527f4f776e61626c653a2063616c6c6572206973206e6f7420746865206f776e6572604482015260640161086d565b610f437f850d585eb7f024ccee5e68e55f2c26cc72e1e6ee456acf62135757a5eb9d4a1082611644565b50565b60007f850d585eb7f024ccee5e68e55f2c26cc72e1e6ee456acf62135757a5eb9d4a10610f7381336115c4565b8251608084015160608501511115610fb7576040517fd22dcab600000000000000000000000000000000000000000000000000000000815260040160405180910390fd5b60058054906000610fc783611c07565b909155505060058054600090815260086020908152604091829020875181546001600160a01b039182166001600160a01b0319918216178355898401516001840180549190931691161790558783015160028201556060808901516003830181905560808a01516004840181905560a08b015193909601839055845190815292830194909452918101919091527f9aa2065fb625f0039ef34f9a9cb1fe8e45055c5aa4d830c016505ee55a598a84910160405180910390a160208401516040808601519051637921219560e11b81526001600160a01b039283166004808301919091523060248301526044820192909252606481019190915260a06084820152600060a48201529082169063f242432a9060c401600060405180830381600087803b1580156110f557600080fd5b505af1158015611109573d6000803e3d6000fd5b505050606080860151608087015160a0880151604080519384526020840192909252908201527f9aa2065fb625f0039ef34f9a9cb1fe8e45055c5aa4d830c016505ee55a598a8492500160405180910390a1505060055492915050565b6000546001600160a01b031633146111c05760405162461bcd60e51b815260206004820181905260248201527f4f776e61626c653a2063616c6c6572206973206e6f7420746865206f776e6572604482015260640161086d565b6001600160a01b0381166111e7576040516342bcdf7f60e11b815260040160405180910390fd5b600380546001600160a01b0319166001600160a01b0383169081179091556040519081527f99e7e8f551bb4a95839337c445d25c103e8b923f563ec440667dd5c1bb5fa329906020015b60405180910390a150565b6000546001600160a01b031633146112965760405162461bcd60e51b815260206004820181905260248201527f4f776e61626c653a2063616c6c6572206973206e6f7420746865206f776e6572604482015260640161086d565b6112a0600061174e565b565b600c60205281600052604060002081815481106112be57600080fd5b6000918252602090912001546001600160a01b03169150829050565b6000818152600c602090815260409182902080548351818402810184019094528084526060939283018282801561133a57602002820191906000526020600020905b81546001600160a01b0316815260019091019060200180831161131c575b50505050509050919050565b6000546001600160a01b031633146113a05760405162461bcd60e51b815260206004820181905260248201527f4f776e61626c653a2063616c6c6572206973206e6f7420746865206f776e6572604482015260640161086d565b6001600160a01b0381166113c7576040516342bcdf7f60e11b815260040160405180910390fd5b600480546001600160a01b0319166001600160a01b0383169081179091556040519081527fa099340b9009966c80f2d51f8425c15ffe5713a8c732f3d9e3b0d213ad03e35b90602001611231565b6000828152600160208190526040909120015461143281336115c4565b610e2e83836116cb565b6000546001600160a01b031633146114965760405162461bcd60e51b815260206004820181905260248201527f4f776e61626c653a2063616c6c6572206973206e6f7420746865206f776e6572604482015260640161086d565b6001600160a01b0381166115125760405162461bcd60e51b815260206004820152602660248201527f4f776e61626c653a206e6577206f776e657220697320746865207a65726f206160448201527f6464726573730000000000000000000000000000000000000000000000000000606482015260840161086d565b610f438161174e565b6000818152600c6020908152604080832054905190918391839161155e91429133910191825260601b6bffffffffffffffffffffffff1916602082015260340190565b6040516020818303038152906040528051906020012060001c6115819190611c5c565b6000858152600c6020526040812080549293509091839081106115a6576115a6611c7e565b6000918252602090912001546001600160a01b031695945050505050565b60008281526001602090815260408083206001600160a01b038516845290915290205460ff16610ebb57611602816001600160a01b0316601461179e565b61160d83602061179e565b60405160200161161e929190611cc4565b60408051601f198184030181529082905262461bcd60e51b825261086d91600401611d45565b60008281526001602090815260408083206001600160a01b038516845290915290205460ff16610ebb5760008281526001602081815260408084206001600160a01b0386168086529252808420805460ff19169093179092559051339285917f2f8788117e7eff1d82e926ec794901d17c78024a50270940304540a733656f0d9190a45050565b60008281526001602090815260408083206001600160a01b038516845290915290205460ff1615610ebb5760008281526001602090815260408083206001600160a01b0385168085529252808320805460ff1916905551339285917ff6391f5c32d9c69d2a47ea670b442974b53935d1edc7fd64eb21e047a839171b9190a45050565b600080546001600160a01b038381166001600160a01b0319831681178455604051919092169283917f8be0079c531659141344cd1fd0a4f28419497f9722a3daafe3b4186f6b6457e09190a35050565b606060006117ad836002611d78565b6117b8906002611c22565b67ffffffffffffffff8111156117d0576117d06119e1565b6040519080825280601f01601f1916602001820160405280156117fa576020820181803683370190505b5090507f30000000000000000000000000000000000000000000000000000000000000008160008151811061183157611831611c7e565b60200101906001600160f81b031916908160001a9053507f78000000000000000000000000000000000000000000000000000000000000008160018151811061187c5761187c611c7e565b60200101906001600160f81b031916908160001a90535060006118a0846002611d78565b6118ab906001611c22565b90505b6001811115611930577f303132333435363738396162636465660000000000000000000000000000000085600f16601081106118ec576118ec611c7e565b1a60f81b82828151811061190257611902611c7e565b60200101906001600160f81b031916908160001a90535060049490941c9361192981611d97565b90506118ae565b50831561197f5760405162461bcd60e51b815260206004820181905260248201527f537472696e67733a20686578206c656e67746820696e73756666696369656e74604482015260640161086d565b9392505050565b60006020828403121561199857600080fd5b81357fffffffff000000000000000000000000000000000000000000000000000000008116811461197f57600080fd5b6000602082840312156119da57600080fd5b5035919050565b634e487b7160e01b600052604160045260246000fd5b600060608284031215611a0957600080fd5b6040516060810181811067ffffffffffffffff82111715611a3a57634e487b7160e01b600052604160045260246000fd5b80604052508235815260208301356020820152604083013560408201528091505092915050565b80356001600160a01b0381168114611a7857600080fd5b919050565b60008060408385031215611a9057600080fd5b82359150611aa060208401611a61565b90509250929050565b600060208284031215611abb57600080fd5b61197f82611a61565b600060c08284031215611ad657600080fd5b60405160c0810181811067ffffffffffffffff82111715611b0757634e487b7160e01b600052604160045260246000fd5b604052611b1383611a61565b8152611b2160208401611a61565b602082015260408301356040820152606083013560608201526080830135608082015260a083013560a08201528091505092915050565b60008060408385031215611b6b57600080fd5b50508035926020909101359150565b6020808252825182820181905260009190848201906040850190845b81811015611bbb5783516001600160a01b031683529284019291840191600101611b96565b50909695505050505050565b60008060408385031215611bda57600080fd5b611be383611a61565b946020939093013593505050565b634e487b7160e01b600052601160045260246000fd5b6000600019821415611c1b57611c1b611bf1565b5060010190565b60008219821115611c3557611c35611bf1565b500190565b600060208284031215611c4c57600080fd5b8151801515811461197f57600080fd5b600082611c7957634e487b7160e01b600052601260045260246000fd5b500690565b634e487b7160e01b600052603260045260246000fd5b60005b83811015611caf578181015183820152602001611c97565b83811115611cbe576000848401525b50505050565b7f416363657373436f6e74726f6c3a206163636f756e7420000000000000000000815260008351611cfc816017850160208801611c94565b7f206973206d697373696e6720726f6c65200000000000000000000000000000006017918401918201528351611d39816028840160208801611c94565b01602801949350505050565b6020815260008251806020840152611d64816040850160208701611c94565b601f01601f19169190910160400192915050565b6000816000190483118215151615611d9257611d92611bf1565b500290565b600081611da657611da6611bf1565b50600019019056fea2646970667358221220f35281c869ef3df2347fc6003bf0ff31cb7cf7fb8d4ba2e5aed7a7d46d9bf99564736f6c634300080b0033",
  "linkReferences": {},
  "deployedLinkReferences": {}
}