{
  "_format": "hh-sol-artifact-1",
  "contractName": "Raffle",
  "sourceName": "contracts/Raffle.sol",
  "abi": [
    {
      "inputs": [
        {
          "internalType": "address",
          "name": "_usdc",
          "type": "address"
        },
        {
          "internalType": "address",
          "name": "_forwarder",
          "type": "address"
        },
        {
          "internalType": "address",
          "name": "_rewardTokenAddress",
          "type": "address"
        }
      ],
      "stateMutability": "nonpayable",
      "type": "constructor"
    },
    {
      "inputs": [],
      "name": "DonationTooLow",
      "type": "error"
    },
    {
      "inputs": [],
      "name": "IncorrectTimesGiven",
      "type": "error"
    },
    {
      "inputs": [],
      "name": "InsufficientAmount",
      "type": "error"
    },
    {
      "inputs": [],
      "name": "RaffleHasEnded",
      "type": "error"
    },
    {
      "inputs": [],
      "name": "RaffleHasNotEnded",
      "type": "error"
    },
    {
      "inputs": [],
      "name": "ZeroAddressNotAllowed",
      "type": "error"
    },
    {
      "anonymous": false,
      "inputs": [
        {
          "indexed": false,
          "internalType": "address",
          "name": "walletAddress",
          "type": "address"
        }
      ],
      "name": "DAOWalletAddressSet",
      "type": "event"
    },
    {
      "anonymous": false,
      "inputs": [
        {
          "indexed": false,
          "internalType": "address",
          "name": "from",
          "type": "address"
        },
        {
          "indexed": false,
          "internalType": "uint256",
          "name": "raffleId",
          "type": "uint256"
        },
        {
          "indexed": false,
          "internalType": "uint256",
          "name": "amount",
          "type": "uint256"
        }
      ],
      "name": "DonationPlaced",
      "type": "event"
    },
    {
      "anonymous": false,
      "inputs": [
        {
          "indexed": false,
          "internalType": "uint256",
          "name": "raffleID",
          "type": "uint256"
        },
        {
          "indexed": false,
          "internalType": "address",
          "name": "winner",
          "type": "address"
        }
      ],
      "name": "NFTsentToWinner",
      "type": "event"
    },
    {
      "anonymous": false,
      "inputs": [
        {
          "indexed": true,
          "internalType": "address",
          "name": "previousOwner",
          "type": "address"
        },
        {
          "indexed": true,
          "internalType": "address",
          "name": "newOwner",
          "type": "address"
        }
      ],
      "name": "OwnershipTransferred",
      "type": "event"
    },
    {
      "anonymous": false,
      "inputs": [
        {
          "indexed": false,
          "internalType": "address",
          "name": "nftOwner",
          "type": "address"
        },
        {
          "indexed": false,
          "internalType": "uint256",
          "name": "tokenID",
          "type": "uint256"
        },
        {
          "indexed": false,
          "internalType": "uint256",
          "name": "startTime",
          "type": "uint256"
        },
        {
          "indexed": false,
          "internalType": "uint256",
          "name": "endTime",
          "type": "uint256"
        },
        {
          "indexed": false,
          "internalType": "uint256",
          "name": "minimumDonationAmount",
          "type": "uint256"
        }
      ],
      "name": "RaffleCreated",
      "type": "event"
    },
    {
      "anonymous": false,
      "inputs": [
        {
          "indexed": false,
          "internalType": "uint256",
          "name": "amount",
          "type": "uint256"
        }
      ],
      "name": "RewardTokenBalanceToppedUp",
      "type": "event"
    },
    {
      "anonymous": false,
      "inputs": [
        {
          "indexed": true,
          "internalType": "bytes32",
          "name": "role",
          "type": "bytes32"
        },
        {
          "indexed": true,
          "internalType": "bytes32",
          "name": "previousAdminRole",
          "type": "bytes32"
        },
        {
          "indexed": true,
          "internalType": "bytes32",
          "name": "newAdminRole",
          "type": "bytes32"
        }
      ],
      "name": "RoleAdminChanged",
      "type": "event"
    },
    {
      "anonymous": false,
      "inputs": [
        {
          "indexed": true,
          "internalType": "bytes32",
          "name": "role",
          "type": "bytes32"
        },
        {
          "indexed": true,
          "internalType": "address",
          "name": "account",
          "type": "address"
        },
        {
          "indexed": true,
          "internalType": "address",
          "name": "sender",
          "type": "address"
        }
      ],
      "name": "RoleGranted",
      "type": "event"
    },
    {
      "anonymous": false,
      "inputs": [
        {
          "indexed": true,
          "internalType": "bytes32",
          "name": "role",
          "type": "bytes32"
        },
        {
          "indexed": true,
          "internalType": "address",
          "name": "account",
          "type": "address"
        },
        {
          "indexed": true,
          "internalType": "address",
          "name": "sender",
          "type": "address"
        }
      ],
      "name": "RoleRevoked",
      "type": "event"
    },
    {
      "anonymous": false,
      "inputs": [
        {
          "indexed": false,
          "internalType": "address",
          "name": "nftAuthorWallet",
          "type": "address"
        }
      ],
      "name": "nftAuthorWalletAddressSet",
      "type": "event"
    },
    {
      "anonymous": false,
      "inputs": [
        {
          "indexed": false,
          "internalType": "address",
          "name": "account",
          "type": "address"
        },
        {
          "indexed": false,
          "internalType": "uint256",
          "name": "amount",
          "type": "uint256"
        }
      ],
      "name": "tokensWithdrawnFromContract",
      "type": "event"
    },
    {
      "inputs": [],
      "name": "ADMIN_ROLE",
      "outputs": [
        {
          "internalType": "bytes32",
          "name": "",
          "type": "bytes32"
        }
      ],
      "stateMutability": "view",
      "type": "function"
    },
    {
      "inputs": [],
      "name": "CURATOR_ROLE",
      "outputs": [
        {
          "internalType": "bytes32",
          "name": "",
          "type": "bytes32"
        }
      ],
      "stateMutability": "view",
      "type": "function"
    },
    {
      "inputs": [],
      "name": "DAOWallet",
      "outputs": [
        {
          "internalType": "address",
          "name": "",
          "type": "address"
        }
      ],
      "stateMutability": "view",
      "type": "function"
    },
    {
      "inputs": [],
      "name": "DEFAULT_ADMIN_ROLE",
      "outputs": [
        {
          "internalType": "bytes32",
          "name": "",
          "type": "bytes32"
        }
      ],
      "stateMutability": "view",
      "type": "function"
    },
    {
      "inputs": [],
      "name": "REWARD_TOKEN",
      "outputs": [
        {
          "internalType": "contract IERC20",
          "name": "",
          "type": "address"
        }
      ],
      "stateMutability": "view",
      "type": "function"
    },
    {
      "inputs": [],
      "name": "USDC",
      "outputs": [
        {
          "internalType": "contract IERC20",
          "name": "",
          "type": "address"
        }
      ],
      "stateMutability": "view",
      "type": "function"
    },
    {
      "inputs": [
        {
          "components": [
            {
              "internalType": "address",
              "name": "nftContract",
              "type": "address"
            },
            {
              "internalType": "address",
              "name": "nftOwner",
              "type": "address"
            },
            {
              "internalType": "uint256",
              "name": "tokenID",
              "type": "uint256"
            },
            {
              "internalType": "uint256",
              "name": "startTime",
              "type": "uint256"
            },
            {
              "internalType": "uint256",
              "name": "endTime",
              "type": "uint256"
            },
            {
              "internalType": "uint256",
              "name": "minimumDonationAmount",
              "type": "uint256"
            },
            {
              "internalType": "address",
              "name": "topDonor",
              "type": "address"
            },
            {
              "internalType": "uint256",
              "name": "topDonatedAmount",
              "type": "uint256"
            }
          ],
          "internalType": "struct Raffle.Raffle",
          "name": "_raffle",
          "type": "tuple"
        }
      ],
      "name": "createRaffle",
      "outputs": [
        {
          "internalType": "uint256",
          "name": "",
          "type": "uint256"
        }
      ],
      "stateMutability": "nonpayable",
      "type": "function"
    },
    {
      "inputs": [
        {
          "components": [
            {
              "internalType": "address",
              "name": "donor",
              "type": "address"
            },
            {
              "internalType": "uint256",
              "name": "raffleID",
              "type": "uint256"
            },
            {
              "internalType": "uint256",
              "name": "amount",
              "type": "uint256"
            },
            {
              "internalType": "uint256",
              "name": "timestamp",
              "type": "uint256"
            }
          ],
          "internalType": "struct Raffle.Donation",
          "name": "_donation",
          "type": "tuple"
        }
      ],
      "name": "donate",
      "outputs": [
        {
          "internalType": "uint256",
          "name": "",
          "type": "uint256"
        }
      ],
      "stateMutability": "payable",
      "type": "function"
    },
    {
      "inputs": [],
      "name": "donationCount",
      "outputs": [
        {
          "internalType": "uint256",
          "name": "",
          "type": "uint256"
        }
      ],
      "stateMutability": "view",
      "type": "function"
    },
    {
      "inputs": [
        {
          "internalType": "uint256",
          "name": "",
          "type": "uint256"
        }
      ],
      "name": "donations",
      "outputs": [
        {
          "internalType": "address",
          "name": "donor",
          "type": "address"
        },
        {
          "internalType": "uint256",
          "name": "raffleID",
          "type": "uint256"
        },
        {
          "internalType": "uint256",
          "name": "amount",
          "type": "uint256"
        },
        {
          "internalType": "uint256",
          "name": "timestamp",
          "type": "uint256"
        }
      ],
      "stateMutability": "view",
      "type": "function"
    },
    {
      "inputs": [
        {
          "internalType": "uint256",
          "name": "",
          "type": "uint256"
        },
        {
          "internalType": "uint256",
          "name": "",
          "type": "uint256"
        }
      ],
      "name": "donorsArrayPerCycle",
      "outputs": [
        {
          "internalType": "address",
          "name": "",
          "type": "address"
        }
      ],
      "stateMutability": "view",
      "type": "function"
    },
    {
      "inputs": [
        {
          "internalType": "uint256",
          "name": "donationID",
          "type": "uint256"
        }
      ],
      "name": "getDonation",
      "outputs": [
        {
          "components": [
            {
              "internalType": "address",
              "name": "donor",
              "type": "address"
            },
            {
              "internalType": "uint256",
              "name": "raffleID",
              "type": "uint256"
            },
            {
              "internalType": "uint256",
              "name": "amount",
              "type": "uint256"
            },
            {
              "internalType": "uint256",
              "name": "timestamp",
              "type": "uint256"
            }
          ],
          "internalType": "struct Raffle.Donation",
          "name": "",
          "type": "tuple"
        }
      ],
      "stateMutability": "view",
      "type": "function"
    },
    {
      "inputs": [
        {
          "internalType": "uint256",
          "name": "raffleID",
          "type": "uint256"
        }
      ],
      "name": "getDonorsPerCycle",
      "outputs": [
        {
          "internalType": "address[]",
          "name": "",
          "type": "address[]"
        }
      ],
      "stateMutability": "view",
      "type": "function"
    },
    {
      "inputs": [
        {
          "internalType": "uint256",
          "name": "raffleID",
          "type": "uint256"
        }
      ],
      "name": "getHighestDonationPerCycle",
      "outputs": [
        {
          "internalType": "uint256",
          "name": "",
          "type": "uint256"
        }
      ],
      "stateMutability": "view",
      "type": "function"
    },
    {
      "inputs": [
        {
          "internalType": "uint256",
          "name": "raffleID",
          "type": "uint256"
        }
      ],
      "name": "getRaffle",
      "outputs": [
        {
          "components": [
            {
              "internalType": "address",
              "name": "nftContract",
              "type": "address"
            },
            {
              "internalType": "address",
              "name": "nftOwner",
              "type": "address"
            },
            {
              "internalType": "uint256",
              "name": "tokenID",
              "type": "uint256"
            },
            {
              "internalType": "uint256",
              "name": "startTime",
              "type": "uint256"
            },
            {
              "internalType": "uint256",
              "name": "endTime",
              "type": "uint256"
            },
            {
              "internalType": "uint256",
              "name": "minimumDonationAmount",
              "type": "uint256"
            },
            {
              "internalType": "address",
              "name": "topDonor",
              "type": "address"
            },
            {
              "internalType": "uint256",
              "name": "topDonatedAmount",
              "type": "uint256"
            }
          ],
          "internalType": "struct Raffle.Raffle",
          "name": "",
          "type": "tuple"
        }
      ],
      "stateMutability": "view",
      "type": "function"
    },
    {
      "inputs": [
        {
          "internalType": "bytes32",
          "name": "role",
          "type": "bytes32"
        }
      ],
      "name": "getRoleAdmin",
      "outputs": [
        {
          "internalType": "bytes32",
          "name": "",
          "type": "bytes32"
        }
      ],
      "stateMutability": "view",
      "type": "function"
    },
    {
      "inputs": [
        {
          "internalType": "uint256",
          "name": "raffleID",
          "type": "uint256"
        }
      ],
      "name": "getTopDonor",
      "outputs": [
        {
          "internalType": "address",
          "name": "",
          "type": "address"
        }
      ],
      "stateMutability": "view",
      "type": "function"
    },
    {
      "inputs": [
        {
          "internalType": "uint256",
          "name": "raffleID",
          "type": "uint256"
        },
        {
          "internalType": "address",
          "name": "account",
          "type": "address"
        }
      ],
      "name": "getTotalDonationPerAddressPerCycle",
      "outputs": [
        {
          "internalType": "uint256",
          "name": "",
          "type": "uint256"
        }
      ],
      "stateMutability": "view",
      "type": "function"
    },
    {
      "inputs": [
        {
          "internalType": "uint256",
          "name": "raffleID",
          "type": "uint256"
        }
      ],
      "name": "getTotalDonationsPerCycle",
      "outputs": [
        {
          "internalType": "uint256",
          "name": "",
          "type": "uint256"
        }
      ],
      "stateMutability": "view",
      "type": "function"
    },
    {
      "inputs": [
        {
          "internalType": "bytes32",
          "name": "role",
          "type": "bytes32"
        },
        {
          "internalType": "address",
          "name": "account",
          "type": "address"
        }
      ],
      "name": "grantRole",
      "outputs": [],
      "stateMutability": "nonpayable",
      "type": "function"
    },
    {
      "inputs": [
        {
          "internalType": "bytes32",
          "name": "role",
          "type": "bytes32"
        },
        {
          "internalType": "address",
          "name": "account",
          "type": "address"
        }
      ],
      "name": "hasRole",
      "outputs": [
        {
          "internalType": "bool",
          "name": "",
          "type": "bool"
        }
      ],
      "stateMutability": "view",
      "type": "function"
    },
    {
      "inputs": [
        {
          "internalType": "address",
          "name": "forwarder",
          "type": "address"
        }
      ],
      "name": "isTrustedForwarder",
      "outputs": [
        {
          "internalType": "bool",
          "name": "",
          "type": "bool"
        }
      ],
      "stateMutability": "view",
      "type": "function"
    },
    {
      "inputs": [],
      "name": "nftAuthorWallet",
      "outputs": [
        {
          "internalType": "address",
          "name": "",
          "type": "address"
        }
      ],
      "stateMutability": "view",
      "type": "function"
    },
    {
      "inputs": [
        {
          "internalType": "address",
          "name": "operator",
          "type": "address"
        },
        {
          "internalType": "address",
          "name": "from",
          "type": "address"
        },
        {
          "internalType": "uint256",
          "name": "id",
          "type": "uint256"
        },
        {
          "internalType": "uint256",
          "name": "value",
          "type": "uint256"
        },
        {
          "internalType": "bytes",
          "name": "data",
          "type": "bytes"
        }
      ],
      "name": "onERC1155Received",
      "outputs": [
        {
          "internalType": "bytes4",
          "name": "",
          "type": "bytes4"
        }
      ],
      "stateMutability": "pure",
      "type": "function"
    },
    {
      "inputs": [],
      "name": "owner",
      "outputs": [
        {
          "internalType": "address",
          "name": "",
          "type": "address"
        }
      ],
      "stateMutability": "view",
      "type": "function"
    },
    {
      "inputs": [],
      "name": "raffleCount",
      "outputs": [
        {
          "internalType": "uint256",
          "name": "",
          "type": "uint256"
        }
      ],
      "stateMutability": "view",
      "type": "function"
    },
    {
      "inputs": [
        {
          "internalType": "uint256",
          "name": "",
          "type": "uint256"
        }
      ],
      "name": "raffles",
      "outputs": [
        {
          "internalType": "address",
          "name": "nftContract",
          "type": "address"
        },
        {
          "internalType": "address",
          "name": "nftOwner",
          "type": "address"
        },
        {
          "internalType": "uint256",
          "name": "tokenID",
          "type": "uint256"
        },
        {
          "internalType": "uint256",
          "name": "startTime",
          "type": "uint256"
        },
        {
          "internalType": "uint256",
          "name": "endTime",
          "type": "uint256"
        },
        {
          "internalType": "uint256",
          "name": "minimumDonationAmount",
          "type": "uint256"
        },
        {
          "internalType": "address",
          "name": "topDonor",
          "type": "address"
        },
        {
          "internalType": "uint256",
          "name": "topDonatedAmount",
          "type": "uint256"
        }
      ],
      "stateMutability": "view",
      "type": "function"
    },
    {
      "inputs": [],
      "name": "renounceOwnership",
      "outputs": [],
      "stateMutability": "nonpayable",
      "type": "function"
    },
    {
      "inputs": [
        {
          "internalType": "bytes32",
          "name": "role",
          "type": "bytes32"
        },
        {
          "internalType": "address",
          "name": "account",
          "type": "address"
        }
      ],
      "name": "renounceRole",
      "outputs": [],
      "stateMutability": "nonpayable",
      "type": "function"
    },
    {
      "inputs": [
        {
          "internalType": "address",
          "name": "curator",
          "type": "address"
        }
      ],
      "name": "revokeCuratorRole",
      "outputs": [],
      "stateMutability": "nonpayable",
      "type": "function"
    },
    {
      "inputs": [
        {
          "internalType": "bytes32",
          "name": "role",
          "type": "bytes32"
        },
        {
          "internalType": "address",
          "name": "account",
          "type": "address"
        }
      ],
      "name": "revokeRole",
      "outputs": [],
      "stateMutability": "nonpayable",
      "type": "function"
    },
    {
      "inputs": [
        {
          "internalType": "uint256",
          "name": "raffleID",
          "type": "uint256"
        }
      ],
      "name": "sendNFTRewards",
      "outputs": [],
      "stateMutability": "nonpayable",
      "type": "function"
    },
    {
      "inputs": [
        {
          "internalType": "address",
          "name": "curator",
          "type": "address"
        }
      ],
      "name": "setCuratorRole",
      "outputs": [],
      "stateMutability": "nonpayable",
      "type": "function"
    },
    {
      "inputs": [
        {
          "internalType": "address",
          "name": "_DAOWallet",
          "type": "address"
        }
      ],
      "name": "setDAOWalletAddress",
      "outputs": [],
      "stateMutability": "nonpayable",
      "type": "function"
    },
    {
      "inputs": [
        {
          "internalType": "address",
          "name": "_nftAuthorWallet",
          "type": "address"
        }
      ],
      "name": "setNftAuthorWalletAddress",
      "outputs": [],
      "stateMutability": "nonpayable",
      "type": "function"
    },
    {
      "inputs": [
        {
          "internalType": "address",
          "name": "_forwarder",
          "type": "address"
        }
      ],
      "name": "setTrustedForwarder",
      "outputs": [],
      "stateMutability": "nonpayable",
      "type": "function"
    },
    {
      "inputs": [
        {
          "internalType": "bytes4",
          "name": "interfaceId",
          "type": "bytes4"
        }
      ],
      "name": "supportsInterface",
      "outputs": [
        {
          "internalType": "bool",
          "name": "",
          "type": "bool"
        }
      ],
      "stateMutability": "view",
      "type": "function"
    },
    {
      "inputs": [
        {
          "internalType": "uint256",
          "name": "amount",
          "type": "uint256"
        }
      ],
      "name": "topUpRewardTokenBalance",
      "outputs": [],
      "stateMutability": "nonpayable",
      "type": "function"
    },
    {
      "inputs": [
        {
          "internalType": "uint256",
          "name": "",
          "type": "uint256"
        },
        {
          "internalType": "address",
          "name": "",
          "type": "address"
        }
      ],
      "name": "totalDonationPerAddressPerCycle",
      "outputs": [
        {
          "internalType": "uint256",
          "name": "",
          "type": "uint256"
        }
      ],
      "stateMutability": "view",
      "type": "function"
    },
    {
      "inputs": [
        {
          "internalType": "address",
          "name": "newOwner",
          "type": "address"
        }
      ],
      "name": "transferOwnership",
      "outputs": [],
      "stateMutability": "nonpayable",
      "type": "function"
    },
    {
      "inputs": [],
      "name": "trustedForwarder",
      "outputs": [
        {
          "internalType": "address",
          "name": "",
          "type": "address"
        }
      ],
      "stateMutability": "view",
      "type": "function"
    },
    {
      "inputs": [],
      "name": "versionRecipient",
      "outputs": [
        {
          "internalType": "string",
          "name": "",
          "type": "string"
        }
      ],
      "stateMutability": "view",
      "type": "function"
    },
    {
      "inputs": [
        {
          "internalType": "address",
          "name": "account",
          "type": "address"
        },
        {
          "internalType": "uint256",
          "name": "amount",
          "type": "uint256"
        }
      ],
      "name": "withdraw",
      "outputs": [],
      "stateMutability": "nonpayable",
      "type": "function"
    }
  ],
  "bytecode": "0x60c06040526005608081905264191719171b60d91b60a09081526200002891600b9190620002ac565b503480156200003657600080fd5b5060405162002f4c38038062002f4c83398101604081905262000059916200036f565b6200006d6200006762000115565b62000131565b6001600255600380546001600160a01b038481166001600160a01b03199283161790925560088054821686841617905560098054909116918316919091179055620000e87f850d585eb7f024ccee5e68e55f2c26cc72e1e6ee456acf62135757a5eb9d4a1060008051602062002f2c83398151915262000181565b6200010c60008051602062002f2c8339815191526200010662000115565b620001ce565b505050620003f6565b60006200012c6200027660201b620020b21760201c565b905090565b600080546001600160a01b038381166001600160a01b0319831681178455604051919092169283917f8be0079c531659141344cd1fd0a4f28419497f9722a3daafe3b4186f6b6457e09190a35050565b6000828152600160208190526040808320909101805490849055905190918391839186917fbd79b86ffe0ab8e8776151514217cd7cacd52c909f66475c3af44e129f0b00ff9190a4505050565b60008281526001602090815260408083206001600160a01b038516845290915290205460ff16620002725760008281526001602081815260408084206001600160a01b0386168552909152909120805460ff191690911790556200023162000115565b6001600160a01b0316816001600160a01b0316837f2f8788117e7eff1d82e926ec794901d17c78024a50270940304540a733656f0d60405160405180910390a45b5050565b6000601436108015906200029457506003546001600160a01b031633145b15620002a7575060131936013560601c90565b503390565b828054620002ba90620003b9565b90600052602060002090601f016020900481019282620002de576000855562000329565b82601f10620002f957805160ff191683800117855562000329565b8280016001018555821562000329579182015b82811115620003295782518255916020019190600101906200030c565b50620003379291506200033b565b5090565b5b808211156200033757600081556001016200033c565b80516001600160a01b03811681146200036a57600080fd5b919050565b6000806000606084860312156200038557600080fd5b620003908462000352565b9250620003a06020850162000352565b9150620003b06040850162000352565b90509250925092565b600181811c90821680620003ce57607f821691505b60208210811415620003f057634e487b7160e01b600052602260045260246000fd5b50919050565b612b2680620004066000396000f3fe6080604052600436106102dc5760003560e01c806389a3027111610184578063d547741f116100d6578063eaf03b401161008a578063f2fde38b11610064578063f2fde38b14610a50578063f3fef3a314610a70578063f8626af814610a9057600080fd5b8063eaf03b4014610969578063ef07a81f14610996578063f23a6e61146109f257600080fd5b8063dfdb5ae4116100bb578063dfdb5ae414610881578063e4dafec9146108a1578063ea36c6171461093157600080fd5b8063d547741f14610841578063da7422281461086157600080fd5b8063a54c120c11610138578063ba0e17cc11610112578063ba0e17cc146107e1578063be91e39414610801578063c1996e7f1461082157600080fd5b8063a54c120c1461078b578063a86bc714146107a1578063a8754ef1146107b457600080fd5b806391d148541161016957806391d148541461071057806399248ea714610756578063a217fddf1461077657600080fd5b806389a30271146106d25780638da5cb5b146106f257600080fd5b8063572b6c051161023d57806373e9fbb7116101f15780637da0a877116101cb5780637da0a8771461067457806382b02eed1461069257806386d392ba146106b257600080fd5b806373e9fbb7146105d257806375b238fc146105f25780637859165f1461062657600080fd5b80635f99223b116102225780635f99223b146105705780636e3384611461059d578063715018a6146105bd57600080fd5b8063572b6c05146104865780635d4bc0ce146104b557600080fd5b806336568abe11610294578063486ff0cd11610279578063486ff0cd146103ed5780634a2cfb541461040f5780634c43adea1461044357600080fd5b806336568abe146103ad5780633b940eb5146103cd57600080fd5b8063248a9ca3116102c5578063248a9ca3146103385780632abfab4d146103775780632f2ff15d1461038d57600080fd5b806301ffc9a7146102e157806321a1354414610316575b600080fd5b3480156102ed57600080fd5b506103016102fc366004612587565b610b06565b60405190151581526020015b60405180910390f35b34801561032257600080fd5b506103366103313660046125b1565b610b6f565b005b34801561034457600080fd5b506103696103533660046125b1565b6000908152600160208190526040909120015490565b60405190815260200161030d565b34801561038357600080fd5b5061036960075481565b34801561039957600080fd5b506103366103a83660046125e6565b610f47565b3480156103b957600080fd5b506103366103c83660046125e6565b610f75565b3480156103d957600080fd5b506103366103e8366004612612565b611016565b3480156103f957600080fd5b5061040261106d565b60405161030d919061265d565b34801561041b57600080fd5b506103697f850d585eb7f024ccee5e68e55f2c26cc72e1e6ee456acf62135757a5eb9d4a1081565b34801561044f57600080fd5b5061036961045e3660046125e6565b6000918252600f602090815260408084206001600160a01b0393909316845291905290205490565b34801561049257600080fd5b506103016104a1366004612612565b6003546001600160a01b0391821691161490565b3480156104c157600080fd5b506105236104d03660046125b1565b600c60205260009081526040902080546001820154600283015460038401546004850154600586015460068701546007909701546001600160a01b03968716979587169694959394929391929091169088565b604080516001600160a01b03998a16815297891660208901528701959095526060860193909352608085019190915260a084015290921660c082015260e08101919091526101000161030d565b34801561057c57600080fd5b5061036961058b3660046125b1565b60009081526012602052604090205490565b3480156105a957600080fd5b506103366105b8366004612612565b6110fb565b3480156105c957600080fd5b506103366111a5565b3480156105de57600080fd5b506103366105ed366004612612565b61122a565b3480156105fe57600080fd5b506103697fa49807205ce4d355092ef5a8a18f56e8913cf4a201fbe287825b095693c2177581565b34801561063257600080fd5b5061065c6106413660046125b1565b6000908152601160205260409020546001600160a01b031690565b6040516001600160a01b03909116815260200161030d565b34801561068057600080fd5b506003546001600160a01b031661065c565b34801561069e57600080fd5b5060055461065c906001600160a01b031681565b3480156106be57600080fd5b5061065c6106cd366004612690565b611281565b3480156106de57600080fd5b5060085461065c906001600160a01b031681565b3480156106fe57600080fd5b506000546001600160a01b031661065c565b34801561071c57600080fd5b5061030161072b3660046125e6565b60009182526001602090815260408084206001600160a01b0393909316845291905290205460ff1690565b34801561076257600080fd5b5060095461065c906001600160a01b031681565b34801561078257600080fd5b50610369600081565b34801561079757600080fd5b5061036960065481565b6103696107af3660046126f9565b6112b9565b3480156107c057600080fd5b506107d46107cf3660046125b1565b611825565b60405161030d9190612764565b3480156107ed57600080fd5b506103366107fc3660046125b1565b611891565b34801561080d57600080fd5b5061036961081c3660046127b1565b611989565b34801561082d57600080fd5b5061033661083c366004612612565b611baa565b34801561084d57600080fd5b5061033661085c3660046125e6565b611c4c565b34801561086d57600080fd5b5061033661087c366004612612565b611c75565b34801561088d57600080fd5b5060045461065c906001600160a01b031681565b3480156108ad57600080fd5b506108c16108bc3660046125b1565b611d0f565b60405161030d91906000610100820190506001600160a01b0380845116835280602085015116602084015260408401516040840152606084015160608401526080840151608084015260a084015160a08401528060c08501511660c08401525060e083015160e083015292915050565b34801561093d57600080fd5b5061036961094c3660046125e6565b600f60209081526000928352604080842090915290825290205481565b34801561097557600080fd5b506103696109843660046125b1565b6000908152600e602052604090205490565b3480156109a257600080fd5b506109b66109b13660046125b1565b611dee565b60405161030d919081516001600160a01b0316815260208083015190820152604080830151908201526060918201519181019190915260800190565b3480156109fe57600080fd5b50610a37610a0d366004612856565b7ff23a6e610000000000000000000000000000000000000000000000000000000095945050505050565b6040516001600160e01b0319909116815260200161030d565b348015610a5c57600080fd5b50610336610a6b366004612612565b611e70565b348015610a7c57600080fd5b50610336610a8b366004612920565b611f6e565b348015610a9c57600080fd5b50610adc610aab3660046125b1565b600d6020526000908152604090208054600182015460028301546003909301546001600160a01b0390921692909184565b604080516001600160a01b039095168552602085019390935291830152606082015260800161030d565b60006001600160e01b031982167f7965db0b000000000000000000000000000000000000000000000000000000001480610b6957507f01ffc9a7000000000000000000000000000000000000000000000000000000006001600160e01b03198316145b92915050565b7f850d585eb7f024ccee5e68e55f2c26cc72e1e6ee456acf62135757a5eb9d4a10610ba181610b9c6120e6565b6120f5565b6000828152600c6020526040902060040154421015610bec576040517fcdf268ad00000000000000000000000000000000000000000000000000000000815260040160405180910390fd5b6000610bf783612175565b600084815260116020526040812054919250906001600160a01b03166000858152600c602052604080822080546002909101549151637921219560e11b81523060048201526001600160a01b038086166024830152604482018490526001606483015260a0608483015260a48201949094529394509190911691829063f242432a9060c401600060405180830381600087803b158015610c9657600080fd5b505af1158015610caa573d6000803e3d6000fd5b5050604080518981526001600160a01b03871660208201527f63e7f772eee17a2469656820a22f393914e4fb575e3a4170ec5d3b6187b5a743935001905060405180910390a1604051637921219560e11b81523060048201526001600160a01b038581166024830152604482018390526001606483015260a06084830152600060a483015283169063f242432a9060c401600060405180830381600087803b158015610d5557600080fd5b505af1158015610d69573d6000803e3d6000fd5b5050604080518981526001600160a01b03881660208201527f63e7f772eee17a2469656820a22f393914e4fb575e3a4170ec5d3b6187b5a743935001905060405180910390a160048054604051637921219560e11b815230928101929092526001600160a01b039081166024830152604482018390526001606483015260a06084830152600060a483015283169063f242432a9060c401600060405180830381600087803b158015610e1a57600080fd5b505af1158015610e2e573d6000803e3d6000fd5b5050600454604080518a81526001600160a01b0390921660208301527f63e7f772eee17a2469656820a22f393914e4fb575e3a4170ec5d3b6187b5a743935001905060405180910390a1600554604051637921219560e11b81523060048201526001600160a01b039182166024820152604481018390526001606482015260a06084820152600060a48201529083169063f242432a9060c401600060405180830381600087803b158015610ee157600080fd5b505af1158015610ef5573d6000803e3d6000fd5b5050600554604080518a81526001600160a01b0390921660208301527f63e7f772eee17a2469656820a22f393914e4fb575e3a4170ec5d3b6187b5a743935001905060405180910390a1505050505050565b60008281526001602081905260409091200154610f6681610b9c6120e6565b610f70838361220a565b505050565b610f7d6120e6565b6001600160a01b0316816001600160a01b0316146110085760405162461bcd60e51b815260206004820152602f60248201527f416363657373436f6e74726f6c3a2063616e206f6e6c792072656e6f756e636560448201527f20726f6c657320666f722073656c66000000000000000000000000000000000060648201526084015b60405180910390fd5b61101282826122ae565b5050565b7fa49807205ce4d355092ef5a8a18f56e8913cf4a201fbe287825b095693c2177561104381610b9c6120e6565b6110127f850d585eb7f024ccee5e68e55f2c26cc72e1e6ee456acf62135757a5eb9d4a108361220a565b600b805461107a9061294a565b80601f01602080910402602001604051908101604052809291908181526020018280546110a69061294a565b80156110f35780601f106110c8576101008083540402835291602001916110f3565b820191906000526020600020905b8154815290600101906020018083116110d657829003601f168201915b505050505081565b7fa49807205ce4d355092ef5a8a18f56e8913cf4a201fbe287825b095693c2177561112881610b9c6120e6565b6001600160a01b03821661114f576040516342bcdf7f60e11b815260040160405180910390fd5b600480546001600160a01b0319166001600160a01b0384169081179091556040519081527f99e7e8f551bb4a95839337c445d25c103e8b923f563ec440667dd5c1bb5fa329906020015b60405180910390a15050565b6111ad6120e6565b6001600160a01b03166111c86000546001600160a01b031690565b6001600160a01b03161461121e5760405162461bcd60e51b815260206004820181905260248201527f4f776e61626c653a2063616c6c6572206973206e6f7420746865206f776e65726044820152606401610fff565b611228600061234f565b565b7fa49807205ce4d355092ef5a8a18f56e8913cf4a201fbe287825b095693c2177561125781610b9c6120e6565b6110127f850d585eb7f024ccee5e68e55f2c26cc72e1e6ee456acf62135757a5eb9d4a1083611c4c565b6010602052816000526040600020818154811061129d57600080fd5b6000918252602090912001546001600160a01b03169150829050565b600060028054141561130d5760405162461bcd60e51b815260206004820152601f60248201527f5265656e7472616e637947756172643a207265656e7472616e742063616c6c006044820152606401610fff565b60028080556020808401516000818152600c808452604080832081516101008101835281546001600160a01b0390811682526001830154811682890152978201549281019290925260038101546060830152600481015460808301819052600582015460a0840152600682015490971660c08301526007015460e082015291839052909252914211156113cc576040517fd328a25200000000000000000000000000000000000000000000000000000000815260040160405180910390fd5b6000828152600c60205260409081902060050154908501511161141b576040517f7957a08500000000000000000000000000000000000000000000000000000000815260040160405180910390fd5b6007805490600061142b83612995565b909155505042606085019081526007546000908152600d60209081526040808320885181546001600160a01b0319166001600160a01b0390911617815582890151600182015581890151600282018190559451600390910155858352600f9091528120906114976120e6565b6001600160a01b03166001600160a01b0316815260200190815260200160002060008282546114c691906129b0565b90915550506040808501516000848152600e6020529182208054919290916114ef9084906129b0565b9091555050600082815260106020526040902061150a6120e6565b81546001810183556000928352602080842090910180546001600160a01b0319166001600160a01b039390931692909217909155838252600f905260408120816115526120e6565b6001600160a01b0316815260208101919091526040016000205460e083015190915061157c6120e6565b6001600160a01b03168360c001516001600160a01b031614156116445785604001518360e0018181516115af91906129b0565b9052506000848152600c6020908152604091829020855181546001600160a01b03199081166001600160a01b03928316178355928701516001830180548516918316919091179055928601516002820155606086015160038201556080860151600482015560a0860151600582015560c0860151600682018054909316931692909217905560e0840151600790910155611721565b808211156117215760e08301829052600084815260126020526040902082905561166c6120e6565b6001600160a01b031660c08401526116826120e6565b600085815260116020908152604080832080546001600160a01b03199081166001600160a01b0396871617909155600c8352928190208751815485169086161781559187015160018301805485169186169190911790558601516002820155606086015160038201556080860151600482015560a0860151600582015560c0860151600682018054909316931692909217905560e08401516007909101555b6008546001600160a01b03166323b872dd61173a6120e6565b6004805460408b810151905160e086901b6001600160e01b03191681526001600160a01b03948516938101939093529216602482015260448101919091526064016020604051808303816000875af115801561179a573d6000803e3d6000fd5b505050506040513d601f19601f820116820180604052508101906117be91906129c8565b507fdd5f9bf5cf036a4da6a1035c7f29f422c275d1e6f6b9e2a552e3e54228b390a56117e86120e6565b60408089015181516001600160a01b039093168352602083018890529082015260600160405180910390a150506007546001600255949350505050565b60008181526010602090815260409182902080548351818402810184019094528084526060939283018282801561188557602002820191906000526020600020905b81546001600160a01b03168152600190910190602001808311611867575b50505050509050919050565b7fa49807205ce4d355092ef5a8a18f56e8913cf4a201fbe287825b095693c217756118be81610b9c6120e6565b600954600480546040516323b872dd60e01b81526001600160a01b039182169281019290925230602483015260448201859052909116906323b872dd906064016020604051808303816000875af115801561191d573d6000803e3d6000fd5b505050506040513d601f19601f8201168201806040525081019061194191906129c8565b5081600a600082825461195491906129b0565b90915550506040518281527fa8ee888309c5a5d49d51b3d88f2a1d4405947b3102c9dea165ddc4e2e5769ee290602001611199565b60007f850d585eb7f024ccee5e68e55f2c26cc72e1e6ee456acf62135757a5eb9d4a106119b881610b9c6120e6565b82516080840151606085015111156119fc576040517fd22dcab600000000000000000000000000000000000000000000000000000000815260040160405180910390fd5b60068054906000611a0c83612995565b9091555050600680546000908152600c6020908152604091829020875181546001600160a01b039182166001600160a01b031991821617835592890151600183018054828416908616179055848a01516002840181905560608b01516003850181905560808c01516004860181905560a08d01516005870181905560c08e015199870180549a909616999097169890981790935560e08b015160079094019390935593517f1b1c288b734d07fa03889b4efe2a9e475e25c8e24eb971dd088dee01c54fc69095611b07959490916001600160a01b03959095168552602085019390935260408401919091526060830152608082015260a00190565b60405180910390a160208401516040808601519051637921219560e11b81526001600160a01b039283166004808301919091523060248301526044820192909252606481019190915260a06084820152600060a48201529082169063f242432a9060c401600060405180830381600087803b158015611b8557600080fd5b505af1158015611b99573d6000803e3d6000fd5b505050506006549250505b50919050565b7f850d585eb7f024ccee5e68e55f2c26cc72e1e6ee456acf62135757a5eb9d4a10611bd781610b9c6120e6565b6001600160a01b038216611bfe576040516342bcdf7f60e11b815260040160405180910390fd5b600580546001600160a01b0319166001600160a01b0384169081179091556040519081527fa099340b9009966c80f2d51f8425c15ffe5713a8c732f3d9e3b0d213ad03e35b90602001611199565b60008281526001602081905260409091200154611c6b81610b9c6120e6565b610f7083836122ae565b611c7d6120e6565b6001600160a01b0316611c986000546001600160a01b031690565b6001600160a01b031614611cee5760405162461bcd60e51b815260206004820181905260248201527f4f776e61626c653a2063616c6c6572206973206e6f7420746865206f776e65726044820152606401610fff565b600380546001600160a01b0319166001600160a01b03831617905550565b50565b611d7260405180610100016040528060006001600160a01b0316815260200160006001600160a01b031681526020016000815260200160008152602001600081526020016000815260200160006001600160a01b03168152602001600081525090565b506000908152600c602090815260409182902082516101008101845281546001600160a01b03908116825260018301548116938201939093526002820154938101939093526003810154606084015260048101546080840152600581015460a0840152600681015490911660c08301526007015460e082015290565b611e22604051806080016040528060006001600160a01b031681526020016000815260200160008152602001600081525090565b506000908152600d6020908152604091829020825160808101845281546001600160a01b03168152600182015492810192909252600281015492820192909252600390910154606082015290565b611e786120e6565b6001600160a01b0316611e936000546001600160a01b031690565b6001600160a01b031614611ee95760405162461bcd60e51b815260206004820181905260248201527f4f776e61626c653a2063616c6c6572206973206e6f7420746865206f776e65726044820152606401610fff565b6001600160a01b038116611f655760405162461bcd60e51b815260206004820152602660248201527f4f776e61626c653a206e6577206f776e657220697320746865207a65726f206160448201527f64647265737300000000000000000000000000000000000000000000000000006064820152608401610fff565b611d0c8161234f565b7fa49807205ce4d355092ef5a8a18f56e8913cf4a201fbe287825b095693c21775611f9b81610b9c6120e6565b81600a5411611fd6576040517f5945ea5600000000000000000000000000000000000000000000000000000000815260040160405180910390fd5b6009546040516323b872dd60e01b81523060048201526001600160a01b03858116602483015260448201859052909116906323b872dd906064016020604051808303816000875af115801561202f573d6000803e3d6000fd5b505050506040513d601f19601f8201168201806040525081019061205391906129c8565b5081600a600082825461206691906129ea565b9091555050604080516001600160a01b0385168152602081018490527fb17e15e57124ae7e5f29dd49aa8a8bd46fe26b3e6f6eda1372ca9d1cead0f3f5910160405180910390a1505050565b6000601436108015906120cf57506003546001600160a01b031633145b156120e1575060131936013560601c90565b503390565b60006120f06120b2565b905090565b60008281526001602090815260408083206001600160a01b038516845290915290205460ff1661101257612133816001600160a01b0316601461239f565b61213e83602061239f565b60405160200161214f929190612a01565b60408051601f198184030181529082905262461bcd60e51b8252610fff9160040161265d565b60008181526010602090815260408083205481514281850152438184015244606082015260808082018790528351808303909101815260a09091019092528151919092012082906121c7908390612a82565b600085815260106020526040812080549293509091839081106121ec576121ec612aa4565b6000918252602090912001546001600160a01b031695945050505050565b60008281526001602090815260408083206001600160a01b038516845290915290205460ff166110125760008281526001602081815260408084206001600160a01b0386168552909152909120805460ff1916909117905561226a6120e6565b6001600160a01b0316816001600160a01b0316837f2f8788117e7eff1d82e926ec794901d17c78024a50270940304540a733656f0d60405160405180910390a45050565b60008281526001602090815260408083206001600160a01b038516845290915290205460ff16156110125760008281526001602090815260408083206001600160a01b03851684529091529020805460ff1916905561230b6120e6565b6001600160a01b0316816001600160a01b0316837ff6391f5c32d9c69d2a47ea670b442974b53935d1edc7fd64eb21e047a839171b60405160405180910390a45050565b600080546001600160a01b038381166001600160a01b0319831681178455604051919092169283917f8be0079c531659141344cd1fd0a4f28419497f9722a3daafe3b4186f6b6457e09190a35050565b606060006123ae836002612aba565b6123b99060026129b0565b67ffffffffffffffff8111156123d1576123d16126b2565b6040519080825280601f01601f1916602001820160405280156123fb576020820181803683370190505b5090507f30000000000000000000000000000000000000000000000000000000000000008160008151811061243257612432612aa4565b60200101906001600160f81b031916908160001a9053507f78000000000000000000000000000000000000000000000000000000000000008160018151811061247d5761247d612aa4565b60200101906001600160f81b031916908160001a90535060006124a1846002612aba565b6124ac9060016129b0565b90505b6001811115612531577f303132333435363738396162636465660000000000000000000000000000000085600f16601081106124ed576124ed612aa4565b1a60f81b82828151811061250357612503612aa4565b60200101906001600160f81b031916908160001a90535060049490941c9361252a81612ad9565b90506124af565b5083156125805760405162461bcd60e51b815260206004820181905260248201527f537472696e67733a20686578206c656e67746820696e73756666696369656e746044820152606401610fff565b9392505050565b60006020828403121561259957600080fd5b81356001600160e01b03198116811461258057600080fd5b6000602082840312156125c357600080fd5b5035919050565b80356001600160a01b03811681146125e157600080fd5b919050565b600080604083850312156125f957600080fd5b82359150612609602084016125ca565b90509250929050565b60006020828403121561262457600080fd5b612580826125ca565b60005b83811015612648578181015183820152602001612630565b83811115612657576000848401525b50505050565b602081526000825180602084015261267c81604085016020870161262d565b601f01601f19169190910160400192915050565b600080604083850312156126a357600080fd5b50508035926020909101359150565b634e487b7160e01b600052604160045260246000fd5b604051601f8201601f1916810167ffffffffffffffff811182821017156126f1576126f16126b2565b604052919050565b60006080828403121561270b57600080fd5b6040516080810181811067ffffffffffffffff8211171561272e5761272e6126b2565b60405261273a836125ca565b81526020830135602082015260408301356040820152606083013560608201528091505092915050565b6020808252825182820181905260009190848201906040850190845b818110156127a55783516001600160a01b031683529284019291840191600101612780565b50909695505050505050565b60006101008083850312156127c557600080fd5b6040519081019067ffffffffffffffff821181831017156127e8576127e86126b2565b816040526127f5846125ca565b8152612803602085016125ca565b602082015260408401356040820152606084013560608201526080840135608082015260a084013560a082015261283c60c085016125ca565b60c082015260e084013560e0820152809250505092915050565b600080600080600060a0868803121561286e57600080fd5b612877866125ca565b945060206128868188016125ca565b94506040870135935060608701359250608087013567ffffffffffffffff808211156128b157600080fd5b818901915089601f8301126128c557600080fd5b8135818111156128d7576128d76126b2565b6128e9601f8201601f191685016126c8565b91508082528a848285010111156128ff57600080fd5b80848401858401376000848284010152508093505050509295509295909350565b6000806040838503121561293357600080fd5b61293c836125ca565b946020939093013593505050565b600181811c9082168061295e57607f821691505b60208210811415611ba457634e487b7160e01b600052602260045260246000fd5b634e487b7160e01b600052601160045260246000fd5b60006000198214156129a9576129a961297f565b5060010190565b600082198211156129c3576129c361297f565b500190565b6000602082840312156129da57600080fd5b8151801515811461258057600080fd5b6000828210156129fc576129fc61297f565b500390565b7f416363657373436f6e74726f6c3a206163636f756e7420000000000000000000815260008351612a3981601785016020880161262d565b7f206973206d697373696e6720726f6c65200000000000000000000000000000006017918401918201528351612a7681602884016020880161262d565b01602801949350505050565b600082612a9f57634e487b7160e01b600052601260045260246000fd5b500690565b634e487b7160e01b600052603260045260246000fd5b6000816000190483118215151615612ad457612ad461297f565b500290565b600081612ae857612ae861297f565b50600019019056fea26469706673582212203ab2c54d43c735afd8a8ffac567910be0a2cf1c77cb34bae58ce72da491101bb64736f6c634300080b0033a49807205ce4d355092ef5a8a18f56e8913cf4a201fbe287825b095693c21775",
  "linkReferences": {},
  "deployedLinkReferences": {}
}