{
  "_format": "hh-sol-artifact-1",
  "contractName": "Raffle",
  "sourceName": "contracts/Raffle.sol",
  "abi": [
    {
      "inputs": [
        {
          "internalType": "address",
          "name": "_usdc",
          "type": "address"
        }
      ],
      "stateMutability": "nonpayable",
      "type": "constructor"
    },
    {
      "inputs": [],
      "name": "DonationTooLow",
      "type": "error"
    },
    {
      "inputs": [],
      "name": "IncorrectTimesGiven",
      "type": "error"
    },
    {
      "inputs": [],
      "name": "RaffleHasEnded",
      "type": "error"
    },
    {
      "inputs": [],
      "name": "RaffleHasNotEnded",
      "type": "error"
    },
    {
      "inputs": [],
      "name": "ZeroAddressNotAllowed",
      "type": "error"
    },
    {
      "anonymous": false,
      "inputs": [
        {
          "indexed": false,
          "internalType": "address",
          "name": "walletAddress",
          "type": "address"
        }
      ],
      "name": "DAOWalletAddressSet",
      "type": "event"
    },
    {
      "anonymous": false,
      "inputs": [
        {
          "indexed": false,
          "internalType": "address",
          "name": "from",
          "type": "address"
        },
        {
          "indexed": false,
          "internalType": "uint256",
          "name": "raffleId",
          "type": "uint256"
        },
        {
          "indexed": false,
          "internalType": "uint256",
          "name": "amount",
          "type": "uint256"
        }
      ],
      "name": "DonationPlaced",
      "type": "event"
    },
    {
      "anonymous": false,
      "inputs": [
        {
          "indexed": true,
          "internalType": "address",
          "name": "previousOwner",
          "type": "address"
        },
        {
          "indexed": true,
          "internalType": "address",
          "name": "newOwner",
          "type": "address"
        }
      ],
      "name": "OwnershipTransferred",
      "type": "event"
    },
    {
      "anonymous": false,
      "inputs": [
        {
          "indexed": false,
          "internalType": "uint256",
          "name": "startTime",
          "type": "uint256"
        },
        {
          "indexed": false,
          "internalType": "uint256",
          "name": "endTime",
          "type": "uint256"
        },
        {
          "indexed": false,
          "internalType": "uint256",
          "name": "minimumDonationAmount",
          "type": "uint256"
        }
      ],
      "name": "RaffleCreated",
      "type": "event"
    },
    {
      "anonymous": false,
      "inputs": [
        {
          "indexed": true,
          "internalType": "bytes32",
          "name": "role",
          "type": "bytes32"
        },
        {
          "indexed": true,
          "internalType": "bytes32",
          "name": "previousAdminRole",
          "type": "bytes32"
        },
        {
          "indexed": true,
          "internalType": "bytes32",
          "name": "newAdminRole",
          "type": "bytes32"
        }
      ],
      "name": "RoleAdminChanged",
      "type": "event"
    },
    {
      "anonymous": false,
      "inputs": [
        {
          "indexed": true,
          "internalType": "bytes32",
          "name": "role",
          "type": "bytes32"
        },
        {
          "indexed": true,
          "internalType": "address",
          "name": "account",
          "type": "address"
        },
        {
          "indexed": true,
          "internalType": "address",
          "name": "sender",
          "type": "address"
        }
      ],
      "name": "RoleGranted",
      "type": "event"
    },
    {
      "anonymous": false,
      "inputs": [
        {
          "indexed": true,
          "internalType": "bytes32",
          "name": "role",
          "type": "bytes32"
        },
        {
          "indexed": true,
          "internalType": "address",
          "name": "account",
          "type": "address"
        },
        {
          "indexed": true,
          "internalType": "address",
          "name": "sender",
          "type": "address"
        }
      ],
      "name": "RoleRevoked",
      "type": "event"
    },
    {
      "anonymous": false,
      "inputs": [
        {
          "indexed": false,
          "internalType": "address",
          "name": "nftAuthorWallet",
          "type": "address"
        }
      ],
      "name": "nftAuthorWalletAddressSet",
      "type": "event"
    },
    {
      "inputs": [],
      "name": "DAOWallet",
      "outputs": [
        {
          "internalType": "address",
          "name": "",
          "type": "address"
        }
      ],
      "stateMutability": "view",
      "type": "function"
    },
    {
      "inputs": [],
      "name": "DEFAULT_ADMIN_ROLE",
      "outputs": [
        {
          "internalType": "bytes32",
          "name": "",
          "type": "bytes32"
        }
      ],
      "stateMutability": "view",
      "type": "function"
    },
    {
      "inputs": [],
      "name": "USDC",
      "outputs": [
        {
          "internalType": "contract IERC20",
          "name": "",
          "type": "address"
        }
      ],
      "stateMutability": "view",
      "type": "function"
    },
    {
      "inputs": [
        {
          "components": [
            {
              "internalType": "address",
              "name": "nftContract",
              "type": "address"
            },
            {
              "internalType": "uint256[]",
              "name": "tokenIDs",
              "type": "uint256[]"
            },
            {
              "internalType": "uint256",
              "name": "startTime",
              "type": "uint256"
            },
            {
              "internalType": "uint256",
              "name": "endTime",
              "type": "uint256"
            },
            {
              "internalType": "uint256",
              "name": "minimumDonationAmount",
              "type": "uint256"
            }
          ],
          "internalType": "struct Raffle.Raffle",
          "name": "_raffle",
          "type": "tuple"
        }
      ],
      "name": "createRaffle",
      "outputs": [
        {
          "internalType": "uint256",
          "name": "",
          "type": "uint256"
        }
      ],
      "stateMutability": "nonpayable",
      "type": "function"
    },
    {
      "inputs": [
        {
          "components": [
            {
              "internalType": "uint256",
              "name": "raffleID",
              "type": "uint256"
            },
            {
              "internalType": "uint256",
              "name": "amount",
              "type": "uint256"
            },
            {
              "internalType": "uint256",
              "name": "timestamp",
              "type": "uint256"
            }
          ],
          "internalType": "struct Raffle.Donation",
          "name": "_donation",
          "type": "tuple"
        }
      ],
      "name": "donate",
      "outputs": [],
      "stateMutability": "payable",
      "type": "function"
    },
    {
      "inputs": [
        {
          "internalType": "uint256",
          "name": "",
          "type": "uint256"
        },
        {
          "internalType": "address",
          "name": "",
          "type": "address"
        },
        {
          "internalType": "uint256",
          "name": "",
          "type": "uint256"
        }
      ],
      "name": "donations",
      "outputs": [
        {
          "internalType": "uint256",
          "name": "raffleID",
          "type": "uint256"
        },
        {
          "internalType": "uint256",
          "name": "amount",
          "type": "uint256"
        },
        {
          "internalType": "uint256",
          "name": "timestamp",
          "type": "uint256"
        }
      ],
      "stateMutability": "view",
      "type": "function"
    },
    {
      "inputs": [
        {
          "internalType": "uint256",
          "name": "",
          "type": "uint256"
        },
        {
          "internalType": "uint256",
          "name": "",
          "type": "uint256"
        }
      ],
      "name": "donorsArrayPerCycle",
      "outputs": [
        {
          "internalType": "address",
          "name": "",
          "type": "address"
        }
      ],
      "stateMutability": "view",
      "type": "function"
    },
    {
      "inputs": [
        {
          "internalType": "uint256",
          "name": "raffleID",
          "type": "uint256"
        }
      ],
      "name": "getDonorsPerCycle",
      "outputs": [
        {
          "internalType": "address[]",
          "name": "",
          "type": "address[]"
        }
      ],
      "stateMutability": "view",
      "type": "function"
    },
    {
      "inputs": [
        {
          "internalType": "bytes32",
          "name": "role",
          "type": "bytes32"
        }
      ],
      "name": "getRoleAdmin",
      "outputs": [
        {
          "internalType": "bytes32",
          "name": "",
          "type": "bytes32"
        }
      ],
      "stateMutability": "view",
      "type": "function"
    },
    {
      "inputs": [
        {
          "internalType": "uint256",
          "name": "raffleID",
          "type": "uint256"
        },
        {
          "internalType": "address",
          "name": "account",
          "type": "address"
        }
      ],
      "name": "getTotalDonationPerAddressPerCycle",
      "outputs": [
        {
          "internalType": "uint256",
          "name": "",
          "type": "uint256"
        }
      ],
      "stateMutability": "view",
      "type": "function"
    },
    {
      "inputs": [
        {
          "internalType": "uint256",
          "name": "raffleID",
          "type": "uint256"
        }
      ],
      "name": "getTotalDonationsPerCycle",
      "outputs": [
        {
          "internalType": "uint256",
          "name": "",
          "type": "uint256"
        }
      ],
      "stateMutability": "view",
      "type": "function"
    },
    {
      "inputs": [
        {
          "internalType": "bytes32",
          "name": "role",
          "type": "bytes32"
        },
        {
          "internalType": "address",
          "name": "account",
          "type": "address"
        }
      ],
      "name": "grantRole",
      "outputs": [],
      "stateMutability": "nonpayable",
      "type": "function"
    },
    {
      "inputs": [
        {
          "internalType": "bytes32",
          "name": "role",
          "type": "bytes32"
        },
        {
          "internalType": "address",
          "name": "account",
          "type": "address"
        }
      ],
      "name": "hasRole",
      "outputs": [
        {
          "internalType": "bool",
          "name": "",
          "type": "bool"
        }
      ],
      "stateMutability": "view",
      "type": "function"
    },
    {
      "inputs": [],
      "name": "nftAuthorWallet",
      "outputs": [
        {
          "internalType": "address",
          "name": "",
          "type": "address"
        }
      ],
      "stateMutability": "view",
      "type": "function"
    },
    {
      "inputs": [],
      "name": "owner",
      "outputs": [
        {
          "internalType": "address",
          "name": "",
          "type": "address"
        }
      ],
      "stateMutability": "view",
      "type": "function"
    },
    {
      "inputs": [],
      "name": "raffleCount",
      "outputs": [
        {
          "internalType": "uint256",
          "name": "",
          "type": "uint256"
        }
      ],
      "stateMutability": "view",
      "type": "function"
    },
    {
      "inputs": [
        {
          "internalType": "uint256",
          "name": "",
          "type": "uint256"
        }
      ],
      "name": "raffles",
      "outputs": [
        {
          "internalType": "address",
          "name": "nftContract",
          "type": "address"
        },
        {
          "internalType": "uint256",
          "name": "startTime",
          "type": "uint256"
        },
        {
          "internalType": "uint256",
          "name": "endTime",
          "type": "uint256"
        },
        {
          "internalType": "uint256",
          "name": "minimumDonationAmount",
          "type": "uint256"
        }
      ],
      "stateMutability": "view",
      "type": "function"
    },
    {
      "inputs": [],
      "name": "renounceOwnership",
      "outputs": [],
      "stateMutability": "nonpayable",
      "type": "function"
    },
    {
      "inputs": [
        {
          "internalType": "bytes32",
          "name": "role",
          "type": "bytes32"
        },
        {
          "internalType": "address",
          "name": "account",
          "type": "address"
        }
      ],
      "name": "renounceRole",
      "outputs": [],
      "stateMutability": "nonpayable",
      "type": "function"
    },
    {
      "inputs": [
        {
          "internalType": "bytes32",
          "name": "role",
          "type": "bytes32"
        },
        {
          "internalType": "address",
          "name": "account",
          "type": "address"
        }
      ],
      "name": "revokeRole",
      "outputs": [],
      "stateMutability": "nonpayable",
      "type": "function"
    },
    {
      "inputs": [
        {
          "internalType": "uint256",
          "name": "raffleID",
          "type": "uint256"
        }
      ],
      "name": "sendNFTRewards",
      "outputs": [],
      "stateMutability": "nonpayable",
      "type": "function"
    },
    {
      "inputs": [
        {
          "internalType": "address",
          "name": "_DAOWallet",
          "type": "address"
        }
      ],
      "name": "setDAOWalletAddress",
      "outputs": [],
      "stateMutability": "nonpayable",
      "type": "function"
    },
    {
      "inputs": [
        {
          "internalType": "address",
          "name": "_nftAuthorWallet",
          "type": "address"
        }
      ],
      "name": "setNftAuthorWalletAddress",
      "outputs": [],
      "stateMutability": "nonpayable",
      "type": "function"
    },
    {
      "inputs": [
        {
          "internalType": "bytes4",
          "name": "interfaceId",
          "type": "bytes4"
        }
      ],
      "name": "supportsInterface",
      "outputs": [
        {
          "internalType": "bool",
          "name": "",
          "type": "bool"
        }
      ],
      "stateMutability": "view",
      "type": "function"
    },
    {
      "inputs": [
        {
          "internalType": "uint256",
          "name": "",
          "type": "uint256"
        },
        {
          "internalType": "address",
          "name": "",
          "type": "address"
        }
      ],
      "name": "totalDonationPerAddressPerCycle",
      "outputs": [
        {
          "internalType": "uint256",
          "name": "",
          "type": "uint256"
        }
      ],
      "stateMutability": "view",
      "type": "function"
    },
    {
      "inputs": [],
      "name": "totalDonations",
      "outputs": [
        {
          "internalType": "uint256",
          "name": "",
          "type": "uint256"
        }
      ],
      "stateMutability": "view",
      "type": "function"
    },
    {
      "inputs": [
        {
          "internalType": "address",
          "name": "newOwner",
          "type": "address"
        }
      ],
      "name": "transferOwnership",
      "outputs": [],
      "stateMutability": "nonpayable",
      "type": "function"
    }
  ],
  "bytecode": "0x60806040523480156200001157600080fd5b5060405162001a5f38038062001a5f833981016040819052620000349162000124565b6200003f33620000d4565b6001600255600680546001600160a01b0319166001600160a01b03831690811790915560405163095ea7b360e01b8152306004820152600019602482015263095ea7b3906044016020604051808303816000875af1158015620000a6573d6000803e3d6000fd5b505050506040513d601f19601f82011682018060405250810190620000cc919062000156565b50506200017a565b600080546001600160a01b038381166001600160a01b0319831681178455604051919092169283917f8be0079c531659141344cd1fd0a4f28419497f9722a3daafe3b4186f6b6457e09190a35050565b6000602082840312156200013757600080fd5b81516001600160a01b03811681146200014f57600080fd5b9392505050565b6000602082840312156200016957600080fd5b815180151581146200014f57600080fd5b6118d5806200018a6000396000f3fe6080604052600436106101ac5760003560e01c806389a30271116100ec578063d547741f1161008a578063e2daf39911610064578063e2daf3991461056d578063ea36c6171461058d578063eaf03b40146105c5578063f2fde38b146105f257600080fd5b8063d547741f14610517578063de2ed89314610537578063dfdb5ae41461054d57600080fd5b8063a217fddf116100c6578063a217fddf1461049f578063a54c120c146104b4578063a8754ef1146104ca578063c1996e7f146104f757600080fd5b806389a302711461041b5780638da5cb5b1461043b57806391d148541461045957600080fd5b80634c43adea116101595780636e338461116101335780636e3384611461038e578063715018a6146103ae57806382b02eed146103c357806386d392ba146103fb57600080fd5b80634c43adea1461029a57806351d84a5f146102dd5780635d4bc0ce1461031857600080fd5b80632648bc7e1161018a5780632648bc7e146102475780632f2ff15d1461025a57806336568abe1461027a57600080fd5b806301ffc9a7146101b157806321a13544146101e6578063248a9ca314610208575b600080fd5b3480156101bd57600080fd5b506101d16101cc3660046113d3565b610612565b60405190151581526020015b60405180910390f35b3480156101f257600080fd5b50610206610201366004611415565b6106ab565b005b34801561021457600080fd5b50610239610223366004611415565b6000908152600160208190526040909120015490565b6040519081526020016101dd565b61020661025536600461149e565b610758565b34801561026657600080fd5b50610206610275366004611516565b6109d0565b34801561028657600080fd5b50610206610295366004611516565b6109fc565b3480156102a657600080fd5b506102396102b5366004611516565b6000918252600a602090815260408084206001600160a01b0393909316845291905290205490565b3480156102e957600080fd5b506102fd6102f8366004611542565b610a88565b604080519384526020840192909252908201526060016101dd565b34801561032457600080fd5b50610364610333366004611415565b60086020526000908152604090208054600282015460038301546004909301546001600160a01b0390921692909184565b604080516001600160a01b03909516855260208501939093529183015260608201526080016101dd565b34801561039a57600080fd5b506102066103a9366004611577565b610ad8565b3480156103ba57600080fd5b50610206610bae565b3480156103cf57600080fd5b506004546103e3906001600160a01b031681565b6040516001600160a01b0390911681526020016101dd565b34801561040757600080fd5b506103e3610416366004611592565b610c14565b34801561042757600080fd5b506006546103e3906001600160a01b031681565b34801561044757600080fd5b506000546001600160a01b03166103e3565b34801561046557600080fd5b506101d1610474366004611516565b60009182526001602090815260408084206001600160a01b0393909316845291905290205460ff1690565b3480156104ab57600080fd5b50610239600081565b3480156104c057600080fd5b5061023960055481565b3480156104d657600080fd5b506104ea6104e5366004611415565b610c4c565b6040516101dd91906115b4565b34801561050357600080fd5b50610206610512366004611577565b610cb8565b34801561052357600080fd5b50610206610532366004611516565b610d87565b34801561054357600080fd5b5061023960075481565b34801561055957600080fd5b506003546103e3906001600160a01b031681565b34801561057957600080fd5b50610239610588366004611601565b610dae565b34801561059957600080fd5b506102396105a8366004611516565b600a60209081526000928352604080842090915290825290205481565b3480156105d157600080fd5b506102396105e0366004611415565b60009081526009602052604090205490565b3480156105fe57600080fd5b5061020661060d366004611577565b610ed2565b60007fffffffff0000000000000000000000000000000000000000000000000000000082167f7965db0b0000000000000000000000000000000000000000000000000000000014806106a557507f01ffc9a7000000000000000000000000000000000000000000000000000000007fffffffff000000000000000000000000000000000000000000000000000000008316145b92915050565b6000546001600160a01b0316331461070a5760405162461bcd60e51b815260206004820181905260248201527f4f776e61626c653a2063616c6c6572206973206e6f7420746865206f776e657260448201526064015b60405180910390fd5b600081815260086020526040902060030154421015610755576040517fcdf268ad00000000000000000000000000000000000000000000000000000000815260040160405180910390fd5b50565b6002805414156107aa5760405162461bcd60e51b815260206004820152601f60248201527f5265656e7472616e637947756172643a207265656e7472616e742063616c6c006044820152606401610701565b6002805580516000818152600860205260409020600301544211156107fb576040517fd328a25200000000000000000000000000000000000000000000000000000000815260040160405180910390fd5b600081815260086020908152604090912060040154908301511161084b576040517f7957a08500000000000000000000000000000000000000000000000000000000815260040160405180910390fd5b426040808401919091526020808401516000848152600a8352838120338252909252918120805490919061088090849061171a565b909155505060208083015160008381526009909252604082208054919290916108aa90849061171a565b90915550506000818152600c6020908152604080832080546001810182559084529282902090920180546001600160a01b031916339081179091556006546003549286015193517f23b872dd00000000000000000000000000000000000000000000000000000000815260048101929092526001600160a01b03928316602483015260448201939093529116906323b872dd906064016020604051808303816000875af115801561095f573d6000803e3d6000fd5b505050506040513d601f19601f820116820180604052508101906109839190611732565b50602080830151604080513381529283018490528201527fdd5f9bf5cf036a4da6a1035c7f29f422c275d1e6f6b9e2a552e3e54228b390a59060600160405180910390a150506001600255565b600082815260016020819052604090912001546109ed8133610fb1565b6109f78383611031565b505050565b6001600160a01b0381163314610a7a5760405162461bcd60e51b815260206004820152602f60248201527f416363657373436f6e74726f6c3a2063616e206f6e6c792072656e6f756e636560448201527f20726f6c657320666f722073656c6600000000000000000000000000000000006064820152608401610701565b610a8482826110b8565b5050565b600b6020528260005260406000206020528160005260406000208181548110610ab057600080fd5b6000918252602090912060039091020180546001820154600290920154909450909250905083565b6000546001600160a01b03163314610b325760405162461bcd60e51b815260206004820181905260248201527f4f776e61626c653a2063616c6c6572206973206e6f7420746865206f776e65726044820152606401610701565b6001600160a01b038116610b59576040516342bcdf7f60e11b815260040160405180910390fd5b600380546001600160a01b0319166001600160a01b0383169081179091556040519081527f99e7e8f551bb4a95839337c445d25c103e8b923f563ec440667dd5c1bb5fa329906020015b60405180910390a150565b6000546001600160a01b03163314610c085760405162461bcd60e51b815260206004820181905260248201527f4f776e61626c653a2063616c6c6572206973206e6f7420746865206f776e65726044820152606401610701565b610c12600061113b565b565b600c6020528160005260406000208181548110610c3057600080fd5b6000918252602090912001546001600160a01b03169150829050565b6000818152600c6020908152604091829020805483518184028101840190945280845260609392830182828015610cac57602002820191906000526020600020905b81546001600160a01b03168152600190910190602001808311610c8e575b50505050509050919050565b6000546001600160a01b03163314610d125760405162461bcd60e51b815260206004820181905260248201527f4f776e61626c653a2063616c6c6572206973206e6f7420746865206f776e65726044820152606401610701565b6001600160a01b038116610d39576040516342bcdf7f60e11b815260040160405180910390fd5b600480546001600160a01b0319166001600160a01b0383169081179091556040519081527fa099340b9009966c80f2d51f8425c15ffe5713a8c732f3d9e3b0d213ad03e35b90602001610ba3565b60008281526001602081905260409091200154610da48133610fb1565b6109f783836110b8565b6000816060015182604001511115610df2576040517fd22dcab600000000000000000000000000000000000000000000000000000000815260040160405180910390fd5b60058054906000610e0283611754565b90915550506005546000908152600860209081526040909120835181546001600160a01b0319166001600160a01b039091161781558382015180518593610e50926001850192910190611373565b506040820151816002015560608201518160030155608082015181600401559050507f9aa2065fb625f0039ef34f9a9cb1fe8e45055c5aa4d830c016505ee55a598a84826040015183606001518460800151604051610ec2939291909283526020830191909152604082015260600190565b60405180910390a1505060055490565b6000546001600160a01b03163314610f2c5760405162461bcd60e51b815260206004820181905260248201527f4f776e61626c653a2063616c6c6572206973206e6f7420746865206f776e65726044820152606401610701565b6001600160a01b038116610fa85760405162461bcd60e51b815260206004820152602660248201527f4f776e61626c653a206e6577206f776e657220697320746865207a65726f206160448201527f64647265737300000000000000000000000000000000000000000000000000006064820152608401610701565b6107558161113b565b60008281526001602090815260408083206001600160a01b038516845290915290205460ff16610a8457610fef816001600160a01b0316601461118b565b610ffa83602061118b565b60405160200161100b92919061179f565b60408051601f198184030181529082905262461bcd60e51b825261070191600401611820565b60008281526001602090815260408083206001600160a01b038516845290915290205460ff16610a845760008281526001602081815260408084206001600160a01b0386168086529252808420805460ff19169093179092559051339285917f2f8788117e7eff1d82e926ec794901d17c78024a50270940304540a733656f0d9190a45050565b60008281526001602090815260408083206001600160a01b038516845290915290205460ff1615610a845760008281526001602090815260408083206001600160a01b0385168085529252808320805460ff1916905551339285917ff6391f5c32d9c69d2a47ea670b442974b53935d1edc7fd64eb21e047a839171b9190a45050565b600080546001600160a01b038381166001600160a01b0319831681178455604051919092169283917f8be0079c531659141344cd1fd0a4f28419497f9722a3daafe3b4186f6b6457e09190a35050565b6060600061119a836002611853565b6111a590600261171a565b67ffffffffffffffff8111156111bd576111bd61142e565b6040519080825280601f01601f1916602001820160405280156111e7576020820181803683370190505b5090507f30000000000000000000000000000000000000000000000000000000000000008160008151811061121e5761121e611872565b60200101906001600160f81b031916908160001a9053507f78000000000000000000000000000000000000000000000000000000000000008160018151811061126957611269611872565b60200101906001600160f81b031916908160001a905350600061128d846002611853565b61129890600161171a565b90505b600181111561131d577f303132333435363738396162636465660000000000000000000000000000000085600f16601081106112d9576112d9611872565b1a60f81b8282815181106112ef576112ef611872565b60200101906001600160f81b031916908160001a90535060049490941c9361131681611888565b905061129b565b50831561136c5760405162461bcd60e51b815260206004820181905260248201527f537472696e67733a20686578206c656e67746820696e73756666696369656e746044820152606401610701565b9392505050565b8280548282559060005260206000209081019282156113ae579160200282015b828111156113ae578251825591602001919060010190611393565b506113ba9291506113be565b5090565b5b808211156113ba57600081556001016113bf565b6000602082840312156113e557600080fd5b81357fffffffff000000000000000000000000000000000000000000000000000000008116811461136c57600080fd5b60006020828403121561142757600080fd5b5035919050565b634e487b7160e01b600052604160045260246000fd5b60405160a0810167ffffffffffffffff811182821017156114675761146761142e565b60405290565b604051601f8201601f1916810167ffffffffffffffff811182821017156114965761149661142e565b604052919050565b6000606082840312156114b057600080fd5b6040516060810181811067ffffffffffffffff821117156114d3576114d361142e565b80604052508235815260208301356020820152604083013560408201528091505092915050565b80356001600160a01b038116811461151157600080fd5b919050565b6000806040838503121561152957600080fd5b82359150611539602084016114fa565b90509250929050565b60008060006060848603121561155757600080fd5b83359250611567602085016114fa565b9150604084013590509250925092565b60006020828403121561158957600080fd5b61136c826114fa565b600080604083850312156115a557600080fd5b50508035926020909101359150565b6020808252825182820181905260009190848201906040850190845b818110156115f55783516001600160a01b0316835292840192918401916001016115d0565b50909695505050505050565b6000602080838503121561161457600080fd5b823567ffffffffffffffff8082111561162c57600080fd5b9084019060a0828703121561164057600080fd5b611648611444565b611651836114fa565b8152838301358281111561166457600080fd5b8301601f8101881361167557600080fd5b8035838111156116875761168761142e565b8060051b935061169886850161146d565b818152938201860193868101908a8611156116b257600080fd5b928701925b858410156116d0578335825292870192908701906116b7565b8088860152505050506040830135604082015260608301356060820152608083013560808201528094505050505092915050565b634e487b7160e01b600052601160045260246000fd5b6000821982111561172d5761172d611704565b500190565b60006020828403121561174457600080fd5b8151801515811461136c57600080fd5b600060001982141561176857611768611704565b5060010190565b60005b8381101561178a578181015183820152602001611772565b83811115611799576000848401525b50505050565b7f416363657373436f6e74726f6c3a206163636f756e74200000000000000000008152600083516117d781601785016020880161176f565b7f206973206d697373696e6720726f6c6520000000000000000000000000000000601791840191820152835161181481602884016020880161176f565b01602801949350505050565b602081526000825180602084015261183f81604085016020870161176f565b601f01601f19169190910160400192915050565b600081600019048311821515161561186d5761186d611704565b500290565b634e487b7160e01b600052603260045260246000fd5b60008161189757611897611704565b50600019019056fea264697066735822122086fd4a3637ebfc7e34e5412ae3c35ae3aa18ab338a11bbe15e7bd8ee2b163c4064736f6c634300080b0033",
  "linkReferences": {},
  "deployedLinkReferences": {}
}