{
  "_format": "hh-sol-artifact-1",
  "contractName": "Raffle",
  "sourceName": "contracts/Raffle.sol",
  "abi": [
    {
      "inputs": [
        {
          "internalType": "address",
          "name": "_usdc",
          "type": "address"
        }
      ],
      "stateMutability": "nonpayable",
      "type": "constructor"
    },
    {
      "inputs": [],
      "name": "DonationTooLow",
      "type": "error"
    },
    {
      "inputs": [],
      "name": "IncorrectTimesGiven",
      "type": "error"
    },
    {
      "inputs": [],
      "name": "RaffleHasEnded",
      "type": "error"
    },
    {
      "inputs": [],
      "name": "RaffleHasNotEnded",
      "type": "error"
    },
    {
      "inputs": [],
      "name": "ZeroAddressNotAllowed",
      "type": "error"
    },
    {
      "anonymous": false,
      "inputs": [
        {
          "indexed": false,
          "internalType": "address",
          "name": "walletAddress",
          "type": "address"
        }
      ],
      "name": "DAOWalletAddressSet",
      "type": "event"
    },
    {
      "anonymous": false,
      "inputs": [
        {
          "indexed": false,
          "internalType": "address",
          "name": "from",
          "type": "address"
        },
        {
          "indexed": false,
          "internalType": "uint256",
          "name": "raffleId",
          "type": "uint256"
        },
        {
          "indexed": false,
          "internalType": "uint256",
          "name": "amount",
          "type": "uint256"
        }
      ],
      "name": "DonationPlaced",
      "type": "event"
    },
    {
      "anonymous": false,
      "inputs": [
        {
          "indexed": true,
          "internalType": "address",
          "name": "previousOwner",
          "type": "address"
        },
        {
          "indexed": true,
          "internalType": "address",
          "name": "newOwner",
          "type": "address"
        }
      ],
      "name": "OwnershipTransferred",
      "type": "event"
    },
    {
      "anonymous": false,
      "inputs": [
        {
          "indexed": false,
          "internalType": "uint256",
          "name": "startTime",
          "type": "uint256"
        },
        {
          "indexed": false,
          "internalType": "uint256",
          "name": "endTime",
          "type": "uint256"
        },
        {
          "indexed": false,
          "internalType": "uint256",
          "name": "minimumDonationAmount",
          "type": "uint256"
        }
      ],
      "name": "RaffleCreated",
      "type": "event"
    },
    {
      "anonymous": false,
      "inputs": [
        {
          "indexed": true,
          "internalType": "bytes32",
          "name": "role",
          "type": "bytes32"
        },
        {
          "indexed": true,
          "internalType": "bytes32",
          "name": "previousAdminRole",
          "type": "bytes32"
        },
        {
          "indexed": true,
          "internalType": "bytes32",
          "name": "newAdminRole",
          "type": "bytes32"
        }
      ],
      "name": "RoleAdminChanged",
      "type": "event"
    },
    {
      "anonymous": false,
      "inputs": [
        {
          "indexed": true,
          "internalType": "bytes32",
          "name": "role",
          "type": "bytes32"
        },
        {
          "indexed": true,
          "internalType": "address",
          "name": "account",
          "type": "address"
        },
        {
          "indexed": true,
          "internalType": "address",
          "name": "sender",
          "type": "address"
        }
      ],
      "name": "RoleGranted",
      "type": "event"
    },
    {
      "anonymous": false,
      "inputs": [
        {
          "indexed": true,
          "internalType": "bytes32",
          "name": "role",
          "type": "bytes32"
        },
        {
          "indexed": true,
          "internalType": "address",
          "name": "account",
          "type": "address"
        },
        {
          "indexed": true,
          "internalType": "address",
          "name": "sender",
          "type": "address"
        }
      ],
      "name": "RoleRevoked",
      "type": "event"
    },
    {
      "anonymous": false,
      "inputs": [
        {
          "indexed": false,
          "internalType": "address",
          "name": "nftAuthorWallet",
          "type": "address"
        }
      ],
      "name": "nftAuthorWalletAddressSet",
      "type": "event"
    },
    {
      "inputs": [],
      "name": "DAOWallet",
      "outputs": [
        {
          "internalType": "address",
          "name": "",
          "type": "address"
        }
      ],
      "stateMutability": "view",
      "type": "function"
    },
    {
      "inputs": [],
      "name": "DEFAULT_ADMIN_ROLE",
      "outputs": [
        {
          "internalType": "bytes32",
          "name": "",
          "type": "bytes32"
        }
      ],
      "stateMutability": "view",
      "type": "function"
    },
    {
      "inputs": [],
      "name": "USDC",
      "outputs": [
        {
          "internalType": "contract IERC20",
          "name": "",
          "type": "address"
        }
      ],
      "stateMutability": "view",
      "type": "function"
    },
    {
      "inputs": [
        {
          "components": [
            {
              "internalType": "address",
              "name": "nftContract",
              "type": "address"
            },
            {
              "internalType": "address",
              "name": "nftOwner",
              "type": "address"
            },
            {
              "internalType": "uint256",
              "name": "tokenID",
              "type": "uint256"
            },
            {
              "internalType": "uint256",
              "name": "startTime",
              "type": "uint256"
            },
            {
              "internalType": "uint256",
              "name": "endTime",
              "type": "uint256"
            },
            {
              "internalType": "uint256",
              "name": "minimumDonationAmount",
              "type": "uint256"
            }
          ],
          "internalType": "struct Raffle.Raffle",
          "name": "_raffle",
          "type": "tuple"
        }
      ],
      "name": "createRaffle",
      "outputs": [
        {
          "internalType": "uint256",
          "name": "",
          "type": "uint256"
        }
      ],
      "stateMutability": "nonpayable",
      "type": "function"
    },
    {
      "inputs": [
        {
          "components": [
            {
              "internalType": "uint256",
              "name": "raffleID",
              "type": "uint256"
            },
            {
              "internalType": "uint256",
              "name": "amount",
              "type": "uint256"
            },
            {
              "internalType": "uint256",
              "name": "timestamp",
              "type": "uint256"
            }
          ],
          "internalType": "struct Raffle.Donation",
          "name": "_donation",
          "type": "tuple"
        }
      ],
      "name": "donate",
      "outputs": [],
      "stateMutability": "payable",
      "type": "function"
    },
    {
      "inputs": [
        {
          "internalType": "uint256",
          "name": "",
          "type": "uint256"
        },
        {
          "internalType": "address",
          "name": "",
          "type": "address"
        },
        {
          "internalType": "uint256",
          "name": "",
          "type": "uint256"
        }
      ],
      "name": "donations",
      "outputs": [
        {
          "internalType": "uint256",
          "name": "raffleID",
          "type": "uint256"
        },
        {
          "internalType": "uint256",
          "name": "amount",
          "type": "uint256"
        },
        {
          "internalType": "uint256",
          "name": "timestamp",
          "type": "uint256"
        }
      ],
      "stateMutability": "view",
      "type": "function"
    },
    {
      "inputs": [
        {
          "internalType": "uint256",
          "name": "",
          "type": "uint256"
        },
        {
          "internalType": "uint256",
          "name": "",
          "type": "uint256"
        }
      ],
      "name": "donorsArrayPerCycle",
      "outputs": [
        {
          "internalType": "address",
          "name": "",
          "type": "address"
        }
      ],
      "stateMutability": "view",
      "type": "function"
    },
    {
      "inputs": [
        {
          "internalType": "uint256",
          "name": "raffleID",
          "type": "uint256"
        }
      ],
      "name": "getDonorsPerCycle",
      "outputs": [
        {
          "internalType": "address[]",
          "name": "",
          "type": "address[]"
        }
      ],
      "stateMutability": "view",
      "type": "function"
    },
    {
      "inputs": [
        {
          "internalType": "uint256",
          "name": "raffleID",
          "type": "uint256"
        }
      ],
      "name": "getHighestDonationPerCycle",
      "outputs": [
        {
          "internalType": "uint256",
          "name": "",
          "type": "uint256"
        }
      ],
      "stateMutability": "view",
      "type": "function"
    },
    {
      "inputs": [
        {
          "internalType": "bytes32",
          "name": "role",
          "type": "bytes32"
        }
      ],
      "name": "getRoleAdmin",
      "outputs": [
        {
          "internalType": "bytes32",
          "name": "",
          "type": "bytes32"
        }
      ],
      "stateMutability": "view",
      "type": "function"
    },
    {
      "inputs": [
        {
          "internalType": "uint256",
          "name": "raffleID",
          "type": "uint256"
        },
        {
          "internalType": "address",
          "name": "account",
          "type": "address"
        }
      ],
      "name": "getTotalDonationPerAddressPerCycle",
      "outputs": [
        {
          "internalType": "uint256",
          "name": "",
          "type": "uint256"
        }
      ],
      "stateMutability": "view",
      "type": "function"
    },
    {
      "inputs": [
        {
          "internalType": "uint256",
          "name": "raffleID",
          "type": "uint256"
        }
      ],
      "name": "getTotalDonationsPerCycle",
      "outputs": [
        {
          "internalType": "uint256",
          "name": "",
          "type": "uint256"
        }
      ],
      "stateMutability": "view",
      "type": "function"
    },
    {
      "inputs": [
        {
          "internalType": "bytes32",
          "name": "role",
          "type": "bytes32"
        },
        {
          "internalType": "address",
          "name": "account",
          "type": "address"
        }
      ],
      "name": "grantRole",
      "outputs": [],
      "stateMutability": "nonpayable",
      "type": "function"
    },
    {
      "inputs": [
        {
          "internalType": "bytes32",
          "name": "role",
          "type": "bytes32"
        },
        {
          "internalType": "address",
          "name": "account",
          "type": "address"
        }
      ],
      "name": "hasRole",
      "outputs": [
        {
          "internalType": "bool",
          "name": "",
          "type": "bool"
        }
      ],
      "stateMutability": "view",
      "type": "function"
    },
    {
      "inputs": [],
      "name": "nftAuthorWallet",
      "outputs": [
        {
          "internalType": "address",
          "name": "",
          "type": "address"
        }
      ],
      "stateMutability": "view",
      "type": "function"
    },
    {
      "inputs": [],
      "name": "owner",
      "outputs": [
        {
          "internalType": "address",
          "name": "",
          "type": "address"
        }
      ],
      "stateMutability": "view",
      "type": "function"
    },
    {
      "inputs": [],
      "name": "raffleCount",
      "outputs": [
        {
          "internalType": "uint256",
          "name": "",
          "type": "uint256"
        }
      ],
      "stateMutability": "view",
      "type": "function"
    },
    {
      "inputs": [
        {
          "internalType": "uint256",
          "name": "",
          "type": "uint256"
        }
      ],
      "name": "raffles",
      "outputs": [
        {
          "internalType": "address",
          "name": "nftContract",
          "type": "address"
        },
        {
          "internalType": "address",
          "name": "nftOwner",
          "type": "address"
        },
        {
          "internalType": "uint256",
          "name": "tokenID",
          "type": "uint256"
        },
        {
          "internalType": "uint256",
          "name": "startTime",
          "type": "uint256"
        },
        {
          "internalType": "uint256",
          "name": "endTime",
          "type": "uint256"
        },
        {
          "internalType": "uint256",
          "name": "minimumDonationAmount",
          "type": "uint256"
        }
      ],
      "stateMutability": "view",
      "type": "function"
    },
    {
      "inputs": [],
      "name": "renounceOwnership",
      "outputs": [],
      "stateMutability": "nonpayable",
      "type": "function"
    },
    {
      "inputs": [
        {
          "internalType": "bytes32",
          "name": "role",
          "type": "bytes32"
        },
        {
          "internalType": "address",
          "name": "account",
          "type": "address"
        }
      ],
      "name": "renounceRole",
      "outputs": [],
      "stateMutability": "nonpayable",
      "type": "function"
    },
    {
      "inputs": [
        {
          "internalType": "bytes32",
          "name": "role",
          "type": "bytes32"
        },
        {
          "internalType": "address",
          "name": "account",
          "type": "address"
        }
      ],
      "name": "revokeRole",
      "outputs": [],
      "stateMutability": "nonpayable",
      "type": "function"
    },
    {
      "inputs": [
        {
          "internalType": "uint256",
          "name": "raffleID",
          "type": "uint256"
        }
      ],
      "name": "sendNFTRewards",
      "outputs": [],
      "stateMutability": "nonpayable",
      "type": "function"
    },
    {
      "inputs": [
        {
          "internalType": "address",
          "name": "_DAOWallet",
          "type": "address"
        }
      ],
      "name": "setDAOWalletAddress",
      "outputs": [],
      "stateMutability": "nonpayable",
      "type": "function"
    },
    {
      "inputs": [
        {
          "internalType": "address",
          "name": "_nftAuthorWallet",
          "type": "address"
        }
      ],
      "name": "setNftAuthorWalletAddress",
      "outputs": [],
      "stateMutability": "nonpayable",
      "type": "function"
    },
    {
      "inputs": [
        {
          "internalType": "bytes4",
          "name": "interfaceId",
          "type": "bytes4"
        }
      ],
      "name": "supportsInterface",
      "outputs": [
        {
          "internalType": "bool",
          "name": "",
          "type": "bool"
        }
      ],
      "stateMutability": "view",
      "type": "function"
    },
    {
      "inputs": [
        {
          "internalType": "uint256",
          "name": "",
          "type": "uint256"
        },
        {
          "internalType": "address",
          "name": "",
          "type": "address"
        }
      ],
      "name": "totalDonationPerAddressPerCycle",
      "outputs": [
        {
          "internalType": "uint256",
          "name": "",
          "type": "uint256"
        }
      ],
      "stateMutability": "view",
      "type": "function"
    },
    {
      "inputs": [],
      "name": "totalDonations",
      "outputs": [
        {
          "internalType": "uint256",
          "name": "",
          "type": "uint256"
        }
      ],
      "stateMutability": "view",
      "type": "function"
    },
    {
      "inputs": [
        {
          "internalType": "address",
          "name": "newOwner",
          "type": "address"
        }
      ],
      "name": "transferOwnership",
      "outputs": [],
      "stateMutability": "nonpayable",
      "type": "function"
    }
  ],
  "bytecode": "0x60806040523480156200001157600080fd5b5060405162001cde38038062001cde833981016040819052620000349162000124565b6200003f33620000d4565b6001600255600680546001600160a01b0319166001600160a01b03831690811790915560405163095ea7b360e01b8152306004820152600019602482015263095ea7b3906044016020604051808303816000875af1158015620000a6573d6000803e3d6000fd5b505050506040513d601f19601f82011682018060405250810190620000cc919062000156565b50506200017a565b600080546001600160a01b038381166001600160a01b0319831681178455604051919092169283917f8be0079c531659141344cd1fd0a4f28419497f9722a3daafe3b4186f6b6457e09190a35050565b6000602082840312156200013757600080fd5b81516001600160a01b03811681146200014f57600080fd5b9392505050565b6000602082840312156200016957600080fd5b815180151581146200014f57600080fd5b611b54806200018a6000396000f3fe6080604052600436106101b75760003560e01c806386d392ba116100ec578063c1996e7f1161008a578063dfdb5ae411610064578063dfdb5ae4146105c4578063ea36c617146105e4578063eaf03b401461061c578063f2fde38b1461064957600080fd5b8063c1996e7f1461056e578063d547741f1461058e578063de2ed893146105ae57600080fd5b806391d14854116100c657806391d14854146104d0578063a217fddf14610516578063a54c120c1461052b578063a8754ef11461054157600080fd5b806386d392ba1461047257806389a30271146104925780638da5cb5b146104b257600080fd5b80634c43adea116101595780635f99223b116101335780635f99223b146103d85780636e33846114610405578063715018a61461042557806382b02eed1461043a57600080fd5b80634c43adea146102c557806351d84a5f146103085780635d4bc0ce1461034357600080fd5b80632648bc7e116101955780632648bc7e146102525780632f2ff15d1461026557806336568abe146102855780633f37175d146102a557600080fd5b806301ffc9a7146101bc57806321a13544146101f1578063248a9ca314610213575b600080fd5b3480156101c857600080fd5b506101dc6101d73660046116eb565b610669565b60405190151581526020015b60405180910390f35b3480156101fd57600080fd5b5061021161020c36600461172d565b610702565b005b34801561021f57600080fd5b5061024461022e36600461172d565b6000908152600160208190526040909120015490565b6040519081526020016101e8565b61021161026036600461175c565b61095c565b34801561027157600080fd5b506102116102803660046117e2565b610c18565b34801561029157600080fd5b506102116102a03660046117e2565b610c44565b3480156102b157600080fd5b506102446102c036600461180e565b610cd0565b3480156102d157600080fd5b506102446102e03660046117e2565b6000918252600a602090815260408084206001600160a01b0393909316845291905290205490565b34801561031457600080fd5b506103286103233660046118a2565b610e78565b604080519384526020840192909252908201526060016101e8565b34801561034f57600080fd5b506103a061035e36600461172d565b6008602052600090815260409020805460018201546002830154600384015460048501546005909501546001600160a01b039485169593909416939192909186565b604080516001600160a01b039788168152969095166020870152938501929092526060840152608083015260a082015260c0016101e8565b3480156103e457600080fd5b506102446103f336600461172d565b6000908152600e602052604090205490565b34801561041157600080fd5b506102116104203660046118d7565b610ec8565b34801561043157600080fd5b50610211610f9e565b34801561044657600080fd5b5060045461045a906001600160a01b031681565b6040516001600160a01b0390911681526020016101e8565b34801561047e57600080fd5b5061045a61048d3660046118f2565b611004565b34801561049e57600080fd5b5060065461045a906001600160a01b031681565b3480156104be57600080fd5b506000546001600160a01b031661045a565b3480156104dc57600080fd5b506101dc6104eb3660046117e2565b60009182526001602090815260408084206001600160a01b0393909316845291905290205460ff1690565b34801561052257600080fd5b50610244600081565b34801561053757600080fd5b5061024460055481565b34801561054d57600080fd5b5061056161055c36600461172d565b61103c565b6040516101e89190611914565b34801561057a57600080fd5b506102116105893660046118d7565b6110a8565b34801561059a57600080fd5b506102116105a93660046117e2565b611177565b3480156105ba57600080fd5b5061024460075481565b3480156105d057600080fd5b5060035461045a906001600160a01b031681565b3480156105f057600080fd5b506102446105ff3660046117e2565b600a60209081526000928352604080842090915290825290205481565b34801561062857600080fd5b5061024461063736600461172d565b60009081526009602052604090205490565b34801561065557600080fd5b506102116106643660046118d7565b61119e565b60007fffffffff0000000000000000000000000000000000000000000000000000000082167f7965db0b0000000000000000000000000000000000000000000000000000000014806106fc57507f01ffc9a7000000000000000000000000000000000000000000000000000000007fffffffff000000000000000000000000000000000000000000000000000000008316145b92915050565b6000546001600160a01b031633146107615760405162461bcd60e51b815260206004820181905260248201527f4f776e61626c653a2063616c6c6572206973206e6f7420746865206f776e657260448201526064015b60405180910390fd5b6000818152600860205260409020600401544210156107ac576040517fcdf268ad00000000000000000000000000000000000000000000000000000000815260040160405180910390fd5b60006107b782611280565b60008381526008602052604080822080546002909101549151637921219560e11b81523060048201526001600160a01b038086166024830152604482018490526001606483015260a0608483015260a48201949094529394509190911691829063f242432a9060c401600060405180830381600087803b15801561083a57600080fd5b505af115801561084e573d6000803e3d6000fd5b5050600354604051637921219560e11b81523060048201526001600160a01b039182166024820152604481018590526001606482015260a06084820152600060a4820152908516925063f242432a915060c401600060405180830381600087803b1580156108bb57600080fd5b505af11580156108cf573d6000803e3d6000fd5b505060048054604051637921219560e11b815230928101929092526001600160a01b039081166024830152604482018590526001606483015260a06084830152600060a48301528516925063f242432a915060c401600060405180830381600087803b15801561093e57600080fd5b505af1158015610952573d6000803e3d6000fd5b5050505050505050565b6002805414156109ae5760405162461bcd60e51b815260206004820152601f60248201527f5265656e7472616e637947756172643a207265656e7472616e742063616c6c006044820152606401610758565b6002805580516000818152600860205260409020600401544211156109ff576040517fd328a25200000000000000000000000000000000000000000000000000000000815260040160405180910390fd5b6000818152600860209081526040909120600501549083015111610a4f576040517f7957a08500000000000000000000000000000000000000000000000000000000815260040160405180910390fd5b426040808401919091526020808401516000848152600a83528381203382529092529181208054909190610a84908490611977565b90915550506020808301516000838152600990925260408220805491929091610aae908490611977565b90915550506000818152600c6020908152604080832080546001810182559084528284200180546001600160a01b03191633908117909155848452600a8352818420908452825280832054848452600e90925290912054808210610b2b576000838152600d6020526040902080546001600160a01b031916331790555b60065460035460208601516040517f23b872dd0000000000000000000000000000000000000000000000000000000081523360048201526001600160a01b03928316602482015260448101919091529116906323b872dd906064016020604051808303816000875af1158015610ba5573d6000803e3d6000fd5b505050506040513d601f19601f82011682018060405250810190610bc9919061198f565b50602080850151604080513381529283018690528201527fdd5f9bf5cf036a4da6a1035c7f29f422c275d1e6f6b9e2a552e3e54228b390a59060600160405180910390a1505060016002555050565b60008281526001602081905260409091200154610c358133611329565b610c3f83836113a9565b505050565b6001600160a01b0381163314610cc25760405162461bcd60e51b815260206004820152602f60248201527f416363657373436f6e74726f6c3a2063616e206f6e6c792072656e6f756e636560448201527f20726f6c657320666f722073656c6600000000000000000000000000000000006064820152608401610758565b610ccc8282611430565b5050565b805160808201516060830151600092911015610d18576040517fd22dcab600000000000000000000000000000000000000000000000000000000815260040160405180910390fd5b60058054906000610d28836119b1565b909155505060058054600090815260086020908152604091829020865181546001600160a01b039182166001600160a01b0319918216178355888401516001840180549190931691161790558683015160028201556060808801516003830181905560808901516004840181905560a08a015193909601839055845190815292830194909452918101919091527f9aa2065fb625f0039ef34f9a9cb1fe8e45055c5aa4d830c016505ee55a598a84910160405180910390a160208301516040808501519051637921219560e11b81526001600160a01b039283166004808301919091523060248301526044820192909252606481019190915260a06084820152600060a48201529082169063f242432a9060c401600060405180830381600087803b158015610e5657600080fd5b505af1158015610e6a573d6000803e3d6000fd5b505060055495945050505050565b600b6020528260005260406000206020528160005260406000208181548110610ea057600080fd5b6000918252602090912060039091020180546001820154600290920154909450909250905083565b6000546001600160a01b03163314610f225760405162461bcd60e51b815260206004820181905260248201527f4f776e61626c653a2063616c6c6572206973206e6f7420746865206f776e65726044820152606401610758565b6001600160a01b038116610f49576040516342bcdf7f60e11b815260040160405180910390fd5b600380546001600160a01b0319166001600160a01b0383169081179091556040519081527f99e7e8f551bb4a95839337c445d25c103e8b923f563ec440667dd5c1bb5fa329906020015b60405180910390a150565b6000546001600160a01b03163314610ff85760405162461bcd60e51b815260206004820181905260248201527f4f776e61626c653a2063616c6c6572206973206e6f7420746865206f776e65726044820152606401610758565b61100260006114b3565b565b600c602052816000526040600020818154811061102057600080fd5b6000918252602090912001546001600160a01b03169150829050565b6000818152600c602090815260409182902080548351818402810184019094528084526060939283018282801561109c57602002820191906000526020600020905b81546001600160a01b0316815260019091019060200180831161107e575b50505050509050919050565b6000546001600160a01b031633146111025760405162461bcd60e51b815260206004820181905260248201527f4f776e61626c653a2063616c6c6572206973206e6f7420746865206f776e65726044820152606401610758565b6001600160a01b038116611129576040516342bcdf7f60e11b815260040160405180910390fd5b600480546001600160a01b0319166001600160a01b0383169081179091556040519081527fa099340b9009966c80f2d51f8425c15ffe5713a8c732f3d9e3b0d213ad03e35b90602001610f93565b600082815260016020819052604090912001546111948133611329565b610c3f8383611430565b6000546001600160a01b031633146111f85760405162461bcd60e51b815260206004820181905260248201527f4f776e61626c653a2063616c6c6572206973206e6f7420746865206f776e65726044820152606401610758565b6001600160a01b0381166112745760405162461bcd60e51b815260206004820152602660248201527f4f776e61626c653a206e6577206f776e657220697320746865207a65726f206160448201527f64647265737300000000000000000000000000000000000000000000000000006064820152608401610758565b61127d816114b3565b50565b6000818152600c602090815260408083205490519091839183916112c391429133910191825260601b6bffffffffffffffffffffffff1916602082015260340190565b6040516020818303038152906040528051906020012060001c6112e691906119cc565b6000858152600c60205260408120805492935090918390811061130b5761130b6119ee565b6000918252602090912001546001600160a01b031695945050505050565b60008281526001602090815260408083206001600160a01b038516845290915290205460ff16610ccc57611367816001600160a01b03166014611503565b611372836020611503565b604051602001611383929190611a34565b60408051601f198184030181529082905262461bcd60e51b825261075891600401611ab5565b60008281526001602090815260408083206001600160a01b038516845290915290205460ff16610ccc5760008281526001602081815260408084206001600160a01b0386168086529252808420805460ff19169093179092559051339285917f2f8788117e7eff1d82e926ec794901d17c78024a50270940304540a733656f0d9190a45050565b60008281526001602090815260408083206001600160a01b038516845290915290205460ff1615610ccc5760008281526001602090815260408083206001600160a01b0385168085529252808320805460ff1916905551339285917ff6391f5c32d9c69d2a47ea670b442974b53935d1edc7fd64eb21e047a839171b9190a45050565b600080546001600160a01b038381166001600160a01b0319831681178455604051919092169283917f8be0079c531659141344cd1fd0a4f28419497f9722a3daafe3b4186f6b6457e09190a35050565b60606000611512836002611ae8565b61151d906002611977565b67ffffffffffffffff81111561153557611535611746565b6040519080825280601f01601f19166020018201604052801561155f576020820181803683370190505b5090507f300000000000000000000000000000000000000000000000000000000000000081600081518110611596576115966119ee565b60200101906001600160f81b031916908160001a9053507f7800000000000000000000000000000000000000000000000000000000000000816001815181106115e1576115e16119ee565b60200101906001600160f81b031916908160001a9053506000611605846002611ae8565b611610906001611977565b90505b6001811115611695577f303132333435363738396162636465660000000000000000000000000000000085600f1660108110611651576116516119ee565b1a60f81b828281518110611667576116676119ee565b60200101906001600160f81b031916908160001a90535060049490941c9361168e81611b07565b9050611613565b5083156116e45760405162461bcd60e51b815260206004820181905260248201527f537472696e67733a20686578206c656e67746820696e73756666696369656e746044820152606401610758565b9392505050565b6000602082840312156116fd57600080fd5b81357fffffffff00000000000000000000000000000000000000000000000000000000811681146116e457600080fd5b60006020828403121561173f57600080fd5b5035919050565b634e487b7160e01b600052604160045260246000fd5b60006060828403121561176e57600080fd5b6040516060810181811067ffffffffffffffff8211171561179f57634e487b7160e01b600052604160045260246000fd5b80604052508235815260208301356020820152604083013560408201528091505092915050565b80356001600160a01b03811681146117dd57600080fd5b919050565b600080604083850312156117f557600080fd5b82359150611805602084016117c6565b90509250929050565b600060c0828403121561182057600080fd5b60405160c0810181811067ffffffffffffffff8211171561185157634e487b7160e01b600052604160045260246000fd5b60405261185d836117c6565b815261186b602084016117c6565b602082015260408301356040820152606083013560608201526080830135608082015260a083013560a08201528091505092915050565b6000806000606084860312156118b757600080fd5b833592506118c7602085016117c6565b9150604084013590509250925092565b6000602082840312156118e957600080fd5b6116e4826117c6565b6000806040838503121561190557600080fd5b50508035926020909101359150565b6020808252825182820181905260009190848201906040850190845b818110156119555783516001600160a01b031683529284019291840191600101611930565b50909695505050505050565b634e487b7160e01b600052601160045260246000fd5b6000821982111561198a5761198a611961565b500190565b6000602082840312156119a157600080fd5b815180151581146116e457600080fd5b60006000198214156119c5576119c5611961565b5060010190565b6000826119e957634e487b7160e01b600052601260045260246000fd5b500690565b634e487b7160e01b600052603260045260246000fd5b60005b83811015611a1f578181015183820152602001611a07565b83811115611a2e576000848401525b50505050565b7f416363657373436f6e74726f6c3a206163636f756e7420000000000000000000815260008351611a6c816017850160208801611a04565b7f206973206d697373696e6720726f6c65200000000000000000000000000000006017918401918201528351611aa9816028840160208801611a04565b01602801949350505050565b6020815260008251806020840152611ad4816040850160208701611a04565b601f01601f19169190910160400192915050565b6000816000190483118215151615611b0257611b02611961565b500290565b600081611b1657611b16611961565b50600019019056fea26469706673582212205966a284b5fd263be5ba5e8f4777986c447aede0f97cfcb8aaec0e75b373868f64736f6c634300080b0033",
  "linkReferences": {},
  "deployedLinkReferences": {}
}