{
  "_format": "hh-sol-artifact-1",
  "contractName": "Raffle",
  "sourceName": "contracts/Raffle.sol",
  "abi": [
    {
      "inputs": [
        {
          "internalType": "address",
          "name": "_usdc",
          "type": "address"
        }
      ],
      "stateMutability": "nonpayable",
      "type": "constructor"
    },
    {
      "inputs": [],
      "name": "DonationTooLow",
      "type": "error"
    },
    {
      "inputs": [],
      "name": "IncorrectTimesGiven",
      "type": "error"
    },
    {
      "inputs": [],
      "name": "RaffleHasEnded",
      "type": "error"
    },
    {
      "inputs": [],
      "name": "RaffleHasNotEnded",
      "type": "error"
    },
    {
      "inputs": [],
      "name": "ZeroAddressNotAllowed",
      "type": "error"
    },
    {
      "anonymous": false,
      "inputs": [
        {
          "indexed": false,
          "internalType": "address",
          "name": "walletAddress",
          "type": "address"
        }
      ],
      "name": "DAOWalletAddressSet",
      "type": "event"
    },
    {
      "anonymous": false,
      "inputs": [
        {
          "indexed": false,
          "internalType": "address",
          "name": "from",
          "type": "address"
        },
        {
          "indexed": false,
          "internalType": "uint256",
          "name": "raffleId",
          "type": "uint256"
        },
        {
          "indexed": false,
          "internalType": "uint256",
          "name": "amount",
          "type": "uint256"
        }
      ],
      "name": "DonationPlaced",
      "type": "event"
    },
    {
      "anonymous": false,
      "inputs": [
        {
          "indexed": false,
          "internalType": "uint256",
          "name": "raffleID",
          "type": "uint256"
        },
        {
          "indexed": false,
          "internalType": "address",
          "name": "winner",
          "type": "address"
        }
      ],
      "name": "NFTsentToWinner",
      "type": "event"
    },
    {
      "anonymous": false,
      "inputs": [
        {
          "indexed": true,
          "internalType": "address",
          "name": "previousOwner",
          "type": "address"
        },
        {
          "indexed": true,
          "internalType": "address",
          "name": "newOwner",
          "type": "address"
        }
      ],
      "name": "OwnershipTransferred",
      "type": "event"
    },
    {
      "anonymous": false,
      "inputs": [
        {
          "indexed": false,
          "internalType": "address",
          "name": "nftOwner",
          "type": "address"
        },
        {
          "indexed": false,
          "internalType": "uint256",
          "name": "tokenID",
          "type": "uint256"
        },
        {
          "indexed": false,
          "internalType": "uint256",
          "name": "startTime",
          "type": "uint256"
        },
        {
          "indexed": false,
          "internalType": "uint256",
          "name": "endTime",
          "type": "uint256"
        },
        {
          "indexed": false,
          "internalType": "uint256",
          "name": "minimumDonationAmount",
          "type": "uint256"
        }
      ],
      "name": "RaffleCreated",
      "type": "event"
    },
    {
      "anonymous": false,
      "inputs": [
        {
          "indexed": true,
          "internalType": "bytes32",
          "name": "role",
          "type": "bytes32"
        },
        {
          "indexed": true,
          "internalType": "bytes32",
          "name": "previousAdminRole",
          "type": "bytes32"
        },
        {
          "indexed": true,
          "internalType": "bytes32",
          "name": "newAdminRole",
          "type": "bytes32"
        }
      ],
      "name": "RoleAdminChanged",
      "type": "event"
    },
    {
      "anonymous": false,
      "inputs": [
        {
          "indexed": true,
          "internalType": "bytes32",
          "name": "role",
          "type": "bytes32"
        },
        {
          "indexed": true,
          "internalType": "address",
          "name": "account",
          "type": "address"
        },
        {
          "indexed": true,
          "internalType": "address",
          "name": "sender",
          "type": "address"
        }
      ],
      "name": "RoleGranted",
      "type": "event"
    },
    {
      "anonymous": false,
      "inputs": [
        {
          "indexed": true,
          "internalType": "bytes32",
          "name": "role",
          "type": "bytes32"
        },
        {
          "indexed": true,
          "internalType": "address",
          "name": "account",
          "type": "address"
        },
        {
          "indexed": true,
          "internalType": "address",
          "name": "sender",
          "type": "address"
        }
      ],
      "name": "RoleRevoked",
      "type": "event"
    },
    {
      "anonymous": false,
      "inputs": [
        {
          "indexed": false,
          "internalType": "address",
          "name": "nftAuthorWallet",
          "type": "address"
        }
      ],
      "name": "nftAuthorWalletAddressSet",
      "type": "event"
    },
    {
      "inputs": [],
      "name": "CURATOR_ROLE",
      "outputs": [
        {
          "internalType": "bytes32",
          "name": "",
          "type": "bytes32"
        }
      ],
      "stateMutability": "view",
      "type": "function"
    },
    {
      "inputs": [],
      "name": "DAOWallet",
      "outputs": [
        {
          "internalType": "address",
          "name": "",
          "type": "address"
        }
      ],
      "stateMutability": "view",
      "type": "function"
    },
    {
      "inputs": [],
      "name": "DEFAULT_ADMIN_ROLE",
      "outputs": [
        {
          "internalType": "bytes32",
          "name": "",
          "type": "bytes32"
        }
      ],
      "stateMutability": "view",
      "type": "function"
    },
    {
      "inputs": [],
      "name": "USDC",
      "outputs": [
        {
          "internalType": "contract IERC20",
          "name": "",
          "type": "address"
        }
      ],
      "stateMutability": "view",
      "type": "function"
    },
    {
      "inputs": [
        {
          "components": [
            {
              "internalType": "address",
              "name": "nftContract",
              "type": "address"
            },
            {
              "internalType": "address",
              "name": "nftOwner",
              "type": "address"
            },
            {
              "internalType": "uint256",
              "name": "tokenID",
              "type": "uint256"
            },
            {
              "internalType": "uint256",
              "name": "startTime",
              "type": "uint256"
            },
            {
              "internalType": "uint256",
              "name": "endTime",
              "type": "uint256"
            },
            {
              "internalType": "uint256",
              "name": "minimumDonationAmount",
              "type": "uint256"
            },
            {
              "internalType": "address",
              "name": "topDonor",
              "type": "address"
            },
            {
              "internalType": "uint256",
              "name": "topDonatedAmount",
              "type": "uint256"
            }
          ],
          "internalType": "struct Raffle.Raffle",
          "name": "_raffle",
          "type": "tuple"
        }
      ],
      "name": "createRaffle",
      "outputs": [
        {
          "internalType": "uint256",
          "name": "",
          "type": "uint256"
        }
      ],
      "stateMutability": "nonpayable",
      "type": "function"
    },
    {
      "inputs": [
        {
          "components": [
            {
              "internalType": "address",
              "name": "donor",
              "type": "address"
            },
            {
              "internalType": "uint256",
              "name": "raffleID",
              "type": "uint256"
            },
            {
              "internalType": "uint256",
              "name": "amount",
              "type": "uint256"
            },
            {
              "internalType": "uint256",
              "name": "timestamp",
              "type": "uint256"
            }
          ],
          "internalType": "struct Raffle.Donation",
          "name": "_donation",
          "type": "tuple"
        }
      ],
      "name": "donate",
      "outputs": [
        {
          "internalType": "uint256",
          "name": "",
          "type": "uint256"
        }
      ],
      "stateMutability": "payable",
      "type": "function"
    },
    {
      "inputs": [],
      "name": "donationCount",
      "outputs": [
        {
          "internalType": "uint256",
          "name": "",
          "type": "uint256"
        }
      ],
      "stateMutability": "view",
      "type": "function"
    },
    {
      "inputs": [
        {
          "internalType": "uint256",
          "name": "",
          "type": "uint256"
        }
      ],
      "name": "donations",
      "outputs": [
        {
          "internalType": "address",
          "name": "donor",
          "type": "address"
        },
        {
          "internalType": "uint256",
          "name": "raffleID",
          "type": "uint256"
        },
        {
          "internalType": "uint256",
          "name": "amount",
          "type": "uint256"
        },
        {
          "internalType": "uint256",
          "name": "timestamp",
          "type": "uint256"
        }
      ],
      "stateMutability": "view",
      "type": "function"
    },
    {
      "inputs": [
        {
          "internalType": "uint256",
          "name": "",
          "type": "uint256"
        },
        {
          "internalType": "uint256",
          "name": "",
          "type": "uint256"
        }
      ],
      "name": "donorsArrayPerCycle",
      "outputs": [
        {
          "internalType": "address",
          "name": "",
          "type": "address"
        }
      ],
      "stateMutability": "view",
      "type": "function"
    },
    {
      "inputs": [
        {
          "internalType": "uint256",
          "name": "donationID",
          "type": "uint256"
        }
      ],
      "name": "getDonation",
      "outputs": [
        {
          "components": [
            {
              "internalType": "address",
              "name": "donor",
              "type": "address"
            },
            {
              "internalType": "uint256",
              "name": "raffleID",
              "type": "uint256"
            },
            {
              "internalType": "uint256",
              "name": "amount",
              "type": "uint256"
            },
            {
              "internalType": "uint256",
              "name": "timestamp",
              "type": "uint256"
            }
          ],
          "internalType": "struct Raffle.Donation",
          "name": "",
          "type": "tuple"
        }
      ],
      "stateMutability": "view",
      "type": "function"
    },
    {
      "inputs": [
        {
          "internalType": "uint256",
          "name": "raffleID",
          "type": "uint256"
        }
      ],
      "name": "getDonorsPerCycle",
      "outputs": [
        {
          "internalType": "address[]",
          "name": "",
          "type": "address[]"
        }
      ],
      "stateMutability": "view",
      "type": "function"
    },
    {
      "inputs": [
        {
          "internalType": "uint256",
          "name": "raffleID",
          "type": "uint256"
        }
      ],
      "name": "getHighestDonationPerCycle",
      "outputs": [
        {
          "internalType": "uint256",
          "name": "",
          "type": "uint256"
        }
      ],
      "stateMutability": "view",
      "type": "function"
    },
    {
      "inputs": [
        {
          "internalType": "uint256",
          "name": "raffleID",
          "type": "uint256"
        }
      ],
      "name": "getRaffle",
      "outputs": [
        {
          "components": [
            {
              "internalType": "address",
              "name": "nftContract",
              "type": "address"
            },
            {
              "internalType": "address",
              "name": "nftOwner",
              "type": "address"
            },
            {
              "internalType": "uint256",
              "name": "tokenID",
              "type": "uint256"
            },
            {
              "internalType": "uint256",
              "name": "startTime",
              "type": "uint256"
            },
            {
              "internalType": "uint256",
              "name": "endTime",
              "type": "uint256"
            },
            {
              "internalType": "uint256",
              "name": "minimumDonationAmount",
              "type": "uint256"
            },
            {
              "internalType": "address",
              "name": "topDonor",
              "type": "address"
            },
            {
              "internalType": "uint256",
              "name": "topDonatedAmount",
              "type": "uint256"
            }
          ],
          "internalType": "struct Raffle.Raffle",
          "name": "",
          "type": "tuple"
        }
      ],
      "stateMutability": "view",
      "type": "function"
    },
    {
      "inputs": [
        {
          "internalType": "bytes32",
          "name": "role",
          "type": "bytes32"
        }
      ],
      "name": "getRoleAdmin",
      "outputs": [
        {
          "internalType": "bytes32",
          "name": "",
          "type": "bytes32"
        }
      ],
      "stateMutability": "view",
      "type": "function"
    },
    {
      "inputs": [
        {
          "internalType": "uint256",
          "name": "raffleID",
          "type": "uint256"
        }
      ],
      "name": "getTopDonor",
      "outputs": [
        {
          "internalType": "address",
          "name": "",
          "type": "address"
        }
      ],
      "stateMutability": "view",
      "type": "function"
    },
    {
      "inputs": [
        {
          "internalType": "uint256",
          "name": "raffleID",
          "type": "uint256"
        },
        {
          "internalType": "address",
          "name": "account",
          "type": "address"
        }
      ],
      "name": "getTotalDonationPerAddressPerCycle",
      "outputs": [
        {
          "internalType": "uint256",
          "name": "",
          "type": "uint256"
        }
      ],
      "stateMutability": "view",
      "type": "function"
    },
    {
      "inputs": [
        {
          "internalType": "uint256",
          "name": "raffleID",
          "type": "uint256"
        }
      ],
      "name": "getTotalDonationsPerCycle",
      "outputs": [
        {
          "internalType": "uint256",
          "name": "",
          "type": "uint256"
        }
      ],
      "stateMutability": "view",
      "type": "function"
    },
    {
      "inputs": [
        {
          "internalType": "bytes32",
          "name": "role",
          "type": "bytes32"
        },
        {
          "internalType": "address",
          "name": "account",
          "type": "address"
        }
      ],
      "name": "grantRole",
      "outputs": [],
      "stateMutability": "nonpayable",
      "type": "function"
    },
    {
      "inputs": [
        {
          "internalType": "bytes32",
          "name": "role",
          "type": "bytes32"
        },
        {
          "internalType": "address",
          "name": "account",
          "type": "address"
        }
      ],
      "name": "hasRole",
      "outputs": [
        {
          "internalType": "bool",
          "name": "",
          "type": "bool"
        }
      ],
      "stateMutability": "view",
      "type": "function"
    },
    {
      "inputs": [],
      "name": "nftAuthorWallet",
      "outputs": [
        {
          "internalType": "address",
          "name": "",
          "type": "address"
        }
      ],
      "stateMutability": "view",
      "type": "function"
    },
    {
      "inputs": [
        {
          "internalType": "address",
          "name": "operator",
          "type": "address"
        },
        {
          "internalType": "address",
          "name": "from",
          "type": "address"
        },
        {
          "internalType": "uint256",
          "name": "id",
          "type": "uint256"
        },
        {
          "internalType": "uint256",
          "name": "value",
          "type": "uint256"
        },
        {
          "internalType": "bytes",
          "name": "data",
          "type": "bytes"
        }
      ],
      "name": "onERC1155Received",
      "outputs": [
        {
          "internalType": "bytes4",
          "name": "",
          "type": "bytes4"
        }
      ],
      "stateMutability": "pure",
      "type": "function"
    },
    {
      "inputs": [],
      "name": "owner",
      "outputs": [
        {
          "internalType": "address",
          "name": "",
          "type": "address"
        }
      ],
      "stateMutability": "view",
      "type": "function"
    },
    {
      "inputs": [],
      "name": "raffleCount",
      "outputs": [
        {
          "internalType": "uint256",
          "name": "",
          "type": "uint256"
        }
      ],
      "stateMutability": "view",
      "type": "function"
    },
    {
      "inputs": [
        {
          "internalType": "uint256",
          "name": "",
          "type": "uint256"
        }
      ],
      "name": "raffles",
      "outputs": [
        {
          "internalType": "address",
          "name": "nftContract",
          "type": "address"
        },
        {
          "internalType": "address",
          "name": "nftOwner",
          "type": "address"
        },
        {
          "internalType": "uint256",
          "name": "tokenID",
          "type": "uint256"
        },
        {
          "internalType": "uint256",
          "name": "startTime",
          "type": "uint256"
        },
        {
          "internalType": "uint256",
          "name": "endTime",
          "type": "uint256"
        },
        {
          "internalType": "uint256",
          "name": "minimumDonationAmount",
          "type": "uint256"
        },
        {
          "internalType": "address",
          "name": "topDonor",
          "type": "address"
        },
        {
          "internalType": "uint256",
          "name": "topDonatedAmount",
          "type": "uint256"
        }
      ],
      "stateMutability": "view",
      "type": "function"
    },
    {
      "inputs": [],
      "name": "renounceOwnership",
      "outputs": [],
      "stateMutability": "nonpayable",
      "type": "function"
    },
    {
      "inputs": [
        {
          "internalType": "bytes32",
          "name": "role",
          "type": "bytes32"
        },
        {
          "internalType": "address",
          "name": "account",
          "type": "address"
        }
      ],
      "name": "renounceRole",
      "outputs": [],
      "stateMutability": "nonpayable",
      "type": "function"
    },
    {
      "inputs": [
        {
          "internalType": "bytes32",
          "name": "role",
          "type": "bytes32"
        },
        {
          "internalType": "address",
          "name": "account",
          "type": "address"
        }
      ],
      "name": "revokeRole",
      "outputs": [],
      "stateMutability": "nonpayable",
      "type": "function"
    },
    {
      "inputs": [
        {
          "internalType": "uint256",
          "name": "raffleID",
          "type": "uint256"
        }
      ],
      "name": "sendNFTRewards",
      "outputs": [],
      "stateMutability": "nonpayable",
      "type": "function"
    },
    {
      "inputs": [
        {
          "internalType": "address",
          "name": "curator",
          "type": "address"
        }
      ],
      "name": "setCuratorRole",
      "outputs": [],
      "stateMutability": "nonpayable",
      "type": "function"
    },
    {
      "inputs": [
        {
          "internalType": "address",
          "name": "_DAOWallet",
          "type": "address"
        }
      ],
      "name": "setDAOWalletAddress",
      "outputs": [],
      "stateMutability": "nonpayable",
      "type": "function"
    },
    {
      "inputs": [
        {
          "internalType": "address",
          "name": "_nftAuthorWallet",
          "type": "address"
        }
      ],
      "name": "setNftAuthorWalletAddress",
      "outputs": [],
      "stateMutability": "nonpayable",
      "type": "function"
    },
    {
      "inputs": [
        {
          "internalType": "bytes4",
          "name": "interfaceId",
          "type": "bytes4"
        }
      ],
      "name": "supportsInterface",
      "outputs": [
        {
          "internalType": "bool",
          "name": "",
          "type": "bool"
        }
      ],
      "stateMutability": "view",
      "type": "function"
    },
    {
      "inputs": [
        {
          "internalType": "uint256",
          "name": "",
          "type": "uint256"
        },
        {
          "internalType": "address",
          "name": "",
          "type": "address"
        }
      ],
      "name": "totalDonationPerAddressPerCycle",
      "outputs": [
        {
          "internalType": "uint256",
          "name": "",
          "type": "uint256"
        }
      ],
      "stateMutability": "view",
      "type": "function"
    },
    {
      "inputs": [
        {
          "internalType": "address",
          "name": "newOwner",
          "type": "address"
        }
      ],
      "name": "transferOwnership",
      "outputs": [],
      "stateMutability": "nonpayable",
      "type": "function"
    }
  ],
  "bytecode": "0x60806040523480156200001157600080fd5b5060405162002533380380620025338339810160408190526200003491620000ba565b6200003f336200006a565b6001600255600780546001600160a01b0319166001600160a01b0392909216919091179055620000ec565b600080546001600160a01b038381166001600160a01b0319831681178455604051919092169283917f8be0079c531659141344cd1fd0a4f28419497f9722a3daafe3b4186f6b6457e09190a35050565b600060208284031215620000cd57600080fd5b81516001600160a01b0381168114620000e557600080fd5b9392505050565b61243780620000fc6000396000f3fe6080604052600436106102195760003560e01c80638da5cb5b1161011d578063d547741f116100b0578063eaf03b401161007f578063f23a6e6111610064578063f23a6e611461080c578063f2fde38b1461086a578063f8626af81461088a57600080fd5b8063eaf03b4014610783578063ef07a81f146107b057600080fd5b8063d547741f1461067b578063dfdb5ae41461069b578063e4dafec9146106bb578063ea36c6171461074b57600080fd5b8063a86bc714116100ec578063a86bc714146105fb578063a8754ef11461060e578063be91e3941461063b578063c1996e7f1461065b57600080fd5b80638da5cb5b1461056c57806391d148541461058a578063a217fddf146105d0578063a54c120c146105e557600080fd5b80634c43adea116101b0578063715018a61161017f57806382b02eed1161016457806382b02eed1461050c57806386d392ba1461052c57806389a302711461054c57600080fd5b8063715018a6146104a95780637859165f146104be57600080fd5b80634c43adea1461035e5780635d4bc0ce146103a15780635f99223b1461045c5780636e3384611461048957600080fd5b80632f2ff15d116101ec5780632f2ff15d146102ca57806336568abe146102ea5780633b940eb51461030a5780634a2cfb541461032a57600080fd5b806301ffc9a71461021e57806321a1354414610253578063248a9ca3146102755780632abfab4d146102b4575b600080fd5b34801561022a57600080fd5b5061023e610239366004611f0e565b610900565b60405190151581526020015b60405180910390f35b34801561025f57600080fd5b5061027361026e366004611f38565b610969565b005b34801561028157600080fd5b506102a6610290366004611f38565b6000908152600160208190526040909120015490565b60405190815260200161024a565b3480156102c057600080fd5b506102a660065481565b3480156102d657600080fd5b506102736102e5366004611f6d565b610d6d565b3480156102f657600080fd5b50610273610305366004611f6d565b610d99565b34801561031657600080fd5b50610273610325366004611f99565b610e25565b34801561033657600080fd5b506102a67f850d585eb7f024ccee5e68e55f2c26cc72e1e6ee456acf62135757a5eb9d4a1081565b34801561036a57600080fd5b506102a6610379366004611f6d565b6000918252600b602090815260408084206001600160a01b0393909316845291905290205490565b3480156103ad57600080fd5b5061040f6103bc366004611f38565b600860205260009081526040902080546001820154600283015460038401546004850154600586015460068701546007909701546001600160a01b03968716979587169694959394929391929091169088565b604080516001600160a01b03998a16815297891660208901528701959095526060860193909352608085019190915260a084015290921660c082015260e08101919091526101000161024a565b34801561046857600080fd5b506102a6610477366004611f38565b6000908152600e602052604090205490565b34801561049557600080fd5b506102736104a4366004611f99565b610eac565b3480156104b557600080fd5b50610273610f82565b3480156104ca57600080fd5b506104f46104d9366004611f38565b6000908152600d60205260409020546001600160a01b031690565b6040516001600160a01b03909116815260200161024a565b34801561051857600080fd5b506004546104f4906001600160a01b031681565b34801561053857600080fd5b506104f4610547366004611fb4565b610fe8565b34801561055857600080fd5b506007546104f4906001600160a01b031681565b34801561057857600080fd5b506000546001600160a01b03166104f4565b34801561059657600080fd5b5061023e6105a5366004611f6d565b60009182526001602090815260408084206001600160a01b0393909316845291905290205460ff1690565b3480156105dc57600080fd5b506102a6600081565b3480156105f157600080fd5b506102a660055481565b6102a661060936600461201d565b611020565b34801561061a57600080fd5b5061062e610629366004611f38565b6114fb565b60405161024a9190612088565b34801561064757600080fd5b506102a66106563660046120d5565b611567565b34801561066757600080fd5b50610273610676366004611f99565b611781565b34801561068757600080fd5b50610273610696366004611f6d565b611850565b3480156106a757600080fd5b506003546104f4906001600160a01b031681565b3480156106c757600080fd5b506106db6106d6366004611f38565b611877565b60405161024a91906000610100820190506001600160a01b0380845116835280602085015116602084015260408401516040840152606084015160608401526080840151608084015260a084015160a08401528060c08501511660c08401525060e083015160e083015292915050565b34801561075757600080fd5b506102a6610766366004611f6d565b600b60209081526000928352604080842090915290825290205481565b34801561078f57600080fd5b506102a661079e366004611f38565b6000908152600a602052604090205490565b3480156107bc57600080fd5b506107d06107cb366004611f38565b611956565b60405161024a919081516001600160a01b0316815260208083015190820152604080830151908201526060918201519181019190915260800190565b34801561081857600080fd5b5061085161082736600461217a565b7ff23a6e610000000000000000000000000000000000000000000000000000000095945050505050565b6040516001600160e01b0319909116815260200161024a565b34801561087657600080fd5b50610273610885366004611f99565b6119d8565b34801561089657600080fd5b506108d66108a5366004611f38565b60096020526000908152604090208054600182015460028301546003909301546001600160a01b0390921692909184565b604080516001600160a01b039095168552602085019390935291830152606082015260800161024a565b60006001600160e01b031982167f7965db0b00000000000000000000000000000000000000000000000000000000148061096357507f01ffc9a7000000000000000000000000000000000000000000000000000000006001600160e01b03198316145b92915050565b6000546001600160a01b031633146109c85760405162461bcd60e51b815260206004820181905260248201527f4f776e61626c653a2063616c6c6572206973206e6f7420746865206f776e657260448201526064015b60405180910390fd5b600081815260086020526040902060040154421015610a13576040517fcdf268ad00000000000000000000000000000000000000000000000000000000815260040160405180910390fd5b6000610a1e82611ab7565b6000838152600d6020526040812054919250906001600160a01b031660008481526008602052604080822080546002909101549151637921219560e11b81523060048201526001600160a01b038086166024830152604482018490526001606483015260a0608483015260a48201949094529394509190911691829063f242432a9060c401600060405180830381600087803b158015610abd57600080fd5b505af1158015610ad1573d6000803e3d6000fd5b5050604080518881526001600160a01b03871660208201527f63e7f772eee17a2469656820a22f393914e4fb575e3a4170ec5d3b6187b5a743935001905060405180910390a1604051637921219560e11b81523060048201526001600160a01b038581166024830152604482018390526001606483015260a06084830152600060a483015283169063f242432a9060c401600060405180830381600087803b158015610b7c57600080fd5b505af1158015610b90573d6000803e3d6000fd5b5050604080518881526001600160a01b03881660208201527f63e7f772eee17a2469656820a22f393914e4fb575e3a4170ec5d3b6187b5a743935001905060405180910390a1600354604051637921219560e11b81523060048201526001600160a01b039182166024820152604481018390526001606482015260a06084820152600060a48201529083169063f242432a9060c401600060405180830381600087803b158015610c3f57600080fd5b505af1158015610c53573d6000803e3d6000fd5b5050600354604080518981526001600160a01b0390921660208301527f63e7f772eee17a2469656820a22f393914e4fb575e3a4170ec5d3b6187b5a743935001905060405180910390a160048054604051637921219560e11b815230928101929092526001600160a01b039081166024830152604482018390526001606483015260a06084830152600060a483015283169063f242432a9060c401600060405180830381600087803b158015610d0857600080fd5b505af1158015610d1c573d6000803e3d6000fd5b5050600454604080518981526001600160a01b0390921660208301527f63e7f772eee17a2469656820a22f393914e4fb575e3a4170ec5d3b6187b5a743935001905060405180910390a15050505050565b60008281526001602081905260409091200154610d8a8133611b4c565b610d948383611bcc565b505050565b6001600160a01b0381163314610e175760405162461bcd60e51b815260206004820152602f60248201527f416363657373436f6e74726f6c3a2063616e206f6e6c792072656e6f756e636560448201527f20726f6c657320666f722073656c66000000000000000000000000000000000060648201526084016109bf565b610e218282611c53565b5050565b6000546001600160a01b03163314610e7f5760405162461bcd60e51b815260206004820181905260248201527f4f776e61626c653a2063616c6c6572206973206e6f7420746865206f776e657260448201526064016109bf565b610ea97f850d585eb7f024ccee5e68e55f2c26cc72e1e6ee456acf62135757a5eb9d4a1082611bcc565b50565b6000546001600160a01b03163314610f065760405162461bcd60e51b815260206004820181905260248201527f4f776e61626c653a2063616c6c6572206973206e6f7420746865206f776e657260448201526064016109bf565b6001600160a01b038116610f2d576040516342bcdf7f60e11b815260040160405180910390fd5b600380546001600160a01b0319166001600160a01b0383169081179091556040519081527f99e7e8f551bb4a95839337c445d25c103e8b923f563ec440667dd5c1bb5fa329906020015b60405180910390a150565b6000546001600160a01b03163314610fdc5760405162461bcd60e51b815260206004820181905260248201527f4f776e61626c653a2063616c6c6572206973206e6f7420746865206f776e657260448201526064016109bf565b610fe66000611cd6565b565b600c602052816000526040600020818154811061100457600080fd5b6000918252602090912001546001600160a01b03169150829050565b60006002805414156110745760405162461bcd60e51b815260206004820152601f60248201527f5265656e7472616e637947756172643a207265656e7472616e742063616c6c0060448201526064016109bf565b600280805560208084015160008181526008808452604080832081516101008101835281546001600160a01b0390811682526001830154811682890152978201549281019290925260038101546060830152600481015460808301819052600582015460a0840152600682015490971660c08301526007015460e08201529183905290925291421115611133576040517fd328a25200000000000000000000000000000000000000000000000000000000815260040160405180910390fd5b60008281526008602052604090819020600501549085015111611182576040517f7957a08500000000000000000000000000000000000000000000000000000000815260040160405180910390fd5b600680549060006111928361225a565b909155505042606085019081526006546000908152600960209081526040808320885181546001600160a01b0319166001600160a01b0390911617815582890151600182015581890151600282018190559451600390910155858352600b82528083203384529091528120805490919061120d908490612275565b90915550506040808501516000848152600a602052918220805491929091611236908490612275565b90915550506000828152600c6020908152604080832080546001810182559084528284200180546001600160a01b03191633908117909155858452600b83528184208185529092529091205460e083015160c0840151919290916001600160a01b0316141561134a5785604001518360e0018181516112b59190612275565b905250600084815260086020908152604091829020855181546001600160a01b03199081166001600160a01b03928316178355928701516001830180548516918316919091179055928601516002820155606086015160038201556080860151600482015560a0860151600582015560c0860151600682018054909316931692909217905560e0840151600790910155611407565b808211156114075760e083018281526000858152600e602090815260408083208690553360c08801818152898552600d845282852080546001600160a01b0319908116909317905560088452938290208851815483166001600160a01b03918216178255938901516001820180548416918616919091179055918801516002830155606088015160038301556080880151600483015560a08801516005830155925160068201805490941692169190911790915590516007909101555b60075460035460408881015190517f23b872dd0000000000000000000000000000000000000000000000000000000081523360048201526001600160a01b03928316602482015260448101919091529116906323b872dd906064016020604051808303816000875af1158015611481573d6000803e3d6000fd5b505050506040513d601f19601f820116820180604052508101906114a5919061228d565b50604080870151815133815260208101879052918201527fdd5f9bf5cf036a4da6a1035c7f29f422c275d1e6f6b9e2a552e3e54228b390a59060600160405180910390a150506006546001600255949350505050565b6000818152600c602090815260409182902080548351818402810184019094528084526060939283018282801561155b57602002820191906000526020600020905b81546001600160a01b0316815260019091019060200180831161153d575b50505050509050919050565b60007f850d585eb7f024ccee5e68e55f2c26cc72e1e6ee456acf62135757a5eb9d4a106115948133611b4c565b82516080840151606085015111156115d8576040517fd22dcab600000000000000000000000000000000000000000000000000000000815260040160405180910390fd5b600580549060006115e88361225a565b909155505060058054600090815260086020908152604091829020875181546001600160a01b039182166001600160a01b031991821617835592890151600183018054828416908616179055848a01516002840181905560608b01516003850181905560808c01516004860181905560a08d015198860189905560c08d01516006870180549190961697169690961790935560e08b015160079094019390935593517f1b1c288b734d07fa03889b4efe2a9e475e25c8e24eb971dd088dee01c54fc690956116e09594916001600160a01b03959095168552602085019390935260408401919091526060830152608082015260a00190565b60405180910390a160208401516040808601519051637921219560e11b81526001600160a01b039283166004808301919091523060248301526044820192909252606481019190915260a06084820152600060a48201529082169063f242432a9060c401600060405180830381600087803b15801561175e57600080fd5b505af1158015611772573d6000803e3d6000fd5b50506005549695505050505050565b6000546001600160a01b031633146117db5760405162461bcd60e51b815260206004820181905260248201527f4f776e61626c653a2063616c6c6572206973206e6f7420746865206f776e657260448201526064016109bf565b6001600160a01b038116611802576040516342bcdf7f60e11b815260040160405180910390fd5b600480546001600160a01b0319166001600160a01b0383169081179091556040519081527fa099340b9009966c80f2d51f8425c15ffe5713a8c732f3d9e3b0d213ad03e35b90602001610f77565b6000828152600160208190526040909120015461186d8133611b4c565b610d948383611c53565b6118da60405180610100016040528060006001600160a01b0316815260200160006001600160a01b031681526020016000815260200160008152602001600081526020016000815260200160006001600160a01b03168152602001600081525090565b5060009081526008602090815260409182902082516101008101845281546001600160a01b03908116825260018301548116938201939093526002820154938101939093526003810154606084015260048101546080840152600581015460a0840152600681015490911660c08301526007015460e082015290565b61198a604051806080016040528060006001600160a01b031681526020016000815260200160008152602001600081525090565b50600090815260096020908152604091829020825160808101845281546001600160a01b03168152600182015492810192909252600281015492820192909252600390910154606082015290565b6000546001600160a01b03163314611a325760405162461bcd60e51b815260206004820181905260248201527f4f776e61626c653a2063616c6c6572206973206e6f7420746865206f776e657260448201526064016109bf565b6001600160a01b038116611aae5760405162461bcd60e51b815260206004820152602660248201527f4f776e61626c653a206e6577206f776e657220697320746865207a65726f206160448201527f646472657373000000000000000000000000000000000000000000000000000060648201526084016109bf565b610ea981611cd6565b6000818152600c602090815260408083205481514281850152438184015244606082015260808082018790528351808303909101815260a0909101909252815191909201208290611b099083906122af565b6000858152600c602052604081208054929350909183908110611b2e57611b2e6122d1565b6000918252602090912001546001600160a01b031695945050505050565b60008281526001602090815260408083206001600160a01b038516845290915290205460ff16610e2157611b8a816001600160a01b03166014611d26565b611b95836020611d26565b604051602001611ba6929190612317565b60408051601f198184030181529082905262461bcd60e51b82526109bf91600401612398565b60008281526001602090815260408083206001600160a01b038516845290915290205460ff16610e215760008281526001602081815260408084206001600160a01b0386168086529252808420805460ff19169093179092559051339285917f2f8788117e7eff1d82e926ec794901d17c78024a50270940304540a733656f0d9190a45050565b60008281526001602090815260408083206001600160a01b038516845290915290205460ff1615610e215760008281526001602090815260408083206001600160a01b0385168085529252808320805460ff1916905551339285917ff6391f5c32d9c69d2a47ea670b442974b53935d1edc7fd64eb21e047a839171b9190a45050565b600080546001600160a01b038381166001600160a01b0319831681178455604051919092169283917f8be0079c531659141344cd1fd0a4f28419497f9722a3daafe3b4186f6b6457e09190a35050565b60606000611d358360026123cb565b611d40906002612275565b67ffffffffffffffff811115611d5857611d58611fd6565b6040519080825280601f01601f191660200182016040528015611d82576020820181803683370190505b5090507f300000000000000000000000000000000000000000000000000000000000000081600081518110611db957611db96122d1565b60200101906001600160f81b031916908160001a9053507f780000000000000000000000000000000000000000000000000000000000000081600181518110611e0457611e046122d1565b60200101906001600160f81b031916908160001a9053506000611e288460026123cb565b611e33906001612275565b90505b6001811115611eb8577f303132333435363738396162636465660000000000000000000000000000000085600f1660108110611e7457611e746122d1565b1a60f81b828281518110611e8a57611e8a6122d1565b60200101906001600160f81b031916908160001a90535060049490941c93611eb1816123ea565b9050611e36565b508315611f075760405162461bcd60e51b815260206004820181905260248201527f537472696e67733a20686578206c656e67746820696e73756666696369656e7460448201526064016109bf565b9392505050565b600060208284031215611f2057600080fd5b81356001600160e01b031981168114611f0757600080fd5b600060208284031215611f4a57600080fd5b5035919050565b80356001600160a01b0381168114611f6857600080fd5b919050565b60008060408385031215611f8057600080fd5b82359150611f9060208401611f51565b90509250929050565b600060208284031215611fab57600080fd5b611f0782611f51565b60008060408385031215611fc757600080fd5b50508035926020909101359150565b634e487b7160e01b600052604160045260246000fd5b604051601f8201601f1916810167ffffffffffffffff8111828210171561201557612015611fd6565b604052919050565b60006080828403121561202f57600080fd5b6040516080810181811067ffffffffffffffff8211171561205257612052611fd6565b60405261205e83611f51565b81526020830135602082015260408301356040820152606083013560608201528091505092915050565b6020808252825182820181905260009190848201906040850190845b818110156120c95783516001600160a01b0316835292840192918401916001016120a4565b50909695505050505050565b60006101008083850312156120e957600080fd5b6040519081019067ffffffffffffffff8211818310171561210c5761210c611fd6565b8160405261211984611f51565b815261212760208501611f51565b602082015260408401356040820152606084013560608201526080840135608082015260a084013560a082015261216060c08501611f51565b60c082015260e084013560e0820152809250505092915050565b600080600080600060a0868803121561219257600080fd5b61219b86611f51565b945060206121aa818801611f51565b94506040870135935060608701359250608087013567ffffffffffffffff808211156121d557600080fd5b818901915089601f8301126121e957600080fd5b8135818111156121fb576121fb611fd6565b61220d601f8201601f19168501611fec565b91508082528a8482850101111561222357600080fd5b80848401858401376000848284010152508093505050509295509295909350565b634e487b7160e01b600052601160045260246000fd5b600060001982141561226e5761226e612244565b5060010190565b6000821982111561228857612288612244565b500190565b60006020828403121561229f57600080fd5b81518015158114611f0757600080fd5b6000826122cc57634e487b7160e01b600052601260045260246000fd5b500690565b634e487b7160e01b600052603260045260246000fd5b60005b838110156123025781810151838201526020016122ea565b83811115612311576000848401525b50505050565b7f416363657373436f6e74726f6c3a206163636f756e742000000000000000000081526000835161234f8160178501602088016122e7565b7f206973206d697373696e6720726f6c6520000000000000000000000000000000601791840191820152835161238c8160288401602088016122e7565b01602801949350505050565b60208152600082518060208401526123b78160408501602087016122e7565b601f01601f19169190910160400192915050565b60008160001904831182151516156123e5576123e5612244565b500290565b6000816123f9576123f9612244565b50600019019056fea2646970667358221220f1ec134ed794d89fe859531f1a468cb44f25722bf24fcd71616a60957f8a0f9064736f6c634300080b0033",
  "linkReferences": {},
  "deployedLinkReferences": {}
}