{
  "_format": "hh-sol-artifact-1",
  "contractName": "Raffle",
  "sourceName": "contracts/Raffle.sol",
  "abi": [
    {
      "inputs": [
        {
          "internalType": "address",
          "name": "_usdc",
          "type": "address"
        },
        {
          "internalType": "address",
          "name": "_forwarder",
          "type": "address"
        }
      ],
      "stateMutability": "nonpayable",
      "type": "constructor"
    },
    {
      "inputs": [],
      "name": "DonationTooLow",
      "type": "error"
    },
    {
      "inputs": [],
      "name": "IncorrectTimesGiven",
      "type": "error"
    },
    {
      "inputs": [],
      "name": "RaffleHasEnded",
      "type": "error"
    },
    {
      "inputs": [],
      "name": "RaffleHasNotEnded",
      "type": "error"
    },
    {
      "inputs": [],
      "name": "ZeroAddressNotAllowed",
      "type": "error"
    },
    {
      "anonymous": false,
      "inputs": [
        {
          "indexed": false,
          "internalType": "address",
          "name": "walletAddress",
          "type": "address"
        }
      ],
      "name": "DAOWalletAddressSet",
      "type": "event"
    },
    {
      "anonymous": false,
      "inputs": [
        {
          "indexed": false,
          "internalType": "address",
          "name": "from",
          "type": "address"
        },
        {
          "indexed": false,
          "internalType": "uint256",
          "name": "raffleId",
          "type": "uint256"
        },
        {
          "indexed": false,
          "internalType": "uint256",
          "name": "amount",
          "type": "uint256"
        }
      ],
      "name": "DonationPlaced",
      "type": "event"
    },
    {
      "anonymous": false,
      "inputs": [
        {
          "indexed": false,
          "internalType": "uint256",
          "name": "raffleID",
          "type": "uint256"
        },
        {
          "indexed": false,
          "internalType": "address",
          "name": "winner",
          "type": "address"
        }
      ],
      "name": "NFTsentToWinner",
      "type": "event"
    },
    {
      "anonymous": false,
      "inputs": [
        {
          "indexed": true,
          "internalType": "address",
          "name": "previousOwner",
          "type": "address"
        },
        {
          "indexed": true,
          "internalType": "address",
          "name": "newOwner",
          "type": "address"
        }
      ],
      "name": "OwnershipTransferred",
      "type": "event"
    },
    {
      "anonymous": false,
      "inputs": [
        {
          "indexed": false,
          "internalType": "address",
          "name": "nftOwner",
          "type": "address"
        },
        {
          "indexed": false,
          "internalType": "uint256",
          "name": "tokenID",
          "type": "uint256"
        },
        {
          "indexed": false,
          "internalType": "uint256",
          "name": "startTime",
          "type": "uint256"
        },
        {
          "indexed": false,
          "internalType": "uint256",
          "name": "endTime",
          "type": "uint256"
        },
        {
          "indexed": false,
          "internalType": "uint256",
          "name": "minimumDonationAmount",
          "type": "uint256"
        }
      ],
      "name": "RaffleCreated",
      "type": "event"
    },
    {
      "anonymous": false,
      "inputs": [
        {
          "indexed": true,
          "internalType": "bytes32",
          "name": "role",
          "type": "bytes32"
        },
        {
          "indexed": true,
          "internalType": "bytes32",
          "name": "previousAdminRole",
          "type": "bytes32"
        },
        {
          "indexed": true,
          "internalType": "bytes32",
          "name": "newAdminRole",
          "type": "bytes32"
        }
      ],
      "name": "RoleAdminChanged",
      "type": "event"
    },
    {
      "anonymous": false,
      "inputs": [
        {
          "indexed": true,
          "internalType": "bytes32",
          "name": "role",
          "type": "bytes32"
        },
        {
          "indexed": true,
          "internalType": "address",
          "name": "account",
          "type": "address"
        },
        {
          "indexed": true,
          "internalType": "address",
          "name": "sender",
          "type": "address"
        }
      ],
      "name": "RoleGranted",
      "type": "event"
    },
    {
      "anonymous": false,
      "inputs": [
        {
          "indexed": true,
          "internalType": "bytes32",
          "name": "role",
          "type": "bytes32"
        },
        {
          "indexed": true,
          "internalType": "address",
          "name": "account",
          "type": "address"
        },
        {
          "indexed": true,
          "internalType": "address",
          "name": "sender",
          "type": "address"
        }
      ],
      "name": "RoleRevoked",
      "type": "event"
    },
    {
      "anonymous": false,
      "inputs": [
        {
          "indexed": false,
          "internalType": "address",
          "name": "nftAuthorWallet",
          "type": "address"
        }
      ],
      "name": "nftAuthorWalletAddressSet",
      "type": "event"
    },
    {
      "inputs": [],
      "name": "ADMIN_ROLE",
      "outputs": [
        {
          "internalType": "bytes32",
          "name": "",
          "type": "bytes32"
        }
      ],
      "stateMutability": "view",
      "type": "function"
    },
    {
      "inputs": [],
      "name": "CURATOR_ROLE",
      "outputs": [
        {
          "internalType": "bytes32",
          "name": "",
          "type": "bytes32"
        }
      ],
      "stateMutability": "view",
      "type": "function"
    },
    {
      "inputs": [],
      "name": "DAOWallet",
      "outputs": [
        {
          "internalType": "address",
          "name": "",
          "type": "address"
        }
      ],
      "stateMutability": "view",
      "type": "function"
    },
    {
      "inputs": [],
      "name": "DEFAULT_ADMIN_ROLE",
      "outputs": [
        {
          "internalType": "bytes32",
          "name": "",
          "type": "bytes32"
        }
      ],
      "stateMutability": "view",
      "type": "function"
    },
    {
      "inputs": [],
      "name": "USDC",
      "outputs": [
        {
          "internalType": "contract IERC20",
          "name": "",
          "type": "address"
        }
      ],
      "stateMutability": "view",
      "type": "function"
    },
    {
      "inputs": [
        {
          "components": [
            {
              "internalType": "address",
              "name": "nftContract",
              "type": "address"
            },
            {
              "internalType": "address",
              "name": "nftOwner",
              "type": "address"
            },
            {
              "internalType": "uint256",
              "name": "tokenID",
              "type": "uint256"
            },
            {
              "internalType": "uint256",
              "name": "startTime",
              "type": "uint256"
            },
            {
              "internalType": "uint256",
              "name": "endTime",
              "type": "uint256"
            },
            {
              "internalType": "uint256",
              "name": "minimumDonationAmount",
              "type": "uint256"
            },
            {
              "internalType": "address",
              "name": "topDonor",
              "type": "address"
            },
            {
              "internalType": "uint256",
              "name": "topDonatedAmount",
              "type": "uint256"
            }
          ],
          "internalType": "struct Raffle.Raffle",
          "name": "_raffle",
          "type": "tuple"
        }
      ],
      "name": "createRaffle",
      "outputs": [
        {
          "internalType": "uint256",
          "name": "",
          "type": "uint256"
        }
      ],
      "stateMutability": "nonpayable",
      "type": "function"
    },
    {
      "inputs": [
        {
          "components": [
            {
              "internalType": "address",
              "name": "donor",
              "type": "address"
            },
            {
              "internalType": "uint256",
              "name": "raffleID",
              "type": "uint256"
            },
            {
              "internalType": "uint256",
              "name": "amount",
              "type": "uint256"
            },
            {
              "internalType": "uint256",
              "name": "timestamp",
              "type": "uint256"
            }
          ],
          "internalType": "struct Raffle.Donation",
          "name": "_donation",
          "type": "tuple"
        }
      ],
      "name": "donate",
      "outputs": [
        {
          "internalType": "uint256",
          "name": "",
          "type": "uint256"
        }
      ],
      "stateMutability": "payable",
      "type": "function"
    },
    {
      "inputs": [],
      "name": "donationCount",
      "outputs": [
        {
          "internalType": "uint256",
          "name": "",
          "type": "uint256"
        }
      ],
      "stateMutability": "view",
      "type": "function"
    },
    {
      "inputs": [
        {
          "internalType": "uint256",
          "name": "",
          "type": "uint256"
        }
      ],
      "name": "donations",
      "outputs": [
        {
          "internalType": "address",
          "name": "donor",
          "type": "address"
        },
        {
          "internalType": "uint256",
          "name": "raffleID",
          "type": "uint256"
        },
        {
          "internalType": "uint256",
          "name": "amount",
          "type": "uint256"
        },
        {
          "internalType": "uint256",
          "name": "timestamp",
          "type": "uint256"
        }
      ],
      "stateMutability": "view",
      "type": "function"
    },
    {
      "inputs": [
        {
          "internalType": "uint256",
          "name": "",
          "type": "uint256"
        },
        {
          "internalType": "uint256",
          "name": "",
          "type": "uint256"
        }
      ],
      "name": "donorsArrayPerCycle",
      "outputs": [
        {
          "internalType": "address",
          "name": "",
          "type": "address"
        }
      ],
      "stateMutability": "view",
      "type": "function"
    },
    {
      "inputs": [
        {
          "internalType": "uint256",
          "name": "donationID",
          "type": "uint256"
        }
      ],
      "name": "getDonation",
      "outputs": [
        {
          "components": [
            {
              "internalType": "address",
              "name": "donor",
              "type": "address"
            },
            {
              "internalType": "uint256",
              "name": "raffleID",
              "type": "uint256"
            },
            {
              "internalType": "uint256",
              "name": "amount",
              "type": "uint256"
            },
            {
              "internalType": "uint256",
              "name": "timestamp",
              "type": "uint256"
            }
          ],
          "internalType": "struct Raffle.Donation",
          "name": "",
          "type": "tuple"
        }
      ],
      "stateMutability": "view",
      "type": "function"
    },
    {
      "inputs": [
        {
          "internalType": "uint256",
          "name": "raffleID",
          "type": "uint256"
        }
      ],
      "name": "getDonorsPerCycle",
      "outputs": [
        {
          "internalType": "address[]",
          "name": "",
          "type": "address[]"
        }
      ],
      "stateMutability": "view",
      "type": "function"
    },
    {
      "inputs": [
        {
          "internalType": "uint256",
          "name": "raffleID",
          "type": "uint256"
        }
      ],
      "name": "getHighestDonationPerCycle",
      "outputs": [
        {
          "internalType": "uint256",
          "name": "",
          "type": "uint256"
        }
      ],
      "stateMutability": "view",
      "type": "function"
    },
    {
      "inputs": [
        {
          "internalType": "uint256",
          "name": "raffleID",
          "type": "uint256"
        }
      ],
      "name": "getRaffle",
      "outputs": [
        {
          "components": [
            {
              "internalType": "address",
              "name": "nftContract",
              "type": "address"
            },
            {
              "internalType": "address",
              "name": "nftOwner",
              "type": "address"
            },
            {
              "internalType": "uint256",
              "name": "tokenID",
              "type": "uint256"
            },
            {
              "internalType": "uint256",
              "name": "startTime",
              "type": "uint256"
            },
            {
              "internalType": "uint256",
              "name": "endTime",
              "type": "uint256"
            },
            {
              "internalType": "uint256",
              "name": "minimumDonationAmount",
              "type": "uint256"
            },
            {
              "internalType": "address",
              "name": "topDonor",
              "type": "address"
            },
            {
              "internalType": "uint256",
              "name": "topDonatedAmount",
              "type": "uint256"
            }
          ],
          "internalType": "struct Raffle.Raffle",
          "name": "",
          "type": "tuple"
        }
      ],
      "stateMutability": "view",
      "type": "function"
    },
    {
      "inputs": [
        {
          "internalType": "bytes32",
          "name": "role",
          "type": "bytes32"
        }
      ],
      "name": "getRoleAdmin",
      "outputs": [
        {
          "internalType": "bytes32",
          "name": "",
          "type": "bytes32"
        }
      ],
      "stateMutability": "view",
      "type": "function"
    },
    {
      "inputs": [
        {
          "internalType": "uint256",
          "name": "raffleID",
          "type": "uint256"
        }
      ],
      "name": "getTopDonor",
      "outputs": [
        {
          "internalType": "address",
          "name": "",
          "type": "address"
        }
      ],
      "stateMutability": "view",
      "type": "function"
    },
    {
      "inputs": [
        {
          "internalType": "uint256",
          "name": "raffleID",
          "type": "uint256"
        },
        {
          "internalType": "address",
          "name": "account",
          "type": "address"
        }
      ],
      "name": "getTotalDonationPerAddressPerCycle",
      "outputs": [
        {
          "internalType": "uint256",
          "name": "",
          "type": "uint256"
        }
      ],
      "stateMutability": "view",
      "type": "function"
    },
    {
      "inputs": [
        {
          "internalType": "uint256",
          "name": "raffleID",
          "type": "uint256"
        }
      ],
      "name": "getTotalDonationsPerCycle",
      "outputs": [
        {
          "internalType": "uint256",
          "name": "",
          "type": "uint256"
        }
      ],
      "stateMutability": "view",
      "type": "function"
    },
    {
      "inputs": [
        {
          "internalType": "bytes32",
          "name": "role",
          "type": "bytes32"
        },
        {
          "internalType": "address",
          "name": "account",
          "type": "address"
        }
      ],
      "name": "grantRole",
      "outputs": [],
      "stateMutability": "nonpayable",
      "type": "function"
    },
    {
      "inputs": [
        {
          "internalType": "bytes32",
          "name": "role",
          "type": "bytes32"
        },
        {
          "internalType": "address",
          "name": "account",
          "type": "address"
        }
      ],
      "name": "hasRole",
      "outputs": [
        {
          "internalType": "bool",
          "name": "",
          "type": "bool"
        }
      ],
      "stateMutability": "view",
      "type": "function"
    },
    {
      "inputs": [
        {
          "internalType": "address",
          "name": "forwarder",
          "type": "address"
        }
      ],
      "name": "isTrustedForwarder",
      "outputs": [
        {
          "internalType": "bool",
          "name": "",
          "type": "bool"
        }
      ],
      "stateMutability": "view",
      "type": "function"
    },
    {
      "inputs": [],
      "name": "nftAuthorWallet",
      "outputs": [
        {
          "internalType": "address",
          "name": "",
          "type": "address"
        }
      ],
      "stateMutability": "view",
      "type": "function"
    },
    {
      "inputs": [
        {
          "internalType": "address",
          "name": "operator",
          "type": "address"
        },
        {
          "internalType": "address",
          "name": "from",
          "type": "address"
        },
        {
          "internalType": "uint256",
          "name": "id",
          "type": "uint256"
        },
        {
          "internalType": "uint256",
          "name": "value",
          "type": "uint256"
        },
        {
          "internalType": "bytes",
          "name": "data",
          "type": "bytes"
        }
      ],
      "name": "onERC1155Received",
      "outputs": [
        {
          "internalType": "bytes4",
          "name": "",
          "type": "bytes4"
        }
      ],
      "stateMutability": "pure",
      "type": "function"
    },
    {
      "inputs": [],
      "name": "owner",
      "outputs": [
        {
          "internalType": "address",
          "name": "",
          "type": "address"
        }
      ],
      "stateMutability": "view",
      "type": "function"
    },
    {
      "inputs": [],
      "name": "raffleCount",
      "outputs": [
        {
          "internalType": "uint256",
          "name": "",
          "type": "uint256"
        }
      ],
      "stateMutability": "view",
      "type": "function"
    },
    {
      "inputs": [
        {
          "internalType": "uint256",
          "name": "",
          "type": "uint256"
        }
      ],
      "name": "raffles",
      "outputs": [
        {
          "internalType": "address",
          "name": "nftContract",
          "type": "address"
        },
        {
          "internalType": "address",
          "name": "nftOwner",
          "type": "address"
        },
        {
          "internalType": "uint256",
          "name": "tokenID",
          "type": "uint256"
        },
        {
          "internalType": "uint256",
          "name": "startTime",
          "type": "uint256"
        },
        {
          "internalType": "uint256",
          "name": "endTime",
          "type": "uint256"
        },
        {
          "internalType": "uint256",
          "name": "minimumDonationAmount",
          "type": "uint256"
        },
        {
          "internalType": "address",
          "name": "topDonor",
          "type": "address"
        },
        {
          "internalType": "uint256",
          "name": "topDonatedAmount",
          "type": "uint256"
        }
      ],
      "stateMutability": "view",
      "type": "function"
    },
    {
      "inputs": [],
      "name": "renounceOwnership",
      "outputs": [],
      "stateMutability": "nonpayable",
      "type": "function"
    },
    {
      "inputs": [
        {
          "internalType": "bytes32",
          "name": "role",
          "type": "bytes32"
        },
        {
          "internalType": "address",
          "name": "account",
          "type": "address"
        }
      ],
      "name": "renounceRole",
      "outputs": [],
      "stateMutability": "nonpayable",
      "type": "function"
    },
    {
      "inputs": [
        {
          "internalType": "address",
          "name": "curator",
          "type": "address"
        }
      ],
      "name": "revokeCuratorRole",
      "outputs": [],
      "stateMutability": "nonpayable",
      "type": "function"
    },
    {
      "inputs": [
        {
          "internalType": "bytes32",
          "name": "role",
          "type": "bytes32"
        },
        {
          "internalType": "address",
          "name": "account",
          "type": "address"
        }
      ],
      "name": "revokeRole",
      "outputs": [],
      "stateMutability": "nonpayable",
      "type": "function"
    },
    {
      "inputs": [
        {
          "internalType": "uint256",
          "name": "raffleID",
          "type": "uint256"
        }
      ],
      "name": "sendNFTRewards",
      "outputs": [],
      "stateMutability": "nonpayable",
      "type": "function"
    },
    {
      "inputs": [
        {
          "internalType": "address",
          "name": "curator",
          "type": "address"
        }
      ],
      "name": "setCuratorRole",
      "outputs": [],
      "stateMutability": "nonpayable",
      "type": "function"
    },
    {
      "inputs": [
        {
          "internalType": "address",
          "name": "_DAOWallet",
          "type": "address"
        }
      ],
      "name": "setDAOWalletAddress",
      "outputs": [],
      "stateMutability": "nonpayable",
      "type": "function"
    },
    {
      "inputs": [
        {
          "internalType": "address",
          "name": "_nftAuthorWallet",
          "type": "address"
        }
      ],
      "name": "setNftAuthorWalletAddress",
      "outputs": [],
      "stateMutability": "nonpayable",
      "type": "function"
    },
    {
      "inputs": [
        {
          "internalType": "address",
          "name": "_forwarder",
          "type": "address"
        }
      ],
      "name": "setTrustedForwarder",
      "outputs": [],
      "stateMutability": "nonpayable",
      "type": "function"
    },
    {
      "inputs": [
        {
          "internalType": "bytes4",
          "name": "interfaceId",
          "type": "bytes4"
        }
      ],
      "name": "supportsInterface",
      "outputs": [
        {
          "internalType": "bool",
          "name": "",
          "type": "bool"
        }
      ],
      "stateMutability": "view",
      "type": "function"
    },
    {
      "inputs": [
        {
          "internalType": "uint256",
          "name": "",
          "type": "uint256"
        },
        {
          "internalType": "address",
          "name": "",
          "type": "address"
        }
      ],
      "name": "totalDonationPerAddressPerCycle",
      "outputs": [
        {
          "internalType": "uint256",
          "name": "",
          "type": "uint256"
        }
      ],
      "stateMutability": "view",
      "type": "function"
    },
    {
      "inputs": [
        {
          "internalType": "address",
          "name": "newOwner",
          "type": "address"
        }
      ],
      "name": "transferOwnership",
      "outputs": [],
      "stateMutability": "nonpayable",
      "type": "function"
    },
    {
      "inputs": [],
      "name": "trustedForwarder",
      "outputs": [
        {
          "internalType": "address",
          "name": "",
          "type": "address"
        }
      ],
      "stateMutability": "view",
      "type": "function"
    },
    {
      "inputs": [],
      "name": "versionRecipient",
      "outputs": [
        {
          "internalType": "string",
          "name": "",
          "type": "string"
        }
      ],
      "stateMutability": "view",
      "type": "function"
    }
  ],
  "bytecode": "0x60c06040526005608081905264191719171b60d91b60a0908152620000289160099190620002a6565b503480156200003657600080fd5b5060405162002c3638038062002c36833981016040819052620000599162000369565b6200006d620000676200010f565b6200012b565b6001600255600380546001600160a01b0319166001600160a01b038316179055600880546001600160a01b0319166001600160a01b038416179055620000e37f850d585eb7f024ccee5e68e55f2c26cc72e1e6ee456acf62135757a5eb9d4a1060008051602062002c168339815191526200017b565b6200010760008051602062002c16833981519152620001016200010f565b620001c8565b5050620003de565b6000620001266200027060201b62001df51760201c565b905090565b600080546001600160a01b038381166001600160a01b0319831681178455604051919092169283917f8be0079c531659141344cd1fd0a4f28419497f9722a3daafe3b4186f6b6457e09190a35050565b6000828152600160208190526040808320909101805490849055905190918391839186917fbd79b86ffe0ab8e8776151514217cd7cacd52c909f66475c3af44e129f0b00ff9190a4505050565b60008281526001602090815260408083206001600160a01b038516845290915290205460ff166200026c5760008281526001602081815260408084206001600160a01b0386168552909152909120805460ff191690911790556200022b6200010f565b6001600160a01b0316816001600160a01b0316837f2f8788117e7eff1d82e926ec794901d17c78024a50270940304540a733656f0d60405160405180910390a45b5050565b6000601436108015906200028e57506003546001600160a01b031633145b15620002a1575060131936013560601c90565b503390565b828054620002b490620003a1565b90600052602060002090601f016020900481019282620002d8576000855562000323565b82601f10620002f357805160ff191683800117855562000323565b8280016001018555821562000323579182015b828111156200032357825182559160200191906001019062000306565b506200033192915062000335565b5090565b5b8082111562000331576000815560010162000336565b80516001600160a01b03811681146200036457600080fd5b919050565b600080604083850312156200037d57600080fd5b62000388836200034c565b915062000398602084016200034c565b90509250929050565b600181811c90821680620003b657607f821691505b60208210811415620003d857634e487b7160e01b600052602260045260246000fd5b50919050565b61282880620003ee6000396000f3fe6080604052600436106102bb5760003560e01c806386d392ba1161016e578063d547741f116100cb578063eaf03b401161007f578063f23a6e6111610064578063f23a6e6114610991578063f2fde38b146109ef578063f8626af814610a0f57600080fd5b8063eaf03b4014610908578063ef07a81f1461093557600080fd5b8063dfdb5ae4116100b0578063dfdb5ae414610820578063e4dafec914610840578063ea36c617146108d057600080fd5b8063d547741f146107e0578063da7422281461080057600080fd5b8063a54c120c11610122578063a8754ef111610107578063a8754ef114610773578063be91e394146107a0578063c1996e7f146107c057600080fd5b8063a54c120c1461074a578063a86bc7141461076057600080fd5b80638da5cb5b116101535780638da5cb5b146106d157806391d14854146106ef578063a217fddf1461073557600080fd5b806386d392ba1461069157806389a30271146106b157600080fd5b8063572b6c051161021c57806373e9fbb7116101d05780637859165f116101b55780637859165f146106055780637da0a8771461065357806382b02eed1461067157600080fd5b806373e9fbb7146105b157806375b238fc146105d157600080fd5b80635f99223b116102015780635f99223b1461054f5780636e3384611461057c578063715018a61461059c57600080fd5b8063572b6c05146104655780635d4bc0ce1461049457600080fd5b806336568abe11610273578063486ff0cd11610258578063486ff0cd146103cc5780634a2cfb54146103ee5780634c43adea1461042257600080fd5b806336568abe1461038c5780633b940eb5146103ac57600080fd5b8063248a9ca3116102a4578063248a9ca3146103175780632abfab4d146103565780632f2ff15d1461036c57600080fd5b806301ffc9a7146102c057806321a13544146102f5575b600080fd5b3480156102cc57600080fd5b506102e06102db3660046122ca565b610a85565b60405190151581526020015b60405180910390f35b34801561030157600080fd5b506103156103103660046122f4565b610aee565b005b34801561032357600080fd5b506103486103323660046122f4565b6000908152600160208190526040909120015490565b6040519081526020016102ec565b34801561036257600080fd5b5061034860075481565b34801561037857600080fd5b50610315610387366004612329565b610ec6565b34801561039857600080fd5b506103156103a7366004612329565b610ef4565b3480156103b857600080fd5b506103156103c7366004612355565b610f95565b3480156103d857600080fd5b506103e1610fec565b6040516102ec91906123a0565b3480156103fa57600080fd5b506103487f850d585eb7f024ccee5e68e55f2c26cc72e1e6ee456acf62135757a5eb9d4a1081565b34801561042e57600080fd5b5061034861043d366004612329565b6000918252600d602090815260408084206001600160a01b0393909316845291905290205490565b34801561047157600080fd5b506102e0610480366004612355565b6003546001600160a01b0391821691161490565b3480156104a057600080fd5b506105026104af3660046122f4565b600a60205260009081526040902080546001820154600283015460038401546004850154600586015460068701546007909701546001600160a01b03968716979587169694959394929391929091169088565b604080516001600160a01b03998a16815297891660208901528701959095526060860193909352608085019190915260a084015290921660c082015260e0810191909152610100016102ec565b34801561055b57600080fd5b5061034861056a3660046122f4565b60009081526010602052604090205490565b34801561058857600080fd5b50610315610597366004612355565b61107a565b3480156105a857600080fd5b50610315611124565b3480156105bd57600080fd5b506103156105cc366004612355565b6111a9565b3480156105dd57600080fd5b506103487fa49807205ce4d355092ef5a8a18f56e8913cf4a201fbe287825b095693c2177581565b34801561061157600080fd5b5061063b6106203660046122f4565b6000908152600f60205260409020546001600160a01b031690565b6040516001600160a01b0390911681526020016102ec565b34801561065f57600080fd5b506003546001600160a01b031661063b565b34801561067d57600080fd5b5060055461063b906001600160a01b031681565b34801561069d57600080fd5b5061063b6106ac3660046123d3565b611200565b3480156106bd57600080fd5b5060085461063b906001600160a01b031681565b3480156106dd57600080fd5b506000546001600160a01b031661063b565b3480156106fb57600080fd5b506102e061070a366004612329565b60009182526001602090815260408084206001600160a01b0393909316845291905290205460ff1690565b34801561074157600080fd5b50610348600081565b34801561075657600080fd5b5061034860065481565b61034861076e36600461243c565b611238565b34801561077f57600080fd5b5061079361078e3660046122f4565b6117a4565b6040516102ec91906124a7565b3480156107ac57600080fd5b506103486107bb3660046124f4565b611810565b3480156107cc57600080fd5b506103156107db366004612355565b611a31565b3480156107ec57600080fd5b506103156107fb366004612329565b611ad3565b34801561080c57600080fd5b5061031561081b366004612355565b611afc565b34801561082c57600080fd5b5060045461063b906001600160a01b031681565b34801561084c57600080fd5b5061086061085b3660046122f4565b611b96565b6040516102ec91906000610100820190506001600160a01b0380845116835280602085015116602084015260408401516040840152606084015160608401526080840151608084015260a084015160a08401528060c08501511660c08401525060e083015160e083015292915050565b3480156108dc57600080fd5b506103486108eb366004612329565b600d60209081526000928352604080842090915290825290205481565b34801561091457600080fd5b506103486109233660046122f4565b6000908152600c602052604090205490565b34801561094157600080fd5b506109556109503660046122f4565b611c75565b6040516102ec919081516001600160a01b0316815260208083015190820152604080830151908201526060918201519181019190915260800190565b34801561099d57600080fd5b506109d66109ac366004612599565b7ff23a6e610000000000000000000000000000000000000000000000000000000095945050505050565b6040516001600160e01b031990911681526020016102ec565b3480156109fb57600080fd5b50610315610a0a366004612355565b611cf7565b348015610a1b57600080fd5b50610a5b610a2a3660046122f4565b600b6020526000908152604090208054600182015460028301546003909301546001600160a01b0390921692909184565b604080516001600160a01b03909516855260208501939093529183015260608201526080016102ec565b60006001600160e01b031982167f7965db0b000000000000000000000000000000000000000000000000000000001480610ae857507f01ffc9a7000000000000000000000000000000000000000000000000000000006001600160e01b03198316145b92915050565b7f850d585eb7f024ccee5e68e55f2c26cc72e1e6ee456acf62135757a5eb9d4a10610b2081610b1b611e29565b611e38565b6000828152600a6020526040902060040154421015610b6b576040517fcdf268ad00000000000000000000000000000000000000000000000000000000815260040160405180910390fd5b6000610b7683611eb8565b6000848152600f6020526040812054919250906001600160a01b03166000858152600a602052604080822080546002909101549151637921219560e11b81523060048201526001600160a01b038086166024830152604482018490526001606483015260a0608483015260a48201949094529394509190911691829063f242432a9060c401600060405180830381600087803b158015610c1557600080fd5b505af1158015610c29573d6000803e3d6000fd5b5050604080518981526001600160a01b03871660208201527f63e7f772eee17a2469656820a22f393914e4fb575e3a4170ec5d3b6187b5a743935001905060405180910390a1604051637921219560e11b81523060048201526001600160a01b038581166024830152604482018390526001606483015260a06084830152600060a483015283169063f242432a9060c401600060405180830381600087803b158015610cd457600080fd5b505af1158015610ce8573d6000803e3d6000fd5b5050604080518981526001600160a01b03881660208201527f63e7f772eee17a2469656820a22f393914e4fb575e3a4170ec5d3b6187b5a743935001905060405180910390a160048054604051637921219560e11b815230928101929092526001600160a01b039081166024830152604482018390526001606483015260a06084830152600060a483015283169063f242432a9060c401600060405180830381600087803b158015610d9957600080fd5b505af1158015610dad573d6000803e3d6000fd5b5050600454604080518a81526001600160a01b0390921660208301527f63e7f772eee17a2469656820a22f393914e4fb575e3a4170ec5d3b6187b5a743935001905060405180910390a1600554604051637921219560e11b81523060048201526001600160a01b039182166024820152604481018390526001606482015260a06084820152600060a48201529083169063f242432a9060c401600060405180830381600087803b158015610e6057600080fd5b505af1158015610e74573d6000803e3d6000fd5b5050600554604080518a81526001600160a01b0390921660208301527f63e7f772eee17a2469656820a22f393914e4fb575e3a4170ec5d3b6187b5a743935001905060405180910390a1505050505050565b60008281526001602081905260409091200154610ee581610b1b611e29565b610eef8383611f4d565b505050565b610efc611e29565b6001600160a01b0316816001600160a01b031614610f875760405162461bcd60e51b815260206004820152602f60248201527f416363657373436f6e74726f6c3a2063616e206f6e6c792072656e6f756e636560448201527f20726f6c657320666f722073656c66000000000000000000000000000000000060648201526084015b60405180910390fd5b610f918282611ff1565b5050565b7fa49807205ce4d355092ef5a8a18f56e8913cf4a201fbe287825b095693c21775610fc281610b1b611e29565b610f917f850d585eb7f024ccee5e68e55f2c26cc72e1e6ee456acf62135757a5eb9d4a1083611f4d565b60098054610ff990612663565b80601f016020809104026020016040519081016040528092919081815260200182805461102590612663565b80156110725780601f1061104757610100808354040283529160200191611072565b820191906000526020600020905b81548152906001019060200180831161105557829003601f168201915b505050505081565b7fa49807205ce4d355092ef5a8a18f56e8913cf4a201fbe287825b095693c217756110a781610b1b611e29565b6001600160a01b0382166110ce576040516342bcdf7f60e11b815260040160405180910390fd5b600480546001600160a01b0319166001600160a01b0384169081179091556040519081527f99e7e8f551bb4a95839337c445d25c103e8b923f563ec440667dd5c1bb5fa329906020015b60405180910390a15050565b61112c611e29565b6001600160a01b03166111476000546001600160a01b031690565b6001600160a01b03161461119d5760405162461bcd60e51b815260206004820181905260248201527f4f776e61626c653a2063616c6c6572206973206e6f7420746865206f776e65726044820152606401610f7e565b6111a76000612092565b565b7fa49807205ce4d355092ef5a8a18f56e8913cf4a201fbe287825b095693c217756111d681610b1b611e29565b610f917f850d585eb7f024ccee5e68e55f2c26cc72e1e6ee456acf62135757a5eb9d4a1083611ad3565b600e602052816000526040600020818154811061121c57600080fd5b6000918252602090912001546001600160a01b03169150829050565b600060028054141561128c5760405162461bcd60e51b815260206004820152601f60248201527f5265656e7472616e637947756172643a207265656e7472616e742063616c6c006044820152606401610f7e565b60028080556020808401516000818152600a808452604080832081516101008101835281546001600160a01b0390811682526001830154811682890152978201549281019290925260038101546060830152600481015460808301819052600582015460a0840152600682015490971660c08301526007015460e0820152918390529092529142111561134b576040517fd328a25200000000000000000000000000000000000000000000000000000000815260040160405180910390fd5b6000828152600a60205260409081902060050154908501511161139a576040517f7957a08500000000000000000000000000000000000000000000000000000000815260040160405180910390fd5b600780549060006113aa836126ae565b909155505042606085019081526007546000908152600b60209081526040808320885181546001600160a01b0319166001600160a01b0390911617815582890151600182015581890151600282018190559451600390910155858352600d909152812090611416611e29565b6001600160a01b03166001600160a01b03168152602001908152602001600020600082825461144591906126c9565b90915550506040808501516000848152600c60205291822080549192909161146e9084906126c9565b90915550506000828152600e60205260409020611489611e29565b81546001810183556000928352602080842090910180546001600160a01b0319166001600160a01b039390931692909217909155838252600d905260408120816114d1611e29565b6001600160a01b0316815260208101919091526040016000205460e08301519091506114fb611e29565b6001600160a01b03168360c001516001600160a01b031614156115c35785604001518360e00181815161152e91906126c9565b9052506000848152600a6020908152604091829020855181546001600160a01b03199081166001600160a01b03928316178355928701516001830180548516918316919091179055928601516002820155606086015160038201556080860151600482015560a0860151600582015560c0860151600682018054909316931692909217905560e08401516007909101556116a0565b808211156116a05760e0830182905260008481526010602052604090208290556115eb611e29565b6001600160a01b031660c0840152611601611e29565b6000858152600f6020908152604080832080546001600160a01b03199081166001600160a01b0396871617909155600a8352928190208751815485169086161781559187015160018301805485169186169190911790558601516002820155606086015160038201556080860151600482015560a0860151600582015560c0860151600682018054909316931692909217905560e08401516007909101555b6008546001600160a01b03166323b872dd6116b9611e29565b6004805460408b810151905160e086901b6001600160e01b03191681526001600160a01b03948516938101939093529216602482015260448101919091526064016020604051808303816000875af1158015611719573d6000803e3d6000fd5b505050506040513d601f19601f8201168201806040525081019061173d91906126e1565b507fdd5f9bf5cf036a4da6a1035c7f29f422c275d1e6f6b9e2a552e3e54228b390a5611767611e29565b60408089015181516001600160a01b039093168352602083018890529082015260600160405180910390a150506007546001600255949350505050565b6000818152600e602090815260409182902080548351818402810184019094528084526060939283018282801561180457602002820191906000526020600020905b81546001600160a01b031681526001909101906020018083116117e6575b50505050509050919050565b60007f850d585eb7f024ccee5e68e55f2c26cc72e1e6ee456acf62135757a5eb9d4a1061183f81610b1b611e29565b8251608084015160608501511115611883576040517fd22dcab600000000000000000000000000000000000000000000000000000000815260040160405180910390fd5b60068054906000611893836126ae565b9091555050600680546000908152600a6020908152604091829020875181546001600160a01b039182166001600160a01b031991821617835592890151600183018054828416908616179055848a01516002840181905560608b01516003850181905560808c01516004860181905560a08d01516005870181905560c08e015199870180549a909616999097169890981790935560e08b015160079094019390935593517f1b1c288b734d07fa03889b4efe2a9e475e25c8e24eb971dd088dee01c54fc6909561198e959490916001600160a01b03959095168552602085019390935260408401919091526060830152608082015260a00190565b60405180910390a160208401516040808601519051637921219560e11b81526001600160a01b039283166004808301919091523060248301526044820192909252606481019190915260a06084820152600060a48201529082169063f242432a9060c401600060405180830381600087803b158015611a0c57600080fd5b505af1158015611a20573d6000803e3d6000fd5b505050506006549250505b50919050565b7f850d585eb7f024ccee5e68e55f2c26cc72e1e6ee456acf62135757a5eb9d4a10611a5e81610b1b611e29565b6001600160a01b038216611a85576040516342bcdf7f60e11b815260040160405180910390fd5b600580546001600160a01b0319166001600160a01b0384169081179091556040519081527fa099340b9009966c80f2d51f8425c15ffe5713a8c732f3d9e3b0d213ad03e35b90602001611118565b60008281526001602081905260409091200154611af281610b1b611e29565b610eef8383611ff1565b611b04611e29565b6001600160a01b0316611b1f6000546001600160a01b031690565b6001600160a01b031614611b755760405162461bcd60e51b815260206004820181905260248201527f4f776e61626c653a2063616c6c6572206973206e6f7420746865206f776e65726044820152606401610f7e565b600380546001600160a01b0319166001600160a01b03831617905550565b50565b611bf960405180610100016040528060006001600160a01b0316815260200160006001600160a01b031681526020016000815260200160008152602001600081526020016000815260200160006001600160a01b03168152602001600081525090565b506000908152600a602090815260409182902082516101008101845281546001600160a01b03908116825260018301548116938201939093526002820154938101939093526003810154606084015260048101546080840152600581015460a0840152600681015490911660c08301526007015460e082015290565b611ca9604051806080016040528060006001600160a01b031681526020016000815260200160008152602001600081525090565b506000908152600b6020908152604091829020825160808101845281546001600160a01b03168152600182015492810192909252600281015492820192909252600390910154606082015290565b611cff611e29565b6001600160a01b0316611d1a6000546001600160a01b031690565b6001600160a01b031614611d705760405162461bcd60e51b815260206004820181905260248201527f4f776e61626c653a2063616c6c6572206973206e6f7420746865206f776e65726044820152606401610f7e565b6001600160a01b038116611dec5760405162461bcd60e51b815260206004820152602660248201527f4f776e61626c653a206e6577206f776e657220697320746865207a65726f206160448201527f64647265737300000000000000000000000000000000000000000000000000006064820152608401610f7e565b611b9381612092565b600060143610801590611e1257506003546001600160a01b031633145b15611e24575060131936013560601c90565b503390565b6000611e33611df5565b905090565b60008281526001602090815260408083206001600160a01b038516845290915290205460ff16610f9157611e76816001600160a01b031660146120e2565b611e818360206120e2565b604051602001611e92929190612703565b60408051601f198184030181529082905262461bcd60e51b8252610f7e916004016123a0565b6000818152600e602090815260408083205481514281850152438184015244606082015260808082018790528351808303909101815260a0909101909252815191909201208290611f0a908390612784565b6000858152600e602052604081208054929350909183908110611f2f57611f2f6127a6565b6000918252602090912001546001600160a01b031695945050505050565b60008281526001602090815260408083206001600160a01b038516845290915290205460ff16610f915760008281526001602081815260408084206001600160a01b0386168552909152909120805460ff19169091179055611fad611e29565b6001600160a01b0316816001600160a01b0316837f2f8788117e7eff1d82e926ec794901d17c78024a50270940304540a733656f0d60405160405180910390a45050565b60008281526001602090815260408083206001600160a01b038516845290915290205460ff1615610f915760008281526001602090815260408083206001600160a01b03851684529091529020805460ff1916905561204e611e29565b6001600160a01b0316816001600160a01b0316837ff6391f5c32d9c69d2a47ea670b442974b53935d1edc7fd64eb21e047a839171b60405160405180910390a45050565b600080546001600160a01b038381166001600160a01b0319831681178455604051919092169283917f8be0079c531659141344cd1fd0a4f28419497f9722a3daafe3b4186f6b6457e09190a35050565b606060006120f18360026127bc565b6120fc9060026126c9565b67ffffffffffffffff811115612114576121146123f5565b6040519080825280601f01601f19166020018201604052801561213e576020820181803683370190505b5090507f300000000000000000000000000000000000000000000000000000000000000081600081518110612175576121756127a6565b60200101906001600160f81b031916908160001a9053507f7800000000000000000000000000000000000000000000000000000000000000816001815181106121c0576121c06127a6565b60200101906001600160f81b031916908160001a90535060006121e48460026127bc565b6121ef9060016126c9565b90505b6001811115612274577f303132333435363738396162636465660000000000000000000000000000000085600f1660108110612230576122306127a6565b1a60f81b828281518110612246576122466127a6565b60200101906001600160f81b031916908160001a90535060049490941c9361226d816127db565b90506121f2565b5083156122c35760405162461bcd60e51b815260206004820181905260248201527f537472696e67733a20686578206c656e67746820696e73756666696369656e746044820152606401610f7e565b9392505050565b6000602082840312156122dc57600080fd5b81356001600160e01b0319811681146122c357600080fd5b60006020828403121561230657600080fd5b5035919050565b80356001600160a01b038116811461232457600080fd5b919050565b6000806040838503121561233c57600080fd5b8235915061234c6020840161230d565b90509250929050565b60006020828403121561236757600080fd5b6122c38261230d565b60005b8381101561238b578181015183820152602001612373565b8381111561239a576000848401525b50505050565b60208152600082518060208401526123bf816040850160208701612370565b601f01601f19169190910160400192915050565b600080604083850312156123e657600080fd5b50508035926020909101359150565b634e487b7160e01b600052604160045260246000fd5b604051601f8201601f1916810167ffffffffffffffff81118282101715612434576124346123f5565b604052919050565b60006080828403121561244e57600080fd5b6040516080810181811067ffffffffffffffff82111715612471576124716123f5565b60405261247d8361230d565b81526020830135602082015260408301356040820152606083013560608201528091505092915050565b6020808252825182820181905260009190848201906040850190845b818110156124e85783516001600160a01b0316835292840192918401916001016124c3565b50909695505050505050565b600061010080838503121561250857600080fd5b6040519081019067ffffffffffffffff8211818310171561252b5761252b6123f5565b816040526125388461230d565b81526125466020850161230d565b602082015260408401356040820152606084013560608201526080840135608082015260a084013560a082015261257f60c0850161230d565b60c082015260e084013560e0820152809250505092915050565b600080600080600060a086880312156125b157600080fd5b6125ba8661230d565b945060206125c981880161230d565b94506040870135935060608701359250608087013567ffffffffffffffff808211156125f457600080fd5b818901915089601f83011261260857600080fd5b81358181111561261a5761261a6123f5565b61262c601f8201601f1916850161240b565b91508082528a8482850101111561264257600080fd5b80848401858401376000848284010152508093505050509295509295909350565b600181811c9082168061267757607f821691505b60208210811415611a2b57634e487b7160e01b600052602260045260246000fd5b634e487b7160e01b600052601160045260246000fd5b60006000198214156126c2576126c2612698565b5060010190565b600082198211156126dc576126dc612698565b500190565b6000602082840312156126f357600080fd5b815180151581146122c357600080fd5b7f416363657373436f6e74726f6c3a206163636f756e742000000000000000000081526000835161273b816017850160208801612370565b7f206973206d697373696e6720726f6c65200000000000000000000000000000006017918401918201528351612778816028840160208801612370565b01602801949350505050565b6000826127a157634e487b7160e01b600052601260045260246000fd5b500690565b634e487b7160e01b600052603260045260246000fd5b60008160001904831182151516156127d6576127d6612698565b500290565b6000816127ea576127ea612698565b50600019019056fea2646970667358221220a6134effef906ea9939b7688f6629f212b42809f0ad4d85cac25bb5dcb483b0964736f6c634300080b0033a49807205ce4d355092ef5a8a18f56e8913cf4a201fbe287825b095693c21775",
  "linkReferences": {},
  "deployedLinkReferences": {}
}