{
  "_format": "hh-sol-artifact-1",
  "contractName": "Raffle",
  "sourceName": "contracts/Raffle.sol",
  "abi": [
    {
      "inputs": [
        {
          "internalType": "address",
          "name": "_usdc",
          "type": "address"
        }
      ],
      "stateMutability": "nonpayable",
      "type": "constructor"
    },
    {
      "inputs": [],
      "name": "DonationTooLow",
      "type": "error"
    },
    {
      "inputs": [],
      "name": "IncorrectTimesGiven",
      "type": "error"
    },
    {
      "inputs": [],
      "name": "RaffleHasEnded",
      "type": "error"
    },
    {
      "inputs": [],
      "name": "ZeroAddressNotAllowed",
      "type": "error"
    },
    {
      "anonymous": false,
      "inputs": [
        {
          "indexed": false,
          "internalType": "address",
          "name": "walletAddress",
          "type": "address"
        }
      ],
      "name": "DAOWalletAddressSet",
      "type": "event"
    },
    {
      "anonymous": false,
      "inputs": [
        {
          "indexed": false,
          "internalType": "address",
          "name": "from",
          "type": "address"
        },
        {
          "indexed": false,
          "internalType": "uint256",
          "name": "raffleId",
          "type": "uint256"
        },
        {
          "indexed": false,
          "internalType": "uint256",
          "name": "amount",
          "type": "uint256"
        }
      ],
      "name": "DonationPlaced",
      "type": "event"
    },
    {
      "anonymous": false,
      "inputs": [
        {
          "indexed": true,
          "internalType": "address",
          "name": "previousOwner",
          "type": "address"
        },
        {
          "indexed": true,
          "internalType": "address",
          "name": "newOwner",
          "type": "address"
        }
      ],
      "name": "OwnershipTransferred",
      "type": "event"
    },
    {
      "anonymous": false,
      "inputs": [
        {
          "indexed": false,
          "internalType": "uint256",
          "name": "startTime",
          "type": "uint256"
        },
        {
          "indexed": false,
          "internalType": "uint256",
          "name": "endTime",
          "type": "uint256"
        },
        {
          "indexed": false,
          "internalType": "uint256",
          "name": "minimumDonationAmount",
          "type": "uint256"
        }
      ],
      "name": "RaffleCreated",
      "type": "event"
    },
    {
      "anonymous": false,
      "inputs": [
        {
          "indexed": true,
          "internalType": "bytes32",
          "name": "role",
          "type": "bytes32"
        },
        {
          "indexed": true,
          "internalType": "bytes32",
          "name": "previousAdminRole",
          "type": "bytes32"
        },
        {
          "indexed": true,
          "internalType": "bytes32",
          "name": "newAdminRole",
          "type": "bytes32"
        }
      ],
      "name": "RoleAdminChanged",
      "type": "event"
    },
    {
      "anonymous": false,
      "inputs": [
        {
          "indexed": true,
          "internalType": "bytes32",
          "name": "role",
          "type": "bytes32"
        },
        {
          "indexed": true,
          "internalType": "address",
          "name": "account",
          "type": "address"
        },
        {
          "indexed": true,
          "internalType": "address",
          "name": "sender",
          "type": "address"
        }
      ],
      "name": "RoleGranted",
      "type": "event"
    },
    {
      "anonymous": false,
      "inputs": [
        {
          "indexed": true,
          "internalType": "bytes32",
          "name": "role",
          "type": "bytes32"
        },
        {
          "indexed": true,
          "internalType": "address",
          "name": "account",
          "type": "address"
        },
        {
          "indexed": true,
          "internalType": "address",
          "name": "sender",
          "type": "address"
        }
      ],
      "name": "RoleRevoked",
      "type": "event"
    },
    {
      "anonymous": false,
      "inputs": [
        {
          "indexed": false,
          "internalType": "address",
          "name": "nftAuthorWallet",
          "type": "address"
        }
      ],
      "name": "nftAuthorWalletAddressSet",
      "type": "event"
    },
    {
      "inputs": [],
      "name": "DAOWallet",
      "outputs": [
        {
          "internalType": "address",
          "name": "",
          "type": "address"
        }
      ],
      "stateMutability": "view",
      "type": "function"
    },
    {
      "inputs": [],
      "name": "DEFAULT_ADMIN_ROLE",
      "outputs": [
        {
          "internalType": "bytes32",
          "name": "",
          "type": "bytes32"
        }
      ],
      "stateMutability": "view",
      "type": "function"
    },
    {
      "inputs": [],
      "name": "USDC",
      "outputs": [
        {
          "internalType": "contract IERC20",
          "name": "",
          "type": "address"
        }
      ],
      "stateMutability": "view",
      "type": "function"
    },
    {
      "inputs": [
        {
          "components": [
            {
              "internalType": "address",
              "name": "nftContract",
              "type": "address"
            },
            {
              "internalType": "uint256[]",
              "name": "tokenIDs",
              "type": "uint256[]"
            },
            {
              "internalType": "uint256",
              "name": "startTime",
              "type": "uint256"
            },
            {
              "internalType": "uint256",
              "name": "endTime",
              "type": "uint256"
            },
            {
              "internalType": "uint256",
              "name": "minimumDonationAmount",
              "type": "uint256"
            }
          ],
          "internalType": "struct Raffle.Raffle",
          "name": "_raffle",
          "type": "tuple"
        }
      ],
      "name": "createRaffle",
      "outputs": [
        {
          "internalType": "uint256",
          "name": "",
          "type": "uint256"
        }
      ],
      "stateMutability": "nonpayable",
      "type": "function"
    },
    {
      "inputs": [
        {
          "components": [
            {
              "internalType": "uint256",
              "name": "raffleID",
              "type": "uint256"
            },
            {
              "internalType": "uint256",
              "name": "amount",
              "type": "uint256"
            },
            {
              "internalType": "uint256",
              "name": "timestamp",
              "type": "uint256"
            }
          ],
          "internalType": "struct Raffle.Donation",
          "name": "_donation",
          "type": "tuple"
        }
      ],
      "name": "donate",
      "outputs": [],
      "stateMutability": "payable",
      "type": "function"
    },
    {
      "inputs": [
        {
          "internalType": "uint256",
          "name": "",
          "type": "uint256"
        },
        {
          "internalType": "address",
          "name": "",
          "type": "address"
        },
        {
          "internalType": "uint256",
          "name": "",
          "type": "uint256"
        }
      ],
      "name": "donations",
      "outputs": [
        {
          "internalType": "uint256",
          "name": "raffleID",
          "type": "uint256"
        },
        {
          "internalType": "uint256",
          "name": "amount",
          "type": "uint256"
        },
        {
          "internalType": "uint256",
          "name": "timestamp",
          "type": "uint256"
        }
      ],
      "stateMutability": "view",
      "type": "function"
    },
    {
      "inputs": [
        {
          "internalType": "uint256",
          "name": "",
          "type": "uint256"
        },
        {
          "internalType": "uint256",
          "name": "",
          "type": "uint256"
        }
      ],
      "name": "donorsArrayPerCycle",
      "outputs": [
        {
          "internalType": "address",
          "name": "",
          "type": "address"
        }
      ],
      "stateMutability": "view",
      "type": "function"
    },
    {
      "inputs": [
        {
          "internalType": "bytes32",
          "name": "role",
          "type": "bytes32"
        }
      ],
      "name": "getRoleAdmin",
      "outputs": [
        {
          "internalType": "bytes32",
          "name": "",
          "type": "bytes32"
        }
      ],
      "stateMutability": "view",
      "type": "function"
    },
    {
      "inputs": [
        {
          "internalType": "uint256",
          "name": "raffleID",
          "type": "uint256"
        }
      ],
      "name": "getTotalDonationsPerCycle",
      "outputs": [
        {
          "internalType": "uint256",
          "name": "",
          "type": "uint256"
        }
      ],
      "stateMutability": "view",
      "type": "function"
    },
    {
      "inputs": [
        {
          "internalType": "bytes32",
          "name": "role",
          "type": "bytes32"
        },
        {
          "internalType": "address",
          "name": "account",
          "type": "address"
        }
      ],
      "name": "grantRole",
      "outputs": [],
      "stateMutability": "nonpayable",
      "type": "function"
    },
    {
      "inputs": [
        {
          "internalType": "bytes32",
          "name": "role",
          "type": "bytes32"
        },
        {
          "internalType": "address",
          "name": "account",
          "type": "address"
        }
      ],
      "name": "hasRole",
      "outputs": [
        {
          "internalType": "bool",
          "name": "",
          "type": "bool"
        }
      ],
      "stateMutability": "view",
      "type": "function"
    },
    {
      "inputs": [],
      "name": "nftAuthorWallet",
      "outputs": [
        {
          "internalType": "address",
          "name": "",
          "type": "address"
        }
      ],
      "stateMutability": "view",
      "type": "function"
    },
    {
      "inputs": [],
      "name": "owner",
      "outputs": [
        {
          "internalType": "address",
          "name": "",
          "type": "address"
        }
      ],
      "stateMutability": "view",
      "type": "function"
    },
    {
      "inputs": [],
      "name": "raffleCount",
      "outputs": [
        {
          "internalType": "uint256",
          "name": "",
          "type": "uint256"
        }
      ],
      "stateMutability": "view",
      "type": "function"
    },
    {
      "inputs": [
        {
          "internalType": "uint256",
          "name": "",
          "type": "uint256"
        }
      ],
      "name": "raffles",
      "outputs": [
        {
          "internalType": "address",
          "name": "nftContract",
          "type": "address"
        },
        {
          "internalType": "uint256",
          "name": "startTime",
          "type": "uint256"
        },
        {
          "internalType": "uint256",
          "name": "endTime",
          "type": "uint256"
        },
        {
          "internalType": "uint256",
          "name": "minimumDonationAmount",
          "type": "uint256"
        }
      ],
      "stateMutability": "view",
      "type": "function"
    },
    {
      "inputs": [],
      "name": "renounceOwnership",
      "outputs": [],
      "stateMutability": "nonpayable",
      "type": "function"
    },
    {
      "inputs": [
        {
          "internalType": "bytes32",
          "name": "role",
          "type": "bytes32"
        },
        {
          "internalType": "address",
          "name": "account",
          "type": "address"
        }
      ],
      "name": "renounceRole",
      "outputs": [],
      "stateMutability": "nonpayable",
      "type": "function"
    },
    {
      "inputs": [
        {
          "internalType": "bytes32",
          "name": "role",
          "type": "bytes32"
        },
        {
          "internalType": "address",
          "name": "account",
          "type": "address"
        }
      ],
      "name": "revokeRole",
      "outputs": [],
      "stateMutability": "nonpayable",
      "type": "function"
    },
    {
      "inputs": [
        {
          "internalType": "uint256",
          "name": "raffleID",
          "type": "uint256"
        }
      ],
      "name": "sendNFTRewards",
      "outputs": [],
      "stateMutability": "nonpayable",
      "type": "function"
    },
    {
      "inputs": [
        {
          "internalType": "address",
          "name": "_DAOWallet",
          "type": "address"
        }
      ],
      "name": "setDAOWalletAddress",
      "outputs": [],
      "stateMutability": "nonpayable",
      "type": "function"
    },
    {
      "inputs": [
        {
          "internalType": "address",
          "name": "_nftAuthorWallet",
          "type": "address"
        }
      ],
      "name": "setNftAuthorWalletAddress",
      "outputs": [],
      "stateMutability": "nonpayable",
      "type": "function"
    },
    {
      "inputs": [
        {
          "internalType": "bytes4",
          "name": "interfaceId",
          "type": "bytes4"
        }
      ],
      "name": "supportsInterface",
      "outputs": [
        {
          "internalType": "bool",
          "name": "",
          "type": "bool"
        }
      ],
      "stateMutability": "view",
      "type": "function"
    },
    {
      "inputs": [
        {
          "internalType": "uint256",
          "name": "",
          "type": "uint256"
        },
        {
          "internalType": "address",
          "name": "",
          "type": "address"
        }
      ],
      "name": "totalDonationPerAddressPerCycle",
      "outputs": [
        {
          "internalType": "uint256",
          "name": "",
          "type": "uint256"
        }
      ],
      "stateMutability": "view",
      "type": "function"
    },
    {
      "inputs": [],
      "name": "totalDonations",
      "outputs": [
        {
          "internalType": "uint256",
          "name": "",
          "type": "uint256"
        }
      ],
      "stateMutability": "view",
      "type": "function"
    },
    {
      "inputs": [
        {
          "internalType": "address",
          "name": "newOwner",
          "type": "address"
        }
      ],
      "name": "transferOwnership",
      "outputs": [],
      "stateMutability": "nonpayable",
      "type": "function"
    }
  ],
  "bytecode": "0x60806040523480156200001157600080fd5b50604051620018d3380380620018d3833981016040819052620000349162000124565b6200003f33620000d4565b6001600255600680546001600160a01b0319166001600160a01b03831690811790915560405163095ea7b360e01b8152306004820152600019602482015263095ea7b3906044016020604051808303816000875af1158015620000a6573d6000803e3d6000fd5b505050506040513d601f19601f82011682018060405250810190620000cc919062000156565b50506200017a565b600080546001600160a01b038381166001600160a01b0319831681178455604051919092169283917f8be0079c531659141344cd1fd0a4f28419497f9722a3daafe3b4186f6b6457e09190a35050565b6000602082840312156200013757600080fd5b81516001600160a01b03811681146200014f57600080fd5b9392505050565b6000602082840312156200016957600080fd5b815180151581146200014f57600080fd5b611749806200018a6000396000f3fe6080604052600436106101965760003560e01c806389a30271116100e1578063d547741f1161008a578063e2daf39911610064578063e2daf399146104e7578063ea36c61714610507578063eaf03b401461053f578063f2fde38b1461056c57600080fd5b8063d547741f14610491578063de2ed893146104b1578063dfdb5ae4146104c757600080fd5b8063a217fddf116100bb578063a217fddf14610446578063a54c120c1461045b578063c1996e7f1461047157600080fd5b806389a30271146103c25780638da5cb5b146103e257806391d148541461040057600080fd5b806351d84a5f11610143578063715018a61161011d578063715018a61461035557806382b02eed1461036a57806386d392ba146103a257600080fd5b806351d84a5f146102845780635d4bc0ce146102bf5780636e3384611461033557600080fd5b80632648bc7e116101745780632648bc7e146102315780632f2ff15d1461024457806336568abe1461026457600080fd5b806301ffc9a71461019b57806321a13544146101d0578063248a9ca3146101f2575b600080fd5b3480156101a757600080fd5b506101bb6101b6366004611294565b61058c565b60405190151581526020015b60405180910390f35b3480156101dc57600080fd5b506101f06101eb3660046112d6565b610625565b005b3480156101fe57600080fd5b5061022361020d3660046112d6565b6000908152600160208190526040909120015490565b6040519081526020016101c7565b6101f061023f36600461135f565b610687565b34801561025057600080fd5b506101f061025f3660046113d7565b6108c9565b34801561027057600080fd5b506101f061027f3660046113d7565b6108f5565b34801561029057600080fd5b506102a461029f366004611403565b610981565b604080519384526020840192909252908201526060016101c7565b3480156102cb57600080fd5b5061030b6102da3660046112d6565b60086020526000908152604090208054600282015460038301546004909301546001600160a01b0390921692909184565b604080516001600160a01b03909516855260208501939093529183015260608201526080016101c7565b34801561034157600080fd5b506101f0610350366004611438565b6109d1565b34801561036157600080fd5b506101f0610ab4565b34801561037657600080fd5b5060045461038a906001600160a01b031681565b6040516001600160a01b0390911681526020016101c7565b3480156103ae57600080fd5b5061038a6103bd366004611453565b610b1a565b3480156103ce57600080fd5b5060065461038a906001600160a01b031681565b3480156103ee57600080fd5b506000546001600160a01b031661038a565b34801561040c57600080fd5b506101bb61041b3660046113d7565b60009182526001602090815260408084206001600160a01b0393909316845291905290205460ff1690565b34801561045257600080fd5b50610223600081565b34801561046757600080fd5b5061022360055481565b34801561047d57600080fd5b506101f061048c366004611438565b610b52565b34801561049d57600080fd5b506101f06104ac3660046113d7565b610c2e565b3480156104bd57600080fd5b5061022360075481565b3480156104d357600080fd5b5060035461038a906001600160a01b031681565b3480156104f357600080fd5b50610223610502366004611475565b610c55565b34801561051357600080fd5b506102236105223660046113d7565b600a60209081526000928352604080842090915290825290205481565b34801561054b57600080fd5b5061022361055a3660046112d6565b60009081526009602052604090205490565b34801561057857600080fd5b506101f0610587366004611438565b610d86565b60007fffffffff0000000000000000000000000000000000000000000000000000000082167f7965db0b00000000000000000000000000000000000000000000000000000000148061061f57507f01ffc9a7000000000000000000000000000000000000000000000000000000007fffffffff000000000000000000000000000000000000000000000000000000008316145b92915050565b6000546001600160a01b031633146106845760405162461bcd60e51b815260206004820181905260248201527f4f776e61626c653a2063616c6c6572206973206e6f7420746865206f776e657260448201526064015b60405180910390fd5b50565b6002805414156106d95760405162461bcd60e51b815260206004820152601f60248201527f5265656e7472616e637947756172643a207265656e7472616e742063616c6c00604482015260640161067b565b60028055805160008181526008602052604090206003015442111561072a576040517fd328a25200000000000000000000000000000000000000000000000000000000815260040160405180910390fd5b600081815260086020908152604090912060040154908301511161077a576040517f7957a08500000000000000000000000000000000000000000000000000000000815260040160405180910390fd5b426040808401919091526020808401516000848152600a835283812033825290925291812080549091906107af90849061158e565b909155505060208083015160008381526009909252604082208054919290916107d990849061158e565b909155505060065460035460208401516040517f23b872dd0000000000000000000000000000000000000000000000000000000081523360048201526001600160a01b03928316602482015260448101919091529116906323b872dd906064016020604051808303816000875af1158015610858573d6000803e3d6000fd5b505050506040513d601f19601f8201168201806040525081019061087c91906115a6565b50602080830151604080513381529283018490528201527fdd5f9bf5cf036a4da6a1035c7f29f422c275d1e6f6b9e2a552e3e54228b390a59060600160405180910390a150506001600255565b600082815260016020819052604090912001546108e68133610e65565b6108f08383610ee5565b505050565b6001600160a01b03811633146109735760405162461bcd60e51b815260206004820152602f60248201527f416363657373436f6e74726f6c3a2063616e206f6e6c792072656e6f756e636560448201527f20726f6c657320666f722073656c660000000000000000000000000000000000606482015260840161067b565b61097d8282610f6c565b5050565b600b60205282600052604060002060205281600052604060002081815481106109a957600080fd5b6000918252602090912060039091020180546001820154600290920154909450909250905083565b6000546001600160a01b03163314610a2b5760405162461bcd60e51b815260206004820181905260248201527f4f776e61626c653a2063616c6c6572206973206e6f7420746865206f776e6572604482015260640161067b565b6001600160a01b038116610a52576040516342bcdf7f60e11b815260040160405180910390fd5b6003805473ffffffffffffffffffffffffffffffffffffffff19166001600160a01b0383169081179091556040519081527f99e7e8f551bb4a95839337c445d25c103e8b923f563ec440667dd5c1bb5fa329906020015b60405180910390a150565b6000546001600160a01b03163314610b0e5760405162461bcd60e51b815260206004820181905260248201527f4f776e61626c653a2063616c6c6572206973206e6f7420746865206f776e6572604482015260640161067b565b610b186000610fef565b565b600c6020528160005260406000208181548110610b3657600080fd5b6000918252602090912001546001600160a01b03169150829050565b6000546001600160a01b03163314610bac5760405162461bcd60e51b815260206004820181905260248201527f4f776e61626c653a2063616c6c6572206973206e6f7420746865206f776e6572604482015260640161067b565b6001600160a01b038116610bd3576040516342bcdf7f60e11b815260040160405180910390fd5b6004805473ffffffffffffffffffffffffffffffffffffffff19166001600160a01b0383169081179091556040519081527fa099340b9009966c80f2d51f8425c15ffe5713a8c732f3d9e3b0d213ad03e35b90602001610aa9565b60008281526001602081905260409091200154610c4b8133610e65565b6108f08383610f6c565b6000816060015182604001511115610c99576040517fd22dcab600000000000000000000000000000000000000000000000000000000815260040160405180910390fd5b60058054906000610ca9836115c8565b909155505060055460009081526008602090815260409091208351815473ffffffffffffffffffffffffffffffffffffffff19166001600160a01b039091161781558382015180518593610d04926001850192910190611234565b506040820151816002015560608201518160030155608082015181600401559050507f9aa2065fb625f0039ef34f9a9cb1fe8e45055c5aa4d830c016505ee55a598a84826040015183606001518460800151604051610d76939291909283526020830191909152604082015260600190565b60405180910390a1505060055490565b6000546001600160a01b03163314610de05760405162461bcd60e51b815260206004820181905260248201527f4f776e61626c653a2063616c6c6572206973206e6f7420746865206f776e6572604482015260640161067b565b6001600160a01b038116610e5c5760405162461bcd60e51b815260206004820152602660248201527f4f776e61626c653a206e6577206f776e657220697320746865207a65726f206160448201527f6464726573730000000000000000000000000000000000000000000000000000606482015260840161067b565b61068481610fef565b60008281526001602090815260408083206001600160a01b038516845290915290205460ff1661097d57610ea3816001600160a01b0316601461104c565b610eae83602061104c565b604051602001610ebf929190611613565b60408051601f198184030181529082905262461bcd60e51b825261067b91600401611694565b60008281526001602090815260408083206001600160a01b038516845290915290205460ff1661097d5760008281526001602081815260408084206001600160a01b0386168086529252808420805460ff19169093179092559051339285917f2f8788117e7eff1d82e926ec794901d17c78024a50270940304540a733656f0d9190a45050565b60008281526001602090815260408083206001600160a01b038516845290915290205460ff161561097d5760008281526001602090815260408083206001600160a01b0385168085529252808320805460ff1916905551339285917ff6391f5c32d9c69d2a47ea670b442974b53935d1edc7fd64eb21e047a839171b9190a45050565b600080546001600160a01b0383811673ffffffffffffffffffffffffffffffffffffffff19831681178455604051919092169283917f8be0079c531659141344cd1fd0a4f28419497f9722a3daafe3b4186f6b6457e09190a35050565b6060600061105b8360026116c7565b61106690600261158e565b67ffffffffffffffff81111561107e5761107e6112ef565b6040519080825280601f01601f1916602001820160405280156110a8576020820181803683370190505b5090507f3000000000000000000000000000000000000000000000000000000000000000816000815181106110df576110df6116e6565b60200101906001600160f81b031916908160001a9053507f78000000000000000000000000000000000000000000000000000000000000008160018151811061112a5761112a6116e6565b60200101906001600160f81b031916908160001a905350600061114e8460026116c7565b61115990600161158e565b90505b60018111156111de577f303132333435363738396162636465660000000000000000000000000000000085600f166010811061119a5761119a6116e6565b1a60f81b8282815181106111b0576111b06116e6565b60200101906001600160f81b031916908160001a90535060049490941c936111d7816116fc565b905061115c565b50831561122d5760405162461bcd60e51b815260206004820181905260248201527f537472696e67733a20686578206c656e67746820696e73756666696369656e74604482015260640161067b565b9392505050565b82805482825590600052602060002090810192821561126f579160200282015b8281111561126f578251825591602001919060010190611254565b5061127b92915061127f565b5090565b5b8082111561127b5760008155600101611280565b6000602082840312156112a657600080fd5b81357fffffffff000000000000000000000000000000000000000000000000000000008116811461122d57600080fd5b6000602082840312156112e857600080fd5b5035919050565b634e487b7160e01b600052604160045260246000fd5b60405160a0810167ffffffffffffffff81118282101715611328576113286112ef565b60405290565b604051601f8201601f1916810167ffffffffffffffff81118282101715611357576113576112ef565b604052919050565b60006060828403121561137157600080fd5b6040516060810181811067ffffffffffffffff82111715611394576113946112ef565b80604052508235815260208301356020820152604083013560408201528091505092915050565b80356001600160a01b03811681146113d257600080fd5b919050565b600080604083850312156113ea57600080fd5b823591506113fa602084016113bb565b90509250929050565b60008060006060848603121561141857600080fd5b83359250611428602085016113bb565b9150604084013590509250925092565b60006020828403121561144a57600080fd5b61122d826113bb565b6000806040838503121561146657600080fd5b50508035926020909101359150565b6000602080838503121561148857600080fd5b823567ffffffffffffffff808211156114a057600080fd5b9084019060a082870312156114b457600080fd5b6114bc611305565b6114c5836113bb565b815283830135828111156114d857600080fd5b8301601f810188136114e957600080fd5b8035838111156114fb576114fb6112ef565b8060051b935061150c86850161132e565b818152938201860193868101908a86111561152657600080fd5b928701925b858410156115445783358252928701929087019061152b565b8088860152505050506040830135604082015260608301356060820152608083013560808201528094505050505092915050565b634e487b7160e01b600052601160045260246000fd5b600082198211156115a1576115a1611578565b500190565b6000602082840312156115b857600080fd5b8151801515811461122d57600080fd5b60006000198214156115dc576115dc611578565b5060010190565b60005b838110156115fe5781810151838201526020016115e6565b8381111561160d576000848401525b50505050565b7f416363657373436f6e74726f6c3a206163636f756e742000000000000000000081526000835161164b8160178501602088016115e3565b7f206973206d697373696e6720726f6c652000000000000000000000000000000060179184019182015283516116888160288401602088016115e3565b01602801949350505050565b60208152600082518060208401526116b38160408501602087016115e3565b601f01601f19169190910160400192915050565b60008160001904831182151516156116e1576116e1611578565b500290565b634e487b7160e01b600052603260045260246000fd5b60008161170b5761170b611578565b50600019019056fea2646970667358221220d8d44f8272191b8f5ab6a8b88cd86a05c7b2604853ffc3116a7bddb32301a8f164736f6c634300080b0033",
  "linkReferences": {},
  "deployedLinkReferences": {}
}