{
  "_format": "hh-sol-artifact-1",
  "contractName": "Raffle",
  "sourceName": "contracts/Raffle.sol",
  "abi": [
    {
      "inputs": [
        {
          "internalType": "address",
          "name": "_usdc",
          "type": "address"
        },
        {
          "internalType": "address",
          "name": "_forwarder",
          "type": "address"
        },
        {
          "internalType": "address",
          "name": "_rewardTokenAddress",
          "type": "address"
        }
      ],
      "stateMutability": "nonpayable",
      "type": "constructor"
    },
    {
      "inputs": [],
      "name": "DonationTooLow",
      "type": "error"
    },
    {
      "inputs": [],
      "name": "IncorrectTimesGiven",
      "type": "error"
    },
    {
      "inputs": [],
      "name": "InsufficientAmount",
      "type": "error"
    },
    {
      "inputs": [],
      "name": "RaffleCancelled",
      "type": "error"
    },
    {
      "inputs": [],
      "name": "RaffleHasEnded",
      "type": "error"
    },
    {
      "inputs": [],
      "name": "RaffleHasNotEnded",
      "type": "error"
    },
    {
      "inputs": [],
      "name": "ZeroAddressNotAllowed",
      "type": "error"
    },
    {
      "anonymous": false,
      "inputs": [
        {
          "indexed": false,
          "internalType": "address",
          "name": "walletAddress",
          "type": "address"
        }
      ],
      "name": "DAOWalletAddressSet",
      "type": "event"
    },
    {
      "anonymous": false,
      "inputs": [
        {
          "indexed": false,
          "internalType": "address",
          "name": "from",
          "type": "address"
        },
        {
          "indexed": false,
          "internalType": "uint256",
          "name": "raffleId",
          "type": "uint256"
        },
        {
          "indexed": false,
          "internalType": "uint256",
          "name": "amount",
          "type": "uint256"
        }
      ],
      "name": "DonationPlaced",
      "type": "event"
    },
    {
      "anonymous": false,
      "inputs": [
        {
          "indexed": false,
          "internalType": "uint256",
          "name": "raffleID",
          "type": "uint256"
        },
        {
          "indexed": false,
          "internalType": "address",
          "name": "winner",
          "type": "address"
        }
      ],
      "name": "NFTsentToWinner",
      "type": "event"
    },
    {
      "anonymous": false,
      "inputs": [
        {
          "indexed": true,
          "internalType": "address",
          "name": "previousOwner",
          "type": "address"
        },
        {
          "indexed": true,
          "internalType": "address",
          "name": "newOwner",
          "type": "address"
        }
      ],
      "name": "OwnershipTransferred",
      "type": "event"
    },
    {
      "anonymous": false,
      "inputs": [
        {
          "indexed": false,
          "internalType": "address",
          "name": "nftOwner",
          "type": "address"
        },
        {
          "indexed": false,
          "internalType": "uint256",
          "name": "tokenID",
          "type": "uint256"
        },
        {
          "indexed": false,
          "internalType": "uint256",
          "name": "startTime",
          "type": "uint256"
        },
        {
          "indexed": false,
          "internalType": "uint256",
          "name": "endTime",
          "type": "uint256"
        },
        {
          "indexed": false,
          "internalType": "uint256",
          "name": "minimumDonationAmount",
          "type": "uint256"
        }
      ],
      "name": "RaffleCreated",
      "type": "event"
    },
    {
      "anonymous": false,
      "inputs": [
        {
          "indexed": false,
          "internalType": "uint256",
          "name": "amount",
          "type": "uint256"
        }
      ],
      "name": "RewardTokenBalanceToppedUp",
      "type": "event"
    },
    {
      "anonymous": false,
      "inputs": [
        {
          "indexed": true,
          "internalType": "bytes32",
          "name": "role",
          "type": "bytes32"
        },
        {
          "indexed": true,
          "internalType": "bytes32",
          "name": "previousAdminRole",
          "type": "bytes32"
        },
        {
          "indexed": true,
          "internalType": "bytes32",
          "name": "newAdminRole",
          "type": "bytes32"
        }
      ],
      "name": "RoleAdminChanged",
      "type": "event"
    },
    {
      "anonymous": false,
      "inputs": [
        {
          "indexed": true,
          "internalType": "bytes32",
          "name": "role",
          "type": "bytes32"
        },
        {
          "indexed": true,
          "internalType": "address",
          "name": "account",
          "type": "address"
        },
        {
          "indexed": true,
          "internalType": "address",
          "name": "sender",
          "type": "address"
        }
      ],
      "name": "RoleGranted",
      "type": "event"
    },
    {
      "anonymous": false,
      "inputs": [
        {
          "indexed": true,
          "internalType": "bytes32",
          "name": "role",
          "type": "bytes32"
        },
        {
          "indexed": true,
          "internalType": "address",
          "name": "account",
          "type": "address"
        },
        {
          "indexed": true,
          "internalType": "address",
          "name": "sender",
          "type": "address"
        }
      ],
      "name": "RoleRevoked",
      "type": "event"
    },
    {
      "anonymous": false,
      "inputs": [
        {
          "indexed": false,
          "internalType": "address",
          "name": "nftAuthorWallet",
          "type": "address"
        }
      ],
      "name": "nftAuthorWalletAddressSet",
      "type": "event"
    },
    {
      "anonymous": false,
      "inputs": [
        {
          "indexed": false,
          "internalType": "address",
          "name": "account",
          "type": "address"
        },
        {
          "indexed": false,
          "internalType": "uint256",
          "name": "amount",
          "type": "uint256"
        }
      ],
      "name": "tokensWithdrawnFromContract",
      "type": "event"
    },
    {
      "inputs": [],
      "name": "ADMIN_ROLE",
      "outputs": [
        {
          "internalType": "bytes32",
          "name": "",
          "type": "bytes32"
        }
      ],
      "stateMutability": "view",
      "type": "function"
    },
    {
      "inputs": [],
      "name": "CURATOR_ROLE",
      "outputs": [
        {
          "internalType": "bytes32",
          "name": "",
          "type": "bytes32"
        }
      ],
      "stateMutability": "view",
      "type": "function"
    },
    {
      "inputs": [],
      "name": "DAOWallet",
      "outputs": [
        {
          "internalType": "address",
          "name": "",
          "type": "address"
        }
      ],
      "stateMutability": "view",
      "type": "function"
    },
    {
      "inputs": [],
      "name": "DEFAULT_ADMIN_ROLE",
      "outputs": [
        {
          "internalType": "bytes32",
          "name": "",
          "type": "bytes32"
        }
      ],
      "stateMutability": "view",
      "type": "function"
    },
    {
      "inputs": [],
      "name": "REWARD_TOKEN",
      "outputs": [
        {
          "internalType": "contract IERC20",
          "name": "",
          "type": "address"
        }
      ],
      "stateMutability": "view",
      "type": "function"
    },
    {
      "inputs": [],
      "name": "USDC",
      "outputs": [
        {
          "internalType": "contract IERC20",
          "name": "",
          "type": "address"
        }
      ],
      "stateMutability": "view",
      "type": "function"
    },
    {
      "inputs": [
        {
          "internalType": "uint256",
          "name": "raffleID",
          "type": "uint256"
        }
      ],
      "name": "cancelRaffle",
      "outputs": [],
      "stateMutability": "nonpayable",
      "type": "function"
    },
    {
      "inputs": [
        {
          "components": [
            {
              "internalType": "address",
              "name": "nftContract",
              "type": "address"
            },
            {
              "internalType": "address",
              "name": "nftOwner",
              "type": "address"
            },
            {
              "internalType": "uint256",
              "name": "tokenID",
              "type": "uint256"
            },
            {
              "internalType": "uint256",
              "name": "startTime",
              "type": "uint256"
            },
            {
              "internalType": "uint256",
              "name": "endTime",
              "type": "uint256"
            },
            {
              "internalType": "uint256",
              "name": "minimumDonationAmount",
              "type": "uint256"
            },
            {
              "internalType": "address",
              "name": "topDonor",
              "type": "address"
            },
            {
              "internalType": "uint256",
              "name": "topDonatedAmount",
              "type": "uint256"
            },
            {
              "internalType": "bool",
              "name": "cancelled",
              "type": "bool"
            }
          ],
          "internalType": "struct Raffle.Raffle",
          "name": "_raffle",
          "type": "tuple"
        }
      ],
      "name": "createRaffle",
      "outputs": [
        {
          "internalType": "uint256",
          "name": "",
          "type": "uint256"
        }
      ],
      "stateMutability": "nonpayable",
      "type": "function"
    },
    {
      "inputs": [
        {
          "components": [
            {
              "internalType": "address",
              "name": "donor",
              "type": "address"
            },
            {
              "internalType": "uint256",
              "name": "raffleID",
              "type": "uint256"
            },
            {
              "internalType": "uint256",
              "name": "amount",
              "type": "uint256"
            },
            {
              "internalType": "uint256",
              "name": "timestamp",
              "type": "uint256"
            }
          ],
          "internalType": "struct Raffle.Donation",
          "name": "_donation",
          "type": "tuple"
        }
      ],
      "name": "donate",
      "outputs": [
        {
          "internalType": "uint256",
          "name": "",
          "type": "uint256"
        }
      ],
      "stateMutability": "payable",
      "type": "function"
    },
    {
      "inputs": [],
      "name": "donationCount",
      "outputs": [
        {
          "internalType": "uint256",
          "name": "",
          "type": "uint256"
        }
      ],
      "stateMutability": "view",
      "type": "function"
    },
    {
      "inputs": [
        {
          "internalType": "uint256",
          "name": "",
          "type": "uint256"
        }
      ],
      "name": "donations",
      "outputs": [
        {
          "internalType": "address",
          "name": "donor",
          "type": "address"
        },
        {
          "internalType": "uint256",
          "name": "raffleID",
          "type": "uint256"
        },
        {
          "internalType": "uint256",
          "name": "amount",
          "type": "uint256"
        },
        {
          "internalType": "uint256",
          "name": "timestamp",
          "type": "uint256"
        }
      ],
      "stateMutability": "view",
      "type": "function"
    },
    {
      "inputs": [
        {
          "internalType": "uint256",
          "name": "",
          "type": "uint256"
        },
        {
          "internalType": "uint256",
          "name": "",
          "type": "uint256"
        }
      ],
      "name": "donorsArrayPerCycle",
      "outputs": [
        {
          "internalType": "address",
          "name": "",
          "type": "address"
        }
      ],
      "stateMutability": "view",
      "type": "function"
    },
    {
      "inputs": [
        {
          "internalType": "uint256",
          "name": "donationID",
          "type": "uint256"
        }
      ],
      "name": "getDonation",
      "outputs": [
        {
          "components": [
            {
              "internalType": "address",
              "name": "donor",
              "type": "address"
            },
            {
              "internalType": "uint256",
              "name": "raffleID",
              "type": "uint256"
            },
            {
              "internalType": "uint256",
              "name": "amount",
              "type": "uint256"
            },
            {
              "internalType": "uint256",
              "name": "timestamp",
              "type": "uint256"
            }
          ],
          "internalType": "struct Raffle.Donation",
          "name": "",
          "type": "tuple"
        }
      ],
      "stateMutability": "view",
      "type": "function"
    },
    {
      "inputs": [
        {
          "internalType": "uint256",
          "name": "raffleID",
          "type": "uint256"
        }
      ],
      "name": "getDonorsPerCycle",
      "outputs": [
        {
          "internalType": "address[]",
          "name": "",
          "type": "address[]"
        }
      ],
      "stateMutability": "view",
      "type": "function"
    },
    {
      "inputs": [
        {
          "internalType": "uint256",
          "name": "raffleID",
          "type": "uint256"
        }
      ],
      "name": "getHighestDonationPerCycle",
      "outputs": [
        {
          "internalType": "uint256",
          "name": "",
          "type": "uint256"
        }
      ],
      "stateMutability": "view",
      "type": "function"
    },
    {
      "inputs": [
        {
          "internalType": "uint256",
          "name": "raffleID",
          "type": "uint256"
        }
      ],
      "name": "getRaffle",
      "outputs": [
        {
          "components": [
            {
              "internalType": "address",
              "name": "nftContract",
              "type": "address"
            },
            {
              "internalType": "address",
              "name": "nftOwner",
              "type": "address"
            },
            {
              "internalType": "uint256",
              "name": "tokenID",
              "type": "uint256"
            },
            {
              "internalType": "uint256",
              "name": "startTime",
              "type": "uint256"
            },
            {
              "internalType": "uint256",
              "name": "endTime",
              "type": "uint256"
            },
            {
              "internalType": "uint256",
              "name": "minimumDonationAmount",
              "type": "uint256"
            },
            {
              "internalType": "address",
              "name": "topDonor",
              "type": "address"
            },
            {
              "internalType": "uint256",
              "name": "topDonatedAmount",
              "type": "uint256"
            },
            {
              "internalType": "bool",
              "name": "cancelled",
              "type": "bool"
            }
          ],
          "internalType": "struct Raffle.Raffle",
          "name": "",
          "type": "tuple"
        }
      ],
      "stateMutability": "view",
      "type": "function"
    },
    {
      "inputs": [
        {
          "internalType": "bytes32",
          "name": "role",
          "type": "bytes32"
        }
      ],
      "name": "getRoleAdmin",
      "outputs": [
        {
          "internalType": "bytes32",
          "name": "",
          "type": "bytes32"
        }
      ],
      "stateMutability": "view",
      "type": "function"
    },
    {
      "inputs": [],
      "name": "getTokensInTheBufferEndOfCycle",
      "outputs": [
        {
          "internalType": "uint256",
          "name": "",
          "type": "uint256"
        }
      ],
      "stateMutability": "view",
      "type": "function"
    },
    {
      "inputs": [
        {
          "internalType": "uint256",
          "name": "raffleID",
          "type": "uint256"
        }
      ],
      "name": "getTopDonor",
      "outputs": [
        {
          "internalType": "address",
          "name": "",
          "type": "address"
        }
      ],
      "stateMutability": "view",
      "type": "function"
    },
    {
      "inputs": [
        {
          "internalType": "uint256",
          "name": "raffleID",
          "type": "uint256"
        },
        {
          "internalType": "address",
          "name": "account",
          "type": "address"
        }
      ],
      "name": "getTotalDonationPerAddressPerCycle",
      "outputs": [
        {
          "internalType": "uint256",
          "name": "",
          "type": "uint256"
        }
      ],
      "stateMutability": "view",
      "type": "function"
    },
    {
      "inputs": [
        {
          "internalType": "uint256",
          "name": "raffleID",
          "type": "uint256"
        }
      ],
      "name": "getTotalDonationsPerCycle",
      "outputs": [
        {
          "internalType": "uint256",
          "name": "",
          "type": "uint256"
        }
      ],
      "stateMutability": "view",
      "type": "function"
    },
    {
      "inputs": [
        {
          "internalType": "bytes32",
          "name": "role",
          "type": "bytes32"
        },
        {
          "internalType": "address",
          "name": "account",
          "type": "address"
        }
      ],
      "name": "grantRole",
      "outputs": [],
      "stateMutability": "nonpayable",
      "type": "function"
    },
    {
      "inputs": [
        {
          "internalType": "bytes32",
          "name": "role",
          "type": "bytes32"
        },
        {
          "internalType": "address",
          "name": "account",
          "type": "address"
        }
      ],
      "name": "hasRole",
      "outputs": [
        {
          "internalType": "bool",
          "name": "",
          "type": "bool"
        }
      ],
      "stateMutability": "view",
      "type": "function"
    },
    {
      "inputs": [
        {
          "internalType": "address",
          "name": "forwarder",
          "type": "address"
        }
      ],
      "name": "isTrustedForwarder",
      "outputs": [
        {
          "internalType": "bool",
          "name": "",
          "type": "bool"
        }
      ],
      "stateMutability": "view",
      "type": "function"
    },
    {
      "inputs": [],
      "name": "nftAuthorWallet",
      "outputs": [
        {
          "internalType": "address",
          "name": "",
          "type": "address"
        }
      ],
      "stateMutability": "view",
      "type": "function"
    },
    {
      "inputs": [
        {
          "internalType": "address",
          "name": "operator",
          "type": "address"
        },
        {
          "internalType": "address",
          "name": "from",
          "type": "address"
        },
        {
          "internalType": "uint256",
          "name": "id",
          "type": "uint256"
        },
        {
          "internalType": "uint256",
          "name": "value",
          "type": "uint256"
        },
        {
          "internalType": "bytes",
          "name": "data",
          "type": "bytes"
        }
      ],
      "name": "onERC1155Received",
      "outputs": [
        {
          "internalType": "bytes4",
          "name": "",
          "type": "bytes4"
        }
      ],
      "stateMutability": "pure",
      "type": "function"
    },
    {
      "inputs": [],
      "name": "owner",
      "outputs": [
        {
          "internalType": "address",
          "name": "",
          "type": "address"
        }
      ],
      "stateMutability": "view",
      "type": "function"
    },
    {
      "inputs": [],
      "name": "raffleCount",
      "outputs": [
        {
          "internalType": "uint256",
          "name": "",
          "type": "uint256"
        }
      ],
      "stateMutability": "view",
      "type": "function"
    },
    {
      "inputs": [
        {
          "internalType": "uint256",
          "name": "",
          "type": "uint256"
        }
      ],
      "name": "raffles",
      "outputs": [
        {
          "internalType": "address",
          "name": "nftContract",
          "type": "address"
        },
        {
          "internalType": "address",
          "name": "nftOwner",
          "type": "address"
        },
        {
          "internalType": "uint256",
          "name": "tokenID",
          "type": "uint256"
        },
        {
          "internalType": "uint256",
          "name": "startTime",
          "type": "uint256"
        },
        {
          "internalType": "uint256",
          "name": "endTime",
          "type": "uint256"
        },
        {
          "internalType": "uint256",
          "name": "minimumDonationAmount",
          "type": "uint256"
        },
        {
          "internalType": "address",
          "name": "topDonor",
          "type": "address"
        },
        {
          "internalType": "uint256",
          "name": "topDonatedAmount",
          "type": "uint256"
        },
        {
          "internalType": "bool",
          "name": "cancelled",
          "type": "bool"
        }
      ],
      "stateMutability": "view",
      "type": "function"
    },
    {
      "inputs": [],
      "name": "renounceOwnership",
      "outputs": [],
      "stateMutability": "nonpayable",
      "type": "function"
    },
    {
      "inputs": [
        {
          "internalType": "bytes32",
          "name": "role",
          "type": "bytes32"
        },
        {
          "internalType": "address",
          "name": "account",
          "type": "address"
        }
      ],
      "name": "renounceRole",
      "outputs": [],
      "stateMutability": "nonpayable",
      "type": "function"
    },
    {
      "inputs": [
        {
          "internalType": "address",
          "name": "curator",
          "type": "address"
        }
      ],
      "name": "revokeCuratorRole",
      "outputs": [],
      "stateMutability": "nonpayable",
      "type": "function"
    },
    {
      "inputs": [
        {
          "internalType": "bytes32",
          "name": "role",
          "type": "bytes32"
        },
        {
          "internalType": "address",
          "name": "account",
          "type": "address"
        }
      ],
      "name": "revokeRole",
      "outputs": [],
      "stateMutability": "nonpayable",
      "type": "function"
    },
    {
      "inputs": [
        {
          "internalType": "uint256",
          "name": "raffleID",
          "type": "uint256"
        }
      ],
      "name": "sendNFTRewards",
      "outputs": [],
      "stateMutability": "nonpayable",
      "type": "function"
    },
    {
      "inputs": [
        {
          "internalType": "address",
          "name": "curator",
          "type": "address"
        }
      ],
      "name": "setCuratorRole",
      "outputs": [],
      "stateMutability": "nonpayable",
      "type": "function"
    },
    {
      "inputs": [
        {
          "internalType": "address",
          "name": "_DAOWallet",
          "type": "address"
        }
      ],
      "name": "setDAOWalletAddress",
      "outputs": [],
      "stateMutability": "nonpayable",
      "type": "function"
    },
    {
      "inputs": [
        {
          "internalType": "address",
          "name": "_nftAuthorWallet",
          "type": "address"
        }
      ],
      "name": "setNftAuthorWalletAddress",
      "outputs": [],
      "stateMutability": "nonpayable",
      "type": "function"
    },
    {
      "inputs": [
        {
          "internalType": "address",
          "name": "_forwarder",
          "type": "address"
        }
      ],
      "name": "setTrustedForwarder",
      "outputs": [],
      "stateMutability": "nonpayable",
      "type": "function"
    },
    {
      "inputs": [
        {
          "internalType": "bytes4",
          "name": "interfaceId",
          "type": "bytes4"
        }
      ],
      "name": "supportsInterface",
      "outputs": [
        {
          "internalType": "bool",
          "name": "",
          "type": "bool"
        }
      ],
      "stateMutability": "view",
      "type": "function"
    },
    {
      "inputs": [
        {
          "internalType": "uint256",
          "name": "amount",
          "type": "uint256"
        }
      ],
      "name": "topUpRewardTokenBalance",
      "outputs": [],
      "stateMutability": "nonpayable",
      "type": "function"
    },
    {
      "inputs": [
        {
          "internalType": "uint256",
          "name": "",
          "type": "uint256"
        },
        {
          "internalType": "address",
          "name": "",
          "type": "address"
        }
      ],
      "name": "totalDonationPerAddressPerCycle",
      "outputs": [
        {
          "internalType": "uint256",
          "name": "",
          "type": "uint256"
        }
      ],
      "stateMutability": "view",
      "type": "function"
    },
    {
      "inputs": [
        {
          "internalType": "address",
          "name": "newOwner",
          "type": "address"
        }
      ],
      "name": "transferOwnership",
      "outputs": [],
      "stateMutability": "nonpayable",
      "type": "function"
    },
    {
      "inputs": [],
      "name": "trustedForwarder",
      "outputs": [
        {
          "internalType": "address",
          "name": "",
          "type": "address"
        }
      ],
      "stateMutability": "view",
      "type": "function"
    },
    {
      "inputs": [],
      "name": "versionRecipient",
      "outputs": [
        {
          "internalType": "string",
          "name": "",
          "type": "string"
        }
      ],
      "stateMutability": "view",
      "type": "function"
    },
    {
      "inputs": [
        {
          "internalType": "address",
          "name": "account",
          "type": "address"
        },
        {
          "internalType": "uint256",
          "name": "amount",
          "type": "uint256"
        }
      ],
      "name": "withdraw",
      "outputs": [],
      "stateMutability": "nonpayable",
      "type": "function"
    }
  ],
  "bytecode": "0x60c06040526005608081905264191719171b60d91b60a09081526200002891600b9190620002ac565b503480156200003657600080fd5b50604051620033b8380380620033b883398101604081905262000059916200036f565b6200006d6200006762000115565b62000131565b6001600255600380546001600160a01b038481166001600160a01b03199283161790925560088054821686841617905560098054909116918316919091179055620000e87f850d585eb7f024ccee5e68e55f2c26cc72e1e6ee456acf62135757a5eb9d4a106000805160206200339883398151915262000181565b6200010c600080516020620033988339815191526200010662000115565b620001ce565b505050620003f6565b60006200012c6200027660201b620024501760201c565b905090565b600080546001600160a01b038381166001600160a01b0319831681178455604051919092169283917f8be0079c531659141344cd1fd0a4f28419497f9722a3daafe3b4186f6b6457e09190a35050565b6000828152600160208190526040808320909101805490849055905190918391839186917fbd79b86ffe0ab8e8776151514217cd7cacd52c909f66475c3af44e129f0b00ff9190a4505050565b60008281526001602090815260408083206001600160a01b038516845290915290205460ff16620002725760008281526001602081815260408084206001600160a01b0386168552909152909120805460ff191690911790556200023162000115565b6001600160a01b0316816001600160a01b0316837f2f8788117e7eff1d82e926ec794901d17c78024a50270940304540a733656f0d60405160405180910390a45b5050565b6000601436108015906200029457506003546001600160a01b031633145b15620002a7575060131936013560601c90565b503390565b828054620002ba90620003b9565b90600052602060002090601f016020900481019282620002de576000855562000329565b82601f10620002f957805160ff191683800117855562000329565b8280016001018555821562000329579182015b82811115620003295782518255916020019190600101906200030c565b50620003379291506200033b565b5090565b5b808211156200033757600081556001016200033c565b80516001600160a01b03811681146200036a57600080fd5b919050565b6000806000606084860312156200038557600080fd5b620003908462000352565b9250620003a06020850162000352565b9150620003b06040850162000352565b90509250925092565b600181811c90821680620003ce57607f821691505b60208210811415620003f057634e487b7160e01b600052602260045260246000fd5b50919050565b612f9280620004066000396000f3fe6080604052600436106102f25760003560e01c806389a302711161018f578063c1996e7f116100e1578063eaf03b401161008a578063f2fde38b11610064578063f2fde38b14610a4a578063f3fef3a314610a6a578063f8626af814610a8a57600080fd5b8063eaf03b4014610963578063ef07a81f14610990578063f23a6e61146109ec57600080fd5b8063dfdb5ae4116100bb578063dfdb5ae4146108de578063e4dafec9146108fe578063ea36c6171461092b57600080fd5b8063c1996e7f1461087e578063d547741f1461089e578063da742228146108be57600080fd5b8063a217fddf11610143578063a8754ef11161011d578063a8754ef11461081c578063b6d1b2dd14610849578063ba0e17cc1461085e57600080fd5b8063a217fddf146107de578063a54c120c146107f3578063a86bc7141461080957600080fd5b806391d148541161017457806391d148541461075857806399248ea71461079e5780639fcb2652146107be57600080fd5b806389a302711461071a5780638da5cb5b1461073a57600080fd5b80635d4bc0ce1161024857806373e9fbb7116101fc5780637da0a877116101d65780637da0a877146106bc57806382b02eed146106da57806386d392ba146106fa57600080fd5b806373e9fbb71461061a57806375b238fc1461063a5780637859165f1461066e57600080fd5b80635fba31711161022d5780635fba3171146105c55780636e338461146105e5578063715018a61461060557600080fd5b80635d4bc0ce146104cb5780635f99223b1461059857600080fd5b806336568abe116102aa5780634a2cfb54116102845780634a2cfb54146104255780634c43adea14610459578063572b6c051461049c57600080fd5b806336568abe146103c35780633b940eb5146103e3578063486ff0cd1461040357600080fd5b8063248a9ca3116102db578063248a9ca31461034e5780632abfab4d1461038d5780632f2ff15d146103a357600080fd5b806301ffc9a7146102f757806321a135441461032c575b600080fd5b34801561030357600080fd5b50610317610312366004612925565b610b00565b60405190151581526020015b60405180910390f35b34801561033857600080fd5b5061034c61034736600461294f565b610b69565b005b34801561035a57600080fd5b5061037f61036936600461294f565b6000908152600160208190526040909120015490565b604051908152602001610323565b34801561039957600080fd5b5061037f60075481565b3480156103af57600080fd5b5061034c6103be366004612984565b610f92565b3480156103cf57600080fd5b5061034c6103de366004612984565b610fc0565b3480156103ef57600080fd5b5061034c6103fe3660046129b0565b611061565b34801561040f57600080fd5b506104186110b8565b60405161032391906129f7565b34801561043157600080fd5b5061037f7f850d585eb7f024ccee5e68e55f2c26cc72e1e6ee456acf62135757a5eb9d4a1081565b34801561046557600080fd5b5061037f610474366004612984565b6000918252600f602090815260408084206001600160a01b0393909316845291905290205490565b3480156104a857600080fd5b506103176104b73660046129b0565b6003546001600160a01b0391821691161490565b3480156104d757600080fd5b506105426104e636600461294f565b600c602052600090815260409020805460018201546002830154600384015460048501546005860154600687015460078801546008909801546001600160a01b0397881698968816979596949593949293909116919060ff1689565b604080516001600160a01b039a8b168152988a1660208a01528801969096526060870194909452608086019290925260a085015290931660c083015260e082019290925290151561010082015261012001610323565b3480156105a457600080fd5b5061037f6105b336600461294f565b60009081526012602052604090205490565b3480156105d157600080fd5b5061034c6105e036600461294f565b611146565b3480156105f157600080fd5b5061034c6106003660046129b0565b61143e565b34801561061157600080fd5b5061034c6114e8565b34801561062657600080fd5b5061034c6106353660046129b0565b61156d565b34801561064657600080fd5b5061037f7fa49807205ce4d355092ef5a8a18f56e8913cf4a201fbe287825b095693c2177581565b34801561067a57600080fd5b506106a461068936600461294f565b6000908152601160205260409020546001600160a01b031690565b6040516001600160a01b039091168152602001610323565b3480156106c857600080fd5b506003546001600160a01b03166106a4565b3480156106e657600080fd5b506005546106a4906001600160a01b031681565b34801561070657600080fd5b506106a4610715366004612a2a565b6115c4565b34801561072657600080fd5b506008546106a4906001600160a01b031681565b34801561074657600080fd5b506000546001600160a01b03166106a4565b34801561076457600080fd5b50610317610773366004612984565b60009182526001602090815260408084206001600160a01b0393909316845291905290205460ff1690565b3480156107aa57600080fd5b506009546106a4906001600160a01b031681565b3480156107ca57600080fd5b5061037f6107d9366004612ad6565b6115fc565b3480156107ea57600080fd5b5061037f600081565b3480156107ff57600080fd5b5061037f60065481565b61037f610817366004612b69565b611836565b34801561082857600080fd5b5061083c61083736600461294f565b611dcb565b6040516103239190612bd4565b34801561085557600080fd5b50600a5461037f565b34801561086a57600080fd5b5061034c61087936600461294f565b611e37565b34801561088a57600080fd5b5061034c6108993660046129b0565b611f2f565b3480156108aa57600080fd5b5061034c6108b9366004612984565b611fd1565b3480156108ca57600080fd5b5061034c6108d93660046129b0565b611ffa565b3480156108ea57600080fd5b506004546106a4906001600160a01b031681565b34801561090a57600080fd5b5061091e61091936600461294f565b612094565b6040516103239190612c21565b34801561093757600080fd5b5061037f610946366004612984565b600f60209081526000928352604080842090915290825290205481565b34801561096f57600080fd5b5061037f61097e36600461294f565b6000908152600e602052604090205490565b34801561099c57600080fd5b506109b06109ab36600461294f565b61218c565b604051610323919081516001600160a01b0316815260208083015190820152604080830151908201526060918201519181019190915260800190565b3480156109f857600080fd5b50610a31610a07366004612cae565b7ff23a6e610000000000000000000000000000000000000000000000000000000095945050505050565b6040516001600160e01b03199091168152602001610323565b348015610a5657600080fd5b5061034c610a653660046129b0565b61220e565b348015610a7657600080fd5b5061034c610a85366004612d78565b61230c565b348015610a9657600080fd5b50610ad6610aa536600461294f565b600d6020526000908152604090208054600182015460028301546003909301546001600160a01b0390921692909184565b604080516001600160a01b0390951685526020850193909352918301526060820152608001610323565b60006001600160e01b031982167f7965db0b000000000000000000000000000000000000000000000000000000001480610b6357507f01ffc9a7000000000000000000000000000000000000000000000000000000006001600160e01b03198316145b92915050565b7f850d585eb7f024ccee5e68e55f2c26cc72e1e6ee456acf62135757a5eb9d4a10610b9b81610b96612484565b612493565b6000828152600c6020526040902060040154421015610be6576040517fcdf268ad00000000000000000000000000000000000000000000000000000000815260040160405180910390fd5b6000828152600c602052604090206008015460ff16151560011415610c37576040517f90e8484a00000000000000000000000000000000000000000000000000000000815260040160405180910390fd5b6000610c4283612513565b600084815260116020526040812054919250906001600160a01b03166000858152600c602052604080822080546002909101549151637921219560e11b81523060048201526001600160a01b038086166024830152604482018490526001606483015260a0608483015260a48201949094529394509190911691829063f242432a9060c401600060405180830381600087803b158015610ce157600080fd5b505af1158015610cf5573d6000803e3d6000fd5b5050604080518981526001600160a01b03871660208201527f63e7f772eee17a2469656820a22f393914e4fb575e3a4170ec5d3b6187b5a743935001905060405180910390a1604051637921219560e11b81523060048201526001600160a01b038581166024830152604482018390526001606483015260a06084830152600060a483015283169063f242432a9060c401600060405180830381600087803b158015610da057600080fd5b505af1158015610db4573d6000803e3d6000fd5b5050604080518981526001600160a01b03881660208201527f63e7f772eee17a2469656820a22f393914e4fb575e3a4170ec5d3b6187b5a743935001905060405180910390a160048054604051637921219560e11b815230928101929092526001600160a01b039081166024830152604482018390526001606483015260a06084830152600060a483015283169063f242432a9060c401600060405180830381600087803b158015610e6557600080fd5b505af1158015610e79573d6000803e3d6000fd5b5050600454604080518a81526001600160a01b0390921660208301527f63e7f772eee17a2469656820a22f393914e4fb575e3a4170ec5d3b6187b5a743935001905060405180910390a1600554604051637921219560e11b81523060048201526001600160a01b039182166024820152604481018390526001606482015260a06084820152600060a48201529083169063f242432a9060c401600060405180830381600087803b158015610f2c57600080fd5b505af1158015610f40573d6000803e3d6000fd5b5050600554604080518a81526001600160a01b0390921660208301527f63e7f772eee17a2469656820a22f393914e4fb575e3a4170ec5d3b6187b5a743935001905060405180910390a1505050505050565b60008281526001602081905260409091200154610fb181610b96612484565b610fbb83836125a8565b505050565b610fc8612484565b6001600160a01b0316816001600160a01b0316146110535760405162461bcd60e51b815260206004820152602f60248201527f416363657373436f6e74726f6c3a2063616e206f6e6c792072656e6f756e636560448201527f20726f6c657320666f722073656c66000000000000000000000000000000000060648201526084015b60405180910390fd5b61105d828261264c565b5050565b7fa49807205ce4d355092ef5a8a18f56e8913cf4a201fbe287825b095693c2177561108e81610b96612484565b61105d7f850d585eb7f024ccee5e68e55f2c26cc72e1e6ee456acf62135757a5eb9d4a10836125a8565b600b80546110c590612da2565b80601f01602080910402602001604051908101604052809291908181526020018280546110f190612da2565b801561113e5780601f106111135761010080835404028352916020019161113e565b820191906000526020600020905b81548152906001019060200180831161112157829003601f168201915b505050505081565b7fa49807205ce4d355092ef5a8a18f56e8913cf4a201fbe287825b095693c2177561117381610b96612484565b6000828152600c60205260409020600401544211156111a557604051636994512960e11b815260040160405180910390fd5b6000828152600c60205260408120600801805460ff191660011790556111ca83611dcb565b905060005b8151811015611438576000611220858484815181106111f0576111f0612dd7565b60200260200101516000918252600f602090815260408084206001600160a01b0393909316845291905290205490565b905060005b83518110156112ef5760095484516001600160a01b03909116906323b872dd90309087908790811061125957611259612dd7565b60209081029190910101516040516001600160e01b031960e085901b1681526001600160a01b03928316600482015291166024820152604481018590526064016020604051808303816000875af11580156112b8573d6000803e3d6000fd5b505050506040513d601f19601f820116820180604052508101906112dc9190612ded565b50826112e781612e20565b935050611225565b506009546040517f70a082310000000000000000000000000000000000000000000000000000000081523060048201526000916001600160a01b0316906370a0823190602401602060405180830381865afa158015611352573d6000803e3d6000fd5b505050506040513d601f19601f820116820180604052508101906113769190612e3b565b600a8190556000878152600c60205260408082206002810154600182015491549251637921219560e11b8152306004808301919091526001600160a01b039384166024830181905260448301849052606483019190915260a0608483015260a482019590955294955093911690819063f242432a9060c401600060405180830381600087803b15801561140857600080fd5b505af115801561141c573d6000803e3d6000fd5b505050505050505050808061143090612e20565b9150506111cf565b50505050565b7fa49807205ce4d355092ef5a8a18f56e8913cf4a201fbe287825b095693c2177561146b81610b96612484565b6001600160a01b038216611492576040516342bcdf7f60e11b815260040160405180910390fd5b600480546001600160a01b0319166001600160a01b0384169081179091556040519081527f99e7e8f551bb4a95839337c445d25c103e8b923f563ec440667dd5c1bb5fa329906020015b60405180910390a15050565b6114f0612484565b6001600160a01b031661150b6000546001600160a01b031690565b6001600160a01b0316146115615760405162461bcd60e51b815260206004820181905260248201527f4f776e61626c653a2063616c6c6572206973206e6f7420746865206f776e6572604482015260640161104a565b61156b60006126ed565b565b7fa49807205ce4d355092ef5a8a18f56e8913cf4a201fbe287825b095693c2177561159a81610b96612484565b61105d7f850d585eb7f024ccee5e68e55f2c26cc72e1e6ee456acf62135757a5eb9d4a1083611fd1565b601060205281600052604060002081815481106115e057600080fd5b6000918252602090912001546001600160a01b03169150829050565b60007f850d585eb7f024ccee5e68e55f2c26cc72e1e6ee456acf62135757a5eb9d4a1061162b81610b96612484565b825160808401516060850151111561166f576040517fd22dcab600000000000000000000000000000000000000000000000000000000815260040160405180910390fd5b6006805490600061167f83612e20565b9091555050600680546000908152600c6020908152604091829020875181546001600160a01b039182166001600160a01b031991821617835592890151600183018054828416908616179055848a01516002840181905560608b01516003850181905560808c01516004860181905560a08d01516005870181905560c08e015199870180549a909616999097169890981790935560e08b015160078501556101008b01516008909401805494151560ff199095169490941790935593517f1b1c288b734d07fa03889b4efe2a9e475e25c8e24eb971dd088dee01c54fc69095611793959490916001600160a01b03959095168552602085019390935260408401919091526060830152608082015260a00190565b60405180910390a160208401516040808601519051637921219560e11b81526001600160a01b039283166004808301919091523060248301526044820192909252606481019190915260a06084820152600060a48201529082169063f242432a9060c401600060405180830381600087803b15801561181157600080fd5b505af1158015611825573d6000803e3d6000fd5b505050506006549250505b50919050565b600060028054141561188a5760405162461bcd60e51b815260206004820152601f60248201527f5265656e7472616e637947756172643a207265656e7472616e742063616c6c00604482015260640161104a565b60028080556020808401516000818152600c808452604080832081516101208101835281546001600160a01b0390811682526001830154811682890152978201549281019290925260038101546060830152600481015460808301819052600582015460a0840152600682015490971660c0830152600781015460e08301526008015460ff161515610100820152918390529092529142111561194057604051636994512960e11b815260040160405180910390fd5b6000828152600c60205260409081902060050154908501511161198f576040517f7957a08500000000000000000000000000000000000000000000000000000000815260040160405180910390fd5b6007805490600061199f83612e20565b909155505042606085019081526007546000908152600d60209081526040808320885181546001600160a01b0319166001600160a01b0390911617815582890151600182015581890151600282018190559451600390910155858352600f909152812090611a0b612484565b6001600160a01b03166001600160a01b031681526020019081526020016000206000828254611a3a9190612e54565b90915550506040808501516000848152600e602052918220805491929091611a63908490612e54565b90915550506000828152601060205260409020611a7e612484565b81546001810183556000928352602080842090910180546001600160a01b0319166001600160a01b039390931692909217909155838252600f90526040812081611ac6612484565b6001600160a01b0316815260208101919091526040016000205460e0830151909150611af0612484565b6001600160a01b03168360c001516001600160a01b03161415611bd15785604001518360e001818151611b239190612e54565b9052506000848152600c6020908152604091829020855181546001600160a01b03199081166001600160a01b03928316178355928701516001830180548516918316919091179055928601516002820155606086015160038201556080860151600482015560a0860151600582015560c0860151600682018054909316931692909217905560e084015160078201556101008401516008909101805460ff1916911515919091179055611cc7565b80821115611cc75760e083018290526000848152601260205260409020829055611bf9612484565b6001600160a01b031660c0840152611c0f612484565b600085815260116020908152604080832080546001600160a01b03199081166001600160a01b0396871617909155600c8352928190208751815485169086161781559187015160018301805485169186169190911790558601516002820155606086015160038201556080860151600482015560a0860151600582015560c0860151600682018054909316931692909217905560e084015160078201556101008401516008909101805460ff19169115159190911790555b6008546001600160a01b03166323b872dd611ce0612484565b6004805460408b810151905160e086901b6001600160e01b03191681526001600160a01b03948516938101939093529216602482015260448101919091526064016020604051808303816000875af1158015611d40573d6000803e3d6000fd5b505050506040513d601f19601f82011682018060405250810190611d649190612ded565b507fdd5f9bf5cf036a4da6a1035c7f29f422c275d1e6f6b9e2a552e3e54228b390a5611d8e612484565b60408089015181516001600160a01b039093168352602083018890529082015260600160405180910390a150506007546001600255949350505050565b600081815260106020908152604091829020805483518184028101840190945280845260609392830182828015611e2b57602002820191906000526020600020905b81546001600160a01b03168152600190910190602001808311611e0d575b50505050509050919050565b7fa49807205ce4d355092ef5a8a18f56e8913cf4a201fbe287825b095693c21775611e6481610b96612484565b81600a6000828254611e769190612e54565b9091555050600954600480546040516323b872dd60e01b81526001600160a01b039182169281019290925230602483015260448201859052909116906323b872dd906064016020604051808303816000875af1158015611eda573d6000803e3d6000fd5b505050506040513d601f19601f82011682018060405250810190611efe9190612ded565b506040518281527fa8ee888309c5a5d49d51b3d88f2a1d4405947b3102c9dea165ddc4e2e5769ee2906020016114dc565b7f850d585eb7f024ccee5e68e55f2c26cc72e1e6ee456acf62135757a5eb9d4a10611f5c81610b96612484565b6001600160a01b038216611f83576040516342bcdf7f60e11b815260040160405180910390fd5b600580546001600160a01b0319166001600160a01b0384169081179091556040519081527fa099340b9009966c80f2d51f8425c15ffe5713a8c732f3d9e3b0d213ad03e35b906020016114dc565b60008281526001602081905260409091200154611ff081610b96612484565b610fbb838361264c565b612002612484565b6001600160a01b031661201d6000546001600160a01b031690565b6001600160a01b0316146120735760405162461bcd60e51b815260206004820181905260248201527f4f776e61626c653a2063616c6c6572206973206e6f7420746865206f776e6572604482015260640161104a565b600380546001600160a01b0319166001600160a01b03831617905550565b50565b61210060405180610120016040528060006001600160a01b0316815260200160006001600160a01b031681526020016000815260200160008152602001600081526020016000815260200160006001600160a01b03168152602001600081526020016000151581525090565b506000908152600c602090815260409182902082516101208101845281546001600160a01b03908116825260018301548116938201939093526002820154938101939093526003810154606084015260048101546080840152600581015460a0840152600681015490911660c0830152600781015460e08301526008015460ff16151561010082015290565b6121c0604051806080016040528060006001600160a01b031681526020016000815260200160008152602001600081525090565b506000908152600d6020908152604091829020825160808101845281546001600160a01b03168152600182015492810192909252600281015492820192909252600390910154606082015290565b612216612484565b6001600160a01b03166122316000546001600160a01b031690565b6001600160a01b0316146122875760405162461bcd60e51b815260206004820181905260248201527f4f776e61626c653a2063616c6c6572206973206e6f7420746865206f776e6572604482015260640161104a565b6001600160a01b0381166123035760405162461bcd60e51b815260206004820152602660248201527f4f776e61626c653a206e6577206f776e657220697320746865207a65726f206160448201527f6464726573730000000000000000000000000000000000000000000000000000606482015260840161104a565b612091816126ed565b7fa49807205ce4d355092ef5a8a18f56e8913cf4a201fbe287825b095693c2177561233981610b96612484565b81600a5411612374576040517f5945ea5600000000000000000000000000000000000000000000000000000000815260040160405180910390fd5b81600a60008282546123869190612e6c565b90915550506009546040516323b872dd60e01b81523060048201526001600160a01b03858116602483015260448201859052909116906323b872dd906064016020604051808303816000875af11580156123e4573d6000803e3d6000fd5b505050506040513d601f19601f820116820180604052508101906124089190612ded565b50604080516001600160a01b0385168152602081018490527fb17e15e57124ae7e5f29dd49aa8a8bd46fe26b3e6f6eda1372ca9d1cead0f3f5910160405180910390a1505050565b60006014361080159061246d57506003546001600160a01b031633145b1561247f575060131936013560601c90565b503390565b600061248e612450565b905090565b60008281526001602090815260408083206001600160a01b038516845290915290205460ff1661105d576124d1816001600160a01b0316601461273d565b6124dc83602061273d565b6040516020016124ed929190612e83565b60408051601f198184030181529082905262461bcd60e51b825261104a916004016129f7565b60008181526010602090815260408083205481514281850152438184015244606082015260808082018790528351808303909101815260a0909101909252815191909201208290612565908390612f04565b6000858152601060205260408120805492935090918390811061258a5761258a612dd7565b6000918252602090912001546001600160a01b031695945050505050565b60008281526001602090815260408083206001600160a01b038516845290915290205460ff1661105d5760008281526001602081815260408084206001600160a01b0386168552909152909120805460ff19169091179055612608612484565b6001600160a01b0316816001600160a01b0316837f2f8788117e7eff1d82e926ec794901d17c78024a50270940304540a733656f0d60405160405180910390a45050565b60008281526001602090815260408083206001600160a01b038516845290915290205460ff161561105d5760008281526001602090815260408083206001600160a01b03851684529091529020805460ff191690556126a9612484565b6001600160a01b0316816001600160a01b0316837ff6391f5c32d9c69d2a47ea670b442974b53935d1edc7fd64eb21e047a839171b60405160405180910390a45050565b600080546001600160a01b038381166001600160a01b0319831681178455604051919092169283917f8be0079c531659141344cd1fd0a4f28419497f9722a3daafe3b4186f6b6457e09190a35050565b6060600061274c836002612f26565b612757906002612e54565b67ffffffffffffffff81111561276f5761276f612a4c565b6040519080825280601f01601f191660200182016040528015612799576020820181803683370190505b5090507f3000000000000000000000000000000000000000000000000000000000000000816000815181106127d0576127d0612dd7565b60200101906001600160f81b031916908160001a9053507f78000000000000000000000000000000000000000000000000000000000000008160018151811061281b5761281b612dd7565b60200101906001600160f81b031916908160001a905350600061283f846002612f26565b61284a906001612e54565b90505b60018111156128cf577f303132333435363738396162636465660000000000000000000000000000000085600f166010811061288b5761288b612dd7565b1a60f81b8282815181106128a1576128a1612dd7565b60200101906001600160f81b031916908160001a90535060049490941c936128c881612f45565b905061284d565b50831561291e5760405162461bcd60e51b815260206004820181905260248201527f537472696e67733a20686578206c656e67746820696e73756666696369656e74604482015260640161104a565b9392505050565b60006020828403121561293757600080fd5b81356001600160e01b03198116811461291e57600080fd5b60006020828403121561296157600080fd5b5035919050565b80356001600160a01b038116811461297f57600080fd5b919050565b6000806040838503121561299757600080fd5b823591506129a760208401612968565b90509250929050565b6000602082840312156129c257600080fd5b61291e82612968565b60005b838110156129e65781810151838201526020016129ce565b838111156114385750506000910152565b6020815260008251806020840152612a168160408501602087016129cb565b601f01601f19169190910160400192915050565b60008060408385031215612a3d57600080fd5b50508035926020909101359150565b634e487b7160e01b600052604160045260246000fd5b604051610120810167ffffffffffffffff81118282101715612a8657612a86612a4c565b60405290565b604051601f8201601f1916810167ffffffffffffffff81118282101715612ab557612ab5612a4c565b604052919050565b801515811461209157600080fd5b803561297f81612abd565b60006101208284031215612ae957600080fd5b612af1612a62565b612afa83612968565b8152612b0860208401612968565b602082015260408301356040820152606083013560608201526080830135608082015260a083013560a0820152612b4160c08401612968565b60c082015260e083013560e0820152610100612b5e818501612acb565b908201529392505050565b600060808284031215612b7b57600080fd5b6040516080810181811067ffffffffffffffff82111715612b9e57612b9e612a4c565b604052612baa83612968565b81526020830135602082015260408301356040820152606083013560608201528091505092915050565b6020808252825182820181905260009190848201906040850190845b81811015612c155783516001600160a01b031683529284019291840191600101612bf0565b50909695505050505050565b6000610120820190506001600160a01b038084511683528060208501511660208401525060408301516040830152606083015160608301526080830151608083015260a083015160a083015260c0830151612c8760c08401826001600160a01b03169052565b5060e083015160e083015261010080840151612ca68285018215159052565b505092915050565b600080600080600060a08688031215612cc657600080fd5b612ccf86612968565b94506020612cde818801612968565b94506040870135935060608701359250608087013567ffffffffffffffff80821115612d0957600080fd5b818901915089601f830112612d1d57600080fd5b813581811115612d2f57612d2f612a4c565b612d41601f8201601f19168501612a8c565b91508082528a84828501011115612d5757600080fd5b80848401858401376000848284010152508093505050509295509295909350565b60008060408385031215612d8b57600080fd5b612d9483612968565b946020939093013593505050565b600181811c90821680612db657607f821691505b6020821081141561183057634e487b7160e01b600052602260045260246000fd5b634e487b7160e01b600052603260045260246000fd5b600060208284031215612dff57600080fd5b815161291e81612abd565b634e487b7160e01b600052601160045260246000fd5b6000600019821415612e3457612e34612e0a565b5060010190565b600060208284031215612e4d57600080fd5b5051919050565b60008219821115612e6757612e67612e0a565b500190565b600082821015612e7e57612e7e612e0a565b500390565b7f416363657373436f6e74726f6c3a206163636f756e7420000000000000000000815260008351612ebb8160178501602088016129cb565b7f206973206d697373696e6720726f6c65200000000000000000000000000000006017918401918201528351612ef88160288401602088016129cb565b01602801949350505050565b600082612f2157634e487b7160e01b600052601260045260246000fd5b500690565b6000816000190483118215151615612f4057612f40612e0a565b500290565b600081612f5457612f54612e0a565b50600019019056fea2646970667358221220e303f5d26d3a7eb2bc3853c3cb7e13c1189936a2fb6d0aa71706d39f926b94df64736f6c634300080b0033a49807205ce4d355092ef5a8a18f56e8913cf4a201fbe287825b095693c21775",
  "linkReferences": {},
  "deployedLinkReferences": {}
}