{
  "_format": "hh-sol-artifact-1",
  "contractName": "Raffle",
  "sourceName": "contracts/Raffle.sol",
  "abi": [
    {
      "inputs": [
        {
          "internalType": "address",
          "name": "_usdc",
          "type": "address"
        },
        {
          "internalType": "address",
          "name": "_forwarder",
          "type": "address"
        }
      ],
      "stateMutability": "nonpayable",
      "type": "constructor"
    },
    {
      "inputs": [],
      "name": "DonationTooLow",
      "type": "error"
    },
    {
      "inputs": [],
      "name": "IncorrectTimesGiven",
      "type": "error"
    },
    {
      "inputs": [],
      "name": "RaffleHasEnded",
      "type": "error"
    },
    {
      "inputs": [],
      "name": "RaffleHasNotEnded",
      "type": "error"
    },
    {
      "inputs": [],
      "name": "ZeroAddressNotAllowed",
      "type": "error"
    },
    {
      "anonymous": false,
      "inputs": [
        {
          "indexed": false,
          "internalType": "address",
          "name": "walletAddress",
          "type": "address"
        }
      ],
      "name": "DAOWalletAddressSet",
      "type": "event"
    },
    {
      "anonymous": false,
      "inputs": [
        {
          "indexed": false,
          "internalType": "address",
          "name": "from",
          "type": "address"
        },
        {
          "indexed": false,
          "internalType": "uint256",
          "name": "raffleId",
          "type": "uint256"
        },
        {
          "indexed": false,
          "internalType": "uint256",
          "name": "amount",
          "type": "uint256"
        }
      ],
      "name": "DonationPlaced",
      "type": "event"
    },
    {
      "anonymous": false,
      "inputs": [
        {
          "indexed": false,
          "internalType": "uint256",
          "name": "raffleID",
          "type": "uint256"
        },
        {
          "indexed": false,
          "internalType": "address",
          "name": "winner",
          "type": "address"
        }
      ],
      "name": "NFTsentToWinner",
      "type": "event"
    },
    {
      "anonymous": false,
      "inputs": [
        {
          "indexed": true,
          "internalType": "address",
          "name": "previousOwner",
          "type": "address"
        },
        {
          "indexed": true,
          "internalType": "address",
          "name": "newOwner",
          "type": "address"
        }
      ],
      "name": "OwnershipTransferred",
      "type": "event"
    },
    {
      "anonymous": false,
      "inputs": [
        {
          "indexed": false,
          "internalType": "address",
          "name": "nftOwner",
          "type": "address"
        },
        {
          "indexed": false,
          "internalType": "uint256",
          "name": "tokenID",
          "type": "uint256"
        },
        {
          "indexed": false,
          "internalType": "uint256",
          "name": "startTime",
          "type": "uint256"
        },
        {
          "indexed": false,
          "internalType": "uint256",
          "name": "endTime",
          "type": "uint256"
        },
        {
          "indexed": false,
          "internalType": "uint256",
          "name": "minimumDonationAmount",
          "type": "uint256"
        }
      ],
      "name": "RaffleCreated",
      "type": "event"
    },
    {
      "anonymous": false,
      "inputs": [
        {
          "indexed": true,
          "internalType": "bytes32",
          "name": "role",
          "type": "bytes32"
        },
        {
          "indexed": true,
          "internalType": "bytes32",
          "name": "previousAdminRole",
          "type": "bytes32"
        },
        {
          "indexed": true,
          "internalType": "bytes32",
          "name": "newAdminRole",
          "type": "bytes32"
        }
      ],
      "name": "RoleAdminChanged",
      "type": "event"
    },
    {
      "anonymous": false,
      "inputs": [
        {
          "indexed": true,
          "internalType": "bytes32",
          "name": "role",
          "type": "bytes32"
        },
        {
          "indexed": true,
          "internalType": "address",
          "name": "account",
          "type": "address"
        },
        {
          "indexed": true,
          "internalType": "address",
          "name": "sender",
          "type": "address"
        }
      ],
      "name": "RoleGranted",
      "type": "event"
    },
    {
      "anonymous": false,
      "inputs": [
        {
          "indexed": true,
          "internalType": "bytes32",
          "name": "role",
          "type": "bytes32"
        },
        {
          "indexed": true,
          "internalType": "address",
          "name": "account",
          "type": "address"
        },
        {
          "indexed": true,
          "internalType": "address",
          "name": "sender",
          "type": "address"
        }
      ],
      "name": "RoleRevoked",
      "type": "event"
    },
    {
      "anonymous": false,
      "inputs": [
        {
          "indexed": false,
          "internalType": "address",
          "name": "nftAuthorWallet",
          "type": "address"
        }
      ],
      "name": "nftAuthorWalletAddressSet",
      "type": "event"
    },
    {
      "inputs": [],
      "name": "CURATOR_ROLE",
      "outputs": [
        {
          "internalType": "bytes32",
          "name": "",
          "type": "bytes32"
        }
      ],
      "stateMutability": "view",
      "type": "function"
    },
    {
      "inputs": [],
      "name": "DAOWallet",
      "outputs": [
        {
          "internalType": "address",
          "name": "",
          "type": "address"
        }
      ],
      "stateMutability": "view",
      "type": "function"
    },
    {
      "inputs": [],
      "name": "DEFAULT_ADMIN_ROLE",
      "outputs": [
        {
          "internalType": "bytes32",
          "name": "",
          "type": "bytes32"
        }
      ],
      "stateMutability": "view",
      "type": "function"
    },
    {
      "inputs": [],
      "name": "USDC",
      "outputs": [
        {
          "internalType": "contract IERC20",
          "name": "",
          "type": "address"
        }
      ],
      "stateMutability": "view",
      "type": "function"
    },
    {
      "inputs": [
        {
          "components": [
            {
              "internalType": "address",
              "name": "nftContract",
              "type": "address"
            },
            {
              "internalType": "address",
              "name": "nftOwner",
              "type": "address"
            },
            {
              "internalType": "uint256",
              "name": "tokenID",
              "type": "uint256"
            },
            {
              "internalType": "uint256",
              "name": "startTime",
              "type": "uint256"
            },
            {
              "internalType": "uint256",
              "name": "endTime",
              "type": "uint256"
            },
            {
              "internalType": "uint256",
              "name": "minimumDonationAmount",
              "type": "uint256"
            },
            {
              "internalType": "address",
              "name": "topDonor",
              "type": "address"
            },
            {
              "internalType": "uint256",
              "name": "topDonatedAmount",
              "type": "uint256"
            }
          ],
          "internalType": "struct Raffle.Raffle",
          "name": "_raffle",
          "type": "tuple"
        }
      ],
      "name": "createRaffle",
      "outputs": [
        {
          "internalType": "uint256",
          "name": "",
          "type": "uint256"
        }
      ],
      "stateMutability": "nonpayable",
      "type": "function"
    },
    {
      "inputs": [
        {
          "components": [
            {
              "internalType": "address",
              "name": "donor",
              "type": "address"
            },
            {
              "internalType": "uint256",
              "name": "raffleID",
              "type": "uint256"
            },
            {
              "internalType": "uint256",
              "name": "amount",
              "type": "uint256"
            },
            {
              "internalType": "uint256",
              "name": "timestamp",
              "type": "uint256"
            }
          ],
          "internalType": "struct Raffle.Donation",
          "name": "_donation",
          "type": "tuple"
        }
      ],
      "name": "donate",
      "outputs": [
        {
          "internalType": "uint256",
          "name": "",
          "type": "uint256"
        }
      ],
      "stateMutability": "payable",
      "type": "function"
    },
    {
      "inputs": [],
      "name": "donationCount",
      "outputs": [
        {
          "internalType": "uint256",
          "name": "",
          "type": "uint256"
        }
      ],
      "stateMutability": "view",
      "type": "function"
    },
    {
      "inputs": [
        {
          "internalType": "uint256",
          "name": "",
          "type": "uint256"
        }
      ],
      "name": "donations",
      "outputs": [
        {
          "internalType": "address",
          "name": "donor",
          "type": "address"
        },
        {
          "internalType": "uint256",
          "name": "raffleID",
          "type": "uint256"
        },
        {
          "internalType": "uint256",
          "name": "amount",
          "type": "uint256"
        },
        {
          "internalType": "uint256",
          "name": "timestamp",
          "type": "uint256"
        }
      ],
      "stateMutability": "view",
      "type": "function"
    },
    {
      "inputs": [
        {
          "internalType": "uint256",
          "name": "",
          "type": "uint256"
        },
        {
          "internalType": "uint256",
          "name": "",
          "type": "uint256"
        }
      ],
      "name": "donorsArrayPerCycle",
      "outputs": [
        {
          "internalType": "address",
          "name": "",
          "type": "address"
        }
      ],
      "stateMutability": "view",
      "type": "function"
    },
    {
      "inputs": [
        {
          "internalType": "uint256",
          "name": "donationID",
          "type": "uint256"
        }
      ],
      "name": "getDonation",
      "outputs": [
        {
          "components": [
            {
              "internalType": "address",
              "name": "donor",
              "type": "address"
            },
            {
              "internalType": "uint256",
              "name": "raffleID",
              "type": "uint256"
            },
            {
              "internalType": "uint256",
              "name": "amount",
              "type": "uint256"
            },
            {
              "internalType": "uint256",
              "name": "timestamp",
              "type": "uint256"
            }
          ],
          "internalType": "struct Raffle.Donation",
          "name": "",
          "type": "tuple"
        }
      ],
      "stateMutability": "view",
      "type": "function"
    },
    {
      "inputs": [
        {
          "internalType": "uint256",
          "name": "raffleID",
          "type": "uint256"
        }
      ],
      "name": "getDonorsPerCycle",
      "outputs": [
        {
          "internalType": "address[]",
          "name": "",
          "type": "address[]"
        }
      ],
      "stateMutability": "view",
      "type": "function"
    },
    {
      "inputs": [
        {
          "internalType": "uint256",
          "name": "raffleID",
          "type": "uint256"
        }
      ],
      "name": "getHighestDonationPerCycle",
      "outputs": [
        {
          "internalType": "uint256",
          "name": "",
          "type": "uint256"
        }
      ],
      "stateMutability": "view",
      "type": "function"
    },
    {
      "inputs": [
        {
          "internalType": "uint256",
          "name": "raffleID",
          "type": "uint256"
        }
      ],
      "name": "getRaffle",
      "outputs": [
        {
          "components": [
            {
              "internalType": "address",
              "name": "nftContract",
              "type": "address"
            },
            {
              "internalType": "address",
              "name": "nftOwner",
              "type": "address"
            },
            {
              "internalType": "uint256",
              "name": "tokenID",
              "type": "uint256"
            },
            {
              "internalType": "uint256",
              "name": "startTime",
              "type": "uint256"
            },
            {
              "internalType": "uint256",
              "name": "endTime",
              "type": "uint256"
            },
            {
              "internalType": "uint256",
              "name": "minimumDonationAmount",
              "type": "uint256"
            },
            {
              "internalType": "address",
              "name": "topDonor",
              "type": "address"
            },
            {
              "internalType": "uint256",
              "name": "topDonatedAmount",
              "type": "uint256"
            }
          ],
          "internalType": "struct Raffle.Raffle",
          "name": "",
          "type": "tuple"
        }
      ],
      "stateMutability": "view",
      "type": "function"
    },
    {
      "inputs": [
        {
          "internalType": "bytes32",
          "name": "role",
          "type": "bytes32"
        }
      ],
      "name": "getRoleAdmin",
      "outputs": [
        {
          "internalType": "bytes32",
          "name": "",
          "type": "bytes32"
        }
      ],
      "stateMutability": "view",
      "type": "function"
    },
    {
      "inputs": [
        {
          "internalType": "uint256",
          "name": "raffleID",
          "type": "uint256"
        }
      ],
      "name": "getTopDonor",
      "outputs": [
        {
          "internalType": "address",
          "name": "",
          "type": "address"
        }
      ],
      "stateMutability": "view",
      "type": "function"
    },
    {
      "inputs": [
        {
          "internalType": "uint256",
          "name": "raffleID",
          "type": "uint256"
        },
        {
          "internalType": "address",
          "name": "account",
          "type": "address"
        }
      ],
      "name": "getTotalDonationPerAddressPerCycle",
      "outputs": [
        {
          "internalType": "uint256",
          "name": "",
          "type": "uint256"
        }
      ],
      "stateMutability": "view",
      "type": "function"
    },
    {
      "inputs": [
        {
          "internalType": "uint256",
          "name": "raffleID",
          "type": "uint256"
        }
      ],
      "name": "getTotalDonationsPerCycle",
      "outputs": [
        {
          "internalType": "uint256",
          "name": "",
          "type": "uint256"
        }
      ],
      "stateMutability": "view",
      "type": "function"
    },
    {
      "inputs": [
        {
          "internalType": "bytes32",
          "name": "role",
          "type": "bytes32"
        },
        {
          "internalType": "address",
          "name": "account",
          "type": "address"
        }
      ],
      "name": "grantRole",
      "outputs": [],
      "stateMutability": "nonpayable",
      "type": "function"
    },
    {
      "inputs": [
        {
          "internalType": "bytes32",
          "name": "role",
          "type": "bytes32"
        },
        {
          "internalType": "address",
          "name": "account",
          "type": "address"
        }
      ],
      "name": "hasRole",
      "outputs": [
        {
          "internalType": "bool",
          "name": "",
          "type": "bool"
        }
      ],
      "stateMutability": "view",
      "type": "function"
    },
    {
      "inputs": [
        {
          "internalType": "address",
          "name": "forwarder",
          "type": "address"
        }
      ],
      "name": "isTrustedForwarder",
      "outputs": [
        {
          "internalType": "bool",
          "name": "",
          "type": "bool"
        }
      ],
      "stateMutability": "view",
      "type": "function"
    },
    {
      "inputs": [],
      "name": "nftAuthorWallet",
      "outputs": [
        {
          "internalType": "address",
          "name": "",
          "type": "address"
        }
      ],
      "stateMutability": "view",
      "type": "function"
    },
    {
      "inputs": [
        {
          "internalType": "address",
          "name": "operator",
          "type": "address"
        },
        {
          "internalType": "address",
          "name": "from",
          "type": "address"
        },
        {
          "internalType": "uint256",
          "name": "id",
          "type": "uint256"
        },
        {
          "internalType": "uint256",
          "name": "value",
          "type": "uint256"
        },
        {
          "internalType": "bytes",
          "name": "data",
          "type": "bytes"
        }
      ],
      "name": "onERC1155Received",
      "outputs": [
        {
          "internalType": "bytes4",
          "name": "",
          "type": "bytes4"
        }
      ],
      "stateMutability": "pure",
      "type": "function"
    },
    {
      "inputs": [],
      "name": "owner",
      "outputs": [
        {
          "internalType": "address",
          "name": "",
          "type": "address"
        }
      ],
      "stateMutability": "view",
      "type": "function"
    },
    {
      "inputs": [],
      "name": "raffleCount",
      "outputs": [
        {
          "internalType": "uint256",
          "name": "",
          "type": "uint256"
        }
      ],
      "stateMutability": "view",
      "type": "function"
    },
    {
      "inputs": [
        {
          "internalType": "uint256",
          "name": "",
          "type": "uint256"
        }
      ],
      "name": "raffles",
      "outputs": [
        {
          "internalType": "address",
          "name": "nftContract",
          "type": "address"
        },
        {
          "internalType": "address",
          "name": "nftOwner",
          "type": "address"
        },
        {
          "internalType": "uint256",
          "name": "tokenID",
          "type": "uint256"
        },
        {
          "internalType": "uint256",
          "name": "startTime",
          "type": "uint256"
        },
        {
          "internalType": "uint256",
          "name": "endTime",
          "type": "uint256"
        },
        {
          "internalType": "uint256",
          "name": "minimumDonationAmount",
          "type": "uint256"
        },
        {
          "internalType": "address",
          "name": "topDonor",
          "type": "address"
        },
        {
          "internalType": "uint256",
          "name": "topDonatedAmount",
          "type": "uint256"
        }
      ],
      "stateMutability": "view",
      "type": "function"
    },
    {
      "inputs": [],
      "name": "renounceOwnership",
      "outputs": [],
      "stateMutability": "nonpayable",
      "type": "function"
    },
    {
      "inputs": [
        {
          "internalType": "bytes32",
          "name": "role",
          "type": "bytes32"
        },
        {
          "internalType": "address",
          "name": "account",
          "type": "address"
        }
      ],
      "name": "renounceRole",
      "outputs": [],
      "stateMutability": "nonpayable",
      "type": "function"
    },
    {
      "inputs": [
        {
          "internalType": "bytes32",
          "name": "role",
          "type": "bytes32"
        },
        {
          "internalType": "address",
          "name": "account",
          "type": "address"
        }
      ],
      "name": "revokeRole",
      "outputs": [],
      "stateMutability": "nonpayable",
      "type": "function"
    },
    {
      "inputs": [
        {
          "internalType": "uint256",
          "name": "raffleID",
          "type": "uint256"
        }
      ],
      "name": "sendNFTRewards",
      "outputs": [],
      "stateMutability": "nonpayable",
      "type": "function"
    },
    {
      "inputs": [
        {
          "internalType": "address",
          "name": "curator",
          "type": "address"
        }
      ],
      "name": "setCuratorRole",
      "outputs": [],
      "stateMutability": "nonpayable",
      "type": "function"
    },
    {
      "inputs": [
        {
          "internalType": "address",
          "name": "_DAOWallet",
          "type": "address"
        }
      ],
      "name": "setDAOWalletAddress",
      "outputs": [],
      "stateMutability": "nonpayable",
      "type": "function"
    },
    {
      "inputs": [
        {
          "internalType": "address",
          "name": "_nftAuthorWallet",
          "type": "address"
        }
      ],
      "name": "setNftAuthorWalletAddress",
      "outputs": [],
      "stateMutability": "nonpayable",
      "type": "function"
    },
    {
      "inputs": [
        {
          "internalType": "address",
          "name": "_forwarder",
          "type": "address"
        }
      ],
      "name": "setTrustedForwarder",
      "outputs": [],
      "stateMutability": "nonpayable",
      "type": "function"
    },
    {
      "inputs": [
        {
          "internalType": "bytes4",
          "name": "interfaceId",
          "type": "bytes4"
        }
      ],
      "name": "supportsInterface",
      "outputs": [
        {
          "internalType": "bool",
          "name": "",
          "type": "bool"
        }
      ],
      "stateMutability": "view",
      "type": "function"
    },
    {
      "inputs": [
        {
          "internalType": "uint256",
          "name": "",
          "type": "uint256"
        },
        {
          "internalType": "address",
          "name": "",
          "type": "address"
        }
      ],
      "name": "totalDonationPerAddressPerCycle",
      "outputs": [
        {
          "internalType": "uint256",
          "name": "",
          "type": "uint256"
        }
      ],
      "stateMutability": "view",
      "type": "function"
    },
    {
      "inputs": [
        {
          "internalType": "address",
          "name": "newOwner",
          "type": "address"
        }
      ],
      "name": "transferOwnership",
      "outputs": [],
      "stateMutability": "nonpayable",
      "type": "function"
    },
    {
      "inputs": [],
      "name": "trustedForwarder",
      "outputs": [
        {
          "internalType": "address",
          "name": "",
          "type": "address"
        }
      ],
      "stateMutability": "view",
      "type": "function"
    },
    {
      "inputs": [],
      "name": "versionRecipient",
      "outputs": [
        {
          "internalType": "string",
          "name": "",
          "type": "string"
        }
      ],
      "stateMutability": "view",
      "type": "function"
    }
  ],
  "bytecode": "0x60c06040526005608081905264191719171b60d91b60a090815262000028916009919062000156565b503480156200003657600080fd5b5060405162002a8238038062002a82833981016040819052620000599162000219565b6200006d62000067620000b4565b620000d0565b6001600255600380546001600160a01b0319166001600160a01b03831617905550600880546001600160a01b0319166001600160a01b03929092169190911790556200028e565b6000620000cb6200012060201b62001db11760201c565b905090565b600080546001600160a01b038381166001600160a01b0319831681178455604051919092169283917f8be0079c531659141344cd1fd0a4f28419497f9722a3daafe3b4186f6b6457e09190a35050565b6000601436108015906200013e57506003546001600160a01b031633145b1562000151575060131936013560601c90565b503390565b828054620001649062000251565b90600052602060002090601f016020900481019282620001885760008555620001d3565b82601f10620001a357805160ff1916838001178555620001d3565b82800160010185558215620001d3579182015b82811115620001d3578251825591602001919060010190620001b6565b50620001e1929150620001e5565b5090565b5b80821115620001e15760008155600101620001e6565b80516001600160a01b03811681146200021457600080fd5b919050565b600080604083850312156200022d57600080fd5b6200023883620001fc565b91506200024860208401620001fc565b90509250929050565b600181811c908216806200026657607f821691505b602082108114156200028857634e487b7160e01b600052602260045260246000fd5b50919050565b6127e4806200029e6000396000f3fe6080604052600436106102855760003560e01c806389a3027111610153578063d547741f116100cb578063eaf03b401161007f578063f23a6e6111610064578063f23a6e6114610907578063f2fde38b14610965578063f8626af81461098557600080fd5b8063eaf03b401461087e578063ef07a81f146108ab57600080fd5b8063dfdb5ae4116100b0578063dfdb5ae414610796578063e4dafec9146107b6578063ea36c6171461084657600080fd5b8063d547741f14610756578063da7422281461077657600080fd5b8063a54c120c11610122578063a8754ef111610107578063a8754ef1146106e9578063be91e39414610716578063c1996e7f1461073657600080fd5b8063a54c120c146106c0578063a86bc714146106d657600080fd5b806389a30271146106275780638da5cb5b1461064757806391d1485414610665578063a217fddf146106ab57600080fd5b80634c43adea11610201578063715018a6116101b55780637da0a8771161019a5780637da0a877146105c957806382b02eed146105e757806386d392ba1461060757600080fd5b8063715018a6146105665780637859165f1461057b57600080fd5b80635d4bc0ce116101e65780635d4bc0ce1461045e5780635f99223b146105195780636e3384611461054657600080fd5b80634c43adea146103ec578063572b6c051461042f57600080fd5b80632f2ff15d116102585780633b940eb51161023d5780633b940eb514610376578063486ff0cd146103965780634a2cfb54146103b857600080fd5b80632f2ff15d1461033657806336568abe1461035657600080fd5b806301ffc9a71461028a57806321a13544146102bf578063248a9ca3146102e15780632abfab4d14610320575b600080fd5b34801561029657600080fd5b506102aa6102a5366004612286565b6109fb565b60405190151581526020015b60405180910390f35b3480156102cb57600080fd5b506102df6102da3660046122b0565b610a64565b005b3480156102ed57600080fd5b506103126102fc3660046122b0565b6000908152600160208190526040909120015490565b6040519081526020016102b6565b34801561032c57600080fd5b5061031260075481565b34801561034257600080fd5b506102df6103513660046122e5565b610e3c565b34801561036257600080fd5b506102df6103713660046122e5565b610e6a565b34801561038257600080fd5b506102df610391366004612311565b610f0b565b3480156103a257600080fd5b506103ab610fb1565b6040516102b6919061235c565b3480156103c457600080fd5b506103127f850d585eb7f024ccee5e68e55f2c26cc72e1e6ee456acf62135757a5eb9d4a1081565b3480156103f857600080fd5b506103126104073660046122e5565b6000918252600d602090815260408084206001600160a01b0393909316845291905290205490565b34801561043b57600080fd5b506102aa61044a366004612311565b6003546001600160a01b0391821691161490565b34801561046a57600080fd5b506104cc6104793660046122b0565b600a60205260009081526040902080546001820154600283015460038401546004850154600586015460068701546007909701546001600160a01b03968716979587169694959394929391929091169088565b604080516001600160a01b03998a16815297891660208901528701959095526060860193909352608085019190915260a084015290921660c082015260e0810191909152610100016102b6565b34801561052557600080fd5b506103126105343660046122b0565b60009081526010602052604090205490565b34801561055257600080fd5b506102df610561366004612311565b61103f565b34801561057257600080fd5b506102df611133565b34801561058757600080fd5b506105b16105963660046122b0565b6000908152600f60205260409020546001600160a01b031690565b6040516001600160a01b0390911681526020016102b6565b3480156105d557600080fd5b506003546001600160a01b03166105b1565b3480156105f357600080fd5b506005546105b1906001600160a01b031681565b34801561061357600080fd5b506105b161062236600461238f565b6111b8565b34801561063357600080fd5b506008546105b1906001600160a01b031681565b34801561065357600080fd5b506000546001600160a01b03166105b1565b34801561067157600080fd5b506102aa6106803660046122e5565b60009182526001602090815260408084206001600160a01b0393909316845291905290205460ff1690565b3480156106b757600080fd5b50610312600081565b3480156106cc57600080fd5b5061031260065481565b6103126106e43660046123f8565b6111f0565b3480156106f557600080fd5b506107096107043660046122b0565b61175c565b6040516102b69190612463565b34801561072257600080fd5b506103126107313660046124b0565b6117c8565b34801561074257600080fd5b506102df610751366004612311565b6119e9565b34801561076257600080fd5b506102df6107713660046122e5565b611a92565b34801561078257600080fd5b506102df610791366004612311565b611abb565b3480156107a257600080fd5b506004546105b1906001600160a01b031681565b3480156107c257600080fd5b506107d66107d13660046122b0565b611b52565b6040516102b691906000610100820190506001600160a01b0380845116835280602085015116602084015260408401516040840152606084015160608401526080840151608084015260a084015160a08401528060c08501511660c08401525060e083015160e083015292915050565b34801561085257600080fd5b506103126108613660046122e5565b600d60209081526000928352604080842090915290825290205481565b34801561088a57600080fd5b506103126108993660046122b0565b6000908152600c602052604090205490565b3480156108b757600080fd5b506108cb6108c63660046122b0565b611c31565b6040516102b6919081516001600160a01b0316815260208083015190820152604080830151908201526060918201519181019190915260800190565b34801561091357600080fd5b5061094c610922366004612555565b7ff23a6e610000000000000000000000000000000000000000000000000000000095945050505050565b6040516001600160e01b031990911681526020016102b6565b34801561097157600080fd5b506102df610980366004612311565b611cb3565b34801561099157600080fd5b506109d16109a03660046122b0565b600b6020526000908152604090208054600182015460028301546003909301546001600160a01b0390921692909184565b604080516001600160a01b03909516855260208501939093529183015260608201526080016102b6565b60006001600160e01b031982167f7965db0b000000000000000000000000000000000000000000000000000000001480610a5e57507f01ffc9a7000000000000000000000000000000000000000000000000000000006001600160e01b03198316145b92915050565b7f850d585eb7f024ccee5e68e55f2c26cc72e1e6ee456acf62135757a5eb9d4a10610a9681610a91611de5565b611df4565b6000828152600a6020526040902060040154421015610ae1576040517fcdf268ad00000000000000000000000000000000000000000000000000000000815260040160405180910390fd5b6000610aec83611e74565b6000848152600f6020526040812054919250906001600160a01b03166000858152600a602052604080822080546002909101549151637921219560e11b81523060048201526001600160a01b038086166024830152604482018490526001606483015260a0608483015260a48201949094529394509190911691829063f242432a9060c401600060405180830381600087803b158015610b8b57600080fd5b505af1158015610b9f573d6000803e3d6000fd5b5050604080518981526001600160a01b03871660208201527f63e7f772eee17a2469656820a22f393914e4fb575e3a4170ec5d3b6187b5a743935001905060405180910390a1604051637921219560e11b81523060048201526001600160a01b038581166024830152604482018390526001606483015260a06084830152600060a483015283169063f242432a9060c401600060405180830381600087803b158015610c4a57600080fd5b505af1158015610c5e573d6000803e3d6000fd5b5050604080518981526001600160a01b03881660208201527f63e7f772eee17a2469656820a22f393914e4fb575e3a4170ec5d3b6187b5a743935001905060405180910390a160048054604051637921219560e11b815230928101929092526001600160a01b039081166024830152604482018390526001606483015260a06084830152600060a483015283169063f242432a9060c401600060405180830381600087803b158015610d0f57600080fd5b505af1158015610d23573d6000803e3d6000fd5b5050600454604080518a81526001600160a01b0390921660208301527f63e7f772eee17a2469656820a22f393914e4fb575e3a4170ec5d3b6187b5a743935001905060405180910390a1600554604051637921219560e11b81523060048201526001600160a01b039182166024820152604481018390526001606482015260a06084820152600060a48201529083169063f242432a9060c401600060405180830381600087803b158015610dd657600080fd5b505af1158015610dea573d6000803e3d6000fd5b5050600554604080518a81526001600160a01b0390921660208301527f63e7f772eee17a2469656820a22f393914e4fb575e3a4170ec5d3b6187b5a743935001905060405180910390a1505050505050565b60008281526001602081905260409091200154610e5b81610a91611de5565b610e658383611f09565b505050565b610e72611de5565b6001600160a01b0316816001600160a01b031614610efd5760405162461bcd60e51b815260206004820152602f60248201527f416363657373436f6e74726f6c3a2063616e206f6e6c792072656e6f756e636560448201527f20726f6c657320666f722073656c66000000000000000000000000000000000060648201526084015b60405180910390fd5b610f078282611fad565b5050565b610f13611de5565b6001600160a01b0316610f2e6000546001600160a01b031690565b6001600160a01b031614610f845760405162461bcd60e51b815260206004820181905260248201527f4f776e61626c653a2063616c6c6572206973206e6f7420746865206f776e65726044820152606401610ef4565b610fae7f850d585eb7f024ccee5e68e55f2c26cc72e1e6ee456acf62135757a5eb9d4a1082611f09565b50565b60098054610fbe9061261f565b80601f0160208091040260200160405190810160405280929190818152602001828054610fea9061261f565b80156110375780601f1061100c57610100808354040283529160200191611037565b820191906000526020600020905b81548152906001019060200180831161101a57829003601f168201915b505050505081565b611047611de5565b6001600160a01b03166110626000546001600160a01b031690565b6001600160a01b0316146110b85760405162461bcd60e51b815260206004820181905260248201527f4f776e61626c653a2063616c6c6572206973206e6f7420746865206f776e65726044820152606401610ef4565b6001600160a01b0381166110df576040516342bcdf7f60e11b815260040160405180910390fd5b600480546001600160a01b0319166001600160a01b0383169081179091556040519081527f99e7e8f551bb4a95839337c445d25c103e8b923f563ec440667dd5c1bb5fa3299060200160405180910390a150565b61113b611de5565b6001600160a01b03166111566000546001600160a01b031690565b6001600160a01b0316146111ac5760405162461bcd60e51b815260206004820181905260248201527f4f776e61626c653a2063616c6c6572206973206e6f7420746865206f776e65726044820152606401610ef4565b6111b6600061204e565b565b600e60205281600052604060002081815481106111d457600080fd5b6000918252602090912001546001600160a01b03169150829050565b60006002805414156112445760405162461bcd60e51b815260206004820152601f60248201527f5265656e7472616e637947756172643a207265656e7472616e742063616c6c006044820152606401610ef4565b60028080556020808401516000818152600a808452604080832081516101008101835281546001600160a01b0390811682526001830154811682890152978201549281019290925260038101546060830152600481015460808301819052600582015460a0840152600682015490971660c08301526007015460e08201529183905290925291421115611303576040517fd328a25200000000000000000000000000000000000000000000000000000000815260040160405180910390fd5b6000828152600a602052604090819020600501549085015111611352576040517f7957a08500000000000000000000000000000000000000000000000000000000815260040160405180910390fd5b600780549060006113628361266a565b909155505042606085019081526007546000908152600b60209081526040808320885181546001600160a01b0319166001600160a01b0390911617815582890151600182015581890151600282018190559451600390910155858352600d9091528120906113ce611de5565b6001600160a01b03166001600160a01b0316815260200190815260200160002060008282546113fd9190612685565b90915550506040808501516000848152600c602052918220805491929091611426908490612685565b90915550506000828152600e60205260409020611441611de5565b81546001810183556000928352602080842090910180546001600160a01b0319166001600160a01b039390931692909217909155838252600d90526040812081611489611de5565b6001600160a01b0316815260208101919091526040016000205460e08301519091506114b3611de5565b6001600160a01b03168360c001516001600160a01b0316141561157b5785604001518360e0018181516114e69190612685565b9052506000848152600a6020908152604091829020855181546001600160a01b03199081166001600160a01b03928316178355928701516001830180548516918316919091179055928601516002820155606086015160038201556080860151600482015560a0860151600582015560c0860151600682018054909316931692909217905560e0840151600790910155611658565b808211156116585760e0830182905260008481526010602052604090208290556115a3611de5565b6001600160a01b031660c08401526115b9611de5565b6000858152600f6020908152604080832080546001600160a01b03199081166001600160a01b0396871617909155600a8352928190208751815485169086161781559187015160018301805485169186169190911790558601516002820155606086015160038201556080860151600482015560a0860151600582015560c0860151600682018054909316931692909217905560e08401516007909101555b6008546001600160a01b03166323b872dd611671611de5565b6004805460408b810151905160e086901b6001600160e01b03191681526001600160a01b03948516938101939093529216602482015260448101919091526064016020604051808303816000875af11580156116d1573d6000803e3d6000fd5b505050506040513d601f19601f820116820180604052508101906116f5919061269d565b507fdd5f9bf5cf036a4da6a1035c7f29f422c275d1e6f6b9e2a552e3e54228b390a561171f611de5565b60408089015181516001600160a01b039093168352602083018890529082015260600160405180910390a150506007546001600255949350505050565b6000818152600e60209081526040918290208054835181840281018401909452808452606093928301828280156117bc57602002820191906000526020600020905b81546001600160a01b0316815260019091019060200180831161179e575b50505050509050919050565b60007f850d585eb7f024ccee5e68e55f2c26cc72e1e6ee456acf62135757a5eb9d4a106117f781610a91611de5565b825160808401516060850151111561183b576040517fd22dcab600000000000000000000000000000000000000000000000000000000815260040160405180910390fd5b6006805490600061184b8361266a565b9091555050600680546000908152600a6020908152604091829020875181546001600160a01b039182166001600160a01b031991821617835592890151600183018054828416908616179055848a01516002840181905560608b01516003850181905560808c01516004860181905560a08d01516005870181905560c08e015199870180549a909616999097169890981790935560e08b015160079094019390935593517f1b1c288b734d07fa03889b4efe2a9e475e25c8e24eb971dd088dee01c54fc69095611946959490916001600160a01b03959095168552602085019390935260408401919091526060830152608082015260a00190565b60405180910390a160208401516040808601519051637921219560e11b81526001600160a01b039283166004808301919091523060248301526044820192909252606481019190915260a06084820152600060a48201529082169063f242432a9060c401600060405180830381600087803b1580156119c457600080fd5b505af11580156119d8573d6000803e3d6000fd5b505050506006549250505b50919050565b7f850d585eb7f024ccee5e68e55f2c26cc72e1e6ee456acf62135757a5eb9d4a10611a1681610a91611de5565b6001600160a01b038216611a3d576040516342bcdf7f60e11b815260040160405180910390fd5b600580546001600160a01b0319166001600160a01b0384169081179091556040519081527fa099340b9009966c80f2d51f8425c15ffe5713a8c732f3d9e3b0d213ad03e35b9060200160405180910390a15050565b60008281526001602081905260409091200154611ab181610a91611de5565b610e658383611fad565b611ac3611de5565b6001600160a01b0316611ade6000546001600160a01b031690565b6001600160a01b031614611b345760405162461bcd60e51b815260206004820181905260248201527f4f776e61626c653a2063616c6c6572206973206e6f7420746865206f776e65726044820152606401610ef4565b600380546001600160a01b0319166001600160a01b03831617905550565b611bb560405180610100016040528060006001600160a01b0316815260200160006001600160a01b031681526020016000815260200160008152602001600081526020016000815260200160006001600160a01b03168152602001600081525090565b506000908152600a602090815260409182902082516101008101845281546001600160a01b03908116825260018301548116938201939093526002820154938101939093526003810154606084015260048101546080840152600581015460a0840152600681015490911660c08301526007015460e082015290565b611c65604051806080016040528060006001600160a01b031681526020016000815260200160008152602001600081525090565b506000908152600b6020908152604091829020825160808101845281546001600160a01b03168152600182015492810192909252600281015492820192909252600390910154606082015290565b611cbb611de5565b6001600160a01b0316611cd66000546001600160a01b031690565b6001600160a01b031614611d2c5760405162461bcd60e51b815260206004820181905260248201527f4f776e61626c653a2063616c6c6572206973206e6f7420746865206f776e65726044820152606401610ef4565b6001600160a01b038116611da85760405162461bcd60e51b815260206004820152602660248201527f4f776e61626c653a206e6577206f776e657220697320746865207a65726f206160448201527f64647265737300000000000000000000000000000000000000000000000000006064820152608401610ef4565b610fae8161204e565b600060143610801590611dce57506003546001600160a01b031633145b15611de0575060131936013560601c90565b503390565b6000611def611db1565b905090565b60008281526001602090815260408083206001600160a01b038516845290915290205460ff16610f0757611e32816001600160a01b0316601461209e565b611e3d83602061209e565b604051602001611e4e9291906126bf565b60408051601f198184030181529082905262461bcd60e51b8252610ef49160040161235c565b6000818152600e602090815260408083205481514281850152438184015244606082015260808082018790528351808303909101815260a0909101909252815191909201208290611ec6908390612740565b6000858152600e602052604081208054929350909183908110611eeb57611eeb612762565b6000918252602090912001546001600160a01b031695945050505050565b60008281526001602090815260408083206001600160a01b038516845290915290205460ff16610f075760008281526001602081815260408084206001600160a01b0386168552909152909120805460ff19169091179055611f69611de5565b6001600160a01b0316816001600160a01b0316837f2f8788117e7eff1d82e926ec794901d17c78024a50270940304540a733656f0d60405160405180910390a45050565b60008281526001602090815260408083206001600160a01b038516845290915290205460ff1615610f075760008281526001602090815260408083206001600160a01b03851684529091529020805460ff1916905561200a611de5565b6001600160a01b0316816001600160a01b0316837ff6391f5c32d9c69d2a47ea670b442974b53935d1edc7fd64eb21e047a839171b60405160405180910390a45050565b600080546001600160a01b038381166001600160a01b0319831681178455604051919092169283917f8be0079c531659141344cd1fd0a4f28419497f9722a3daafe3b4186f6b6457e09190a35050565b606060006120ad836002612778565b6120b8906002612685565b67ffffffffffffffff8111156120d0576120d06123b1565b6040519080825280601f01601f1916602001820160405280156120fa576020820181803683370190505b5090507f30000000000000000000000000000000000000000000000000000000000000008160008151811061213157612131612762565b60200101906001600160f81b031916908160001a9053507f78000000000000000000000000000000000000000000000000000000000000008160018151811061217c5761217c612762565b60200101906001600160f81b031916908160001a90535060006121a0846002612778565b6121ab906001612685565b90505b6001811115612230577f303132333435363738396162636465660000000000000000000000000000000085600f16601081106121ec576121ec612762565b1a60f81b82828151811061220257612202612762565b60200101906001600160f81b031916908160001a90535060049490941c9361222981612797565b90506121ae565b50831561227f5760405162461bcd60e51b815260206004820181905260248201527f537472696e67733a20686578206c656e67746820696e73756666696369656e746044820152606401610ef4565b9392505050565b60006020828403121561229857600080fd5b81356001600160e01b03198116811461227f57600080fd5b6000602082840312156122c257600080fd5b5035919050565b80356001600160a01b03811681146122e057600080fd5b919050565b600080604083850312156122f857600080fd5b82359150612308602084016122c9565b90509250929050565b60006020828403121561232357600080fd5b61227f826122c9565b60005b8381101561234757818101518382015260200161232f565b83811115612356576000848401525b50505050565b602081526000825180602084015261237b81604085016020870161232c565b601f01601f19169190910160400192915050565b600080604083850312156123a257600080fd5b50508035926020909101359150565b634e487b7160e01b600052604160045260246000fd5b604051601f8201601f1916810167ffffffffffffffff811182821017156123f0576123f06123b1565b604052919050565b60006080828403121561240a57600080fd5b6040516080810181811067ffffffffffffffff8211171561242d5761242d6123b1565b604052612439836122c9565b81526020830135602082015260408301356040820152606083013560608201528091505092915050565b6020808252825182820181905260009190848201906040850190845b818110156124a45783516001600160a01b03168352928401929184019160010161247f565b50909695505050505050565b60006101008083850312156124c457600080fd5b6040519081019067ffffffffffffffff821181831017156124e7576124e76123b1565b816040526124f4846122c9565b8152612502602085016122c9565b602082015260408401356040820152606084013560608201526080840135608082015260a084013560a082015261253b60c085016122c9565b60c082015260e084013560e0820152809250505092915050565b600080600080600060a0868803121561256d57600080fd5b612576866122c9565b945060206125858188016122c9565b94506040870135935060608701359250608087013567ffffffffffffffff808211156125b057600080fd5b818901915089601f8301126125c457600080fd5b8135818111156125d6576125d66123b1565b6125e8601f8201601f191685016123c7565b91508082528a848285010111156125fe57600080fd5b80848401858401376000848284010152508093505050509295509295909350565b600181811c9082168061263357607f821691505b602082108114156119e357634e487b7160e01b600052602260045260246000fd5b634e487b7160e01b600052601160045260246000fd5b600060001982141561267e5761267e612654565b5060010190565b6000821982111561269857612698612654565b500190565b6000602082840312156126af57600080fd5b8151801515811461227f57600080fd5b7f416363657373436f6e74726f6c3a206163636f756e74200000000000000000008152600083516126f781601785016020880161232c565b7f206973206d697373696e6720726f6c6520000000000000000000000000000000601791840191820152835161273481602884016020880161232c565b01602801949350505050565b60008261275d57634e487b7160e01b600052601260045260246000fd5b500690565b634e487b7160e01b600052603260045260246000fd5b600081600019048311821515161561279257612792612654565b500290565b6000816127a6576127a6612654565b50600019019056fea2646970667358221220dd3bd8e71ed4fb2be89a8cc50980470f3a3800b7b46e5cae342dc3459749a36464736f6c634300080b0033",
  "linkReferences": {},
  "deployedLinkReferences": {}
}