{
  "_format": "hh-sol-artifact-1",
  "contractName": "Raffle",
  "sourceName": "contracts/Raffle.sol",
  "abi": [
    {
      "inputs": [
        {
          "internalType": "address",
          "name": "_usdc",
          "type": "address"
        }
      ],
      "stateMutability": "nonpayable",
      "type": "constructor"
    },
    {
      "inputs": [],
      "name": "DonationTooLow",
      "type": "error"
    },
    {
      "inputs": [],
      "name": "IncorrectTimesGiven",
      "type": "error"
    },
    {
      "inputs": [],
      "name": "RaffleHasEnded",
      "type": "error"
    },
    {
      "inputs": [],
      "name": "RaffleHasNotEnded",
      "type": "error"
    },
    {
      "inputs": [],
      "name": "ZeroAddressNotAllowed",
      "type": "error"
    },
    {
      "anonymous": false,
      "inputs": [
        {
          "indexed": false,
          "internalType": "address",
          "name": "walletAddress",
          "type": "address"
        }
      ],
      "name": "DAOWalletAddressSet",
      "type": "event"
    },
    {
      "anonymous": false,
      "inputs": [
        {
          "indexed": false,
          "internalType": "address",
          "name": "from",
          "type": "address"
        },
        {
          "indexed": false,
          "internalType": "uint256",
          "name": "raffleId",
          "type": "uint256"
        },
        {
          "indexed": false,
          "internalType": "uint256",
          "name": "amount",
          "type": "uint256"
        }
      ],
      "name": "DonationPlaced",
      "type": "event"
    },
    {
      "anonymous": false,
      "inputs": [
        {
          "indexed": false,
          "internalType": "uint256",
          "name": "raffleID",
          "type": "uint256"
        },
        {
          "indexed": false,
          "internalType": "address",
          "name": "winner",
          "type": "address"
        }
      ],
      "name": "NFTsentToWinner",
      "type": "event"
    },
    {
      "anonymous": false,
      "inputs": [
        {
          "indexed": true,
          "internalType": "address",
          "name": "previousOwner",
          "type": "address"
        },
        {
          "indexed": true,
          "internalType": "address",
          "name": "newOwner",
          "type": "address"
        }
      ],
      "name": "OwnershipTransferred",
      "type": "event"
    },
    {
      "anonymous": false,
      "inputs": [
        {
          "indexed": false,
          "internalType": "address",
          "name": "nftOwner",
          "type": "address"
        },
        {
          "indexed": false,
          "internalType": "uint256",
          "name": "tokenID",
          "type": "uint256"
        },
        {
          "indexed": false,
          "internalType": "uint256",
          "name": "startTime",
          "type": "uint256"
        },
        {
          "indexed": false,
          "internalType": "uint256",
          "name": "endTime",
          "type": "uint256"
        },
        {
          "indexed": false,
          "internalType": "uint256",
          "name": "minimumDonationAmount",
          "type": "uint256"
        }
      ],
      "name": "RaffleCreated",
      "type": "event"
    },
    {
      "anonymous": false,
      "inputs": [
        {
          "indexed": true,
          "internalType": "bytes32",
          "name": "role",
          "type": "bytes32"
        },
        {
          "indexed": true,
          "internalType": "bytes32",
          "name": "previousAdminRole",
          "type": "bytes32"
        },
        {
          "indexed": true,
          "internalType": "bytes32",
          "name": "newAdminRole",
          "type": "bytes32"
        }
      ],
      "name": "RoleAdminChanged",
      "type": "event"
    },
    {
      "anonymous": false,
      "inputs": [
        {
          "indexed": true,
          "internalType": "bytes32",
          "name": "role",
          "type": "bytes32"
        },
        {
          "indexed": true,
          "internalType": "address",
          "name": "account",
          "type": "address"
        },
        {
          "indexed": true,
          "internalType": "address",
          "name": "sender",
          "type": "address"
        }
      ],
      "name": "RoleGranted",
      "type": "event"
    },
    {
      "anonymous": false,
      "inputs": [
        {
          "indexed": true,
          "internalType": "bytes32",
          "name": "role",
          "type": "bytes32"
        },
        {
          "indexed": true,
          "internalType": "address",
          "name": "account",
          "type": "address"
        },
        {
          "indexed": true,
          "internalType": "address",
          "name": "sender",
          "type": "address"
        }
      ],
      "name": "RoleRevoked",
      "type": "event"
    },
    {
      "anonymous": false,
      "inputs": [
        {
          "indexed": false,
          "internalType": "address",
          "name": "nftAuthorWallet",
          "type": "address"
        }
      ],
      "name": "nftAuthorWalletAddressSet",
      "type": "event"
    },
    {
      "inputs": [],
      "name": "CURATOR_ROLE",
      "outputs": [
        {
          "internalType": "bytes32",
          "name": "",
          "type": "bytes32"
        }
      ],
      "stateMutability": "view",
      "type": "function"
    },
    {
      "inputs": [],
      "name": "DAOWallet",
      "outputs": [
        {
          "internalType": "address",
          "name": "",
          "type": "address"
        }
      ],
      "stateMutability": "view",
      "type": "function"
    },
    {
      "inputs": [],
      "name": "DEFAULT_ADMIN_ROLE",
      "outputs": [
        {
          "internalType": "bytes32",
          "name": "",
          "type": "bytes32"
        }
      ],
      "stateMutability": "view",
      "type": "function"
    },
    {
      "inputs": [],
      "name": "USDC",
      "outputs": [
        {
          "internalType": "contract IERC20",
          "name": "",
          "type": "address"
        }
      ],
      "stateMutability": "view",
      "type": "function"
    },
    {
      "inputs": [
        {
          "components": [
            {
              "internalType": "address",
              "name": "nftContract",
              "type": "address"
            },
            {
              "internalType": "address",
              "name": "nftOwner",
              "type": "address"
            },
            {
              "internalType": "uint256",
              "name": "tokenID",
              "type": "uint256"
            },
            {
              "internalType": "uint256",
              "name": "startTime",
              "type": "uint256"
            },
            {
              "internalType": "uint256",
              "name": "endTime",
              "type": "uint256"
            },
            {
              "internalType": "uint256",
              "name": "minimumDonationAmount",
              "type": "uint256"
            },
            {
              "internalType": "address",
              "name": "topDonor",
              "type": "address"
            },
            {
              "internalType": "uint256",
              "name": "topDonatedAmount",
              "type": "uint256"
            }
          ],
          "internalType": "struct Raffle.Raffle",
          "name": "_raffle",
          "type": "tuple"
        }
      ],
      "name": "createRaffle",
      "outputs": [
        {
          "internalType": "uint256",
          "name": "",
          "type": "uint256"
        }
      ],
      "stateMutability": "nonpayable",
      "type": "function"
    },
    {
      "inputs": [
        {
          "components": [
            {
              "internalType": "address",
              "name": "donor",
              "type": "address"
            },
            {
              "internalType": "uint256",
              "name": "raffleID",
              "type": "uint256"
            },
            {
              "internalType": "uint256",
              "name": "amount",
              "type": "uint256"
            },
            {
              "internalType": "uint256",
              "name": "timestamp",
              "type": "uint256"
            }
          ],
          "internalType": "struct Raffle.Donation",
          "name": "_donation",
          "type": "tuple"
        }
      ],
      "name": "donate",
      "outputs": [
        {
          "internalType": "uint256",
          "name": "",
          "type": "uint256"
        }
      ],
      "stateMutability": "payable",
      "type": "function"
    },
    {
      "inputs": [],
      "name": "donationCount",
      "outputs": [
        {
          "internalType": "uint256",
          "name": "",
          "type": "uint256"
        }
      ],
      "stateMutability": "view",
      "type": "function"
    },
    {
      "inputs": [
        {
          "internalType": "uint256",
          "name": "",
          "type": "uint256"
        }
      ],
      "name": "donations",
      "outputs": [
        {
          "internalType": "address",
          "name": "donor",
          "type": "address"
        },
        {
          "internalType": "uint256",
          "name": "raffleID",
          "type": "uint256"
        },
        {
          "internalType": "uint256",
          "name": "amount",
          "type": "uint256"
        },
        {
          "internalType": "uint256",
          "name": "timestamp",
          "type": "uint256"
        }
      ],
      "stateMutability": "view",
      "type": "function"
    },
    {
      "inputs": [
        {
          "internalType": "uint256",
          "name": "",
          "type": "uint256"
        },
        {
          "internalType": "uint256",
          "name": "",
          "type": "uint256"
        }
      ],
      "name": "donorsArrayPerCycle",
      "outputs": [
        {
          "internalType": "address",
          "name": "",
          "type": "address"
        }
      ],
      "stateMutability": "view",
      "type": "function"
    },
    {
      "inputs": [
        {
          "internalType": "uint256",
          "name": "donationID",
          "type": "uint256"
        }
      ],
      "name": "getDonation",
      "outputs": [
        {
          "components": [
            {
              "internalType": "address",
              "name": "donor",
              "type": "address"
            },
            {
              "internalType": "uint256",
              "name": "raffleID",
              "type": "uint256"
            },
            {
              "internalType": "uint256",
              "name": "amount",
              "type": "uint256"
            },
            {
              "internalType": "uint256",
              "name": "timestamp",
              "type": "uint256"
            }
          ],
          "internalType": "struct Raffle.Donation",
          "name": "",
          "type": "tuple"
        }
      ],
      "stateMutability": "view",
      "type": "function"
    },
    {
      "inputs": [
        {
          "internalType": "uint256",
          "name": "raffleID",
          "type": "uint256"
        }
      ],
      "name": "getDonorsPerCycle",
      "outputs": [
        {
          "internalType": "address[]",
          "name": "",
          "type": "address[]"
        }
      ],
      "stateMutability": "view",
      "type": "function"
    },
    {
      "inputs": [
        {
          "internalType": "uint256",
          "name": "raffleID",
          "type": "uint256"
        }
      ],
      "name": "getHighestDonationPerCycle",
      "outputs": [
        {
          "internalType": "uint256",
          "name": "",
          "type": "uint256"
        }
      ],
      "stateMutability": "view",
      "type": "function"
    },
    {
      "inputs": [
        {
          "internalType": "uint256",
          "name": "raffleID",
          "type": "uint256"
        }
      ],
      "name": "getRaffle",
      "outputs": [
        {
          "components": [
            {
              "internalType": "address",
              "name": "nftContract",
              "type": "address"
            },
            {
              "internalType": "address",
              "name": "nftOwner",
              "type": "address"
            },
            {
              "internalType": "uint256",
              "name": "tokenID",
              "type": "uint256"
            },
            {
              "internalType": "uint256",
              "name": "startTime",
              "type": "uint256"
            },
            {
              "internalType": "uint256",
              "name": "endTime",
              "type": "uint256"
            },
            {
              "internalType": "uint256",
              "name": "minimumDonationAmount",
              "type": "uint256"
            },
            {
              "internalType": "address",
              "name": "topDonor",
              "type": "address"
            },
            {
              "internalType": "uint256",
              "name": "topDonatedAmount",
              "type": "uint256"
            }
          ],
          "internalType": "struct Raffle.Raffle",
          "name": "",
          "type": "tuple"
        }
      ],
      "stateMutability": "view",
      "type": "function"
    },
    {
      "inputs": [
        {
          "internalType": "bytes32",
          "name": "role",
          "type": "bytes32"
        }
      ],
      "name": "getRoleAdmin",
      "outputs": [
        {
          "internalType": "bytes32",
          "name": "",
          "type": "bytes32"
        }
      ],
      "stateMutability": "view",
      "type": "function"
    },
    {
      "inputs": [
        {
          "internalType": "uint256",
          "name": "raffleID",
          "type": "uint256"
        }
      ],
      "name": "getTopDonor",
      "outputs": [
        {
          "internalType": "address",
          "name": "",
          "type": "address"
        }
      ],
      "stateMutability": "view",
      "type": "function"
    },
    {
      "inputs": [
        {
          "internalType": "uint256",
          "name": "raffleID",
          "type": "uint256"
        },
        {
          "internalType": "address",
          "name": "account",
          "type": "address"
        }
      ],
      "name": "getTotalDonationPerAddressPerCycle",
      "outputs": [
        {
          "internalType": "uint256",
          "name": "",
          "type": "uint256"
        }
      ],
      "stateMutability": "view",
      "type": "function"
    },
    {
      "inputs": [
        {
          "internalType": "uint256",
          "name": "raffleID",
          "type": "uint256"
        }
      ],
      "name": "getTotalDonationsPerCycle",
      "outputs": [
        {
          "internalType": "uint256",
          "name": "",
          "type": "uint256"
        }
      ],
      "stateMutability": "view",
      "type": "function"
    },
    {
      "inputs": [
        {
          "internalType": "bytes32",
          "name": "role",
          "type": "bytes32"
        },
        {
          "internalType": "address",
          "name": "account",
          "type": "address"
        }
      ],
      "name": "grantRole",
      "outputs": [],
      "stateMutability": "nonpayable",
      "type": "function"
    },
    {
      "inputs": [
        {
          "internalType": "bytes32",
          "name": "role",
          "type": "bytes32"
        },
        {
          "internalType": "address",
          "name": "account",
          "type": "address"
        }
      ],
      "name": "hasRole",
      "outputs": [
        {
          "internalType": "bool",
          "name": "",
          "type": "bool"
        }
      ],
      "stateMutability": "view",
      "type": "function"
    },
    {
      "inputs": [],
      "name": "nftAuthorWallet",
      "outputs": [
        {
          "internalType": "address",
          "name": "",
          "type": "address"
        }
      ],
      "stateMutability": "view",
      "type": "function"
    },
    {
      "inputs": [
        {
          "internalType": "address",
          "name": "operator",
          "type": "address"
        },
        {
          "internalType": "address",
          "name": "from",
          "type": "address"
        },
        {
          "internalType": "uint256",
          "name": "id",
          "type": "uint256"
        },
        {
          "internalType": "uint256",
          "name": "value",
          "type": "uint256"
        },
        {
          "internalType": "bytes",
          "name": "data",
          "type": "bytes"
        }
      ],
      "name": "onERC1155Received",
      "outputs": [
        {
          "internalType": "bytes4",
          "name": "",
          "type": "bytes4"
        }
      ],
      "stateMutability": "pure",
      "type": "function"
    },
    {
      "inputs": [],
      "name": "owner",
      "outputs": [
        {
          "internalType": "address",
          "name": "",
          "type": "address"
        }
      ],
      "stateMutability": "view",
      "type": "function"
    },
    {
      "inputs": [],
      "name": "raffleCount",
      "outputs": [
        {
          "internalType": "uint256",
          "name": "",
          "type": "uint256"
        }
      ],
      "stateMutability": "view",
      "type": "function"
    },
    {
      "inputs": [
        {
          "internalType": "uint256",
          "name": "",
          "type": "uint256"
        }
      ],
      "name": "raffles",
      "outputs": [
        {
          "internalType": "address",
          "name": "nftContract",
          "type": "address"
        },
        {
          "internalType": "address",
          "name": "nftOwner",
          "type": "address"
        },
        {
          "internalType": "uint256",
          "name": "tokenID",
          "type": "uint256"
        },
        {
          "internalType": "uint256",
          "name": "startTime",
          "type": "uint256"
        },
        {
          "internalType": "uint256",
          "name": "endTime",
          "type": "uint256"
        },
        {
          "internalType": "uint256",
          "name": "minimumDonationAmount",
          "type": "uint256"
        },
        {
          "internalType": "address",
          "name": "topDonor",
          "type": "address"
        },
        {
          "internalType": "uint256",
          "name": "topDonatedAmount",
          "type": "uint256"
        }
      ],
      "stateMutability": "view",
      "type": "function"
    },
    {
      "inputs": [],
      "name": "renounceOwnership",
      "outputs": [],
      "stateMutability": "nonpayable",
      "type": "function"
    },
    {
      "inputs": [
        {
          "internalType": "bytes32",
          "name": "role",
          "type": "bytes32"
        },
        {
          "internalType": "address",
          "name": "account",
          "type": "address"
        }
      ],
      "name": "renounceRole",
      "outputs": [],
      "stateMutability": "nonpayable",
      "type": "function"
    },
    {
      "inputs": [
        {
          "internalType": "bytes32",
          "name": "role",
          "type": "bytes32"
        },
        {
          "internalType": "address",
          "name": "account",
          "type": "address"
        }
      ],
      "name": "revokeRole",
      "outputs": [],
      "stateMutability": "nonpayable",
      "type": "function"
    },
    {
      "inputs": [
        {
          "internalType": "uint256",
          "name": "raffleID",
          "type": "uint256"
        }
      ],
      "name": "sendNFTRewards",
      "outputs": [],
      "stateMutability": "nonpayable",
      "type": "function"
    },
    {
      "inputs": [
        {
          "internalType": "address",
          "name": "curator",
          "type": "address"
        }
      ],
      "name": "setCuratorRole",
      "outputs": [],
      "stateMutability": "nonpayable",
      "type": "function"
    },
    {
      "inputs": [
        {
          "internalType": "address",
          "name": "_DAOWallet",
          "type": "address"
        }
      ],
      "name": "setDAOWalletAddress",
      "outputs": [],
      "stateMutability": "nonpayable",
      "type": "function"
    },
    {
      "inputs": [
        {
          "internalType": "address",
          "name": "_nftAuthorWallet",
          "type": "address"
        }
      ],
      "name": "setNftAuthorWalletAddress",
      "outputs": [],
      "stateMutability": "nonpayable",
      "type": "function"
    },
    {
      "inputs": [
        {
          "internalType": "bytes4",
          "name": "interfaceId",
          "type": "bytes4"
        }
      ],
      "name": "supportsInterface",
      "outputs": [
        {
          "internalType": "bool",
          "name": "",
          "type": "bool"
        }
      ],
      "stateMutability": "view",
      "type": "function"
    },
    {
      "inputs": [
        {
          "internalType": "uint256",
          "name": "",
          "type": "uint256"
        },
        {
          "internalType": "address",
          "name": "",
          "type": "address"
        }
      ],
      "name": "totalDonationPerAddressPerCycle",
      "outputs": [
        {
          "internalType": "uint256",
          "name": "",
          "type": "uint256"
        }
      ],
      "stateMutability": "view",
      "type": "function"
    },
    {
      "inputs": [
        {
          "internalType": "address",
          "name": "newOwner",
          "type": "address"
        }
      ],
      "name": "transferOwnership",
      "outputs": [],
      "stateMutability": "nonpayable",
      "type": "function"
    }
  ],
  "bytecode": "0x60806040523480156200001157600080fd5b5060405162005d9538038062005d9583398181016040528101906200003791906200027c565b620000576200004b6200014360201b60201c565b6200014b60201b60201c565b6001600281905550620000937fcf41ea84dad3df34ab602a65f4e51f8b88386df7383915309d915df742e3fa1960001b6200020f60201b60201c565b620000c77f7bedb85e50d496f419cac9408bf87a73a2e26e0bd55c0f15741d4ea36ed9b29760001b6200020f60201b60201c565b620000fb7f05dbefc31d8e9c2c48b171be2ac2468c7e56c971455fe211eaf5a0de7014c98260001b6200020f60201b60201c565b80600760006101000a81548173ffffffffffffffffffffffffffffffffffffffff021916908373ffffffffffffffffffffffffffffffffffffffff16021790555050620002ae565b600033905090565b60008060009054906101000a900473ffffffffffffffffffffffffffffffffffffffff169050816000806101000a81548173ffffffffffffffffffffffffffffffffffffffff021916908373ffffffffffffffffffffffffffffffffffffffff1602179055508173ffffffffffffffffffffffffffffffffffffffff168173ffffffffffffffffffffffffffffffffffffffff167f8be0079c531659141344cd1fd0a4f28419497f9722a3daafe3b4186f6b6457e060405160405180910390a35050565b50565b600080fd5b600073ffffffffffffffffffffffffffffffffffffffff82169050919050565b6000620002448262000217565b9050919050565b620002568162000237565b81146200026257600080fd5b50565b60008151905062000276816200024b565b92915050565b60006020828403121562000295576200029462000212565b5b6000620002a58482850162000265565b91505092915050565b615ad780620002be6000396000f3fe6080604052600436106102195760003560e01c80638da5cb5b1161011d578063d547741f116100b0578063eaf03b401161007f578063f23a6e6111610064578063f23a6e6114610839578063f2fde38b14610876578063f8626af81461089f57610219565b8063eaf03b40146107bf578063ef07a81f146107fc57610219565b8063d547741f146106f1578063dfdb5ae41461071a578063e4dafec914610745578063ea36c6171461078257610219565b8063a86bc714116100ec578063a86bc7141461061e578063a8754ef11461064e578063be91e3941461068b578063c1996e7f146106c857610219565b80638da5cb5b1461056057806391d148541461058b578063a217fddf146105c8578063a54c120c146105f357610219565b80634c43adea116101b0578063715018a61161017f57806382b02eed1161016457806382b02eed146104cd57806386d392ba146104f857806389a302711461053557610219565b8063715018a6146104795780637859165f1461049057610219565b80634c43adea146103925780635d4bc0ce146103cf5780635f99223b146104135780636e3384611461045057610219565b80632f2ff15d116101ec5780632f2ff15d146102ec57806336568abe146103155780633b940eb51461033e5780634a2cfb541461036757610219565b806301ffc9a71461021e57806321a135441461025b578063248a9ca3146102845780632abfab4d146102c1575b600080fd5b34801561022a57600080fd5b506102456004803603810190610240919061479c565b6108df565b60405161025291906147e4565b60405180910390f35b34801561026757600080fd5b50610282600480360381019061027d9190614835565b610959565b005b34801561029057600080fd5b506102ab60048036038101906102a69190614898565b6112cc565b6040516102b891906148d4565b60405180910390f35b3480156102cd57600080fd5b506102d66112ec565b6040516102e391906148fe565b60405180910390f35b3480156102f857600080fd5b50610313600480360381019061030e9190614977565b6112f2565b005b34801561032157600080fd5b5061033c60048036038101906103379190614977565b61131b565b005b34801561034a57600080fd5b50610365600480360381019061036091906149b7565b61139e565b005b34801561037357600080fd5b5061037c6114cb565b60405161038991906148d4565b60405180910390f35b34801561039e57600080fd5b506103b960048036038101906103b491906149e4565b6114ef565b6040516103c691906148fe565b60405180910390f35b3480156103db57600080fd5b506103f660048036038101906103f19190614835565b6115ce565b60405161040a989796959493929190614a33565b60405180910390f35b34801561041f57600080fd5b5061043a60048036038101906104359190614835565b611676565b60405161044791906148fe565b60405180910390f35b34801561045c57600080fd5b50610477600480360381019061047291906149b7565b611717565b005b34801561048557600080fd5b5061048e611a01565b005b34801561049c57600080fd5b506104b760048036038101906104b29190614835565b611a89565b6040516104c49190614ab1565b60405180910390f35b3480156104d957600080fd5b506104e2611b4a565b6040516104ef9190614ab1565b60405180910390f35b34801561050457600080fd5b5061051f600480360381019061051a9190614acc565b611b70565b60405161052c9190614ab1565b60405180910390f35b34801561054157600080fd5b5061054a611bbe565b6040516105579190614b6b565b60405180910390f35b34801561056c57600080fd5b50610575611be4565b6040516105829190614ab1565b60405180910390f35b34801561059757600080fd5b506105b260048036038101906105ad9190614977565b611c0d565b6040516105bf91906147e4565b60405180910390f35b3480156105d457600080fd5b506105dd611c78565b6040516105ea91906148d4565b60405180910390f35b3480156105ff57600080fd5b50610608611c7f565b60405161061591906148fe565b60405180910390f35b61063860048036038101906106339190614c8f565b611c85565b60405161064591906148fe565b60405180910390f35b34801561065a57600080fd5b5061067560048036038101906106709190614835565b612ef0565b6040516106829190614d7a565b60405180910390f35b34801561069757600080fd5b506106b260048036038101906106ad9190614e66565b613015565b6040516106bf91906148fe565b60405180910390f35b3480156106d457600080fd5b506106ef60048036038101906106ea91906149b7565b613565565b005b3480156106fd57600080fd5b5061071860048036038101906107139190614977565b61384f565b005b34801561072657600080fd5b5061072f613878565b60405161073c9190614ab1565b60405180910390f35b34801561075157600080fd5b5061076c60048036038101906107679190614835565b61389e565b6040516107799190614f45565b60405180910390f35b34801561078e57600080fd5b506107a960048036038101906107a491906149e4565b613a84565b6040516107b691906148fe565b60405180910390f35b3480156107cb57600080fd5b506107e660048036038101906107e19190614835565b613aa9565b6040516107f391906148fe565b60405180910390f35b34801561080857600080fd5b50610823600480360381019061081e9190614835565b613b4a565b6040516108309190614fb6565b60405180910390f35b34801561084557600080fd5b50610860600480360381019061085b919061508b565b613c6f565b60405161086d9190615131565b60405180910390f35b34801561088257600080fd5b5061089d600480360381019061089891906149b7565b613d08565b005b3480156108ab57600080fd5b506108c660048036038101906108c19190614835565b613e00565b6040516108d6949392919061514c565b60405180910390f35b60007f7965db0b000000000000000000000000000000000000000000000000000000007bffffffffffffffffffffffffffffffffffffffffffffffffffffffff1916827bffffffffffffffffffffffffffffffffffffffffffffffffffffffff19161480610952575061095182613e50565b5b9050919050565b610961613eba565b73ffffffffffffffffffffffffffffffffffffffff1661097f611be4565b73ffffffffffffffffffffffffffffffffffffffff16146109d5576040517f08c379a00000000000000000000000000000000000000000000000000000000081526004016109cc906151ee565b60405180910390fd5b610a017f2b037bbf75886dae2a781925c4274db8676b2a36afbd0f1601c46b103fea62fd60001b613ec2565b610a2d7f2fced5aa82abe8ce98bb097282527c4366f0f6ff2eab13a94ebb6554f1f6478060001b613ec2565b610a597f827fc271790150f753313609fa8727eece2e1083447622b8b886925cc903070c60001b613ec2565b4260086000838152602001908152602001600020600401541115610ad557610aa37ff01efc2e76a180bf76cf90d495c685d82d9779bb72c6d7f7242e80d933ea593060001b613ec2565b6040517fcdf268ad00000000000000000000000000000000000000000000000000000000815260040160405180910390fd5b610b017f12602da8cd18ab10643dbb5f7202c69f67a52c599efc6c87acd7a4d036ad307d60001b613ec2565b610b2d7f24d8a86509c9f02bfaed96374cd4428c0991c2e5a4dde9e7706331f543579a3f60001b613ec2565b610b597f94a011c47d9845792a76384c7fee711cd1dc25296c4655adf58cf6925b38193660001b613ec2565b6000610b6482613ec5565b9050610b927f494035716060f717d015e99ed4ea1e2d53cfa6b1c03c897498dd50edf9b83a8b60001b613ec2565b610bbe7f673326011845058948fe0b681562524847e0f82470a41d3c1430d5fc36f13cf060001b613ec2565b6000610bc983611a89565b9050610bf77f9422390cedabaa7b9505b2acbe123cd5a54bf3db6052f1e02745e669fc3b43c260001b613ec2565b610c237fd6a2ecd7dea67f932c1762c8c3d107a0c472aa946b21bfca8d9f56461cd3e89d60001b613ec2565b60006008600085815260200190815260200160002060000160009054906101000a900473ffffffffffffffffffffffffffffffffffffffff169050610c8a7f170820ac9ac493a926865ac213fadf30f13bda1fb61c00b6e6ab003f458f920e60001b613ec2565b610cb67fb1a702b7dbbb8f844b65cb937ced3919337446efb6df4349e114298960184be060001b613ec2565b600060086000868152602001908152602001600020600201549050610cfd7f640a6ddbd3e5393c6ac312d170a36d7dea16095a67fc1497edfc5142394bd59060001b613ec2565b610d297febd74273288e47972b5fd7713cf2839a30fa28c90c845d13fdaf5d10dc47e17460001b613ec2565b8173ffffffffffffffffffffffffffffffffffffffff1663f242432a30858460016040518563ffffffff1660e01b8152600401610d699493929190615280565b600060405180830381600087803b158015610d8357600080fd5b505af1158015610d97573d6000803e3d6000fd5b50505050610dc77f7f52241989ea4fa3fc27ebe7049a7e14e8b4312b5fe71f7aa5c7f8ce1522eba860001b613ec2565b610df37fd158100b94b7bd259202a5bd29419295c8047c1842710b321b892257c518552c60001b613ec2565b7f63e7f772eee17a2469656820a22f393914e4fb575e3a4170ec5d3b6187b5a7438584604051610e249291906152d8565b60405180910390a1610e587f0f33aba306c31ebf21bea094aaa5f216dbcaf5b2d6d0c44a39241422328007fb60001b613ec2565b610e847f18e7968c0cc1a6f4735ef3705fac41d976488dfcd010174ce4b6315d3852176b60001b613ec2565b8173ffffffffffffffffffffffffffffffffffffffff1663f242432a30868460016040518563ffffffff1660e01b8152600401610ec49493929190615280565b600060405180830381600087803b158015610ede57600080fd5b505af1158015610ef2573d6000803e3d6000fd5b50505050610f227f26935b30bb79c29d474bcaf490fd2712a227ed4a84c22aca7d67b7ebc141336160001b613ec2565b610f4e7fa7b0ce598d878d2fdcdbca03c9b1b35c846a6802db8eb0d0b9e3b8d6ad94187e60001b613ec2565b7f63e7f772eee17a2469656820a22f393914e4fb575e3a4170ec5d3b6187b5a7438585604051610f7f9291906152d8565b60405180910390a1610fb37fc896576384f6ccd033df1118fb6eba73ba1f5053f6d43534770fd5582d622e5760001b613ec2565b610fdf7f38fd81007016b338911051f38f4ddb305ab8c5c81235453995016a95c046280960001b613ec2565b8173ffffffffffffffffffffffffffffffffffffffff1663f242432a30600360009054906101000a900473ffffffffffffffffffffffffffffffffffffffff168460016040518563ffffffff1660e01b81526004016110419493929190615280565b600060405180830381600087803b15801561105b57600080fd5b505af115801561106f573d6000803e3d6000fd5b5050505061109f7f38918b2e6d70a2ffc1f927bdaa957a1eb3230a7d5a5c79872995aa8e5ba5c44c60001b613ec2565b6110cb7fe66747240a9abaf2611ba43e5d8ba448291de87e745616ade5626e7599709ff160001b613ec2565b7f63e7f772eee17a2469656820a22f393914e4fb575e3a4170ec5d3b6187b5a74385600360009054906101000a900473ffffffffffffffffffffffffffffffffffffffff1660405161111e9291906152d8565b60405180910390a16111527fbf10a8c843d9dd4ab5422f798315e601bd5d6e87562c5f3b28b4e06463a1810e60001b613ec2565b61117e7f9e77f12ac59607b6799471cd62b1b68cf9a0c4da4e1d25e5b0df85057926642560001b613ec2565b8173ffffffffffffffffffffffffffffffffffffffff1663f242432a30600460009054906101000a900473ffffffffffffffffffffffffffffffffffffffff168460016040518563ffffffff1660e01b81526004016111e09493929190615280565b600060405180830381600087803b1580156111fa57600080fd5b505af115801561120e573d6000803e3d6000fd5b5050505061123e7f0cf44f1fba1995dbbad32d083f3fc4797b5ab1db4c36b0717753af6e19ab375260001b613ec2565b61126a7f65e89d18136c2fb9ce1cbc78af83fe73d90ec95415ebb56e5341f0ad1c36a04460001b613ec2565b7f63e7f772eee17a2469656820a22f393914e4fb575e3a4170ec5d3b6187b5a74385600460009054906101000a900473ffffffffffffffffffffffffffffffffffffffff166040516112bd9291906152d8565b60405180910390a15050505050565b600060016000838152602001908152602001600020600101549050919050565b60065481565b6112fb826112cc565b61130c81611307613eba565b61410c565b61131683836141a9565b505050565b611323613eba565b73ffffffffffffffffffffffffffffffffffffffff168173ffffffffffffffffffffffffffffffffffffffff1614611390576040517f08c379a000000000000000000000000000000000000000000000000000000000815260040161138790615373565b60405180910390fd5b61139a8282614289565b5050565b6113a6613eba565b73ffffffffffffffffffffffffffffffffffffffff166113c4611be4565b73ffffffffffffffffffffffffffffffffffffffff161461141a576040517f08c379a0000000000000000000000000000000000000000000000000000000008152600401611411906151ee565b60405180910390fd5b6114467ff82be086255dc244d78ea012c85c268946ed795d2fec79e0a0d9efeffb0a1d5660001b613ec2565b6114727f2b6b64216d926375f08ef52dfa4a474089d414c428f5d4c2056c27da16327c9b60001b613ec2565b61149e7f0f60f88cd645f717f75d42f29d37ab8bb9d9d11c64d2f2ea6ea08334b2d5962460001b613ec2565b6114c87f850d585eb7f024ccee5e68e55f2c26cc72e1e6ee456acf62135757a5eb9d4a10826141a9565b50565b7f850d585eb7f024ccee5e68e55f2c26cc72e1e6ee456acf62135757a5eb9d4a1081565b600061151d7f25c764e2de74b55fde9158dcaff9d85be99cf3196df69aad49402d253d9a5c1660001b613ec2565b6115497f5d1f9a1ecf7e88794d289b3c1c1e941df7d746cb72ec1de426ccd1cd247d618460001b613ec2565b6115757fc93a1902e3e4d416bb609b8baab596f2ddcd41681119c30ffd2f8ee4d18cb86360001b613ec2565b600b600084815260200190815260200160002060008373ffffffffffffffffffffffffffffffffffffffff1673ffffffffffffffffffffffffffffffffffffffff16815260200190815260200160002054905092915050565b60086020528060005260406000206000915090508060000160009054906101000a900473ffffffffffffffffffffffffffffffffffffffff16908060010160009054906101000a900473ffffffffffffffffffffffffffffffffffffffff16908060020154908060030154908060040154908060050154908060060160009054906101000a900473ffffffffffffffffffffffffffffffffffffffff16908060070154905088565b60006116a47fcc95db85b4f62a30c0005ce570a1789de0f9dadfc0705390cd6622fe5466b06460001b613ec2565b6116d07f4fcae7367a45b0277ca3ccbd2a7b9f09edffda874e089a8fb68e5698fc23c8ed60001b613ec2565b6116fc7f1c9afaa9eec0e6526ccee3cb1ae790e67902768c88b60ceeb0e069ba45ee1f8f60001b613ec2565b600e6000838152602001908152602001600020549050919050565b61171f613eba565b73ffffffffffffffffffffffffffffffffffffffff1661173d611be4565b73ffffffffffffffffffffffffffffffffffffffff1614611793576040517f08c379a000000000000000000000000000000000000000000000000000000000815260040161178a906151ee565b60405180910390fd5b6117bf7f418258687febfd8d76746af91e6f26ae1fe0bfaaf5142ef304f6c1a69771af1060001b613ec2565b6117eb7f8cb94c9cdd4dd9f28c089f479af6d06c4ffd376cf6ed7700e1de20ad04b4bdcd60001b613ec2565b6118177fcd9b1b228bdeb225094e1a41329915547b7cd033b1ea77c8ebe5dac41513024460001b613ec2565b600073ffffffffffffffffffffffffffffffffffffffff168173ffffffffffffffffffffffffffffffffffffffff1614156118aa576118787f459ce53095b9ab6f791bac321ab693db60103ecfe87c576596c8fde37e21bfb760001b613ec2565b6040517f8579befe00000000000000000000000000000000000000000000000000000000815260040160405180910390fd5b6118d67fbd26bb05b41ae9e6ed79cdceddd276c71753f7b909ac606d798b0a678eb7c37a60001b613ec2565b6119027f8fe01a6a6451bb1cf8d6321540b9c4cb69cb47b7675b3180fa190b2cb3a42c8160001b613ec2565b61192e7fe30c94a2d0f2a8067de002c9c7e8563297ae31b4db0761acf2368ff3d3fb9f9860001b613ec2565b80600360006101000a81548173ffffffffffffffffffffffffffffffffffffffff021916908373ffffffffffffffffffffffffffffffffffffffff16021790555061199b7f4276327a3f719bb86e7212019a4b0122b5e10c26b6306c995a28bc5c1609017860001b613ec2565b6119c77f0bd717f18649b3cbe4949aa6d3740453057236c5a33f25bf61c693c0a9152b9e60001b613ec2565b7f99e7e8f551bb4a95839337c445d25c103e8b923f563ec440667dd5c1bb5fa329816040516119f69190614ab1565b60405180910390a150565b611a09613eba565b73ffffffffffffffffffffffffffffffffffffffff16611a27611be4565b73ffffffffffffffffffffffffffffffffffffffff1614611a7d576040517f08c379a0000000000000000000000000000000000000000000000000000000008152600401611a74906151ee565b60405180910390fd5b611a87600061436b565b565b6000611ab77fb8f705a053a5e87e281c70ecda35cedd34de4c43da7818150e5fe7c6572b3e4060001b613ec2565b611ae37f216075f63a693c8e0bc4277d8e502b2f41ee01a33b91018647fda034c7ab495460001b613ec2565b611b0f7f9f1975f28cec26e9bc12e3b123b08458af55f59ebaacc409c5751cf59cadfc1260001b613ec2565b600d600083815260200190815260200160002060009054906101000a900473ffffffffffffffffffffffffffffffffffffffff169050919050565b600460009054906101000a900473ffffffffffffffffffffffffffffffffffffffff1681565b600c6020528160005260406000208181548110611b8c57600080fd5b906000526020600020016000915091509054906101000a900473ffffffffffffffffffffffffffffffffffffffff1681565b600760009054906101000a900473ffffffffffffffffffffffffffffffffffffffff1681565b60008060009054906101000a900473ffffffffffffffffffffffffffffffffffffffff16905090565b60006001600084815260200190815260200160002060000160008373ffffffffffffffffffffffffffffffffffffffff1673ffffffffffffffffffffffffffffffffffffffff16815260200190815260200160002060009054906101000a900460ff16905092915050565b6000801b81565b60055481565b6000600280541415611ccc576040517f08c379a0000000000000000000000000000000000000000000000000000000008152600401611cc3906153df565b60405180910390fd5b60028081905550611cff7fc9526989beafcc5ad058341c7e32da8a63e4443d422b03e2bc5bbe4fa26c391f60001b613ec2565b611d2b7fc4d217f89b3219b145087c309fa628f4b1fc5cec4f3f664f0c8dcff7bc0fd40860001b613ec2565b611d577f67558eadb099cd5bb65155b29bc13921aec084b106469504ca86bd9ebd16660f60001b613ec2565b600082602001519050611d8c7fa61e2b7345250d5cd35c4baee743dfeea6e6f01907a51af1010fd83bf601d0fe60001b613ec2565b611db87f86367cbe0fefbe228f222b847ca590a48ea52cb9803aa188f84239a16ca95a7c60001b613ec2565b600060086000838152602001908152602001600020604051806101000160405290816000820160009054906101000a900473ffffffffffffffffffffffffffffffffffffffff1673ffffffffffffffffffffffffffffffffffffffff1673ffffffffffffffffffffffffffffffffffffffff1681526020016001820160009054906101000a900473ffffffffffffffffffffffffffffffffffffffff1673ffffffffffffffffffffffffffffffffffffffff1673ffffffffffffffffffffffffffffffffffffffff168152602001600282015481526020016003820154815260200160048201548152602001600582015481526020016006820160009054906101000a900473ffffffffffffffffffffffffffffffffffffffff1673ffffffffffffffffffffffffffffffffffffffff1673ffffffffffffffffffffffffffffffffffffffff1681526020016007820154815250509050611f3b7f8a8058bbed13bb6b9d0d01e4a939eaae563923e70014fb12cab00e6f757c280a60001b613ec2565b611f677fd3cfe961c30f29161353cd4b5bae350a5cc84fe0afb2ca2fe1a414bc1631f63c60001b613ec2565b4260086000848152602001908152602001600020600401541015611fe357611fb17f6b48fd5997b5e9edbfc6e36fd3ee962c12ba425f9b31c9f637995078128d4b9060001b613ec2565b6040517fd328a25200000000000000000000000000000000000000000000000000000000815260040160405180910390fd5b61200f7fcd2f300c9cb6b1d7d94e08639a53c8f1a52d91b3643d69126efaad230be3cf6460001b613ec2565b61203b7fe4ee798926825cbba2d61edd03c0b97272b923dae8fc78cb26d59081bfaadb7f60001b613ec2565b6120677f78b841ac87a66a6abd6cdd16ae34da786a9eb1d2d1437a91248aac8bf9512c3d60001b613ec2565b6008600083815260200190815260200160002060050154846040015111612112576120b47f8fb420ef58d17122d6f8c4cfeac574bdcf5e6fb4d2f273b0bd73d80782c5e55060001b613ec2565b6120e07f46c3f67b42dd61e6f1f1fa4b0ba4bc1d01557ed743fa0c284ce920c939588e9f60001b613ec2565b6040517f7957a08500000000000000000000000000000000000000000000000000000000815260040160405180910390fd5b61213e7f59f1da37cc8ad4fb8cff8191187c7d1bffade03aeb38cfcf97a5dbb7d58c27fe60001b613ec2565b61216a7fb37f5dd4d6b42becbe53219194d293a160c6491ddb083a93962dcd483397387e60001b613ec2565b6006600081548092919061217d9061542e565b91905055506121ae7fa353b6171c774716bd414d8a307ab1bacad071152cb08279ecbbb2960e3172a760001b613ec2565b6121da7f3aab292c7b3468ae19561ecbc44cf7a791f3843d1165b2f2380bab7fe6d070fe60001b613ec2565b428460600181815250506122107f02e3086778253773cb81241b0df1e8f26c453de22c6a23316d408e91a451be0860001b613ec2565b61223c7ff219d24265b735bcc34b8105dfd3b03450412c8abb8a006f9a71500fd398761560001b613ec2565b8360096000600654815260200190815260200160002060008201518160000160006101000a81548173ffffffffffffffffffffffffffffffffffffffff021916908373ffffffffffffffffffffffffffffffffffffffff1602179055506020820151816001015560408201518160020155606082015181600301559050506122e67f9a20ef1e896b5f210ab5ecf2b015ad43b98a393e4caae9338e38f541a1eb277860001b613ec2565b6123127f7e6c2d595ccf5620df2e1cf4d54f40e43d7a8708901fff7c566cdf5fe1cce35f60001b613ec2565b8360400151600b600084815260200190815260200160002060003373ffffffffffffffffffffffffffffffffffffffff1673ffffffffffffffffffffffffffffffffffffffff16815260200190815260200160002060008282546123769190615477565b925050819055506123a97fd4e1875301574b4bb5eee49df123fab0afb8815b13f7cd3f26323b3361b676ca60001b613ec2565b6123d57f422c77d56341dd92097e885d42b7da61ea70fcc573c70d37ab40dd4828e6ca6760001b613ec2565b8360400151600a600084815260200190815260200160002060008282546123fc9190615477565b9250508190555061242f7f4c3158859902309fa35600cec126d40b07613c0763656b20578a4b6d282fbb7a60001b613ec2565b61245b7f1b23c2adcb5f45059b3559b19dd26106a1e4cd455c33b7c75cafd88c7d56b72d60001b613ec2565b600c6000838152602001908152602001600020339080600181540180825580915050600190039060005260206000200160009091909190916101000a81548173ffffffffffffffffffffffffffffffffffffffff021916908373ffffffffffffffffffffffffffffffffffffffff1602179055506124fb7fb24e8b2804e1fd0cd19562e12bc726cb55e84504b6236b29fa3807efeaa8dc9160001b613ec2565b6125277faf40261c1bbe8ea2acb83398a3a7ee5ecbb65cb941b224ab1b343d5ff819cb0360001b613ec2565b6000600b600084815260200190815260200160002060003373ffffffffffffffffffffffffffffffffffffffff1673ffffffffffffffffffffffffffffffffffffffff1681526020019081526020016000205490506125a87fe02fbcb24f1b3934e04683650a9bf672aa4cb08d62a980dcfdfcffdb9f000e5060001b613ec2565b6125d47f7913859351635890ea73c7f556924e410fcf8fe075e154c9fa97539b8561fb0160001b613ec2565b60008260e0015190506126097f787c36f29fe7a13b9fc940ffdb827eb5528f3ad741150d10b05a67068e48f22760001b613ec2565b6126357f27118ee88d20d842f0578f3cd1329aef8d0996be3065669be027fdee56261b3460001b613ec2565b3373ffffffffffffffffffffffffffffffffffffffff168360c0015173ffffffffffffffffffffffffffffffffffffffff161415612889576126997f0302a8ff0a983db06295c4a6c10eb492f4f39e3e6d4652e014bfe40b5bbdf5df60001b613ec2565b6126c57f45c8a839661708a5212224cb9f9d6d7ee23cc62e2a2cfa8eb7a3226b12f4dee160001b613ec2565b6126f17f84141c1b18357aeebe656de9162e7e60dc9e7adb1d48369c60fd53322ad32a1460001b613ec2565b85604001518360e0018181516127079190615477565b9150818152505061273a7f0d73ea4bd5d1684394f0a7a5e0360999016cb2e6b89b59e382d57294795fae8260001b613ec2565b6127667f2d3a44cae10f3a949892d29b7c76231a206629cbe03ea8112e40c9c03b6b9bde60001b613ec2565b826008600086815260200190815260200160002060008201518160000160006101000a81548173ffffffffffffffffffffffffffffffffffffffff021916908373ffffffffffffffffffffffffffffffffffffffff16021790555060208201518160010160006101000a81548173ffffffffffffffffffffffffffffffffffffffff021916908373ffffffffffffffffffffffffffffffffffffffff16021790555060408201518160020155606082015181600301556080820151816004015560a0820151816005015560c08201518160060160006101000a81548173ffffffffffffffffffffffffffffffffffffffff021916908373ffffffffffffffffffffffffffffffffffffffff16021790555060e08201518160070155905050612cca565b6128b57f013f5135ebc948219f6cfdd92ee0975edb66f5ad36d151a753e9cd3e98a9824b60001b613ec2565b6128e17fd3a18fb395cfcaca7bd5ba78c827cf72cb10ec6364a752dc4969ccba959f3a0e60001b613ec2565b80821115612c9c576129157fa74d3e623989a5c070a7e8c7bb854b61d467048140f1cfe2e59f74ab37a7e10760001b613ec2565b6129417f3310c91b6d2bb77268018fd85ed50df44277bff456e1514fc4d19d362e04bbec60001b613ec2565b61296d7f91223fbdf42c2993e2e3c77426b05f5621b1602ab0719ac4fe0132b0629bcb6760001b613ec2565b818360e00181815250506129a37f95dc74caa7fbfe2c5ec2852081ed621dc79e1178326e34f71315bbaee5692c0e60001b613ec2565b6129cf7ffba4b3136905325b549251bfa8d06ea12b769f8032780035eaa0cfafe01f901f60001b613ec2565b81600e600086815260200190815260200160002081905550612a137f6699cd2b11c86e66f09bb3b7271db6b5010b2ce9475483d1ab07973bacd4178960001b613ec2565b612a3f7f8600b2cdf2fea64496ddfddc217e51a9ef7500033862032bedddfb6da0559e6e60001b613ec2565b338360c0019073ffffffffffffffffffffffffffffffffffffffff16908173ffffffffffffffffffffffffffffffffffffffff1681525050612aa37f800bb58cf71b463c8c151fae67039003b3a89e402343eeaf2e6cc8c43deff0e460001b613ec2565b612acf7f07433e0431aebe0c0b6a52938f2d07e25b4f59f5bfc5737cd63df15f0191589d60001b613ec2565b33600d600086815260200190815260200160002060006101000a81548173ffffffffffffffffffffffffffffffffffffffff021916908373ffffffffffffffffffffffffffffffffffffffff160217905550612b4d7f498071b3054c35fda8457de0fd2e2dea1287ac21bef29580e59f489c272a2dfa60001b613ec2565b612b797f385599c5d0b79ee21d2300b43164e13bfbe52f1c5e2e8d1c4a9e91da71a8811560001b613ec2565b826008600086815260200190815260200160002060008201518160000160006101000a81548173ffffffffffffffffffffffffffffffffffffffff021916908373ffffffffffffffffffffffffffffffffffffffff16021790555060208201518160010160006101000a81548173ffffffffffffffffffffffffffffffffffffffff021916908373ffffffffffffffffffffffffffffffffffffffff16021790555060408201518160020155606082015181600301556080820151816004015560a0820151816005015560c08201518160060160006101000a81548173ffffffffffffffffffffffffffffffffffffffff021916908373ffffffffffffffffffffffffffffffffffffffff16021790555060e08201518160070155905050612cc9565b612cc87f1028b33c771890373b84ed2ad4bd609d5fd360dbe7c775ddd653bbc73c3f457f60001b613ec2565b5b5b612cf67fccad6671a0117bed1d6960b10f757cb0b49d51ab999d53b1ef658b933f46cc8860001b613ec2565b612d227f7311934e53f184a8a36bc83ad793148df24da55e2ff15827288ab0c3e592849860001b613ec2565b600760009054906101000a900473ffffffffffffffffffffffffffffffffffffffff1673ffffffffffffffffffffffffffffffffffffffff166323b872dd33600360009054906101000a900473ffffffffffffffffffffffffffffffffffffffff1689604001516040518463ffffffff1660e01b8152600401612da7939291906154cd565b6020604051808303816000875af1158015612dc6573d6000803e3d6000fd5b505050506040513d601f19601f82011682018060405250810190612dea9190615530565b50612e177f71f1d3fefee6702c755a24a778e75690e2fcfb12da9a29822e5dc4df4427a19760001b613ec2565b612e437faaffb740099fca329f933bc48fbcce42ded3fc73c8215d7761d839685dd9eee760001b613ec2565b7fdd5f9bf5cf036a4da6a1035c7f29f422c275d1e6f6b9e2a552e3e54228b390a533858860400151604051612e7a9392919061555d565b60405180910390a1612eae7fc07e8635e5269382605a6b77f8019755a7721a049c993aac0cc481c6fccaf33860001b613ec2565b612eda7fdaaba0cefa4f933c0e259b511a1bd1a9d97f4e97933884008c624f1315aff7e560001b613ec2565b6006549450505050506001600281905550919050565b6060612f1e7f87b3c82a35fc00ea274f7b31ec90561af09f45c88751370d1b8c415b111925b360001b613ec2565b612f4a7f1d84405f9944102d5acf1f69768b3c8c83a1bee705e2f8640a64cdbdec36e79660001b613ec2565b612f767f3c55bc4b7e1a588434876f231e28a98befe3628c5a70a4e098fa8de47fe4e94060001b613ec2565b600c600083815260200190815260200160002080548060200260200160405190810160405280929190818152602001828054801561300957602002820191906000526020600020905b8160009054906101000a900473ffffffffffffffffffffffffffffffffffffffff1673ffffffffffffffffffffffffffffffffffffffff1681526020019060010190808311612fbf575b50505050509050919050565b60007f850d585eb7f024ccee5e68e55f2c26cc72e1e6ee456acf62135757a5eb9d4a1061304981613044613eba565b61410c565b6130757f614721ffec099de8bbb1b045053033705f12219bb57d358e6317c6af606b20eb60001b613ec2565b6130a17fffab6aa55cdc6247b86605402cc7d94b37a883313321d36a61d29da81835e4d360001b613ec2565b6130cd7ffb6a9b2f83f5fb34e7aa025f672d7eb05ffbccb959e5b482c1fc56bec10b092c60001b613ec2565b6000836000015190506131027f6b56166e425d533512693b148f75243a5963948a3b269915589bd103c3b5012460001b613ec2565b61312e7f4634551adf30a878d62bac512a0890bd7f057085c18f3a7109a49f3ca43f442060001b613ec2565b83608001518460600151111561319c5761316a7fa7ec3cfb3367f472cafe8057f594b66ca446eb952f85e8c289a2365f8823e36360001b613ec2565b6040517fd22dcab600000000000000000000000000000000000000000000000000000000815260040160405180910390fd5b6131c87f5f190cbb1d1007d06d2572fea3e124aea08407be2290eb151ac0d68d014ed29d60001b613ec2565b6131f47f8c59d60cb133b6f10bbc3c6bc01125c923567fd61ab538166995c493b69d1bda60001b613ec2565b600560008154809291906132079061542e565b91905055506132387f7a2a250c6e3ac215f6747f9c9dfe5281cf998c9fd4a0830f2aab5cf0ce8f43d560001b613ec2565b6132647f0198e44af6f859b1dbe3f127f498cab3ab9d93bc5f93f5c6e2f79cf24c40807760001b613ec2565b8360086000600554815260200190815260200160002060008201518160000160006101000a81548173ffffffffffffffffffffffffffffffffffffffff021916908373ffffffffffffffffffffffffffffffffffffffff16021790555060208201518160010160006101000a81548173ffffffffffffffffffffffffffffffffffffffff021916908373ffffffffffffffffffffffffffffffffffffffff16021790555060408201518160020155606082015181600301556080820151816004015560a0820151816005015560c08201518160060160006101000a81548173ffffffffffffffffffffffffffffffffffffffff021916908373ffffffffffffffffffffffffffffffffffffffff16021790555060e082015181600701559050506133b07f4b506f7d66e8c92d034b8b6dc9f8c3909436b9d3ba2f360ea15887f5bcf7a20560001b613ec2565b6133dc7f6a5248cba85019260c29a2872414b2e4e24e756f400cff161bf5c0ba0e308e8d60001b613ec2565b7f1b1c288b734d07fa03889b4efe2a9e475e25c8e24eb971dd088dee01c54fc69084602001518560400151866060015187608001518860a00151604051613427959493929190615594565b60405180910390a161345b7f0af60ad4325c150b82f67663fe260bfd342cc14781a2d009df3d5f57bc3943cc60001b613ec2565b6134877fccdfbb5951140354262e6bb4f761f8508c9c17fe660b50ceab2e9ad786653e3a60001b613ec2565b8073ffffffffffffffffffffffffffffffffffffffff1663f242432a856020015130876040015160046040518563ffffffff1660e01b81526004016134cf9493929190615622565b600060405180830381600087803b1580156134e957600080fd5b505af11580156134fd573d6000803e3d6000fd5b5050505061352d7fe27d4b8258ec0e975735d3d9929d7e58ab37088fda73d7f4b5f300cf5df1cc1160001b613ec2565b6135597f347478be2129c4b5f621372a3c1cd61929ae26472e0b02b070974021c0d09e7960001b613ec2565b60055492505050919050565b61356d613eba565b73ffffffffffffffffffffffffffffffffffffffff1661358b611be4565b73ffffffffffffffffffffffffffffffffffffffff16146135e1576040517f08c379a00000000000000000000000000000000000000000000000000000000081526004016135d8906151ee565b60405180910390fd5b61360d7f2f1fd73b82eedd8e86dc9c8e9886f1b464b118509975bb635bdaeb4dce45261160001b613ec2565b6136397f66c35d477dc692254cd775b4f5b1f4411ec343a7a73142c1e9f118ea091c783c60001b613ec2565b6136657f534ff6e9d617688034908952cfd21654f0a571b2b454ad87dfbaf96de581e4e360001b613ec2565b600073ffffffffffffffffffffffffffffffffffffffff168173ffffffffffffffffffffffffffffffffffffffff1614156136f8576136c67f2ab423b860584b2d035f38cf684cde3cd2432c1e755dba58374057d65e3a526360001b613ec2565b6040517f8579befe00000000000000000000000000000000000000000000000000000000815260040160405180910390fd5b6137247fe7eb55a557702b56888b1580b922d228117104658b1e9abfb07668a851ab44b760001b613ec2565b6137507faae2390006902d9abdb7b657b4e7b3e937b400d9e98212f9bc5d302f0511255760001b613ec2565b61377c7f5e2a1f1c6b667121e1f961fa98b21e6e23ad59158b88babcacd14c8bef4e49d560001b613ec2565b80600460006101000a81548173ffffffffffffffffffffffffffffffffffffffff021916908373ffffffffffffffffffffffffffffffffffffffff1602179055506137e97f7143f19df8362ef692aa05c656bd245870b01b4fec70bd3af7da7e4f05e50fdc60001b613ec2565b6138157f9e1fc432f93a6b69d31d4617ab59d0dfd5572d1b5ec0579b92695734e1e05e1a60001b613ec2565b7fa099340b9009966c80f2d51f8425c15ffe5713a8c732f3d9e3b0d213ad03e35b816040516138449190614ab1565b60405180910390a150565b613858826112cc565b61386981613864613eba565b61410c565b6138738383614289565b505050565b600360009054906101000a900473ffffffffffffffffffffffffffffffffffffffff1681565b6138a661466b565b6138d27f5900b491c81f75531c4e59d5eaeaf22ddf74c5bd7c080a5c2b3024b417676ca660001b613ec2565b6138fe7ff25650fed532138cd84385cc28c9510b8eae039ccad4484402017b022eb5c6bf60001b613ec2565b61392a7f238aeeba9d316b21901031e32a34ea0e7da551c1537215fd270453da766e3f3660001b613ec2565b60086000838152602001908152602001600020604051806101000160405290816000820160009054906101000a900473ffffffffffffffffffffffffffffffffffffffff1673ffffffffffffffffffffffffffffffffffffffff1673ffffffffffffffffffffffffffffffffffffffff1681526020016001820160009054906101000a900473ffffffffffffffffffffffffffffffffffffffff1673ffffffffffffffffffffffffffffffffffffffff1673ffffffffffffffffffffffffffffffffffffffff168152602001600282015481526020016003820154815260200160048201548152602001600582015481526020016006820160009054906101000a900473ffffffffffffffffffffffffffffffffffffffff1673ffffffffffffffffffffffffffffffffffffffff1673ffffffffffffffffffffffffffffffffffffffff1681526020016007820154815250509050919050565b600b602052816000526040600020602052806000526040600020600091509150505481565b6000613ad77f692fe5ff17186966948445644187dec28f535a34408ab134c16e27edab270fbe60001b613ec2565b613b037fdc7da27cd152176892191641d281a7c0141f8a2f9515d16f372b8d77bcd7589760001b613ec2565b613b2f7f6198a2f03a7e9058c2318b2f4931ebc378b166b978a6a440d2ad4cb1f2eb10b160001b613ec2565b600a6000838152602001908152602001600020549050919050565b613b526146f2565b613b7e7f2798ff6d1b317727dc4df73f36f32f6104d4b4581e69048dde5b5a7fbaf4e34e60001b613ec2565b613baa7fe0c8157bd5303d2332f345bdf98dae8dbf3ca6451e8e4192bc56b5cd77ac24d760001b613ec2565b613bd67f9a41abf754f44d2b2ee576553df211c3980b4a6d82d3b7c3b046f18f5ff2bf1460001b613ec2565b600960008381526020019081526020016000206040518060800160405290816000820160009054906101000a900473ffffffffffffffffffffffffffffffffffffffff1673ffffffffffffffffffffffffffffffffffffffff1673ffffffffffffffffffffffffffffffffffffffff16815260200160018201548152602001600282015481526020016003820154815250509050919050565b6000613c9d7f1bcf66b0c3c61eca5540be95aa55afd578d359d5c070ef23953758d34d5fea8760001b613ec2565b613cc97fd408be170f4a0acbaf1598a1370e8ee391a69fc6c23c3e19b58422a7cfea919760001b613ec2565b613cf57f92c49eeb74fe00cd92e081f46de0442d12aa0178ac9f4ccdb4339fc8d6c4cc9460001b613ec2565b63f23a6e6160e01b905095945050505050565b613d10613eba565b73ffffffffffffffffffffffffffffffffffffffff16613d2e611be4565b73ffffffffffffffffffffffffffffffffffffffff1614613d84576040517f08c379a0000000000000000000000000000000000000000000000000000000008152600401613d7b906151ee565b60405180910390fd5b600073ffffffffffffffffffffffffffffffffffffffff168173ffffffffffffffffffffffffffffffffffffffff161415613df4576040517f08c379a0000000000000000000000000000000000000000000000000000000008152600401613deb906156ec565b60405180910390fd5b613dfd8161436b565b50565b60096020528060005260406000206000915090508060000160009054906101000a900473ffffffffffffffffffffffffffffffffffffffff16908060010154908060020154908060030154905084565b60007f01ffc9a7000000000000000000000000000000000000000000000000000000007bffffffffffffffffffffffffffffffffffffffffffffffffffffffff1916827bffffffffffffffffffffffffffffffffffffffffffffffffffffffff1916149050919050565b600033905090565b50565b6000613ef37f78636cb19e4caa1692c78433d1b58906acf4c2359ad758c5209f8ccb75f95cc760001b613ec2565b613f1f7ff0b6856e51dda67d7adfda085c48dc398d471f289362b47f7496677b2bedd20160001b613ec2565b613f4b7fa7582d4c6d7445147c63db11bde633351b644191e630ac553689d09f9d9c72e360001b613ec2565b6000600c6000848152602001908152602001600020805490509050613f927fe7d6bef85558826c892c89daee968fed7ce7f0259839de559f3df074331e08aa60001b613ec2565b613fbe7f73a3e95a37d662bb10a1605e8ba9d6ccd362d4d85aa131190ffceca0416894f660001b613ec2565b60008142434487604051602001613fd8949392919061572d565b6040516020818303038152906040528051906020012060001c613ffb91906157aa565b90506140297f616fa8bad75759b918e808fafd26a9d164a22fe13491db20298001fa9d70c92960001b613ec2565b6140557fd70c473b1bc13923d9fead0b392688340d4119c969ce996a60d7c53649c55eff60001b613ec2565b6000600c6000868152602001908152602001600020828154811061407c5761407b6157db565b5b9060005260206000200160009054906101000a900473ffffffffffffffffffffffffffffffffffffffff1690506140d57f27c55cc220c50fad875b9d80b96d388a48893656ae885fb0ad04b05ca2afc9d560001b613ec2565b6141017f7984208a32d0e9d3bc2a6a3453967abc9edff4dcb7f95d96f40aa424af50949660001b613ec2565b809350505050919050565b6141168282611c0d565b6141a55761413b8173ffffffffffffffffffffffffffffffffffffffff16601461442f565b6141498360001c602061442f565b60405160200161415a92919061591c565b6040516020818303038152906040526040517f08c379a000000000000000000000000000000000000000000000000000000000815260040161419c919061598f565b60405180910390fd5b5050565b6141b38282611c0d565b61428557600180600084815260200190815260200160002060000160008373ffffffffffffffffffffffffffffffffffffffff1673ffffffffffffffffffffffffffffffffffffffff16815260200190815260200160002060006101000a81548160ff02191690831515021790555061422a613eba565b73ffffffffffffffffffffffffffffffffffffffff168173ffffffffffffffffffffffffffffffffffffffff16837f2f8788117e7eff1d82e926ec794901d17c78024a50270940304540a733656f0d60405160405180910390a45b5050565b6142938282611c0d565b156143675760006001600084815260200190815260200160002060000160008373ffffffffffffffffffffffffffffffffffffffff1673ffffffffffffffffffffffffffffffffffffffff16815260200190815260200160002060006101000a81548160ff02191690831515021790555061430c613eba565b73ffffffffffffffffffffffffffffffffffffffff168173ffffffffffffffffffffffffffffffffffffffff16837ff6391f5c32d9c69d2a47ea670b442974b53935d1edc7fd64eb21e047a839171b60405160405180910390a45b5050565b60008060009054906101000a900473ffffffffffffffffffffffffffffffffffffffff169050816000806101000a81548173ffffffffffffffffffffffffffffffffffffffff021916908373ffffffffffffffffffffffffffffffffffffffff1602179055508173ffffffffffffffffffffffffffffffffffffffff168173ffffffffffffffffffffffffffffffffffffffff167f8be0079c531659141344cd1fd0a4f28419497f9722a3daafe3b4186f6b6457e060405160405180910390a35050565b60606000600283600261444291906159b1565b61444c9190615477565b67ffffffffffffffff81111561446557614464614b9c565b5b6040519080825280601f01601f1916602001820160405280156144975781602001600182028036833780820191505090505b5090507f3000000000000000000000000000000000000000000000000000000000000000816000815181106144cf576144ce6157db565b5b60200101907effffffffffffffffffffffffffffffffffffffffffffffffffffffffffffff1916908160001a9053507f780000000000000000000000000000000000000000000000000000000000000081600181518110614533576145326157db565b5b60200101907effffffffffffffffffffffffffffffffffffffffffffffffffffffffffffff1916908160001a9053506000600184600261457391906159b1565b61457d9190615477565b90505b600181111561461d577f3031323334353637383961626364656600000000000000000000000000000000600f8616601081106145bf576145be6157db565b5b1a60f81b8282815181106145d6576145d56157db565b5b60200101907effffffffffffffffffffffffffffffffffffffffffffffffffffffffffffff1916908160001a905350600485901c94508061461690615a0b565b9050614580565b5060008414614661576040517f08c379a000000000000000000000000000000000000000000000000000000000815260040161465890615a81565b60405180910390fd5b8091505092915050565b604051806101000160405280600073ffffffffffffffffffffffffffffffffffffffff168152602001600073ffffffffffffffffffffffffffffffffffffffff16815260200160008152602001600081526020016000815260200160008152602001600073ffffffffffffffffffffffffffffffffffffffff168152602001600081525090565b6040518060800160405280600073ffffffffffffffffffffffffffffffffffffffff1681526020016000815260200160008152602001600081525090565b6000604051905090565b600080fd5b600080fd5b60007fffffffff0000000000000000000000000000000000000000000000000000000082169050919050565b61477981614744565b811461478457600080fd5b50565b60008135905061479681614770565b92915050565b6000602082840312156147b2576147b161473a565b5b60006147c084828501614787565b91505092915050565b60008115159050919050565b6147de816147c9565b82525050565b60006020820190506147f960008301846147d5565b92915050565b6000819050919050565b614812816147ff565b811461481d57600080fd5b50565b60008135905061482f81614809565b92915050565b60006020828403121561484b5761484a61473a565b5b600061485984828501614820565b91505092915050565b6000819050919050565b61487581614862565b811461488057600080fd5b50565b6000813590506148928161486c565b92915050565b6000602082840312156148ae576148ad61473a565b5b60006148bc84828501614883565b91505092915050565b6148ce81614862565b82525050565b60006020820190506148e960008301846148c5565b92915050565b6148f8816147ff565b82525050565b600060208201905061491360008301846148ef565b92915050565b600073ffffffffffffffffffffffffffffffffffffffff82169050919050565b600061494482614919565b9050919050565b61495481614939565b811461495f57600080fd5b50565b6000813590506149718161494b565b92915050565b6000806040838503121561498e5761498d61473a565b5b600061499c85828601614883565b92505060206149ad85828601614962565b9150509250929050565b6000602082840312156149cd576149cc61473a565b5b60006149db84828501614962565b91505092915050565b600080604083850312156149fb576149fa61473a565b5b6000614a0985828601614820565b9250506020614a1a85828601614962565b9150509250929050565b614a2d81614939565b82525050565b600061010082019050614a49600083018b614a24565b614a56602083018a614a24565b614a6360408301896148ef565b614a7060608301886148ef565b614a7d60808301876148ef565b614a8a60a08301866148ef565b614a9760c0830185614a24565b614aa460e08301846148ef565b9998505050505050505050565b6000602082019050614ac66000830184614a24565b92915050565b60008060408385031215614ae357614ae261473a565b5b6000614af185828601614820565b9250506020614b0285828601614820565b9150509250929050565b6000819050919050565b6000614b31614b2c614b2784614919565b614b0c565b614919565b9050919050565b6000614b4382614b16565b9050919050565b6000614b5582614b38565b9050919050565b614b6581614b4a565b82525050565b6000602082019050614b806000830184614b5c565b92915050565b600080fd5b6000601f19601f8301169050919050565b7f4e487b7100000000000000000000000000000000000000000000000000000000600052604160045260246000fd5b614bd482614b8b565b810181811067ffffffffffffffff82111715614bf357614bf2614b9c565b5b80604052505050565b6000614c06614730565b9050614c128282614bcb565b919050565b600060808284031215614c2d57614c2c614b86565b5b614c376080614bfc565b90506000614c4784828501614962565b6000830152506020614c5b84828501614820565b6020830152506040614c6f84828501614820565b6040830152506060614c8384828501614820565b60608301525092915050565b600060808284031215614ca557614ca461473a565b5b6000614cb384828501614c17565b91505092915050565b600081519050919050565b600082825260208201905092915050565b6000819050602082019050919050565b614cf181614939565b82525050565b6000614d038383614ce8565b60208301905092915050565b6000602082019050919050565b6000614d2782614cbc565b614d318185614cc7565b9350614d3c83614cd8565b8060005b83811015614d6d578151614d548882614cf7565b9750614d5f83614d0f565b925050600181019050614d40565b5085935050505092915050565b60006020820190508181036000830152614d948184614d1c565b905092915050565b60006101008284031215614db357614db2614b86565b5b614dbe610100614bfc565b90506000614dce84828501614962565b6000830152506020614de284828501614962565b6020830152506040614df684828501614820565b6040830152506060614e0a84828501614820565b6060830152506080614e1e84828501614820565b60808301525060a0614e3284828501614820565b60a08301525060c0614e4684828501614962565b60c08301525060e0614e5a84828501614820565b60e08301525092915050565b60006101008284031215614e7d57614e7c61473a565b5b6000614e8b84828501614d9c565b91505092915050565b614e9d816147ff565b82525050565b61010082016000820151614eba6000850182614ce8565b506020820151614ecd6020850182614ce8565b506040820151614ee06040850182614e94565b506060820151614ef36060850182614e94565b506080820151614f066080850182614e94565b5060a0820151614f1960a0850182614e94565b5060c0820151614f2c60c0850182614ce8565b5060e0820151614f3f60e0850182614e94565b50505050565b600061010082019050614f5b6000830184614ea3565b92915050565b608082016000820151614f776000850182614ce8565b506020820151614f8a6020850182614e94565b506040820151614f9d6040850182614e94565b506060820151614fb06060850182614e94565b50505050565b6000608082019050614fcb6000830184614f61565b92915050565b600080fd5b600080fd5b600067ffffffffffffffff821115614ff657614ff5614b9c565b5b614fff82614b8b565b9050602081019050919050565b82818337600083830152505050565b600061502e61502984614fdb565b614bfc565b90508281526020810184848401111561504a57615049614fd6565b5b61505584828561500c565b509392505050565b600082601f83011261507257615071614fd1565b5b813561508284826020860161501b565b91505092915050565b600080600080600060a086880312156150a7576150a661473a565b5b60006150b588828901614962565b95505060206150c688828901614962565b94505060406150d788828901614820565b93505060606150e888828901614820565b925050608086013567ffffffffffffffff8111156151095761510861473f565b5b6151158882890161505d565b9150509295509295909350565b61512b81614744565b82525050565b60006020820190506151466000830184615122565b92915050565b60006080820190506151616000830187614a24565b61516e60208301866148ef565b61517b60408301856148ef565b61518860608301846148ef565b95945050505050565b600082825260208201905092915050565b7f4f776e61626c653a2063616c6c6572206973206e6f7420746865206f776e6572600082015250565b60006151d8602083615191565b91506151e3826151a2565b602082019050919050565b60006020820190508181036000830152615207816151cb565b9050919050565b6000819050919050565b600061523361522e6152298461520e565b614b0c565b6147ff565b9050919050565b61524381615218565b82525050565b600082825260208201905092915050565b50565b600061526a600083615249565b91506152758261525a565b600082019050919050565b600060a0820190506152956000830187614a24565b6152a26020830186614a24565b6152af60408301856148ef565b6152bc606083018461523a565b81810360808301526152cd8161525d565b905095945050505050565b60006040820190506152ed60008301856148ef565b6152fa6020830184614a24565b9392505050565b7f416363657373436f6e74726f6c3a2063616e206f6e6c792072656e6f756e636560008201527f20726f6c657320666f722073656c660000000000000000000000000000000000602082015250565b600061535d602f83615191565b915061536882615301565b604082019050919050565b6000602082019050818103600083015261538c81615350565b9050919050565b7f5265656e7472616e637947756172643a207265656e7472616e742063616c6c00600082015250565b60006153c9601f83615191565b91506153d482615393565b602082019050919050565b600060208201905081810360008301526153f8816153bc565b9050919050565b7f4e487b7100000000000000000000000000000000000000000000000000000000600052601160045260246000fd5b6000615439826147ff565b91507fffffffffffffffffffffffffffffffffffffffffffffffffffffffffffffffff82141561546c5761546b6153ff565b5b600182019050919050565b6000615482826147ff565b915061548d836147ff565b9250827fffffffffffffffffffffffffffffffffffffffffffffffffffffffffffffffff038211156154c2576154c16153ff565b5b828201905092915050565b60006060820190506154e26000830186614a24565b6154ef6020830185614a24565b6154fc60408301846148ef565b949350505050565b61550d816147c9565b811461551857600080fd5b50565b60008151905061552a81615504565b92915050565b6000602082840312156155465761554561473a565b5b60006155548482850161551b565b91505092915050565b60006060820190506155726000830186614a24565b61557f60208301856148ef565b61558c60408301846148ef565b949350505050565b600060a0820190506155a96000830188614a24565b6155b660208301876148ef565b6155c360408301866148ef565b6155d060608301856148ef565b6155dd60808301846148ef565b9695505050505050565b6000819050919050565b600061560c615607615602846155e7565b614b0c565b6147ff565b9050919050565b61561c816155f1565b82525050565b600060a0820190506156376000830187614a24565b6156446020830186614a24565b61565160408301856148ef565b61565e6060830184615613565b818103608083015261566f8161525d565b905095945050505050565b7f4f776e61626c653a206e6577206f776e657220697320746865207a65726f206160008201527f6464726573730000000000000000000000000000000000000000000000000000602082015250565b60006156d6602683615191565b91506156e18261567a565b604082019050919050565b60006020820190508181036000830152615705816156c9565b9050919050565b6000819050919050565b615727615722826147ff565b61570c565b82525050565b60006157398287615716565b6020820191506157498286615716565b6020820191506157598285615716565b6020820191506157698284615716565b60208201915081905095945050505050565b7f4e487b7100000000000000000000000000000000000000000000000000000000600052601260045260246000fd5b60006157b5826147ff565b91506157c0836147ff565b9250826157d0576157cf61577b565b5b828206905092915050565b7f4e487b7100000000000000000000000000000000000000000000000000000000600052603260045260246000fd5b600081905092915050565b7f416363657373436f6e74726f6c3a206163636f756e7420000000000000000000600082015250565b600061584b60178361580a565b915061585682615815565b601782019050919050565b600081519050919050565b60005b8381101561588a57808201518184015260208101905061586f565b83811115615899576000848401525b50505050565b60006158aa82615861565b6158b4818561580a565b93506158c481856020860161586c565b80840191505092915050565b7f206973206d697373696e6720726f6c6520000000000000000000000000000000600082015250565b600061590660118361580a565b9150615911826158d0565b601182019050919050565b60006159278261583e565b9150615933828561589f565b915061593e826158f9565b915061594a828461589f565b91508190509392505050565b600061596182615861565b61596b8185615191565b935061597b81856020860161586c565b61598481614b8b565b840191505092915050565b600060208201905081810360008301526159a98184615956565b905092915050565b60006159bc826147ff565b91506159c7836147ff565b9250817fffffffffffffffffffffffffffffffffffffffffffffffffffffffffffffffff0483118215151615615a00576159ff6153ff565b5b828202905092915050565b6000615a16826147ff565b91506000821415615a2a57615a296153ff565b5b600182039050919050565b7f537472696e67733a20686578206c656e67746820696e73756666696369656e74600082015250565b6000615a6b602083615191565b9150615a7682615a35565b602082019050919050565b60006020820190508181036000830152615a9a81615a5e565b905091905056fea2646970667358221220bb2c92fb98effd4e193b9324c24a3f0a918b5b154fb53b42c6cd3ba30319abaf64736f6c634300080b0033",
  "linkReferences": {},
  "deployedLinkReferences": {}
}