{
  "_format": "hh-sol-artifact-1",
  "contractName": "Raffle",
  "sourceName": "contracts/Raffle.sol",
  "abi": [
    {
      "inputs": [
        {
          "internalType": "address",
          "name": "_usdc",
          "type": "address"
        },
        {
          "internalType": "address",
          "name": "_forwarder",
          "type": "address"
        },
        {
          "internalType": "address",
          "name": "_rewardTokenAddress",
          "type": "address"
        }
      ],
      "stateMutability": "nonpayable",
      "type": "constructor"
    },
    {
      "inputs": [],
      "name": "DonationTooLow",
      "type": "error"
    },
    {
      "inputs": [],
      "name": "IncorrectTimesGiven",
      "type": "error"
    },
    {
      "inputs": [],
      "name": "RaffleHasEnded",
      "type": "error"
    },
    {
      "inputs": [],
      "name": "RaffleHasNotEnded",
      "type": "error"
    },
    {
      "inputs": [],
      "name": "ZeroAddressNotAllowed",
      "type": "error"
    },
    {
      "anonymous": false,
      "inputs": [
        {
          "indexed": false,
          "internalType": "address",
          "name": "walletAddress",
          "type": "address"
        }
      ],
      "name": "DAOWalletAddressSet",
      "type": "event"
    },
    {
      "anonymous": false,
      "inputs": [
        {
          "indexed": false,
          "internalType": "address",
          "name": "from",
          "type": "address"
        },
        {
          "indexed": false,
          "internalType": "uint256",
          "name": "raffleId",
          "type": "uint256"
        },
        {
          "indexed": false,
          "internalType": "uint256",
          "name": "amount",
          "type": "uint256"
        }
      ],
      "name": "DonationPlaced",
      "type": "event"
    },
    {
      "anonymous": false,
      "inputs": [
        {
          "indexed": false,
          "internalType": "uint256",
          "name": "raffleID",
          "type": "uint256"
        },
        {
          "indexed": false,
          "internalType": "address",
          "name": "winner",
          "type": "address"
        }
      ],
      "name": "NFTsentToWinner",
      "type": "event"
    },
    {
      "anonymous": false,
      "inputs": [
        {
          "indexed": true,
          "internalType": "address",
          "name": "previousOwner",
          "type": "address"
        },
        {
          "indexed": true,
          "internalType": "address",
          "name": "newOwner",
          "type": "address"
        }
      ],
      "name": "OwnershipTransferred",
      "type": "event"
    },
    {
      "anonymous": false,
      "inputs": [
        {
          "indexed": false,
          "internalType": "address",
          "name": "nftOwner",
          "type": "address"
        },
        {
          "indexed": false,
          "internalType": "uint256",
          "name": "tokenID",
          "type": "uint256"
        },
        {
          "indexed": false,
          "internalType": "uint256",
          "name": "startTime",
          "type": "uint256"
        },
        {
          "indexed": false,
          "internalType": "uint256",
          "name": "endTime",
          "type": "uint256"
        },
        {
          "indexed": false,
          "internalType": "uint256",
          "name": "minimumDonationAmount",
          "type": "uint256"
        }
      ],
      "name": "RaffleCreated",
      "type": "event"
    },
    {
      "anonymous": false,
      "inputs": [
        {
          "indexed": true,
          "internalType": "bytes32",
          "name": "role",
          "type": "bytes32"
        },
        {
          "indexed": true,
          "internalType": "bytes32",
          "name": "previousAdminRole",
          "type": "bytes32"
        },
        {
          "indexed": true,
          "internalType": "bytes32",
          "name": "newAdminRole",
          "type": "bytes32"
        }
      ],
      "name": "RoleAdminChanged",
      "type": "event"
    },
    {
      "anonymous": false,
      "inputs": [
        {
          "indexed": true,
          "internalType": "bytes32",
          "name": "role",
          "type": "bytes32"
        },
        {
          "indexed": true,
          "internalType": "address",
          "name": "account",
          "type": "address"
        },
        {
          "indexed": true,
          "internalType": "address",
          "name": "sender",
          "type": "address"
        }
      ],
      "name": "RoleGranted",
      "type": "event"
    },
    {
      "anonymous": false,
      "inputs": [
        {
          "indexed": true,
          "internalType": "bytes32",
          "name": "role",
          "type": "bytes32"
        },
        {
          "indexed": true,
          "internalType": "address",
          "name": "account",
          "type": "address"
        },
        {
          "indexed": true,
          "internalType": "address",
          "name": "sender",
          "type": "address"
        }
      ],
      "name": "RoleRevoked",
      "type": "event"
    },
    {
      "anonymous": false,
      "inputs": [
        {
          "indexed": false,
          "internalType": "address",
          "name": "nftAuthorWallet",
          "type": "address"
        }
      ],
      "name": "nftAuthorWalletAddressSet",
      "type": "event"
    },
    {
      "inputs": [],
      "name": "ADMIN_ROLE",
      "outputs": [
        {
          "internalType": "bytes32",
          "name": "",
          "type": "bytes32"
        }
      ],
      "stateMutability": "view",
      "type": "function"
    },
    {
      "inputs": [],
      "name": "CURATOR_ROLE",
      "outputs": [
        {
          "internalType": "bytes32",
          "name": "",
          "type": "bytes32"
        }
      ],
      "stateMutability": "view",
      "type": "function"
    },
    {
      "inputs": [],
      "name": "DAOWallet",
      "outputs": [
        {
          "internalType": "address",
          "name": "",
          "type": "address"
        }
      ],
      "stateMutability": "view",
      "type": "function"
    },
    {
      "inputs": [],
      "name": "DEFAULT_ADMIN_ROLE",
      "outputs": [
        {
          "internalType": "bytes32",
          "name": "",
          "type": "bytes32"
        }
      ],
      "stateMutability": "view",
      "type": "function"
    },
    {
      "inputs": [],
      "name": "REWARD_TOKEN",
      "outputs": [
        {
          "internalType": "contract IERC20",
          "name": "",
          "type": "address"
        }
      ],
      "stateMutability": "view",
      "type": "function"
    },
    {
      "inputs": [],
      "name": "USDC",
      "outputs": [
        {
          "internalType": "contract IERC20",
          "name": "",
          "type": "address"
        }
      ],
      "stateMutability": "view",
      "type": "function"
    },
    {
      "inputs": [
        {
          "components": [
            {
              "internalType": "address",
              "name": "nftContract",
              "type": "address"
            },
            {
              "internalType": "address",
              "name": "nftOwner",
              "type": "address"
            },
            {
              "internalType": "uint256",
              "name": "tokenID",
              "type": "uint256"
            },
            {
              "internalType": "uint256",
              "name": "startTime",
              "type": "uint256"
            },
            {
              "internalType": "uint256",
              "name": "endTime",
              "type": "uint256"
            },
            {
              "internalType": "uint256",
              "name": "minimumDonationAmount",
              "type": "uint256"
            },
            {
              "internalType": "address",
              "name": "topDonor",
              "type": "address"
            },
            {
              "internalType": "uint256",
              "name": "topDonatedAmount",
              "type": "uint256"
            }
          ],
          "internalType": "struct Raffle.Raffle",
          "name": "_raffle",
          "type": "tuple"
        }
      ],
      "name": "createRaffle",
      "outputs": [
        {
          "internalType": "uint256",
          "name": "",
          "type": "uint256"
        }
      ],
      "stateMutability": "nonpayable",
      "type": "function"
    },
    {
      "inputs": [
        {
          "components": [
            {
              "internalType": "address",
              "name": "donor",
              "type": "address"
            },
            {
              "internalType": "uint256",
              "name": "raffleID",
              "type": "uint256"
            },
            {
              "internalType": "uint256",
              "name": "amount",
              "type": "uint256"
            },
            {
              "internalType": "uint256",
              "name": "timestamp",
              "type": "uint256"
            }
          ],
          "internalType": "struct Raffle.Donation",
          "name": "_donation",
          "type": "tuple"
        }
      ],
      "name": "donate",
      "outputs": [
        {
          "internalType": "uint256",
          "name": "",
          "type": "uint256"
        }
      ],
      "stateMutability": "payable",
      "type": "function"
    },
    {
      "inputs": [],
      "name": "donationCount",
      "outputs": [
        {
          "internalType": "uint256",
          "name": "",
          "type": "uint256"
        }
      ],
      "stateMutability": "view",
      "type": "function"
    },
    {
      "inputs": [
        {
          "internalType": "uint256",
          "name": "",
          "type": "uint256"
        }
      ],
      "name": "donations",
      "outputs": [
        {
          "internalType": "address",
          "name": "donor",
          "type": "address"
        },
        {
          "internalType": "uint256",
          "name": "raffleID",
          "type": "uint256"
        },
        {
          "internalType": "uint256",
          "name": "amount",
          "type": "uint256"
        },
        {
          "internalType": "uint256",
          "name": "timestamp",
          "type": "uint256"
        }
      ],
      "stateMutability": "view",
      "type": "function"
    },
    {
      "inputs": [
        {
          "internalType": "uint256",
          "name": "",
          "type": "uint256"
        },
        {
          "internalType": "uint256",
          "name": "",
          "type": "uint256"
        }
      ],
      "name": "donorsArrayPerCycle",
      "outputs": [
        {
          "internalType": "address",
          "name": "",
          "type": "address"
        }
      ],
      "stateMutability": "view",
      "type": "function"
    },
    {
      "inputs": [
        {
          "internalType": "uint256",
          "name": "donationID",
          "type": "uint256"
        }
      ],
      "name": "getDonation",
      "outputs": [
        {
          "components": [
            {
              "internalType": "address",
              "name": "donor",
              "type": "address"
            },
            {
              "internalType": "uint256",
              "name": "raffleID",
              "type": "uint256"
            },
            {
              "internalType": "uint256",
              "name": "amount",
              "type": "uint256"
            },
            {
              "internalType": "uint256",
              "name": "timestamp",
              "type": "uint256"
            }
          ],
          "internalType": "struct Raffle.Donation",
          "name": "",
          "type": "tuple"
        }
      ],
      "stateMutability": "view",
      "type": "function"
    },
    {
      "inputs": [
        {
          "internalType": "uint256",
          "name": "raffleID",
          "type": "uint256"
        }
      ],
      "name": "getDonorsPerCycle",
      "outputs": [
        {
          "internalType": "address[]",
          "name": "",
          "type": "address[]"
        }
      ],
      "stateMutability": "view",
      "type": "function"
    },
    {
      "inputs": [
        {
          "internalType": "uint256",
          "name": "raffleID",
          "type": "uint256"
        }
      ],
      "name": "getHighestDonationPerCycle",
      "outputs": [
        {
          "internalType": "uint256",
          "name": "",
          "type": "uint256"
        }
      ],
      "stateMutability": "view",
      "type": "function"
    },
    {
      "inputs": [
        {
          "internalType": "uint256",
          "name": "raffleID",
          "type": "uint256"
        }
      ],
      "name": "getRaffle",
      "outputs": [
        {
          "components": [
            {
              "internalType": "address",
              "name": "nftContract",
              "type": "address"
            },
            {
              "internalType": "address",
              "name": "nftOwner",
              "type": "address"
            },
            {
              "internalType": "uint256",
              "name": "tokenID",
              "type": "uint256"
            },
            {
              "internalType": "uint256",
              "name": "startTime",
              "type": "uint256"
            },
            {
              "internalType": "uint256",
              "name": "endTime",
              "type": "uint256"
            },
            {
              "internalType": "uint256",
              "name": "minimumDonationAmount",
              "type": "uint256"
            },
            {
              "internalType": "address",
              "name": "topDonor",
              "type": "address"
            },
            {
              "internalType": "uint256",
              "name": "topDonatedAmount",
              "type": "uint256"
            }
          ],
          "internalType": "struct Raffle.Raffle",
          "name": "",
          "type": "tuple"
        }
      ],
      "stateMutability": "view",
      "type": "function"
    },
    {
      "inputs": [
        {
          "internalType": "bytes32",
          "name": "role",
          "type": "bytes32"
        }
      ],
      "name": "getRoleAdmin",
      "outputs": [
        {
          "internalType": "bytes32",
          "name": "",
          "type": "bytes32"
        }
      ],
      "stateMutability": "view",
      "type": "function"
    },
    {
      "inputs": [
        {
          "internalType": "uint256",
          "name": "raffleID",
          "type": "uint256"
        }
      ],
      "name": "getTopDonor",
      "outputs": [
        {
          "internalType": "address",
          "name": "",
          "type": "address"
        }
      ],
      "stateMutability": "view",
      "type": "function"
    },
    {
      "inputs": [
        {
          "internalType": "uint256",
          "name": "raffleID",
          "type": "uint256"
        },
        {
          "internalType": "address",
          "name": "account",
          "type": "address"
        }
      ],
      "name": "getTotalDonationPerAddressPerCycle",
      "outputs": [
        {
          "internalType": "uint256",
          "name": "",
          "type": "uint256"
        }
      ],
      "stateMutability": "view",
      "type": "function"
    },
    {
      "inputs": [
        {
          "internalType": "uint256",
          "name": "raffleID",
          "type": "uint256"
        }
      ],
      "name": "getTotalDonationsPerCycle",
      "outputs": [
        {
          "internalType": "uint256",
          "name": "",
          "type": "uint256"
        }
      ],
      "stateMutability": "view",
      "type": "function"
    },
    {
      "inputs": [
        {
          "internalType": "bytes32",
          "name": "role",
          "type": "bytes32"
        },
        {
          "internalType": "address",
          "name": "account",
          "type": "address"
        }
      ],
      "name": "grantRole",
      "outputs": [],
      "stateMutability": "nonpayable",
      "type": "function"
    },
    {
      "inputs": [
        {
          "internalType": "bytes32",
          "name": "role",
          "type": "bytes32"
        },
        {
          "internalType": "address",
          "name": "account",
          "type": "address"
        }
      ],
      "name": "hasRole",
      "outputs": [
        {
          "internalType": "bool",
          "name": "",
          "type": "bool"
        }
      ],
      "stateMutability": "view",
      "type": "function"
    },
    {
      "inputs": [
        {
          "internalType": "address",
          "name": "forwarder",
          "type": "address"
        }
      ],
      "name": "isTrustedForwarder",
      "outputs": [
        {
          "internalType": "bool",
          "name": "",
          "type": "bool"
        }
      ],
      "stateMutability": "view",
      "type": "function"
    },
    {
      "inputs": [],
      "name": "nftAuthorWallet",
      "outputs": [
        {
          "internalType": "address",
          "name": "",
          "type": "address"
        }
      ],
      "stateMutability": "view",
      "type": "function"
    },
    {
      "inputs": [
        {
          "internalType": "address",
          "name": "operator",
          "type": "address"
        },
        {
          "internalType": "address",
          "name": "from",
          "type": "address"
        },
        {
          "internalType": "uint256",
          "name": "id",
          "type": "uint256"
        },
        {
          "internalType": "uint256",
          "name": "value",
          "type": "uint256"
        },
        {
          "internalType": "bytes",
          "name": "data",
          "type": "bytes"
        }
      ],
      "name": "onERC1155Received",
      "outputs": [
        {
          "internalType": "bytes4",
          "name": "",
          "type": "bytes4"
        }
      ],
      "stateMutability": "pure",
      "type": "function"
    },
    {
      "inputs": [],
      "name": "owner",
      "outputs": [
        {
          "internalType": "address",
          "name": "",
          "type": "address"
        }
      ],
      "stateMutability": "view",
      "type": "function"
    },
    {
      "inputs": [],
      "name": "raffleCount",
      "outputs": [
        {
          "internalType": "uint256",
          "name": "",
          "type": "uint256"
        }
      ],
      "stateMutability": "view",
      "type": "function"
    },
    {
      "inputs": [
        {
          "internalType": "uint256",
          "name": "",
          "type": "uint256"
        }
      ],
      "name": "raffles",
      "outputs": [
        {
          "internalType": "address",
          "name": "nftContract",
          "type": "address"
        },
        {
          "internalType": "address",
          "name": "nftOwner",
          "type": "address"
        },
        {
          "internalType": "uint256",
          "name": "tokenID",
          "type": "uint256"
        },
        {
          "internalType": "uint256",
          "name": "startTime",
          "type": "uint256"
        },
        {
          "internalType": "uint256",
          "name": "endTime",
          "type": "uint256"
        },
        {
          "internalType": "uint256",
          "name": "minimumDonationAmount",
          "type": "uint256"
        },
        {
          "internalType": "address",
          "name": "topDonor",
          "type": "address"
        },
        {
          "internalType": "uint256",
          "name": "topDonatedAmount",
          "type": "uint256"
        }
      ],
      "stateMutability": "view",
      "type": "function"
    },
    {
      "inputs": [],
      "name": "renounceOwnership",
      "outputs": [],
      "stateMutability": "nonpayable",
      "type": "function"
    },
    {
      "inputs": [
        {
          "internalType": "bytes32",
          "name": "role",
          "type": "bytes32"
        },
        {
          "internalType": "address",
          "name": "account",
          "type": "address"
        }
      ],
      "name": "renounceRole",
      "outputs": [],
      "stateMutability": "nonpayable",
      "type": "function"
    },
    {
      "inputs": [
        {
          "internalType": "address",
          "name": "curator",
          "type": "address"
        }
      ],
      "name": "revokeCuratorRole",
      "outputs": [],
      "stateMutability": "nonpayable",
      "type": "function"
    },
    {
      "inputs": [
        {
          "internalType": "bytes32",
          "name": "role",
          "type": "bytes32"
        },
        {
          "internalType": "address",
          "name": "account",
          "type": "address"
        }
      ],
      "name": "revokeRole",
      "outputs": [],
      "stateMutability": "nonpayable",
      "type": "function"
    },
    {
      "inputs": [
        {
          "internalType": "uint256",
          "name": "raffleID",
          "type": "uint256"
        }
      ],
      "name": "sendNFTRewards",
      "outputs": [],
      "stateMutability": "nonpayable",
      "type": "function"
    },
    {
      "inputs": [
        {
          "internalType": "address",
          "name": "curator",
          "type": "address"
        }
      ],
      "name": "setCuratorRole",
      "outputs": [],
      "stateMutability": "nonpayable",
      "type": "function"
    },
    {
      "inputs": [
        {
          "internalType": "address",
          "name": "_DAOWallet",
          "type": "address"
        }
      ],
      "name": "setDAOWalletAddress",
      "outputs": [],
      "stateMutability": "nonpayable",
      "type": "function"
    },
    {
      "inputs": [
        {
          "internalType": "address",
          "name": "_nftAuthorWallet",
          "type": "address"
        }
      ],
      "name": "setNftAuthorWalletAddress",
      "outputs": [],
      "stateMutability": "nonpayable",
      "type": "function"
    },
    {
      "inputs": [
        {
          "internalType": "address",
          "name": "_forwarder",
          "type": "address"
        }
      ],
      "name": "setTrustedForwarder",
      "outputs": [],
      "stateMutability": "nonpayable",
      "type": "function"
    },
    {
      "inputs": [
        {
          "internalType": "bytes4",
          "name": "interfaceId",
          "type": "bytes4"
        }
      ],
      "name": "supportsInterface",
      "outputs": [
        {
          "internalType": "bool",
          "name": "",
          "type": "bool"
        }
      ],
      "stateMutability": "view",
      "type": "function"
    },
    {
      "inputs": [
        {
          "internalType": "uint256",
          "name": "amount",
          "type": "uint256"
        }
      ],
      "name": "topUpRewardTokenBalance",
      "outputs": [],
      "stateMutability": "nonpayable",
      "type": "function"
    },
    {
      "inputs": [
        {
          "internalType": "uint256",
          "name": "",
          "type": "uint256"
        },
        {
          "internalType": "address",
          "name": "",
          "type": "address"
        }
      ],
      "name": "totalDonationPerAddressPerCycle",
      "outputs": [
        {
          "internalType": "uint256",
          "name": "",
          "type": "uint256"
        }
      ],
      "stateMutability": "view",
      "type": "function"
    },
    {
      "inputs": [
        {
          "internalType": "address",
          "name": "newOwner",
          "type": "address"
        }
      ],
      "name": "transferOwnership",
      "outputs": [],
      "stateMutability": "nonpayable",
      "type": "function"
    },
    {
      "inputs": [],
      "name": "trustedForwarder",
      "outputs": [
        {
          "internalType": "address",
          "name": "",
          "type": "address"
        }
      ],
      "stateMutability": "view",
      "type": "function"
    },
    {
      "inputs": [],
      "name": "versionRecipient",
      "outputs": [
        {
          "internalType": "string",
          "name": "",
          "type": "string"
        }
      ],
      "stateMutability": "view",
      "type": "function"
    }
  ],
  "bytecode": "0x60c06040526005608081905264191719171b60d91b60a09081526200002891600b9190620002ac565b503480156200003657600080fd5b5060405162002d8938038062002d8983398101604081905262000059916200036f565b6200006d6200006762000115565b62000131565b6001600255600380546001600160a01b038481166001600160a01b03199283161790925560088054821686841617905560098054909116918316919091179055620000e87f850d585eb7f024ccee5e68e55f2c26cc72e1e6ee456acf62135757a5eb9d4a1060008051602062002d6983398151915262000181565b6200010c60008051602062002d698339815191526200010662000115565b620001ce565b505050620003f6565b60006200012c6200027660201b62001f301760201c565b905090565b600080546001600160a01b038381166001600160a01b0319831681178455604051919092169283917f8be0079c531659141344cd1fd0a4f28419497f9722a3daafe3b4186f6b6457e09190a35050565b6000828152600160208190526040808320909101805490849055905190918391839186917fbd79b86ffe0ab8e8776151514217cd7cacd52c909f66475c3af44e129f0b00ff9190a4505050565b60008281526001602090815260408083206001600160a01b038516845290915290205460ff16620002725760008281526001602081815260408084206001600160a01b0386168552909152909120805460ff191690911790556200023162000115565b6001600160a01b0316816001600160a01b0316837f2f8788117e7eff1d82e926ec794901d17c78024a50270940304540a733656f0d60405160405180910390a45b5050565b6000601436108015906200029457506003546001600160a01b031633145b15620002a7575060131936013560601c90565b503390565b828054620002ba90620003b9565b90600052602060002090601f016020900481019282620002de576000855562000329565b82601f10620002f957805160ff191683800117855562000329565b8280016001018555821562000329579182015b82811115620003295782518255916020019190600101906200030c565b50620003379291506200033b565b5090565b5b808211156200033757600081556001016200033c565b80516001600160a01b03811681146200036a57600080fd5b919050565b6000806000606084860312156200038557600080fd5b620003908462000352565b9250620003a06020850162000352565b9150620003b06040850162000352565b90509250925092565b600181811c90821680620003ce57607f821691505b60208210811415620003f057634e487b7160e01b600052602260045260246000fd5b50919050565b61296380620004066000396000f3fe6080604052600436106102d15760003560e01c806389a3027111610179578063c1996e7f116100d6578063ea36c6171161008a578063f23a6e6111610064578063f23a6e61146109e7578063f2fde38b14610a45578063f8626af814610a6557600080fd5b8063ea36c61714610926578063eaf03b401461095e578063ef07a81f1461098b57600080fd5b8063da742228116100bb578063da74222814610856578063dfdb5ae414610876578063e4dafec91461089657600080fd5b8063c1996e7f14610816578063d547741f1461083657600080fd5b8063a54c120c1161012d578063a8754ef111610112578063a8754ef1146107a9578063ba0e17cc146107d6578063be91e394146107f657600080fd5b8063a54c120c14610780578063a86bc7141461079657600080fd5b806391d148541161015e57806391d148541461070557806399248ea71461074b578063a217fddf1461076b57600080fd5b806389a30271146106c75780638da5cb5b146106e757600080fd5b8063572b6c051161023257806373e9fbb7116101e65780637da0a877116101c05780637da0a8771461066957806382b02eed1461068757806386d392ba146106a757600080fd5b806373e9fbb7146105c757806375b238fc146105e75780637859165f1461061b57600080fd5b80635f99223b116102175780635f99223b146105655780636e33846114610592578063715018a6146105b257600080fd5b8063572b6c051461047b5780635d4bc0ce146104aa57600080fd5b806336568abe11610289578063486ff0cd1161026e578063486ff0cd146103e25780634a2cfb54146104045780634c43adea1461043857600080fd5b806336568abe146103a25780633b940eb5146103c257600080fd5b8063248a9ca3116102ba578063248a9ca31461032d5780632abfab4d1461036c5780632f2ff15d1461038257600080fd5b806301ffc9a7146102d657806321a135441461030b575b600080fd5b3480156102e257600080fd5b506102f66102f1366004612405565b610adb565b60405190151581526020015b60405180910390f35b34801561031757600080fd5b5061032b61032636600461242f565b610b44565b005b34801561033957600080fd5b5061035e61034836600461242f565b6000908152600160208190526040909120015490565b604051908152602001610302565b34801561037857600080fd5b5061035e60075481565b34801561038e57600080fd5b5061032b61039d366004612464565b610f1c565b3480156103ae57600080fd5b5061032b6103bd366004612464565b610f4a565b3480156103ce57600080fd5b5061032b6103dd366004612490565b610feb565b3480156103ee57600080fd5b506103f7611042565b60405161030291906124db565b34801561041057600080fd5b5061035e7f850d585eb7f024ccee5e68e55f2c26cc72e1e6ee456acf62135757a5eb9d4a1081565b34801561044457600080fd5b5061035e610453366004612464565b6000918252600f602090815260408084206001600160a01b0393909316845291905290205490565b34801561048757600080fd5b506102f6610496366004612490565b6003546001600160a01b0391821691161490565b3480156104b657600080fd5b506105186104c536600461242f565b600c60205260009081526040902080546001820154600283015460038401546004850154600586015460068701546007909701546001600160a01b03968716979587169694959394929391929091169088565b604080516001600160a01b03998a16815297891660208901528701959095526060860193909352608085019190915260a084015290921660c082015260e081019190915261010001610302565b34801561057157600080fd5b5061035e61058036600461242f565b60009081526012602052604090205490565b34801561059e57600080fd5b5061032b6105ad366004612490565b6110d0565b3480156105be57600080fd5b5061032b61117a565b3480156105d357600080fd5b5061032b6105e2366004612490565b6111ff565b3480156105f357600080fd5b5061035e7fa49807205ce4d355092ef5a8a18f56e8913cf4a201fbe287825b095693c2177581565b34801561062757600080fd5b5061065161063636600461242f565b6000908152601160205260409020546001600160a01b031690565b6040516001600160a01b039091168152602001610302565b34801561067557600080fd5b506003546001600160a01b0316610651565b34801561069357600080fd5b50600554610651906001600160a01b031681565b3480156106b357600080fd5b506106516106c236600461250e565b611256565b3480156106d357600080fd5b50600854610651906001600160a01b031681565b3480156106f357600080fd5b506000546001600160a01b0316610651565b34801561071157600080fd5b506102f6610720366004612464565b60009182526001602090815260408084206001600160a01b0393909316845291905290205460ff1690565b34801561075757600080fd5b50600954610651906001600160a01b031681565b34801561077757600080fd5b5061035e600081565b34801561078c57600080fd5b5061035e60065481565b61035e6107a4366004612577565b61128e565b3480156107b557600080fd5b506107c96107c436600461242f565b6117fa565b60405161030291906125e2565b3480156107e257600080fd5b5061032b6107f136600461242f565b611866565b34801561080257600080fd5b5061035e61081136600461262f565b61194b565b34801561082257600080fd5b5061032b610831366004612490565b611b6c565b34801561084257600080fd5b5061032b610851366004612464565b611c0e565b34801561086257600080fd5b5061032b610871366004612490565b611c37565b34801561088257600080fd5b50600454610651906001600160a01b031681565b3480156108a257600080fd5b506108b66108b136600461242f565b611cd1565b60405161030291906000610100820190506001600160a01b0380845116835280602085015116602084015260408401516040840152606084015160608401526080840151608084015260a084015160a08401528060c08501511660c08401525060e083015160e083015292915050565b34801561093257600080fd5b5061035e610941366004612464565b600f60209081526000928352604080842090915290825290205481565b34801561096a57600080fd5b5061035e61097936600461242f565b6000908152600e602052604090205490565b34801561099757600080fd5b506109ab6109a636600461242f565b611db0565b604051610302919081516001600160a01b0316815260208083015190820152604080830151908201526060918201519181019190915260800190565b3480156109f357600080fd5b50610a2c610a023660046126d4565b7ff23a6e610000000000000000000000000000000000000000000000000000000095945050505050565b6040516001600160e01b03199091168152602001610302565b348015610a5157600080fd5b5061032b610a60366004612490565b611e32565b348015610a7157600080fd5b50610ab1610a8036600461242f565b600d6020526000908152604090208054600182015460028301546003909301546001600160a01b0390921692909184565b604080516001600160a01b0390951685526020850193909352918301526060820152608001610302565b60006001600160e01b031982167f7965db0b000000000000000000000000000000000000000000000000000000001480610b3e57507f01ffc9a7000000000000000000000000000000000000000000000000000000006001600160e01b03198316145b92915050565b7f850d585eb7f024ccee5e68e55f2c26cc72e1e6ee456acf62135757a5eb9d4a10610b7681610b71611f64565b611f73565b6000828152600c6020526040902060040154421015610bc1576040517fcdf268ad00000000000000000000000000000000000000000000000000000000815260040160405180910390fd5b6000610bcc83611ff3565b600084815260116020526040812054919250906001600160a01b03166000858152600c602052604080822080546002909101549151637921219560e11b81523060048201526001600160a01b038086166024830152604482018490526001606483015260a0608483015260a48201949094529394509190911691829063f242432a9060c401600060405180830381600087803b158015610c6b57600080fd5b505af1158015610c7f573d6000803e3d6000fd5b5050604080518981526001600160a01b03871660208201527f63e7f772eee17a2469656820a22f393914e4fb575e3a4170ec5d3b6187b5a743935001905060405180910390a1604051637921219560e11b81523060048201526001600160a01b038581166024830152604482018390526001606483015260a06084830152600060a483015283169063f242432a9060c401600060405180830381600087803b158015610d2a57600080fd5b505af1158015610d3e573d6000803e3d6000fd5b5050604080518981526001600160a01b03881660208201527f63e7f772eee17a2469656820a22f393914e4fb575e3a4170ec5d3b6187b5a743935001905060405180910390a160048054604051637921219560e11b815230928101929092526001600160a01b039081166024830152604482018390526001606483015260a06084830152600060a483015283169063f242432a9060c401600060405180830381600087803b158015610def57600080fd5b505af1158015610e03573d6000803e3d6000fd5b5050600454604080518a81526001600160a01b0390921660208301527f63e7f772eee17a2469656820a22f393914e4fb575e3a4170ec5d3b6187b5a743935001905060405180910390a1600554604051637921219560e11b81523060048201526001600160a01b039182166024820152604481018390526001606482015260a06084820152600060a48201529083169063f242432a9060c401600060405180830381600087803b158015610eb657600080fd5b505af1158015610eca573d6000803e3d6000fd5b5050600554604080518a81526001600160a01b0390921660208301527f63e7f772eee17a2469656820a22f393914e4fb575e3a4170ec5d3b6187b5a743935001905060405180910390a1505050505050565b60008281526001602081905260409091200154610f3b81610b71611f64565b610f458383612088565b505050565b610f52611f64565b6001600160a01b0316816001600160a01b031614610fdd5760405162461bcd60e51b815260206004820152602f60248201527f416363657373436f6e74726f6c3a2063616e206f6e6c792072656e6f756e636560448201527f20726f6c657320666f722073656c66000000000000000000000000000000000060648201526084015b60405180910390fd5b610fe7828261212c565b5050565b7fa49807205ce4d355092ef5a8a18f56e8913cf4a201fbe287825b095693c2177561101881610b71611f64565b610fe77f850d585eb7f024ccee5e68e55f2c26cc72e1e6ee456acf62135757a5eb9d4a1083612088565b600b805461104f9061279e565b80601f016020809104026020016040519081016040528092919081815260200182805461107b9061279e565b80156110c85780601f1061109d576101008083540402835291602001916110c8565b820191906000526020600020905b8154815290600101906020018083116110ab57829003601f168201915b505050505081565b7fa49807205ce4d355092ef5a8a18f56e8913cf4a201fbe287825b095693c217756110fd81610b71611f64565b6001600160a01b038216611124576040516342bcdf7f60e11b815260040160405180910390fd5b600480546001600160a01b0319166001600160a01b0384169081179091556040519081527f99e7e8f551bb4a95839337c445d25c103e8b923f563ec440667dd5c1bb5fa329906020015b60405180910390a15050565b611182611f64565b6001600160a01b031661119d6000546001600160a01b031690565b6001600160a01b0316146111f35760405162461bcd60e51b815260206004820181905260248201527f4f776e61626c653a2063616c6c6572206973206e6f7420746865206f776e65726044820152606401610fd4565b6111fd60006121cd565b565b7fa49807205ce4d355092ef5a8a18f56e8913cf4a201fbe287825b095693c2177561122c81610b71611f64565b610fe77f850d585eb7f024ccee5e68e55f2c26cc72e1e6ee456acf62135757a5eb9d4a1083611c0e565b6010602052816000526040600020818154811061127257600080fd5b6000918252602090912001546001600160a01b03169150829050565b60006002805414156112e25760405162461bcd60e51b815260206004820152601f60248201527f5265656e7472616e637947756172643a207265656e7472616e742063616c6c006044820152606401610fd4565b60028080556020808401516000818152600c808452604080832081516101008101835281546001600160a01b0390811682526001830154811682890152978201549281019290925260038101546060830152600481015460808301819052600582015460a0840152600682015490971660c08301526007015460e082015291839052909252914211156113a1576040517fd328a25200000000000000000000000000000000000000000000000000000000815260040160405180910390fd5b6000828152600c6020526040908190206005015490850151116113f0576040517f7957a08500000000000000000000000000000000000000000000000000000000815260040160405180910390fd5b60078054906000611400836127e9565b909155505042606085019081526007546000908152600d60209081526040808320885181546001600160a01b0319166001600160a01b0390911617815582890151600182015581890151600282018190559451600390910155858352600f90915281209061146c611f64565b6001600160a01b03166001600160a01b03168152602001908152602001600020600082825461149b9190612804565b90915550506040808501516000848152600e6020529182208054919290916114c4908490612804565b909155505060008281526010602052604090206114df611f64565b81546001810183556000928352602080842090910180546001600160a01b0319166001600160a01b039390931692909217909155838252600f90526040812081611527611f64565b6001600160a01b0316815260208101919091526040016000205460e0830151909150611551611f64565b6001600160a01b03168360c001516001600160a01b031614156116195785604001518360e0018181516115849190612804565b9052506000848152600c6020908152604091829020855181546001600160a01b03199081166001600160a01b03928316178355928701516001830180548516918316919091179055928601516002820155606086015160038201556080860151600482015560a0860151600582015560c0860151600682018054909316931692909217905560e08401516007909101556116f6565b808211156116f65760e083018290526000848152601260205260409020829055611641611f64565b6001600160a01b031660c0840152611657611f64565b600085815260116020908152604080832080546001600160a01b03199081166001600160a01b0396871617909155600c8352928190208751815485169086161781559187015160018301805485169186169190911790558601516002820155606086015160038201556080860151600482015560a0860151600582015560c0860151600682018054909316931692909217905560e08401516007909101555b6008546001600160a01b03166323b872dd61170f611f64565b6004805460408b810151905160e086901b6001600160e01b03191681526001600160a01b03948516938101939093529216602482015260448101919091526064016020604051808303816000875af115801561176f573d6000803e3d6000fd5b505050506040513d601f19601f82011682018060405250810190611793919061281c565b507fdd5f9bf5cf036a4da6a1035c7f29f422c275d1e6f6b9e2a552e3e54228b390a56117bd611f64565b60408089015181516001600160a01b039093168352602083018890529082015260600160405180910390a150506007546001600255949350505050565b60008181526010602090815260409182902080548351818402810184019094528084526060939283018282801561185a57602002820191906000526020600020905b81546001600160a01b0316815260019091019060200180831161183c575b50505050509050919050565b7fa49807205ce4d355092ef5a8a18f56e8913cf4a201fbe287825b095693c2177561189381610b71611f64565b600954600480546040517f23b872dd0000000000000000000000000000000000000000000000000000000081526001600160a01b039182169281019290925230602483015260448201859052909116906323b872dd906064016020604051808303816000875af115801561190b573d6000803e3d6000fd5b505050506040513d601f19601f8201168201806040525081019061192f919061281c565b5081600a60008282546119429190612804565b90915550505050565b60007f850d585eb7f024ccee5e68e55f2c26cc72e1e6ee456acf62135757a5eb9d4a1061197a81610b71611f64565b82516080840151606085015111156119be576040517fd22dcab600000000000000000000000000000000000000000000000000000000815260040160405180910390fd5b600680549060006119ce836127e9565b9091555050600680546000908152600c6020908152604091829020875181546001600160a01b039182166001600160a01b031991821617835592890151600183018054828416908616179055848a01516002840181905560608b01516003850181905560808c01516004860181905560a08d01516005870181905560c08e015199870180549a909616999097169890981790935560e08b015160079094019390935593517f1b1c288b734d07fa03889b4efe2a9e475e25c8e24eb971dd088dee01c54fc69095611ac9959490916001600160a01b03959095168552602085019390935260408401919091526060830152608082015260a00190565b60405180910390a160208401516040808601519051637921219560e11b81526001600160a01b039283166004808301919091523060248301526044820192909252606481019190915260a06084820152600060a48201529082169063f242432a9060c401600060405180830381600087803b158015611b4757600080fd5b505af1158015611b5b573d6000803e3d6000fd5b505050506006549250505b50919050565b7f850d585eb7f024ccee5e68e55f2c26cc72e1e6ee456acf62135757a5eb9d4a10611b9981610b71611f64565b6001600160a01b038216611bc0576040516342bcdf7f60e11b815260040160405180910390fd5b600580546001600160a01b0319166001600160a01b0384169081179091556040519081527fa099340b9009966c80f2d51f8425c15ffe5713a8c732f3d9e3b0d213ad03e35b9060200161116e565b60008281526001602081905260409091200154611c2d81610b71611f64565b610f45838361212c565b611c3f611f64565b6001600160a01b0316611c5a6000546001600160a01b031690565b6001600160a01b031614611cb05760405162461bcd60e51b815260206004820181905260248201527f4f776e61626c653a2063616c6c6572206973206e6f7420746865206f776e65726044820152606401610fd4565b600380546001600160a01b0319166001600160a01b03831617905550565b50565b611d3460405180610100016040528060006001600160a01b0316815260200160006001600160a01b031681526020016000815260200160008152602001600081526020016000815260200160006001600160a01b03168152602001600081525090565b506000908152600c602090815260409182902082516101008101845281546001600160a01b03908116825260018301548116938201939093526002820154938101939093526003810154606084015260048101546080840152600581015460a0840152600681015490911660c08301526007015460e082015290565b611de4604051806080016040528060006001600160a01b031681526020016000815260200160008152602001600081525090565b506000908152600d6020908152604091829020825160808101845281546001600160a01b03168152600182015492810192909252600281015492820192909252600390910154606082015290565b611e3a611f64565b6001600160a01b0316611e556000546001600160a01b031690565b6001600160a01b031614611eab5760405162461bcd60e51b815260206004820181905260248201527f4f776e61626c653a2063616c6c6572206973206e6f7420746865206f776e65726044820152606401610fd4565b6001600160a01b038116611f275760405162461bcd60e51b815260206004820152602660248201527f4f776e61626c653a206e6577206f776e657220697320746865207a65726f206160448201527f64647265737300000000000000000000000000000000000000000000000000006064820152608401610fd4565b611cce816121cd565b600060143610801590611f4d57506003546001600160a01b031633145b15611f5f575060131936013560601c90565b503390565b6000611f6e611f30565b905090565b60008281526001602090815260408083206001600160a01b038516845290915290205460ff16610fe757611fb1816001600160a01b0316601461221d565b611fbc83602061221d565b604051602001611fcd92919061283e565b60408051601f198184030181529082905262461bcd60e51b8252610fd4916004016124db565b60008181526010602090815260408083205481514281850152438184015244606082015260808082018790528351808303909101815260a09091019092528151919092012082906120459083906128bf565b6000858152601060205260408120805492935090918390811061206a5761206a6128e1565b6000918252602090912001546001600160a01b031695945050505050565b60008281526001602090815260408083206001600160a01b038516845290915290205460ff16610fe75760008281526001602081815260408084206001600160a01b0386168552909152909120805460ff191690911790556120e8611f64565b6001600160a01b0316816001600160a01b0316837f2f8788117e7eff1d82e926ec794901d17c78024a50270940304540a733656f0d60405160405180910390a45050565b60008281526001602090815260408083206001600160a01b038516845290915290205460ff1615610fe75760008281526001602090815260408083206001600160a01b03851684529091529020805460ff19169055612189611f64565b6001600160a01b0316816001600160a01b0316837ff6391f5c32d9c69d2a47ea670b442974b53935d1edc7fd64eb21e047a839171b60405160405180910390a45050565b600080546001600160a01b038381166001600160a01b0319831681178455604051919092169283917f8be0079c531659141344cd1fd0a4f28419497f9722a3daafe3b4186f6b6457e09190a35050565b6060600061222c8360026128f7565b612237906002612804565b67ffffffffffffffff81111561224f5761224f612530565b6040519080825280601f01601f191660200182016040528015612279576020820181803683370190505b5090507f3000000000000000000000000000000000000000000000000000000000000000816000815181106122b0576122b06128e1565b60200101906001600160f81b031916908160001a9053507f7800000000000000000000000000000000000000000000000000000000000000816001815181106122fb576122fb6128e1565b60200101906001600160f81b031916908160001a905350600061231f8460026128f7565b61232a906001612804565b90505b60018111156123af577f303132333435363738396162636465660000000000000000000000000000000085600f166010811061236b5761236b6128e1565b1a60f81b828281518110612381576123816128e1565b60200101906001600160f81b031916908160001a90535060049490941c936123a881612916565b905061232d565b5083156123fe5760405162461bcd60e51b815260206004820181905260248201527f537472696e67733a20686578206c656e67746820696e73756666696369656e746044820152606401610fd4565b9392505050565b60006020828403121561241757600080fd5b81356001600160e01b0319811681146123fe57600080fd5b60006020828403121561244157600080fd5b5035919050565b80356001600160a01b038116811461245f57600080fd5b919050565b6000806040838503121561247757600080fd5b8235915061248760208401612448565b90509250929050565b6000602082840312156124a257600080fd5b6123fe82612448565b60005b838110156124c65781810151838201526020016124ae565b838111156124d5576000848401525b50505050565b60208152600082518060208401526124fa8160408501602087016124ab565b601f01601f19169190910160400192915050565b6000806040838503121561252157600080fd5b50508035926020909101359150565b634e487b7160e01b600052604160045260246000fd5b604051601f8201601f1916810167ffffffffffffffff8111828210171561256f5761256f612530565b604052919050565b60006080828403121561258957600080fd5b6040516080810181811067ffffffffffffffff821117156125ac576125ac612530565b6040526125b883612448565b81526020830135602082015260408301356040820152606083013560608201528091505092915050565b6020808252825182820181905260009190848201906040850190845b818110156126235783516001600160a01b0316835292840192918401916001016125fe565b50909695505050505050565b600061010080838503121561264357600080fd5b6040519081019067ffffffffffffffff8211818310171561266657612666612530565b8160405261267384612448565b815261268160208501612448565b602082015260408401356040820152606084013560608201526080840135608082015260a084013560a08201526126ba60c08501612448565b60c082015260e084013560e0820152809250505092915050565b600080600080600060a086880312156126ec57600080fd5b6126f586612448565b94506020612704818801612448565b94506040870135935060608701359250608087013567ffffffffffffffff8082111561272f57600080fd5b818901915089601f83011261274357600080fd5b81358181111561275557612755612530565b612767601f8201601f19168501612546565b91508082528a8482850101111561277d57600080fd5b80848401858401376000848284010152508093505050509295509295909350565b600181811c908216806127b257607f821691505b60208210811415611b6657634e487b7160e01b600052602260045260246000fd5b634e487b7160e01b600052601160045260246000fd5b60006000198214156127fd576127fd6127d3565b5060010190565b60008219821115612817576128176127d3565b500190565b60006020828403121561282e57600080fd5b815180151581146123fe57600080fd5b7f416363657373436f6e74726f6c3a206163636f756e74200000000000000000008152600083516128768160178501602088016124ab565b7f206973206d697373696e6720726f6c652000000000000000000000000000000060179184019182015283516128b38160288401602088016124ab565b01602801949350505050565b6000826128dc57634e487b7160e01b600052601260045260246000fd5b500690565b634e487b7160e01b600052603260045260246000fd5b6000816000190483118215151615612911576129116127d3565b500290565b600081612925576129256127d3565b50600019019056fea264697066735822122001f3b64c7865bb39bf0eb10c2be4b4cb9d30816299f2c2248447f1f7e3681d0264736f6c634300080b0033a49807205ce4d355092ef5a8a18f56e8913cf4a201fbe287825b095693c21775",
  "linkReferences": {},
  "deployedLinkReferences": {}
}