{
  "_format": "hh-sol-artifact-1",
  "contractName": "Raffle",
  "sourceName": "contracts/Raffle.sol",
  "abi": [
    {
      "inputs": [
        {
          "internalType": "address",
          "name": "_usdc",
          "type": "address"
        }
      ],
      "stateMutability": "nonpayable",
      "type": "constructor"
    },
    {
      "inputs": [],
      "name": "DonationTooLow",
      "type": "error"
    },
    {
      "inputs": [],
      "name": "IncorrectTimesGiven",
      "type": "error"
    },
    {
      "inputs": [],
      "name": "RaffleHasEnded",
      "type": "error"
    },
    {
      "inputs": [],
      "name": "RaffleHasNotEnded",
      "type": "error"
    },
    {
      "inputs": [],
      "name": "ZeroAddressNotAllowed",
      "type": "error"
    },
    {
      "anonymous": false,
      "inputs": [
        {
          "indexed": false,
          "internalType": "address",
          "name": "walletAddress",
          "type": "address"
        }
      ],
      "name": "DAOWalletAddressSet",
      "type": "event"
    },
    {
      "anonymous": false,
      "inputs": [
        {
          "indexed": false,
          "internalType": "address",
          "name": "from",
          "type": "address"
        },
        {
          "indexed": false,
          "internalType": "uint256",
          "name": "raffleId",
          "type": "uint256"
        },
        {
          "indexed": false,
          "internalType": "uint256",
          "name": "amount",
          "type": "uint256"
        }
      ],
      "name": "DonationPlaced",
      "type": "event"
    },
    {
      "anonymous": false,
      "inputs": [
        {
          "indexed": false,
          "internalType": "uint256",
          "name": "raffleID",
          "type": "uint256"
        },
        {
          "indexed": false,
          "internalType": "address",
          "name": "winner",
          "type": "address"
        }
      ],
      "name": "NFTsentToWinner",
      "type": "event"
    },
    {
      "anonymous": false,
      "inputs": [
        {
          "indexed": true,
          "internalType": "address",
          "name": "previousOwner",
          "type": "address"
        },
        {
          "indexed": true,
          "internalType": "address",
          "name": "newOwner",
          "type": "address"
        }
      ],
      "name": "OwnershipTransferred",
      "type": "event"
    },
    {
      "anonymous": false,
      "inputs": [
        {
          "indexed": false,
          "internalType": "uint256",
          "name": "startTime",
          "type": "uint256"
        },
        {
          "indexed": false,
          "internalType": "uint256",
          "name": "endTime",
          "type": "uint256"
        },
        {
          "indexed": false,
          "internalType": "uint256",
          "name": "minimumDonationAmount",
          "type": "uint256"
        }
      ],
      "name": "RaffleCreated",
      "type": "event"
    },
    {
      "anonymous": false,
      "inputs": [
        {
          "indexed": true,
          "internalType": "bytes32",
          "name": "role",
          "type": "bytes32"
        },
        {
          "indexed": true,
          "internalType": "bytes32",
          "name": "previousAdminRole",
          "type": "bytes32"
        },
        {
          "indexed": true,
          "internalType": "bytes32",
          "name": "newAdminRole",
          "type": "bytes32"
        }
      ],
      "name": "RoleAdminChanged",
      "type": "event"
    },
    {
      "anonymous": false,
      "inputs": [
        {
          "indexed": true,
          "internalType": "bytes32",
          "name": "role",
          "type": "bytes32"
        },
        {
          "indexed": true,
          "internalType": "address",
          "name": "account",
          "type": "address"
        },
        {
          "indexed": true,
          "internalType": "address",
          "name": "sender",
          "type": "address"
        }
      ],
      "name": "RoleGranted",
      "type": "event"
    },
    {
      "anonymous": false,
      "inputs": [
        {
          "indexed": true,
          "internalType": "bytes32",
          "name": "role",
          "type": "bytes32"
        },
        {
          "indexed": true,
          "internalType": "address",
          "name": "account",
          "type": "address"
        },
        {
          "indexed": true,
          "internalType": "address",
          "name": "sender",
          "type": "address"
        }
      ],
      "name": "RoleRevoked",
      "type": "event"
    },
    {
      "anonymous": false,
      "inputs": [
        {
          "indexed": false,
          "internalType": "address",
          "name": "nftAuthorWallet",
          "type": "address"
        }
      ],
      "name": "nftAuthorWalletAddressSet",
      "type": "event"
    },
    {
      "inputs": [],
      "name": "CURATOR_ROLE",
      "outputs": [
        {
          "internalType": "bytes32",
          "name": "",
          "type": "bytes32"
        }
      ],
      "stateMutability": "view",
      "type": "function"
    },
    {
      "inputs": [],
      "name": "DAOWallet",
      "outputs": [
        {
          "internalType": "address",
          "name": "",
          "type": "address"
        }
      ],
      "stateMutability": "view",
      "type": "function"
    },
    {
      "inputs": [],
      "name": "DEFAULT_ADMIN_ROLE",
      "outputs": [
        {
          "internalType": "bytes32",
          "name": "",
          "type": "bytes32"
        }
      ],
      "stateMutability": "view",
      "type": "function"
    },
    {
      "inputs": [],
      "name": "USDC",
      "outputs": [
        {
          "internalType": "contract IERC20",
          "name": "",
          "type": "address"
        }
      ],
      "stateMutability": "view",
      "type": "function"
    },
    {
      "inputs": [
        {
          "components": [
            {
              "internalType": "address",
              "name": "nftContract",
              "type": "address"
            },
            {
              "internalType": "address",
              "name": "nftOwner",
              "type": "address"
            },
            {
              "internalType": "uint256",
              "name": "tokenID",
              "type": "uint256"
            },
            {
              "internalType": "uint256",
              "name": "startTime",
              "type": "uint256"
            },
            {
              "internalType": "uint256",
              "name": "endTime",
              "type": "uint256"
            },
            {
              "internalType": "uint256",
              "name": "minimumDonationAmount",
              "type": "uint256"
            },
            {
              "internalType": "address",
              "name": "topDonor",
              "type": "address"
            },
            {
              "internalType": "uint256",
              "name": "topDonatedAmount",
              "type": "uint256"
            }
          ],
          "internalType": "struct Raffle.Raffle",
          "name": "_raffle",
          "type": "tuple"
        }
      ],
      "name": "createRaffle",
      "outputs": [
        {
          "internalType": "uint256",
          "name": "",
          "type": "uint256"
        }
      ],
      "stateMutability": "nonpayable",
      "type": "function"
    },
    {
      "inputs": [
        {
          "components": [
            {
              "internalType": "uint256",
              "name": "raffleID",
              "type": "uint256"
            },
            {
              "internalType": "uint256",
              "name": "amount",
              "type": "uint256"
            },
            {
              "internalType": "uint256",
              "name": "timestamp",
              "type": "uint256"
            }
          ],
          "internalType": "struct Raffle.Donation",
          "name": "_donation",
          "type": "tuple"
        }
      ],
      "name": "donate",
      "outputs": [
        {
          "internalType": "uint256",
          "name": "",
          "type": "uint256"
        }
      ],
      "stateMutability": "payable",
      "type": "function"
    },
    {
      "inputs": [],
      "name": "donationCount",
      "outputs": [
        {
          "internalType": "uint256",
          "name": "",
          "type": "uint256"
        }
      ],
      "stateMutability": "view",
      "type": "function"
    },
    {
      "inputs": [
        {
          "internalType": "uint256",
          "name": "",
          "type": "uint256"
        }
      ],
      "name": "donations",
      "outputs": [
        {
          "internalType": "uint256",
          "name": "raffleID",
          "type": "uint256"
        },
        {
          "internalType": "uint256",
          "name": "amount",
          "type": "uint256"
        },
        {
          "internalType": "uint256",
          "name": "timestamp",
          "type": "uint256"
        }
      ],
      "stateMutability": "view",
      "type": "function"
    },
    {
      "inputs": [
        {
          "internalType": "uint256",
          "name": "",
          "type": "uint256"
        },
        {
          "internalType": "uint256",
          "name": "",
          "type": "uint256"
        }
      ],
      "name": "donorsArrayPerCycle",
      "outputs": [
        {
          "internalType": "address",
          "name": "",
          "type": "address"
        }
      ],
      "stateMutability": "view",
      "type": "function"
    },
    {
      "inputs": [
        {
          "internalType": "address",
          "name": "donor",
          "type": "address"
        },
        {
          "internalType": "uint256",
          "name": "raffleID",
          "type": "uint256"
        }
      ],
      "name": "getDonationCountPerAddressPerCycle",
      "outputs": [
        {
          "internalType": "uint256",
          "name": "",
          "type": "uint256"
        }
      ],
      "stateMutability": "nonpayable",
      "type": "function"
    },
    {
      "inputs": [
        {
          "internalType": "uint256",
          "name": "raffleID",
          "type": "uint256"
        }
      ],
      "name": "getDonorsPerCycle",
      "outputs": [
        {
          "internalType": "address[]",
          "name": "",
          "type": "address[]"
        }
      ],
      "stateMutability": "view",
      "type": "function"
    },
    {
      "inputs": [
        {
          "internalType": "uint256",
          "name": "raffleID",
          "type": "uint256"
        }
      ],
      "name": "getHighestDonationPerCycle",
      "outputs": [
        {
          "internalType": "uint256",
          "name": "",
          "type": "uint256"
        }
      ],
      "stateMutability": "view",
      "type": "function"
    },
    {
      "inputs": [
        {
          "internalType": "uint256",
          "name": "raffleID",
          "type": "uint256"
        }
      ],
      "name": "getRaffle",
      "outputs": [
        {
          "components": [
            {
              "internalType": "address",
              "name": "nftContract",
              "type": "address"
            },
            {
              "internalType": "address",
              "name": "nftOwner",
              "type": "address"
            },
            {
              "internalType": "uint256",
              "name": "tokenID",
              "type": "uint256"
            },
            {
              "internalType": "uint256",
              "name": "startTime",
              "type": "uint256"
            },
            {
              "internalType": "uint256",
              "name": "endTime",
              "type": "uint256"
            },
            {
              "internalType": "uint256",
              "name": "minimumDonationAmount",
              "type": "uint256"
            },
            {
              "internalType": "address",
              "name": "topDonor",
              "type": "address"
            },
            {
              "internalType": "uint256",
              "name": "topDonatedAmount",
              "type": "uint256"
            }
          ],
          "internalType": "struct Raffle.Raffle",
          "name": "",
          "type": "tuple"
        }
      ],
      "stateMutability": "view",
      "type": "function"
    },
    {
      "inputs": [
        {
          "internalType": "bytes32",
          "name": "role",
          "type": "bytes32"
        }
      ],
      "name": "getRoleAdmin",
      "outputs": [
        {
          "internalType": "bytes32",
          "name": "",
          "type": "bytes32"
        }
      ],
      "stateMutability": "view",
      "type": "function"
    },
    {
      "inputs": [
        {
          "internalType": "uint256",
          "name": "raffleID",
          "type": "uint256"
        }
      ],
      "name": "getTopDonor",
      "outputs": [
        {
          "internalType": "address",
          "name": "",
          "type": "address"
        }
      ],
      "stateMutability": "view",
      "type": "function"
    },
    {
      "inputs": [
        {
          "internalType": "uint256",
          "name": "raffleID",
          "type": "uint256"
        },
        {
          "internalType": "address",
          "name": "account",
          "type": "address"
        }
      ],
      "name": "getTotalDonationPerAddressPerCycle",
      "outputs": [
        {
          "internalType": "uint256",
          "name": "",
          "type": "uint256"
        }
      ],
      "stateMutability": "view",
      "type": "function"
    },
    {
      "inputs": [
        {
          "internalType": "uint256",
          "name": "raffleID",
          "type": "uint256"
        }
      ],
      "name": "getTotalDonationsPerCycle",
      "outputs": [
        {
          "internalType": "uint256",
          "name": "",
          "type": "uint256"
        }
      ],
      "stateMutability": "view",
      "type": "function"
    },
    {
      "inputs": [
        {
          "internalType": "bytes32",
          "name": "role",
          "type": "bytes32"
        },
        {
          "internalType": "address",
          "name": "account",
          "type": "address"
        }
      ],
      "name": "grantRole",
      "outputs": [],
      "stateMutability": "nonpayable",
      "type": "function"
    },
    {
      "inputs": [
        {
          "internalType": "bytes32",
          "name": "role",
          "type": "bytes32"
        },
        {
          "internalType": "address",
          "name": "account",
          "type": "address"
        }
      ],
      "name": "hasRole",
      "outputs": [
        {
          "internalType": "bool",
          "name": "",
          "type": "bool"
        }
      ],
      "stateMutability": "view",
      "type": "function"
    },
    {
      "inputs": [],
      "name": "nftAuthorWallet",
      "outputs": [
        {
          "internalType": "address",
          "name": "",
          "type": "address"
        }
      ],
      "stateMutability": "view",
      "type": "function"
    },
    {
      "inputs": [
        {
          "internalType": "address",
          "name": "operator",
          "type": "address"
        },
        {
          "internalType": "address",
          "name": "from",
          "type": "address"
        },
        {
          "internalType": "uint256",
          "name": "id",
          "type": "uint256"
        },
        {
          "internalType": "uint256",
          "name": "value",
          "type": "uint256"
        },
        {
          "internalType": "bytes",
          "name": "data",
          "type": "bytes"
        }
      ],
      "name": "onERC1155Received",
      "outputs": [
        {
          "internalType": "bytes4",
          "name": "",
          "type": "bytes4"
        }
      ],
      "stateMutability": "pure",
      "type": "function"
    },
    {
      "inputs": [],
      "name": "owner",
      "outputs": [
        {
          "internalType": "address",
          "name": "",
          "type": "address"
        }
      ],
      "stateMutability": "view",
      "type": "function"
    },
    {
      "inputs": [],
      "name": "raffleCount",
      "outputs": [
        {
          "internalType": "uint256",
          "name": "",
          "type": "uint256"
        }
      ],
      "stateMutability": "view",
      "type": "function"
    },
    {
      "inputs": [
        {
          "internalType": "uint256",
          "name": "",
          "type": "uint256"
        }
      ],
      "name": "raffles",
      "outputs": [
        {
          "internalType": "address",
          "name": "nftContract",
          "type": "address"
        },
        {
          "internalType": "address",
          "name": "nftOwner",
          "type": "address"
        },
        {
          "internalType": "uint256",
          "name": "tokenID",
          "type": "uint256"
        },
        {
          "internalType": "uint256",
          "name": "startTime",
          "type": "uint256"
        },
        {
          "internalType": "uint256",
          "name": "endTime",
          "type": "uint256"
        },
        {
          "internalType": "uint256",
          "name": "minimumDonationAmount",
          "type": "uint256"
        },
        {
          "internalType": "address",
          "name": "topDonor",
          "type": "address"
        },
        {
          "internalType": "uint256",
          "name": "topDonatedAmount",
          "type": "uint256"
        }
      ],
      "stateMutability": "view",
      "type": "function"
    },
    {
      "inputs": [],
      "name": "renounceOwnership",
      "outputs": [],
      "stateMutability": "nonpayable",
      "type": "function"
    },
    {
      "inputs": [
        {
          "internalType": "bytes32",
          "name": "role",
          "type": "bytes32"
        },
        {
          "internalType": "address",
          "name": "account",
          "type": "address"
        }
      ],
      "name": "renounceRole",
      "outputs": [],
      "stateMutability": "nonpayable",
      "type": "function"
    },
    {
      "inputs": [
        {
          "internalType": "bytes32",
          "name": "role",
          "type": "bytes32"
        },
        {
          "internalType": "address",
          "name": "account",
          "type": "address"
        }
      ],
      "name": "revokeRole",
      "outputs": [],
      "stateMutability": "nonpayable",
      "type": "function"
    },
    {
      "inputs": [
        {
          "internalType": "uint256",
          "name": "raffleID",
          "type": "uint256"
        }
      ],
      "name": "sendNFTRewards",
      "outputs": [],
      "stateMutability": "nonpayable",
      "type": "function"
    },
    {
      "inputs": [
        {
          "internalType": "address",
          "name": "curator",
          "type": "address"
        }
      ],
      "name": "setCuratorRole",
      "outputs": [],
      "stateMutability": "nonpayable",
      "type": "function"
    },
    {
      "inputs": [
        {
          "internalType": "address",
          "name": "_DAOWallet",
          "type": "address"
        }
      ],
      "name": "setDAOWalletAddress",
      "outputs": [],
      "stateMutability": "nonpayable",
      "type": "function"
    },
    {
      "inputs": [
        {
          "internalType": "address",
          "name": "_nftAuthorWallet",
          "type": "address"
        }
      ],
      "name": "setNftAuthorWalletAddress",
      "outputs": [],
      "stateMutability": "nonpayable",
      "type": "function"
    },
    {
      "inputs": [
        {
          "internalType": "bytes4",
          "name": "interfaceId",
          "type": "bytes4"
        }
      ],
      "name": "supportsInterface",
      "outputs": [
        {
          "internalType": "bool",
          "name": "",
          "type": "bool"
        }
      ],
      "stateMutability": "view",
      "type": "function"
    },
    {
      "inputs": [
        {
          "internalType": "uint256",
          "name": "",
          "type": "uint256"
        },
        {
          "internalType": "address",
          "name": "",
          "type": "address"
        }
      ],
      "name": "totalDonationPerAddressPerCycle",
      "outputs": [
        {
          "internalType": "uint256",
          "name": "",
          "type": "uint256"
        }
      ],
      "stateMutability": "view",
      "type": "function"
    },
    {
      "inputs": [
        {
          "internalType": "address",
          "name": "newOwner",
          "type": "address"
        }
      ],
      "name": "transferOwnership",
      "outputs": [],
      "stateMutability": "nonpayable",
      "type": "function"
    }
  ],
  "bytecode": "0x60806040523480156200001157600080fd5b506040516200244c3803806200244c8339810160408190526200003491620000ba565b6200003f336200006a565b6001600255600780546001600160a01b0319166001600160a01b0392909216919091179055620000ec565b600080546001600160a01b038381166001600160a01b0319831681178455604051919092169283917f8be0079c531659141344cd1fd0a4f28419497f9722a3daafe3b4186f6b6457e09190a35050565b600060208284031215620000cd57600080fd5b81516001600160a01b0381168114620000e557600080fd5b9392505050565b61235080620000fc6000396000f3fe6080604052600436106102195760003560e01c806389a302711161011d578063d547741f116100b0578063ea36c6171161007f578063f23a6e6111610064578063f23a6e61146107f3578063f2fde38b14610851578063f8626af81461087157600080fd5b8063ea36c6171461078e578063eaf03b40146107c657600080fd5b8063d547741f1461067b578063dfdb5ae41461069b578063e4dafec9146106bb578063e83ed8501461074b57600080fd5b8063a54c120c116100ec578063a54c120c146105f8578063a8754ef11461060e578063be91e3941461063b578063c1996e7f1461065b57600080fd5b806389a302711461055f5780638da5cb5b1461057f57806391d148541461059d578063a217fddf146105e357600080fd5b80634a2cfb54116101b05780636e3384611161017f5780637859165f116101645780637859165f146104d157806382b02eed1461051f57806386d392ba1461053f57600080fd5b80636e3384611461049c578063715018a6146104bc57600080fd5b80634a2cfb541461033d5780634c43adea146103715780635d4bc0ce146103b45780635f99223b1461046f57600080fd5b80632abfab4d116101ec5780632abfab4d146102c75780632f2ff15d146102dd57806336568abe146102fd5780633b940eb51461031d57600080fd5b806301ffc9a71461021e57806321a1354414610253578063248a9ca3146102755780632648bc7e146102b4575b600080fd5b34801561022a57600080fd5b5061023e610239366004611e0c565b6108c8565b60405190151581526020015b60405180910390f35b34801561025f57600080fd5b5061027361026e366004611e36565b610931565b005b34801561028157600080fd5b506102a6610290366004611e36565b6000908152600160208190526040909120015490565b60405190815260200161024a565b6102a66102c2366004611e96565b610d35565b3480156102d357600080fd5b506102a660065481565b3480156102e957600080fd5b506102736102f8366004611f0e565b6111ed565b34801561030957600080fd5b50610273610318366004611f0e565b611219565b34801561032957600080fd5b50610273610338366004611f3a565b6112a5565b34801561034957600080fd5b506102a67f850d585eb7f024ccee5e68e55f2c26cc72e1e6ee456acf62135757a5eb9d4a1081565b34801561037d57600080fd5b506102a661038c366004611f0e565b6000918252600b602090815260408084206001600160a01b0393909316845291905290205490565b3480156103c057600080fd5b506104226103cf366004611e36565b600860205260009081526040902080546001820154600283015460038401546004850154600586015460068701546007909701546001600160a01b03968716979587169694959394929391929091169088565b604080516001600160a01b03998a16815297891660208901528701959095526060860193909352608085019190915260a084015290921660c082015260e08101919091526101000161024a565b34801561047b57600080fd5b506102a661048a366004611e36565b6000908152600e602052604090205490565b3480156104a857600080fd5b506102736104b7366004611f3a565b61132c565b3480156104c857600080fd5b50610273611402565b3480156104dd57600080fd5b506105076104ec366004611e36565b6000908152600d60205260409020546001600160a01b031690565b6040516001600160a01b03909116815260200161024a565b34801561052b57600080fd5b50600454610507906001600160a01b031681565b34801561054b57600080fd5b5061050761055a366004611f55565b611468565b34801561056b57600080fd5b50600754610507906001600160a01b031681565b34801561058b57600080fd5b506000546001600160a01b0316610507565b3480156105a957600080fd5b5061023e6105b8366004611f0e565b60009182526001602090815260408084206001600160a01b0393909316845291905290205460ff1690565b3480156105ef57600080fd5b506102a6600081565b34801561060457600080fd5b506102a660055481565b34801561061a57600080fd5b5061062e610629366004611e36565b6114a0565b60405161024a9190611f77565b34801561064757600080fd5b506102a6610656366004611fc4565b61150c565b34801561066757600080fd5b50610273610676366004611f3a565b611701565b34801561068757600080fd5b50610273610696366004611f0e565b6117d0565b3480156106a757600080fd5b50600354610507906001600160a01b031681565b3480156106c757600080fd5b506106db6106d6366004611e36565b6117f7565b60405161024a91906000610100820190506001600160a01b0380845116835280602085015116602084015260408401516040840152606084015160608401526080840151608084015260a084015160a08401528060c08501511660c08401525060e083015160e083015292915050565b34801561075757600080fd5b506102a6610766366004612069565b6001600160a01b03919091166000908152600f60209081526040808320938352929052205490565b34801561079a57600080fd5b506102a66107a9366004611f0e565b600b60209081526000928352604080842090915290825290205481565b3480156107d257600080fd5b506102a66107e1366004611e36565b6000908152600a602052604090205490565b3480156107ff57600080fd5b5061083861080e366004612093565b7ff23a6e610000000000000000000000000000000000000000000000000000000095945050505050565b6040516001600160e01b0319909116815260200161024a565b34801561085d57600080fd5b5061027361086c366004611f3a565b6118d6565b34801561087d57600080fd5b506108ad61088c366004611e36565b60096020526000908152604090208054600182015460029092015490919083565b6040805193845260208401929092529082015260600161024a565b60006001600160e01b031982167f7965db0b00000000000000000000000000000000000000000000000000000000148061092b57507f01ffc9a7000000000000000000000000000000000000000000000000000000006001600160e01b03198316145b92915050565b6000546001600160a01b031633146109905760405162461bcd60e51b815260206004820181905260248201527f4f776e61626c653a2063616c6c6572206973206e6f7420746865206f776e657260448201526064015b60405180910390fd5b6000818152600860205260409020600401544210156109db576040517fcdf268ad00000000000000000000000000000000000000000000000000000000815260040160405180910390fd5b60006109e6826119b5565b6000838152600d6020526040812054919250906001600160a01b031660008481526008602052604080822080546002909101549151637921219560e11b81523060048201526001600160a01b038086166024830152604482018490526001606483015260a0608483015260a48201949094529394509190911691829063f242432a9060c401600060405180830381600087803b158015610a8557600080fd5b505af1158015610a99573d6000803e3d6000fd5b5050604080518881526001600160a01b03871660208201527f63e7f772eee17a2469656820a22f393914e4fb575e3a4170ec5d3b6187b5a743935001905060405180910390a1604051637921219560e11b81523060048201526001600160a01b038581166024830152604482018390526001606483015260a06084830152600060a483015283169063f242432a9060c401600060405180830381600087803b158015610b4457600080fd5b505af1158015610b58573d6000803e3d6000fd5b5050604080518881526001600160a01b03881660208201527f63e7f772eee17a2469656820a22f393914e4fb575e3a4170ec5d3b6187b5a743935001905060405180910390a1600354604051637921219560e11b81523060048201526001600160a01b039182166024820152604481018390526001606482015260a06084820152600060a48201529083169063f242432a9060c401600060405180830381600087803b158015610c0757600080fd5b505af1158015610c1b573d6000803e3d6000fd5b5050600354604080518981526001600160a01b0390921660208301527f63e7f772eee17a2469656820a22f393914e4fb575e3a4170ec5d3b6187b5a743935001905060405180910390a160048054604051637921219560e11b815230928101929092526001600160a01b039081166024830152604482018390526001606483015260a06084830152600060a483015283169063f242432a9060c401600060405180830381600087803b158015610cd057600080fd5b505af1158015610ce4573d6000803e3d6000fd5b5050600454604080518981526001600160a01b0390921660208301527f63e7f772eee17a2469656820a22f393914e4fb575e3a4170ec5d3b6187b5a743935001905060405180910390a15050505050565b6000600280541415610d895760405162461bcd60e51b815260206004820152601f60248201527f5265656e7472616e637947756172643a207265656e7472616e742063616c6c006044820152606401610987565b60028080558251600081815260086020818152604080842081516101008101835281546001600160a01b0390811682526001830154811682860152978201549281019290925260038101546060830152600481015460808301819052600582015460a0840152600682015490971660c08301526007015460e082015292849052529091421115610e45576040517fd328a25200000000000000000000000000000000000000000000000000000000815260040160405180910390fd5b6000828152600860209081526040909120600501549085015111610e95576040517f7957a08500000000000000000000000000000000000000000000000000000000815260040160405180910390fd5b60068054906000610ea583612173565b90915550504260408086019182526006546000908152600960209081528282208851815581890151600182018190559451600290910155858252600b815282822033835290529081208054909190610efe90849061218e565b90915550506020808501516000848152600a90925260408220805491929091610f2890849061218e565b90915550506000828152600c6020908152604080832080546001810182559084528284200180546001600160a01b03191633908117909155858452600b83528184208185529092529091205460e083015160c0840151919290916001600160a01b0316141561103c5785602001518360e001818151610fa7919061218e565b905250600084815260086020908152604091829020855181546001600160a01b03199081166001600160a01b03928316178355928701516001830180548516918316919091179055928601516002820155606086015160038201556080860151600482015560a0860151600582015560c0860151600682018054909316931692909217905560e08401516007909101556110f9565b808211156110f95760e083018281526000858152600e602090815260408083208590553360c08801818152898552600d845282852080546001600160a01b0319908116909317905560088452938290208851815483166001600160a01b03918216178255938901516001820180548416918616919091179055918801516002830155606088015160038301556080880151600483015560a08801516005830155925160068201805490941692169190911790915590516007909101555b60075460035460208801516040517f23b872dd0000000000000000000000000000000000000000000000000000000081523360048201526001600160a01b03928316602482015260448101919091529116906323b872dd906064016020604051808303816000875af1158015611173573d6000803e3d6000fd5b505050506040513d601f19601f8201168201806040525081019061119791906121a6565b50602080870151604080513381529283018790528201527fdd5f9bf5cf036a4da6a1035c7f29f422c275d1e6f6b9e2a552e3e54228b390a59060600160405180910390a150506006546001600255949350505050565b6000828152600160208190526040909120015461120a8133611a4a565b6112148383611aca565b505050565b6001600160a01b03811633146112975760405162461bcd60e51b815260206004820152602f60248201527f416363657373436f6e74726f6c3a2063616e206f6e6c792072656e6f756e636560448201527f20726f6c657320666f722073656c6600000000000000000000000000000000006064820152608401610987565b6112a18282611b51565b5050565b6000546001600160a01b031633146112ff5760405162461bcd60e51b815260206004820181905260248201527f4f776e61626c653a2063616c6c6572206973206e6f7420746865206f776e65726044820152606401610987565b6113297f850d585eb7f024ccee5e68e55f2c26cc72e1e6ee456acf62135757a5eb9d4a1082611aca565b50565b6000546001600160a01b031633146113865760405162461bcd60e51b815260206004820181905260248201527f4f776e61626c653a2063616c6c6572206973206e6f7420746865206f776e65726044820152606401610987565b6001600160a01b0381166113ad576040516342bcdf7f60e11b815260040160405180910390fd5b600380546001600160a01b0319166001600160a01b0383169081179091556040519081527f99e7e8f551bb4a95839337c445d25c103e8b923f563ec440667dd5c1bb5fa329906020015b60405180910390a150565b6000546001600160a01b0316331461145c5760405162461bcd60e51b815260206004820181905260248201527f4f776e61626c653a2063616c6c6572206973206e6f7420746865206f776e65726044820152606401610987565b6114666000611bd4565b565b600c602052816000526040600020818154811061148457600080fd5b6000918252602090912001546001600160a01b03169150829050565b6000818152600c602090815260409182902080548351818402810184019094528084526060939283018282801561150057602002820191906000526020600020905b81546001600160a01b031681526001909101906020018083116114e2575b50505050509050919050565b60007f850d585eb7f024ccee5e68e55f2c26cc72e1e6ee456acf62135757a5eb9d4a106115398133611a4a565b825160808401516060850151111561157d576040517fd22dcab600000000000000000000000000000000000000000000000000000000815260040160405180910390fd5b6005805490600061158d83612173565b909155505060058054600090815260086020908152604091829020875181546001600160a01b03199081166001600160a01b039283161783558984015160018401805483169184169190911790558985015160028401556060808b01516003850181905560808c01516004860181905560a08d015198860189905560c08d015160068701805490951695169490941790925560e08b0151600790940193909355845190815292830152918101929092527f9aa2065fb625f0039ef34f9a9cb1fe8e45055c5aa4d830c016505ee55a598a84910160405180910390a160208401516040808601519051637921219560e11b81526001600160a01b039283166004808301919091523060248301526044820192909252606481019190915260a06084820152600060a48201529082169063f242432a9060c401600060405180830381600087803b1580156116de57600080fd5b505af11580156116f2573d6000803e3d6000fd5b50506005549695505050505050565b6000546001600160a01b0316331461175b5760405162461bcd60e51b815260206004820181905260248201527f4f776e61626c653a2063616c6c6572206973206e6f7420746865206f776e65726044820152606401610987565b6001600160a01b038116611782576040516342bcdf7f60e11b815260040160405180910390fd5b600480546001600160a01b0319166001600160a01b0383169081179091556040519081527fa099340b9009966c80f2d51f8425c15ffe5713a8c732f3d9e3b0d213ad03e35b906020016113f7565b600082815260016020819052604090912001546117ed8133611a4a565b6112148383611b51565b61185a60405180610100016040528060006001600160a01b0316815260200160006001600160a01b031681526020016000815260200160008152602001600081526020016000815260200160006001600160a01b03168152602001600081525090565b5060009081526008602090815260409182902082516101008101845281546001600160a01b03908116825260018301548116938201939093526002820154938101939093526003810154606084015260048101546080840152600581015460a0840152600681015490911660c08301526007015460e082015290565b6000546001600160a01b031633146119305760405162461bcd60e51b815260206004820181905260248201527f4f776e61626c653a2063616c6c6572206973206e6f7420746865206f776e65726044820152606401610987565b6001600160a01b0381166119ac5760405162461bcd60e51b815260206004820152602660248201527f4f776e61626c653a206e6577206f776e657220697320746865207a65726f206160448201527f64647265737300000000000000000000000000000000000000000000000000006064820152608401610987565b61132981611bd4565b6000818152600c602090815260408083205481514281850152438184015244606082015260808082018790528351808303909101815260a0909101909252815191909201208290611a079083906121c8565b6000858152600c602052604081208054929350909183908110611a2c57611a2c6121ea565b6000918252602090912001546001600160a01b031695945050505050565b60008281526001602090815260408083206001600160a01b038516845290915290205460ff166112a157611a88816001600160a01b03166014611c24565b611a93836020611c24565b604051602001611aa4929190612230565b60408051601f198184030181529082905262461bcd60e51b8252610987916004016122b1565b60008281526001602090815260408083206001600160a01b038516845290915290205460ff166112a15760008281526001602081815260408084206001600160a01b0386168086529252808420805460ff19169093179092559051339285917f2f8788117e7eff1d82e926ec794901d17c78024a50270940304540a733656f0d9190a45050565b60008281526001602090815260408083206001600160a01b038516845290915290205460ff16156112a15760008281526001602090815260408083206001600160a01b0385168085529252808320805460ff1916905551339285917ff6391f5c32d9c69d2a47ea670b442974b53935d1edc7fd64eb21e047a839171b9190a45050565b600080546001600160a01b038381166001600160a01b0319831681178455604051919092169283917f8be0079c531659141344cd1fd0a4f28419497f9722a3daafe3b4186f6b6457e09190a35050565b60606000611c338360026122e4565b611c3e90600261218e565b67ffffffffffffffff811115611c5657611c56611e4f565b6040519080825280601f01601f191660200182016040528015611c80576020820181803683370190505b5090507f300000000000000000000000000000000000000000000000000000000000000081600081518110611cb757611cb76121ea565b60200101906001600160f81b031916908160001a9053507f780000000000000000000000000000000000000000000000000000000000000081600181518110611d0257611d026121ea565b60200101906001600160f81b031916908160001a9053506000611d268460026122e4565b611d3190600161218e565b90505b6001811115611db6577f303132333435363738396162636465660000000000000000000000000000000085600f1660108110611d7257611d726121ea565b1a60f81b828281518110611d8857611d886121ea565b60200101906001600160f81b031916908160001a90535060049490941c93611daf81612303565b9050611d34565b508315611e055760405162461bcd60e51b815260206004820181905260248201527f537472696e67733a20686578206c656e67746820696e73756666696369656e746044820152606401610987565b9392505050565b600060208284031215611e1e57600080fd5b81356001600160e01b031981168114611e0557600080fd5b600060208284031215611e4857600080fd5b5035919050565b634e487b7160e01b600052604160045260246000fd5b604051601f8201601f1916810167ffffffffffffffff81118282101715611e8e57611e8e611e4f565b604052919050565b600060608284031215611ea857600080fd5b6040516060810181811067ffffffffffffffff82111715611ecb57611ecb611e4f565b80604052508235815260208301356020820152604083013560408201528091505092915050565b80356001600160a01b0381168114611f0957600080fd5b919050565b60008060408385031215611f2157600080fd5b82359150611f3160208401611ef2565b90509250929050565b600060208284031215611f4c57600080fd5b611e0582611ef2565b60008060408385031215611f6857600080fd5b50508035926020909101359150565b6020808252825182820181905260009190848201906040850190845b81811015611fb85783516001600160a01b031683529284019291840191600101611f93565b50909695505050505050565b6000610100808385031215611fd857600080fd5b6040519081019067ffffffffffffffff82118183101715611ffb57611ffb611e4f565b8160405261200884611ef2565b815261201660208501611ef2565b602082015260408401356040820152606084013560608201526080840135608082015260a084013560a082015261204f60c08501611ef2565b60c082015260e084013560e0820152809250505092915050565b6000806040838503121561207c57600080fd5b61208583611ef2565b946020939093013593505050565b600080600080600060a086880312156120ab57600080fd5b6120b486611ef2565b945060206120c3818801611ef2565b94506040870135935060608701359250608087013567ffffffffffffffff808211156120ee57600080fd5b818901915089601f83011261210257600080fd5b81358181111561211457612114611e4f565b612126601f8201601f19168501611e65565b91508082528a8482850101111561213c57600080fd5b80848401858401376000848284010152508093505050509295509295909350565b634e487b7160e01b600052601160045260246000fd5b60006000198214156121875761218761215d565b5060010190565b600082198211156121a1576121a161215d565b500190565b6000602082840312156121b857600080fd5b81518015158114611e0557600080fd5b6000826121e557634e487b7160e01b600052601260045260246000fd5b500690565b634e487b7160e01b600052603260045260246000fd5b60005b8381101561221b578181015183820152602001612203565b8381111561222a576000848401525b50505050565b7f416363657373436f6e74726f6c3a206163636f756e7420000000000000000000815260008351612268816017850160208801612200565b7f206973206d697373696e6720726f6c652000000000000000000000000000000060179184019182015283516122a5816028840160208801612200565b01602801949350505050565b60208152600082518060208401526122d0816040850160208701612200565b601f01601f19169190910160400192915050565b60008160001904831182151516156122fe576122fe61215d565b500290565b6000816123125761231261215d565b50600019019056fea264697066735822122075cf2e512af1bf78fdceba9466c89884869fed28242f5385b0a610872810641664736f6c634300080b0033",
  "linkReferences": {},
  "deployedLinkReferences": {}
}