{
  "_format": "hh-sol-artifact-1",
  "contractName": "Raffle",
  "sourceName": "contracts/Raffle.sol",
  "abi": [
    {
      "inputs": [
        {
          "internalType": "address",
          "name": "_usdc",
          "type": "address"
        }
      ],
      "stateMutability": "nonpayable",
      "type": "constructor"
    },
    {
      "inputs": [],
      "name": "DonationTooLow",
      "type": "error"
    },
    {
      "inputs": [],
      "name": "IncorrectTimesGiven",
      "type": "error"
    },
    {
      "inputs": [],
      "name": "RaffleHasEnded",
      "type": "error"
    },
    {
      "inputs": [],
      "name": "RaffleHasNotEnded",
      "type": "error"
    },
    {
      "inputs": [],
      "name": "ZeroAddressNotAllowed",
      "type": "error"
    },
    {
      "anonymous": false,
      "inputs": [
        {
          "indexed": false,
          "internalType": "address",
          "name": "walletAddress",
          "type": "address"
        }
      ],
      "name": "DAOWalletAddressSet",
      "type": "event"
    },
    {
      "anonymous": false,
      "inputs": [
        {
          "indexed": false,
          "internalType": "address",
          "name": "from",
          "type": "address"
        },
        {
          "indexed": false,
          "internalType": "uint256",
          "name": "raffleId",
          "type": "uint256"
        },
        {
          "indexed": false,
          "internalType": "uint256",
          "name": "amount",
          "type": "uint256"
        }
      ],
      "name": "DonationPlaced",
      "type": "event"
    },
    {
      "anonymous": false,
      "inputs": [
        {
          "indexed": true,
          "internalType": "address",
          "name": "previousOwner",
          "type": "address"
        },
        {
          "indexed": true,
          "internalType": "address",
          "name": "newOwner",
          "type": "address"
        }
      ],
      "name": "OwnershipTransferred",
      "type": "event"
    },
    {
      "anonymous": false,
      "inputs": [
        {
          "indexed": false,
          "internalType": "uint256",
          "name": "startTime",
          "type": "uint256"
        },
        {
          "indexed": false,
          "internalType": "uint256",
          "name": "endTime",
          "type": "uint256"
        },
        {
          "indexed": false,
          "internalType": "uint256",
          "name": "minimumDonationAmount",
          "type": "uint256"
        }
      ],
      "name": "RaffleCreated",
      "type": "event"
    },
    {
      "anonymous": false,
      "inputs": [
        {
          "indexed": true,
          "internalType": "bytes32",
          "name": "role",
          "type": "bytes32"
        },
        {
          "indexed": true,
          "internalType": "bytes32",
          "name": "previousAdminRole",
          "type": "bytes32"
        },
        {
          "indexed": true,
          "internalType": "bytes32",
          "name": "newAdminRole",
          "type": "bytes32"
        }
      ],
      "name": "RoleAdminChanged",
      "type": "event"
    },
    {
      "anonymous": false,
      "inputs": [
        {
          "indexed": true,
          "internalType": "bytes32",
          "name": "role",
          "type": "bytes32"
        },
        {
          "indexed": true,
          "internalType": "address",
          "name": "account",
          "type": "address"
        },
        {
          "indexed": true,
          "internalType": "address",
          "name": "sender",
          "type": "address"
        }
      ],
      "name": "RoleGranted",
      "type": "event"
    },
    {
      "anonymous": false,
      "inputs": [
        {
          "indexed": true,
          "internalType": "bytes32",
          "name": "role",
          "type": "bytes32"
        },
        {
          "indexed": true,
          "internalType": "address",
          "name": "account",
          "type": "address"
        },
        {
          "indexed": true,
          "internalType": "address",
          "name": "sender",
          "type": "address"
        }
      ],
      "name": "RoleRevoked",
      "type": "event"
    },
    {
      "anonymous": false,
      "inputs": [
        {
          "indexed": false,
          "internalType": "address",
          "name": "nftAuthorWallet",
          "type": "address"
        }
      ],
      "name": "nftAuthorWalletAddressSet",
      "type": "event"
    },
    {
      "inputs": [],
      "name": "CURATOR_ROLE",
      "outputs": [
        {
          "internalType": "bytes32",
          "name": "",
          "type": "bytes32"
        }
      ],
      "stateMutability": "view",
      "type": "function"
    },
    {
      "inputs": [],
      "name": "DAOWallet",
      "outputs": [
        {
          "internalType": "address",
          "name": "",
          "type": "address"
        }
      ],
      "stateMutability": "view",
      "type": "function"
    },
    {
      "inputs": [],
      "name": "DEFAULT_ADMIN_ROLE",
      "outputs": [
        {
          "internalType": "bytes32",
          "name": "",
          "type": "bytes32"
        }
      ],
      "stateMutability": "view",
      "type": "function"
    },
    {
      "inputs": [],
      "name": "USDC",
      "outputs": [
        {
          "internalType": "contract IERC20",
          "name": "",
          "type": "address"
        }
      ],
      "stateMutability": "view",
      "type": "function"
    },
    {
      "inputs": [
        {
          "components": [
            {
              "internalType": "address",
              "name": "nftContract",
              "type": "address"
            },
            {
              "internalType": "address",
              "name": "nftOwner",
              "type": "address"
            },
            {
              "internalType": "uint256",
              "name": "tokenID",
              "type": "uint256"
            },
            {
              "internalType": "uint256",
              "name": "startTime",
              "type": "uint256"
            },
            {
              "internalType": "uint256",
              "name": "endTime",
              "type": "uint256"
            },
            {
              "internalType": "uint256",
              "name": "minimumDonationAmount",
              "type": "uint256"
            }
          ],
          "internalType": "struct Raffle.Raffle",
          "name": "_raffle",
          "type": "tuple"
        }
      ],
      "name": "createRaffle",
      "outputs": [
        {
          "internalType": "uint256",
          "name": "",
          "type": "uint256"
        }
      ],
      "stateMutability": "nonpayable",
      "type": "function"
    },
    {
      "inputs": [
        {
          "components": [
            {
              "internalType": "uint256",
              "name": "raffleID",
              "type": "uint256"
            },
            {
              "internalType": "uint256",
              "name": "amount",
              "type": "uint256"
            },
            {
              "internalType": "uint256",
              "name": "timestamp",
              "type": "uint256"
            }
          ],
          "internalType": "struct Raffle.Donation",
          "name": "_donation",
          "type": "tuple"
        }
      ],
      "name": "donate",
      "outputs": [],
      "stateMutability": "payable",
      "type": "function"
    },
    {
      "inputs": [
        {
          "internalType": "uint256",
          "name": "",
          "type": "uint256"
        },
        {
          "internalType": "address",
          "name": "",
          "type": "address"
        },
        {
          "internalType": "uint256",
          "name": "",
          "type": "uint256"
        }
      ],
      "name": "donations",
      "outputs": [
        {
          "internalType": "uint256",
          "name": "raffleID",
          "type": "uint256"
        },
        {
          "internalType": "uint256",
          "name": "amount",
          "type": "uint256"
        },
        {
          "internalType": "uint256",
          "name": "timestamp",
          "type": "uint256"
        }
      ],
      "stateMutability": "view",
      "type": "function"
    },
    {
      "inputs": [
        {
          "internalType": "uint256",
          "name": "",
          "type": "uint256"
        },
        {
          "internalType": "uint256",
          "name": "",
          "type": "uint256"
        }
      ],
      "name": "donorsArrayPerCycle",
      "outputs": [
        {
          "internalType": "address",
          "name": "",
          "type": "address"
        }
      ],
      "stateMutability": "view",
      "type": "function"
    },
    {
      "inputs": [
        {
          "internalType": "uint256",
          "name": "raffleID",
          "type": "uint256"
        }
      ],
      "name": "getDonorsPerCycle",
      "outputs": [
        {
          "internalType": "address[]",
          "name": "",
          "type": "address[]"
        }
      ],
      "stateMutability": "view",
      "type": "function"
    },
    {
      "inputs": [
        {
          "internalType": "uint256",
          "name": "raffleID",
          "type": "uint256"
        }
      ],
      "name": "getHighestDonationPerCycle",
      "outputs": [
        {
          "internalType": "uint256",
          "name": "",
          "type": "uint256"
        }
      ],
      "stateMutability": "view",
      "type": "function"
    },
    {
      "inputs": [
        {
          "internalType": "bytes32",
          "name": "role",
          "type": "bytes32"
        }
      ],
      "name": "getRoleAdmin",
      "outputs": [
        {
          "internalType": "bytes32",
          "name": "",
          "type": "bytes32"
        }
      ],
      "stateMutability": "view",
      "type": "function"
    },
    {
      "inputs": [
        {
          "internalType": "uint256",
          "name": "raffleID",
          "type": "uint256"
        }
      ],
      "name": "getTopDonor",
      "outputs": [
        {
          "internalType": "address",
          "name": "",
          "type": "address"
        }
      ],
      "stateMutability": "view",
      "type": "function"
    },
    {
      "inputs": [
        {
          "internalType": "uint256",
          "name": "raffleID",
          "type": "uint256"
        },
        {
          "internalType": "address",
          "name": "account",
          "type": "address"
        }
      ],
      "name": "getTotalDonationPerAddressPerCycle",
      "outputs": [
        {
          "internalType": "uint256",
          "name": "",
          "type": "uint256"
        }
      ],
      "stateMutability": "view",
      "type": "function"
    },
    {
      "inputs": [
        {
          "internalType": "uint256",
          "name": "raffleID",
          "type": "uint256"
        }
      ],
      "name": "getTotalDonationsPerCycle",
      "outputs": [
        {
          "internalType": "uint256",
          "name": "",
          "type": "uint256"
        }
      ],
      "stateMutability": "view",
      "type": "function"
    },
    {
      "inputs": [
        {
          "internalType": "bytes32",
          "name": "role",
          "type": "bytes32"
        },
        {
          "internalType": "address",
          "name": "account",
          "type": "address"
        }
      ],
      "name": "grantRole",
      "outputs": [],
      "stateMutability": "nonpayable",
      "type": "function"
    },
    {
      "inputs": [
        {
          "internalType": "bytes32",
          "name": "role",
          "type": "bytes32"
        },
        {
          "internalType": "address",
          "name": "account",
          "type": "address"
        }
      ],
      "name": "hasRole",
      "outputs": [
        {
          "internalType": "bool",
          "name": "",
          "type": "bool"
        }
      ],
      "stateMutability": "view",
      "type": "function"
    },
    {
      "inputs": [],
      "name": "nftAuthorWallet",
      "outputs": [
        {
          "internalType": "address",
          "name": "",
          "type": "address"
        }
      ],
      "stateMutability": "view",
      "type": "function"
    },
    {
      "inputs": [],
      "name": "owner",
      "outputs": [
        {
          "internalType": "address",
          "name": "",
          "type": "address"
        }
      ],
      "stateMutability": "view",
      "type": "function"
    },
    {
      "inputs": [],
      "name": "raffleCount",
      "outputs": [
        {
          "internalType": "uint256",
          "name": "",
          "type": "uint256"
        }
      ],
      "stateMutability": "view",
      "type": "function"
    },
    {
      "inputs": [
        {
          "internalType": "uint256",
          "name": "",
          "type": "uint256"
        }
      ],
      "name": "raffles",
      "outputs": [
        {
          "internalType": "address",
          "name": "nftContract",
          "type": "address"
        },
        {
          "internalType": "address",
          "name": "nftOwner",
          "type": "address"
        },
        {
          "internalType": "uint256",
          "name": "tokenID",
          "type": "uint256"
        },
        {
          "internalType": "uint256",
          "name": "startTime",
          "type": "uint256"
        },
        {
          "internalType": "uint256",
          "name": "endTime",
          "type": "uint256"
        },
        {
          "internalType": "uint256",
          "name": "minimumDonationAmount",
          "type": "uint256"
        }
      ],
      "stateMutability": "view",
      "type": "function"
    },
    {
      "inputs": [],
      "name": "renounceOwnership",
      "outputs": [],
      "stateMutability": "nonpayable",
      "type": "function"
    },
    {
      "inputs": [
        {
          "internalType": "bytes32",
          "name": "role",
          "type": "bytes32"
        },
        {
          "internalType": "address",
          "name": "account",
          "type": "address"
        }
      ],
      "name": "renounceRole",
      "outputs": [],
      "stateMutability": "nonpayable",
      "type": "function"
    },
    {
      "inputs": [
        {
          "internalType": "bytes32",
          "name": "role",
          "type": "bytes32"
        },
        {
          "internalType": "address",
          "name": "account",
          "type": "address"
        }
      ],
      "name": "revokeRole",
      "outputs": [],
      "stateMutability": "nonpayable",
      "type": "function"
    },
    {
      "inputs": [
        {
          "internalType": "uint256",
          "name": "raffleID",
          "type": "uint256"
        }
      ],
      "name": "sendNFTRewards",
      "outputs": [],
      "stateMutability": "nonpayable",
      "type": "function"
    },
    {
      "inputs": [
        {
          "internalType": "address",
          "name": "_DAOWallet",
          "type": "address"
        }
      ],
      "name": "setDAOWalletAddress",
      "outputs": [],
      "stateMutability": "nonpayable",
      "type": "function"
    },
    {
      "inputs": [
        {
          "internalType": "address",
          "name": "_nftAuthorWallet",
          "type": "address"
        }
      ],
      "name": "setNftAuthorWalletAddress",
      "outputs": [],
      "stateMutability": "nonpayable",
      "type": "function"
    },
    {
      "inputs": [
        {
          "internalType": "bytes4",
          "name": "interfaceId",
          "type": "bytes4"
        }
      ],
      "name": "supportsInterface",
      "outputs": [
        {
          "internalType": "bool",
          "name": "",
          "type": "bool"
        }
      ],
      "stateMutability": "view",
      "type": "function"
    },
    {
      "inputs": [
        {
          "internalType": "uint256",
          "name": "",
          "type": "uint256"
        },
        {
          "internalType": "address",
          "name": "",
          "type": "address"
        }
      ],
      "name": "totalDonationPerAddressPerCycle",
      "outputs": [
        {
          "internalType": "uint256",
          "name": "",
          "type": "uint256"
        }
      ],
      "stateMutability": "view",
      "type": "function"
    },
    {
      "inputs": [],
      "name": "totalDonations",
      "outputs": [
        {
          "internalType": "uint256",
          "name": "",
          "type": "uint256"
        }
      ],
      "stateMutability": "view",
      "type": "function"
    },
    {
      "inputs": [
        {
          "internalType": "address",
          "name": "newOwner",
          "type": "address"
        }
      ],
      "name": "transferOwnership",
      "outputs": [],
      "stateMutability": "nonpayable",
      "type": "function"
    }
  ],
  "bytecode": "0x60806040523480156200001157600080fd5b5060405162001e2f38038062001e2f833981016040819052620000349162000124565b6200003f33620000d4565b6001600255600680546001600160a01b0319166001600160a01b03831690811790915560405163095ea7b360e01b8152306004820152600019602482015263095ea7b3906044016020604051808303816000875af1158015620000a6573d6000803e3d6000fd5b505050506040513d601f19601f82011682018060405250810190620000cc919062000156565b50506200017a565b600080546001600160a01b038381166001600160a01b0319831681178455604051919092169283917f8be0079c531659141344cd1fd0a4f28419497f9722a3daafe3b4186f6b6457e09190a35050565b6000602082840312156200013757600080fd5b81516001600160a01b03811681146200014f57600080fd5b9392505050565b6000602082840312156200016957600080fd5b815180151581146200014f57600080fd5b611ca5806200018a6000396000f3fe6080604052600436106101cd5760003560e01c806382b02eed116100f7578063a8754ef111610095578063dfdb5ae411610064578063dfdb5ae414610644578063ea36c61714610664578063eaf03b401461069c578063f2fde38b146106c957600080fd5b8063a8754ef1146105c1578063c1996e7f146105ee578063d547741f1461060e578063de2ed8931461062e57600080fd5b80638da5cb5b116100d15780638da5cb5b1461053257806391d1485414610550578063a217fddf14610596578063a54c120c146105ab57600080fd5b806382b02eed146104d257806386d392ba146104f257806389a302711461051257600080fd5b80634a2cfb541161016f5780635f99223b1161013e5780635f99223b146104225780636e3384611461044f578063715018a61461046f5780637859165f1461048457600080fd5b80634a2cfb54146102db5780634c43adea1461030f57806351d84a5f146103525780635d4bc0ce1461038d57600080fd5b80632648bc7e116101ab5780632648bc7e146102685780632f2ff15d1461027b57806336568abe1461029b5780633f37175d146102bb57600080fd5b806301ffc9a7146101d257806321a1354414610207578063248a9ca314610229575b600080fd5b3480156101de57600080fd5b506101f26101ed36600461183c565b6106e9565b60405190151581526020015b60405180910390f35b34801561021357600080fd5b5061022761022236600461187e565b610782565b005b34801561023557600080fd5b5061025a61024436600461187e565b6000908152600160208190526040909120015490565b6040519081526020016101fe565b6102276102763660046118ad565b610a76565b34801561028757600080fd5b50610227610296366004611933565b610d32565b3480156102a757600080fd5b506102276102b6366004611933565b610d5e565b3480156102c757600080fd5b5061025a6102d636600461195f565b610dea565b3480156102e757600080fd5b5061025a7f850d585eb7f024ccee5e68e55f2c26cc72e1e6ee456acf62135757a5eb9d4a1081565b34801561031b57600080fd5b5061025a61032a366004611933565b6000918252600a602090815260408084206001600160a01b0393909316845291905290205490565b34801561035e57600080fd5b5061037261036d3660046119f3565b610fc9565b604080519384526020840192909252908201526060016101fe565b34801561039957600080fd5b506103ea6103a836600461187e565b6008602052600090815260409020805460018201546002830154600384015460048501546005909501546001600160a01b039485169593909416939192909186565b604080516001600160a01b039788168152969095166020870152938501929092526060840152608083015260a082015260c0016101fe565b34801561042e57600080fd5b5061025a61043d36600461187e565b6000908152600e602052604090205490565b34801561045b57600080fd5b5061022761046a366004611a28565b611019565b34801561047b57600080fd5b506102276110ef565b34801561049057600080fd5b506104ba61049f36600461187e565b6000908152600d60205260409020546001600160a01b031690565b6040516001600160a01b0390911681526020016101fe565b3480156104de57600080fd5b506004546104ba906001600160a01b031681565b3480156104fe57600080fd5b506104ba61050d366004611a43565b611155565b34801561051e57600080fd5b506006546104ba906001600160a01b031681565b34801561053e57600080fd5b506000546001600160a01b03166104ba565b34801561055c57600080fd5b506101f261056b366004611933565b60009182526001602090815260408084206001600160a01b0393909316845291905290205460ff1690565b3480156105a257600080fd5b5061025a600081565b3480156105b757600080fd5b5061025a60055481565b3480156105cd57600080fd5b506105e16105dc36600461187e565b61118d565b6040516101fe9190611a65565b3480156105fa57600080fd5b50610227610609366004611a28565b6111f9565b34801561061a57600080fd5b50610227610629366004611933565b6112c8565b34801561063a57600080fd5b5061025a60075481565b34801561065057600080fd5b506003546104ba906001600160a01b031681565b34801561067057600080fd5b5061025a61067f366004611933565b600a60209081526000928352604080842090915290825290205481565b3480156106a857600080fd5b5061025a6106b736600461187e565b60009081526009602052604090205490565b3480156106d557600080fd5b506102276106e4366004611a28565b6112ef565b60007fffffffff0000000000000000000000000000000000000000000000000000000082167f7965db0b00000000000000000000000000000000000000000000000000000000148061077c57507f01ffc9a7000000000000000000000000000000000000000000000000000000007fffffffff000000000000000000000000000000000000000000000000000000008316145b92915050565b6000546001600160a01b031633146107e15760405162461bcd60e51b815260206004820181905260248201527f4f776e61626c653a2063616c6c6572206973206e6f7420746865206f776e657260448201526064015b60405180910390fd5b60008181526008602052604090206004015442101561082c576040517fcdf268ad00000000000000000000000000000000000000000000000000000000815260040160405180910390fd5b6000610837826113d1565b6000838152600d6020526040812054919250906001600160a01b031660008481526008602052604080822080546002909101549151637921219560e11b81523060048201526001600160a01b038086166024830152604482018490526001606483015260a0608483015260a48201949094529394509190911691829063f242432a9060c401600060405180830381600087803b1580156108d657600080fd5b505af11580156108ea573d6000803e3d6000fd5b5050604051637921219560e11b81523060048201526001600160a01b038781166024830152604482018590526001606483015260a06084830152600060a48301528516925063f242432a915060c401600060405180830381600087803b15801561095357600080fd5b505af1158015610967573d6000803e3d6000fd5b5050600354604051637921219560e11b81523060048201526001600160a01b039182166024820152604481018590526001606482015260a06084820152600060a4820152908516925063f242432a915060c401600060405180830381600087803b1580156109d457600080fd5b505af11580156109e8573d6000803e3d6000fd5b505060048054604051637921219560e11b815230928101929092526001600160a01b039081166024830152604482018590526001606483015260a06084830152600060a48301528516925063f242432a915060c401600060405180830381600087803b158015610a5757600080fd5b505af1158015610a6b573d6000803e3d6000fd5b505050505050505050565b600280541415610ac85760405162461bcd60e51b815260206004820152601f60248201527f5265656e7472616e637947756172643a207265656e7472616e742063616c6c0060448201526064016107d8565b600280558051600081815260086020526040902060040154421115610b19576040517fd328a25200000000000000000000000000000000000000000000000000000000815260040160405180910390fd5b6000818152600860209081526040909120600501549083015111610b69576040517f7957a08500000000000000000000000000000000000000000000000000000000815260040160405180910390fd5b426040808401919091526020808401516000848152600a83528381203382529092529181208054909190610b9e908490611ac8565b90915550506020808301516000838152600990925260408220805491929091610bc8908490611ac8565b90915550506000818152600c6020908152604080832080546001810182559084528284200180546001600160a01b03191633908117909155848452600a8352818420908452825280832054848452600e90925290912054808210610c45576000838152600d6020526040902080546001600160a01b031916331790555b60065460035460208601516040517f23b872dd0000000000000000000000000000000000000000000000000000000081523360048201526001600160a01b03928316602482015260448101919091529116906323b872dd906064016020604051808303816000875af1158015610cbf573d6000803e3d6000fd5b505050506040513d601f19601f82011682018060405250810190610ce39190611ae0565b50602080850151604080513381529283018690528201527fdd5f9bf5cf036a4da6a1035c7f29f422c275d1e6f6b9e2a552e3e54228b390a59060600160405180910390a1505060016002555050565b60008281526001602081905260409091200154610d4f813361147a565b610d5983836114fa565b505050565b6001600160a01b0381163314610ddc5760405162461bcd60e51b815260206004820152602f60248201527f416363657373436f6e74726f6c3a2063616e206f6e6c792072656e6f756e636560448201527f20726f6c657320666f722073656c66000000000000000000000000000000000060648201526084016107d8565b610de68282611581565b5050565b3360009081527f6f6b118e2da4f9ffd6a3b2cd7a5c59a4c6e525c1e3da7bada64823477e29a790602052604081205460ff16610e2557600080fd5b8151608083015160608401511115610e69576040517fd22dcab600000000000000000000000000000000000000000000000000000000815260040160405180910390fd5b60058054906000610e7983611b02565b909155505060058054600090815260086020908152604091829020865181546001600160a01b039182166001600160a01b0319918216178355888401516001840180549190931691161790558683015160028201556060808801516003830181905560808901516004840181905560a08a015193909601839055845190815292830194909452918101919091527f9aa2065fb625f0039ef34f9a9cb1fe8e45055c5aa4d830c016505ee55a598a84910160405180910390a160208301516040808501519051637921219560e11b81526001600160a01b039283166004808301919091523060248301526044820192909252606481019190915260a06084820152600060a48201529082169063f242432a9060c401600060405180830381600087803b158015610fa757600080fd5b505af1158015610fbb573d6000803e3d6000fd5b505060055495945050505050565b600b6020528260005260406000206020528160005260406000208181548110610ff157600080fd5b6000918252602090912060039091020180546001820154600290920154909450909250905083565b6000546001600160a01b031633146110735760405162461bcd60e51b815260206004820181905260248201527f4f776e61626c653a2063616c6c6572206973206e6f7420746865206f776e657260448201526064016107d8565b6001600160a01b03811661109a576040516342bcdf7f60e11b815260040160405180910390fd5b600380546001600160a01b0319166001600160a01b0383169081179091556040519081527f99e7e8f551bb4a95839337c445d25c103e8b923f563ec440667dd5c1bb5fa329906020015b60405180910390a150565b6000546001600160a01b031633146111495760405162461bcd60e51b815260206004820181905260248201527f4f776e61626c653a2063616c6c6572206973206e6f7420746865206f776e657260448201526064016107d8565b6111536000611604565b565b600c602052816000526040600020818154811061117157600080fd5b6000918252602090912001546001600160a01b03169150829050565b6000818152600c60209081526040918290208054835181840281018401909452808452606093928301828280156111ed57602002820191906000526020600020905b81546001600160a01b031681526001909101906020018083116111cf575b50505050509050919050565b6000546001600160a01b031633146112535760405162461bcd60e51b815260206004820181905260248201527f4f776e61626c653a2063616c6c6572206973206e6f7420746865206f776e657260448201526064016107d8565b6001600160a01b03811661127a576040516342bcdf7f60e11b815260040160405180910390fd5b600480546001600160a01b0319166001600160a01b0383169081179091556040519081527fa099340b9009966c80f2d51f8425c15ffe5713a8c732f3d9e3b0d213ad03e35b906020016110e4565b600082815260016020819052604090912001546112e5813361147a565b610d598383611581565b6000546001600160a01b031633146113495760405162461bcd60e51b815260206004820181905260248201527f4f776e61626c653a2063616c6c6572206973206e6f7420746865206f776e657260448201526064016107d8565b6001600160a01b0381166113c55760405162461bcd60e51b815260206004820152602660248201527f4f776e61626c653a206e6577206f776e657220697320746865207a65726f206160448201527f646472657373000000000000000000000000000000000000000000000000000060648201526084016107d8565b6113ce81611604565b50565b6000818152600c6020908152604080832054905190918391839161141491429133910191825260601b6bffffffffffffffffffffffff1916602082015260340190565b6040516020818303038152906040528051906020012060001c6114379190611b1d565b6000858152600c60205260408120805492935090918390811061145c5761145c611b3f565b6000918252602090912001546001600160a01b031695945050505050565b60008281526001602090815260408083206001600160a01b038516845290915290205460ff16610de6576114b8816001600160a01b03166014611654565b6114c3836020611654565b6040516020016114d4929190611b85565b60408051601f198184030181529082905262461bcd60e51b82526107d891600401611c06565b60008281526001602090815260408083206001600160a01b038516845290915290205460ff16610de65760008281526001602081815260408084206001600160a01b0386168086529252808420805460ff19169093179092559051339285917f2f8788117e7eff1d82e926ec794901d17c78024a50270940304540a733656f0d9190a45050565b60008281526001602090815260408083206001600160a01b038516845290915290205460ff1615610de65760008281526001602090815260408083206001600160a01b0385168085529252808320805460ff1916905551339285917ff6391f5c32d9c69d2a47ea670b442974b53935d1edc7fd64eb21e047a839171b9190a45050565b600080546001600160a01b038381166001600160a01b0319831681178455604051919092169283917f8be0079c531659141344cd1fd0a4f28419497f9722a3daafe3b4186f6b6457e09190a35050565b60606000611663836002611c39565b61166e906002611ac8565b67ffffffffffffffff81111561168657611686611897565b6040519080825280601f01601f1916602001820160405280156116b0576020820181803683370190505b5090507f3000000000000000000000000000000000000000000000000000000000000000816000815181106116e7576116e7611b3f565b60200101906001600160f81b031916908160001a9053507f78000000000000000000000000000000000000000000000000000000000000008160018151811061173257611732611b3f565b60200101906001600160f81b031916908160001a9053506000611756846002611c39565b611761906001611ac8565b90505b60018111156117e6577f303132333435363738396162636465660000000000000000000000000000000085600f16601081106117a2576117a2611b3f565b1a60f81b8282815181106117b8576117b8611b3f565b60200101906001600160f81b031916908160001a90535060049490941c936117df81611c58565b9050611764565b5083156118355760405162461bcd60e51b815260206004820181905260248201527f537472696e67733a20686578206c656e67746820696e73756666696369656e7460448201526064016107d8565b9392505050565b60006020828403121561184e57600080fd5b81357fffffffff000000000000000000000000000000000000000000000000000000008116811461183557600080fd5b60006020828403121561189057600080fd5b5035919050565b634e487b7160e01b600052604160045260246000fd5b6000606082840312156118bf57600080fd5b6040516060810181811067ffffffffffffffff821117156118f057634e487b7160e01b600052604160045260246000fd5b80604052508235815260208301356020820152604083013560408201528091505092915050565b80356001600160a01b038116811461192e57600080fd5b919050565b6000806040838503121561194657600080fd5b8235915061195660208401611917565b90509250929050565b600060c0828403121561197157600080fd5b60405160c0810181811067ffffffffffffffff821117156119a257634e487b7160e01b600052604160045260246000fd5b6040526119ae83611917565b81526119bc60208401611917565b602082015260408301356040820152606083013560608201526080830135608082015260a083013560a08201528091505092915050565b600080600060608486031215611a0857600080fd5b83359250611a1860208501611917565b9150604084013590509250925092565b600060208284031215611a3a57600080fd5b61183582611917565b60008060408385031215611a5657600080fd5b50508035926020909101359150565b6020808252825182820181905260009190848201906040850190845b81811015611aa65783516001600160a01b031683529284019291840191600101611a81565b50909695505050505050565b634e487b7160e01b600052601160045260246000fd5b60008219821115611adb57611adb611ab2565b500190565b600060208284031215611af257600080fd5b8151801515811461183557600080fd5b6000600019821415611b1657611b16611ab2565b5060010190565b600082611b3a57634e487b7160e01b600052601260045260246000fd5b500690565b634e487b7160e01b600052603260045260246000fd5b60005b83811015611b70578181015183820152602001611b58565b83811115611b7f576000848401525b50505050565b7f416363657373436f6e74726f6c3a206163636f756e7420000000000000000000815260008351611bbd816017850160208801611b55565b7f206973206d697373696e6720726f6c65200000000000000000000000000000006017918401918201528351611bfa816028840160208801611b55565b01602801949350505050565b6020815260008251806020840152611c25816040850160208701611b55565b601f01601f19169190910160400192915050565b6000816000190483118215151615611c5357611c53611ab2565b500290565b600081611c6757611c67611ab2565b50600019019056fea2646970667358221220f363810e04959e24f63785f79b53b3006e6ceff7f4bf10d97767b6713aedaeb964736f6c634300080b0033",
  "linkReferences": {},
  "deployedLinkReferences": {}
}