{
  "_format": "hh-sol-artifact-1",
  "contractName": "Raffle",
  "sourceName": "contracts/Raffle.sol",
  "abi": [
    {
      "inputs": [
        {
          "internalType": "address",
          "name": "_usdc",
          "type": "address"
        }
      ],
      "stateMutability": "nonpayable",
      "type": "constructor"
    },
    {
      "inputs": [],
      "name": "DonationTooLow",
      "type": "error"
    },
    {
      "inputs": [],
      "name": "IncorrectTimesGiven",
      "type": "error"
    },
    {
      "inputs": [],
      "name": "RaffleHasEnded",
      "type": "error"
    },
    {
      "inputs": [],
      "name": "RaffleHasNotEnded",
      "type": "error"
    },
    {
      "inputs": [],
      "name": "ZeroAddressNotAllowed",
      "type": "error"
    },
    {
      "anonymous": false,
      "inputs": [
        {
          "indexed": false,
          "internalType": "address",
          "name": "walletAddress",
          "type": "address"
        }
      ],
      "name": "DAOWalletAddressSet",
      "type": "event"
    },
    {
      "anonymous": false,
      "inputs": [
        {
          "indexed": false,
          "internalType": "address",
          "name": "from",
          "type": "address"
        },
        {
          "indexed": false,
          "internalType": "uint256",
          "name": "raffleId",
          "type": "uint256"
        },
        {
          "indexed": false,
          "internalType": "uint256",
          "name": "amount",
          "type": "uint256"
        }
      ],
      "name": "DonationPlaced",
      "type": "event"
    },
    {
      "anonymous": false,
      "inputs": [
        {
          "indexed": true,
          "internalType": "address",
          "name": "previousOwner",
          "type": "address"
        },
        {
          "indexed": true,
          "internalType": "address",
          "name": "newOwner",
          "type": "address"
        }
      ],
      "name": "OwnershipTransferred",
      "type": "event"
    },
    {
      "anonymous": false,
      "inputs": [
        {
          "indexed": false,
          "internalType": "uint256",
          "name": "startTime",
          "type": "uint256"
        },
        {
          "indexed": false,
          "internalType": "uint256",
          "name": "endTime",
          "type": "uint256"
        },
        {
          "indexed": false,
          "internalType": "uint256",
          "name": "minimumDonationAmount",
          "type": "uint256"
        }
      ],
      "name": "RaffleCreated",
      "type": "event"
    },
    {
      "anonymous": false,
      "inputs": [
        {
          "indexed": true,
          "internalType": "bytes32",
          "name": "role",
          "type": "bytes32"
        },
        {
          "indexed": true,
          "internalType": "bytes32",
          "name": "previousAdminRole",
          "type": "bytes32"
        },
        {
          "indexed": true,
          "internalType": "bytes32",
          "name": "newAdminRole",
          "type": "bytes32"
        }
      ],
      "name": "RoleAdminChanged",
      "type": "event"
    },
    {
      "anonymous": false,
      "inputs": [
        {
          "indexed": true,
          "internalType": "bytes32",
          "name": "role",
          "type": "bytes32"
        },
        {
          "indexed": true,
          "internalType": "address",
          "name": "account",
          "type": "address"
        },
        {
          "indexed": true,
          "internalType": "address",
          "name": "sender",
          "type": "address"
        }
      ],
      "name": "RoleGranted",
      "type": "event"
    },
    {
      "anonymous": false,
      "inputs": [
        {
          "indexed": true,
          "internalType": "bytes32",
          "name": "role",
          "type": "bytes32"
        },
        {
          "indexed": true,
          "internalType": "address",
          "name": "account",
          "type": "address"
        },
        {
          "indexed": true,
          "internalType": "address",
          "name": "sender",
          "type": "address"
        }
      ],
      "name": "RoleRevoked",
      "type": "event"
    },
    {
      "anonymous": false,
      "inputs": [
        {
          "indexed": false,
          "internalType": "address",
          "name": "nftAuthorWallet",
          "type": "address"
        }
      ],
      "name": "nftAuthorWalletAddressSet",
      "type": "event"
    },
    {
      "inputs": [],
      "name": "CURATOR_ROLE",
      "outputs": [
        {
          "internalType": "bytes32",
          "name": "",
          "type": "bytes32"
        }
      ],
      "stateMutability": "view",
      "type": "function"
    },
    {
      "inputs": [],
      "name": "DAOWallet",
      "outputs": [
        {
          "internalType": "address",
          "name": "",
          "type": "address"
        }
      ],
      "stateMutability": "view",
      "type": "function"
    },
    {
      "inputs": [],
      "name": "DEFAULT_ADMIN_ROLE",
      "outputs": [
        {
          "internalType": "bytes32",
          "name": "",
          "type": "bytes32"
        }
      ],
      "stateMutability": "view",
      "type": "function"
    },
    {
      "inputs": [],
      "name": "USDC",
      "outputs": [
        {
          "internalType": "contract IERC20",
          "name": "",
          "type": "address"
        }
      ],
      "stateMutability": "view",
      "type": "function"
    },
    {
      "inputs": [
        {
          "components": [
            {
              "internalType": "address",
              "name": "nftContract",
              "type": "address"
            },
            {
              "internalType": "address",
              "name": "nftOwner",
              "type": "address"
            },
            {
              "internalType": "uint256",
              "name": "tokenID",
              "type": "uint256"
            },
            {
              "internalType": "uint256",
              "name": "startTime",
              "type": "uint256"
            },
            {
              "internalType": "uint256",
              "name": "endTime",
              "type": "uint256"
            },
            {
              "internalType": "uint256",
              "name": "minimumDonationAmount",
              "type": "uint256"
            },
            {
              "internalType": "address",
              "name": "topDonor",
              "type": "address"
            },
            {
              "internalType": "uint256",
              "name": "topDonatedAmount",
              "type": "uint256"
            }
          ],
          "internalType": "struct Raffle.Raffle",
          "name": "_raffle",
          "type": "tuple"
        }
      ],
      "name": "createRaffle",
      "outputs": [
        {
          "internalType": "uint256",
          "name": "",
          "type": "uint256"
        }
      ],
      "stateMutability": "nonpayable",
      "type": "function"
    },
    {
      "inputs": [
        {
          "components": [
            {
              "internalType": "uint256",
              "name": "raffleID",
              "type": "uint256"
            },
            {
              "internalType": "uint256",
              "name": "amount",
              "type": "uint256"
            },
            {
              "internalType": "uint256",
              "name": "timestamp",
              "type": "uint256"
            }
          ],
          "internalType": "struct Raffle.Donation",
          "name": "_donation",
          "type": "tuple"
        }
      ],
      "name": "donate",
      "outputs": [
        {
          "internalType": "uint256",
          "name": "",
          "type": "uint256"
        }
      ],
      "stateMutability": "payable",
      "type": "function"
    },
    {
      "inputs": [],
      "name": "donationCount",
      "outputs": [
        {
          "internalType": "uint256",
          "name": "",
          "type": "uint256"
        }
      ],
      "stateMutability": "view",
      "type": "function"
    },
    {
      "inputs": [
        {
          "internalType": "uint256",
          "name": "",
          "type": "uint256"
        }
      ],
      "name": "donations",
      "outputs": [
        {
          "internalType": "uint256",
          "name": "raffleID",
          "type": "uint256"
        },
        {
          "internalType": "uint256",
          "name": "amount",
          "type": "uint256"
        },
        {
          "internalType": "uint256",
          "name": "timestamp",
          "type": "uint256"
        }
      ],
      "stateMutability": "view",
      "type": "function"
    },
    {
      "inputs": [
        {
          "internalType": "uint256",
          "name": "",
          "type": "uint256"
        },
        {
          "internalType": "uint256",
          "name": "",
          "type": "uint256"
        }
      ],
      "name": "donorsArrayPerCycle",
      "outputs": [
        {
          "internalType": "address",
          "name": "",
          "type": "address"
        }
      ],
      "stateMutability": "view",
      "type": "function"
    },
    {
      "inputs": [
        {
          "internalType": "address",
          "name": "donor",
          "type": "address"
        },
        {
          "internalType": "uint256",
          "name": "raffleID",
          "type": "uint256"
        }
      ],
      "name": "getDonationCountPerAddressPerCycle",
      "outputs": [
        {
          "internalType": "uint256",
          "name": "",
          "type": "uint256"
        }
      ],
      "stateMutability": "nonpayable",
      "type": "function"
    },
    {
      "inputs": [
        {
          "internalType": "uint256",
          "name": "raffleID",
          "type": "uint256"
        }
      ],
      "name": "getDonorsPerCycle",
      "outputs": [
        {
          "internalType": "address[]",
          "name": "",
          "type": "address[]"
        }
      ],
      "stateMutability": "view",
      "type": "function"
    },
    {
      "inputs": [
        {
          "internalType": "uint256",
          "name": "raffleID",
          "type": "uint256"
        }
      ],
      "name": "getHighestDonationPerCycle",
      "outputs": [
        {
          "internalType": "uint256",
          "name": "",
          "type": "uint256"
        }
      ],
      "stateMutability": "view",
      "type": "function"
    },
    {
      "inputs": [
        {
          "internalType": "bytes32",
          "name": "role",
          "type": "bytes32"
        }
      ],
      "name": "getRoleAdmin",
      "outputs": [
        {
          "internalType": "bytes32",
          "name": "",
          "type": "bytes32"
        }
      ],
      "stateMutability": "view",
      "type": "function"
    },
    {
      "inputs": [
        {
          "internalType": "uint256",
          "name": "raffleID",
          "type": "uint256"
        }
      ],
      "name": "getTopDonor",
      "outputs": [
        {
          "internalType": "address",
          "name": "",
          "type": "address"
        }
      ],
      "stateMutability": "view",
      "type": "function"
    },
    {
      "inputs": [
        {
          "internalType": "uint256",
          "name": "raffleID",
          "type": "uint256"
        },
        {
          "internalType": "address",
          "name": "account",
          "type": "address"
        }
      ],
      "name": "getTotalDonationPerAddressPerCycle",
      "outputs": [
        {
          "internalType": "uint256",
          "name": "",
          "type": "uint256"
        }
      ],
      "stateMutability": "view",
      "type": "function"
    },
    {
      "inputs": [
        {
          "internalType": "uint256",
          "name": "raffleID",
          "type": "uint256"
        }
      ],
      "name": "getTotalDonationsPerCycle",
      "outputs": [
        {
          "internalType": "uint256",
          "name": "",
          "type": "uint256"
        }
      ],
      "stateMutability": "view",
      "type": "function"
    },
    {
      "inputs": [
        {
          "internalType": "bytes32",
          "name": "role",
          "type": "bytes32"
        },
        {
          "internalType": "address",
          "name": "account",
          "type": "address"
        }
      ],
      "name": "grantRole",
      "outputs": [],
      "stateMutability": "nonpayable",
      "type": "function"
    },
    {
      "inputs": [
        {
          "internalType": "bytes32",
          "name": "role",
          "type": "bytes32"
        },
        {
          "internalType": "address",
          "name": "account",
          "type": "address"
        }
      ],
      "name": "hasRole",
      "outputs": [
        {
          "internalType": "bool",
          "name": "",
          "type": "bool"
        }
      ],
      "stateMutability": "view",
      "type": "function"
    },
    {
      "inputs": [],
      "name": "nftAuthorWallet",
      "outputs": [
        {
          "internalType": "address",
          "name": "",
          "type": "address"
        }
      ],
      "stateMutability": "view",
      "type": "function"
    },
    {
      "inputs": [],
      "name": "owner",
      "outputs": [
        {
          "internalType": "address",
          "name": "",
          "type": "address"
        }
      ],
      "stateMutability": "view",
      "type": "function"
    },
    {
      "inputs": [],
      "name": "raffleCount",
      "outputs": [
        {
          "internalType": "uint256",
          "name": "",
          "type": "uint256"
        }
      ],
      "stateMutability": "view",
      "type": "function"
    },
    {
      "inputs": [
        {
          "internalType": "uint256",
          "name": "",
          "type": "uint256"
        }
      ],
      "name": "raffles",
      "outputs": [
        {
          "internalType": "address",
          "name": "nftContract",
          "type": "address"
        },
        {
          "internalType": "address",
          "name": "nftOwner",
          "type": "address"
        },
        {
          "internalType": "uint256",
          "name": "tokenID",
          "type": "uint256"
        },
        {
          "internalType": "uint256",
          "name": "startTime",
          "type": "uint256"
        },
        {
          "internalType": "uint256",
          "name": "endTime",
          "type": "uint256"
        },
        {
          "internalType": "uint256",
          "name": "minimumDonationAmount",
          "type": "uint256"
        },
        {
          "internalType": "address",
          "name": "topDonor",
          "type": "address"
        },
        {
          "internalType": "uint256",
          "name": "topDonatedAmount",
          "type": "uint256"
        }
      ],
      "stateMutability": "view",
      "type": "function"
    },
    {
      "inputs": [],
      "name": "renounceOwnership",
      "outputs": [],
      "stateMutability": "nonpayable",
      "type": "function"
    },
    {
      "inputs": [
        {
          "internalType": "bytes32",
          "name": "role",
          "type": "bytes32"
        },
        {
          "internalType": "address",
          "name": "account",
          "type": "address"
        }
      ],
      "name": "renounceRole",
      "outputs": [],
      "stateMutability": "nonpayable",
      "type": "function"
    },
    {
      "inputs": [
        {
          "internalType": "bytes32",
          "name": "role",
          "type": "bytes32"
        },
        {
          "internalType": "address",
          "name": "account",
          "type": "address"
        }
      ],
      "name": "revokeRole",
      "outputs": [],
      "stateMutability": "nonpayable",
      "type": "function"
    },
    {
      "inputs": [
        {
          "internalType": "uint256",
          "name": "raffleID",
          "type": "uint256"
        }
      ],
      "name": "sendNFTRewards",
      "outputs": [],
      "stateMutability": "nonpayable",
      "type": "function"
    },
    {
      "inputs": [
        {
          "internalType": "address",
          "name": "curator",
          "type": "address"
        }
      ],
      "name": "setCuratorRole",
      "outputs": [],
      "stateMutability": "nonpayable",
      "type": "function"
    },
    {
      "inputs": [
        {
          "internalType": "address",
          "name": "_DAOWallet",
          "type": "address"
        }
      ],
      "name": "setDAOWalletAddress",
      "outputs": [],
      "stateMutability": "nonpayable",
      "type": "function"
    },
    {
      "inputs": [
        {
          "internalType": "address",
          "name": "_nftAuthorWallet",
          "type": "address"
        }
      ],
      "name": "setNftAuthorWalletAddress",
      "outputs": [],
      "stateMutability": "nonpayable",
      "type": "function"
    },
    {
      "inputs": [
        {
          "internalType": "bytes4",
          "name": "interfaceId",
          "type": "bytes4"
        }
      ],
      "name": "supportsInterface",
      "outputs": [
        {
          "internalType": "bool",
          "name": "",
          "type": "bool"
        }
      ],
      "stateMutability": "view",
      "type": "function"
    },
    {
      "inputs": [
        {
          "internalType": "uint256",
          "name": "",
          "type": "uint256"
        },
        {
          "internalType": "address",
          "name": "",
          "type": "address"
        }
      ],
      "name": "totalDonationPerAddressPerCycle",
      "outputs": [
        {
          "internalType": "uint256",
          "name": "",
          "type": "uint256"
        }
      ],
      "stateMutability": "view",
      "type": "function"
    },
    {
      "inputs": [
        {
          "internalType": "address",
          "name": "newOwner",
          "type": "address"
        }
      ],
      "name": "transferOwnership",
      "outputs": [],
      "stateMutability": "nonpayable",
      "type": "function"
    }
  ],
  "bytecode": "0x60806040523480156200001157600080fd5b506040516200213038038062002130833981016040819052620000349162000124565b6200003f33620000d4565b6001600255600780546001600160a01b0319166001600160a01b03831690811790915560405163095ea7b360e01b8152306004820152600019602482015263095ea7b3906044016020604051808303816000875af1158015620000a6573d6000803e3d6000fd5b505050506040513d601f19601f82011682018060405250810190620000cc919062000156565b50506200017a565b600080546001600160a01b038381166001600160a01b0319831681178455604051919092169283917f8be0079c531659141344cd1fd0a4f28419497f9722a3daafe3b4186f6b6457e09190a35050565b6000602082840312156200013757600080fd5b81516001600160a01b03811681146200014f57600080fd5b9392505050565b6000602082840312156200016957600080fd5b815180151581146200014f57600080fd5b611fa6806200018a6000396000f3fe6080604052600436106101e35760003560e01c806386d392ba11610102578063c1996e7f11610095578063ea36c61711610064578063ea36c617146106c8578063eaf03b4014610700578063f2fde38b1461072d578063f8626af81461074d57600080fd5b8063c1996e7f14610625578063d547741f14610645578063dfdb5ae414610665578063e83ed8501461068557600080fd5b8063a217fddf116100d1578063a217fddf146105ad578063a54c120c146105c2578063a8754ef1146105d8578063be91e3941461060557600080fd5b806386d392ba1461050957806389a30271146105295780638da5cb5b1461054957806391d148541461056757600080fd5b80634a2cfb541161017a5780636e338461116101495780636e33846114610466578063715018a6146104865780637859165f1461049b57806382b02eed146104e957600080fd5b80634a2cfb54146103075780634c43adea1461033b5780635d4bc0ce1461037e5780635f99223b1461043957600080fd5b80632abfab4d116101b65780632abfab4d146102915780632f2ff15d146102a757806336568abe146102c75780633b940eb5146102e757600080fd5b806301ffc9a7146101e857806321a135441461021d578063248a9ca31461023f5780632648bc7e1461027e575b600080fd5b3480156101f457600080fd5b50610208610203366004611b29565b6107a4565b60405190151581526020015b60405180910390f35b34801561022957600080fd5b5061023d610238366004611b6b565b61083d565b005b34801561024b57600080fd5b5061027061025a366004611b6b565b6000908152600160208190526040909120015490565b604051908152602001610214565b61027061028c366004611b9a565b610b31565b34801561029d57600080fd5b5061027060065481565b3480156102b357600080fd5b5061023d6102c2366004611c20565b610fe9565b3480156102d357600080fd5b5061023d6102e2366004611c20565b611015565b3480156102f357600080fd5b5061023d610302366004611c4c565b6110a1565b34801561031357600080fd5b506102707f850d585eb7f024ccee5e68e55f2c26cc72e1e6ee456acf62135757a5eb9d4a1081565b34801561034757600080fd5b50610270610356366004611c20565b6000918252600b602090815260408084206001600160a01b0393909316845291905290205490565b34801561038a57600080fd5b506103ec610399366004611b6b565b600860205260009081526040902080546001820154600283015460038401546004850154600586015460068701546007909701546001600160a01b03968716979587169694959394929391929091169088565b604080516001600160a01b03998a16815297891660208901528701959095526060860193909352608085019190915260a084015290921660c082015260e081019190915261010001610214565b34801561044557600080fd5b50610270610454366004611b6b565b6000908152600e602052604090205490565b34801561047257600080fd5b5061023d610481366004611c4c565b611128565b34801561049257600080fd5b5061023d6111fe565b3480156104a757600080fd5b506104d16104b6366004611b6b565b6000908152600d60205260409020546001600160a01b031690565b6040516001600160a01b039091168152602001610214565b3480156104f557600080fd5b506004546104d1906001600160a01b031681565b34801561051557600080fd5b506104d1610524366004611c67565b611264565b34801561053557600080fd5b506007546104d1906001600160a01b031681565b34801561055557600080fd5b506000546001600160a01b03166104d1565b34801561057357600080fd5b50610208610582366004611c20565b60009182526001602090815260408084206001600160a01b0393909316845291905290205460ff1690565b3480156105b957600080fd5b50610270600081565b3480156105ce57600080fd5b5061027060055481565b3480156105e457600080fd5b506105f86105f3366004611b6b565b61129c565b6040516102149190611c89565b34801561061157600080fd5b50610270610620366004611cd6565b611308565b34801561063157600080fd5b5061023d610640366004611c4c565b6114fd565b34801561065157600080fd5b5061023d610660366004611c20565b6115cc565b34801561067157600080fd5b506003546104d1906001600160a01b031681565b34801561069157600080fd5b506102706106a0366004611d89565b6001600160a01b03919091166000908152600f60209081526040808320938352929052205490565b3480156106d457600080fd5b506102706106e3366004611c20565b600b60209081526000928352604080842090915290825290205481565b34801561070c57600080fd5b5061027061071b366004611b6b565b6000908152600a602052604090205490565b34801561073957600080fd5b5061023d610748366004611c4c565b6115f3565b34801561075957600080fd5b50610789610768366004611b6b565b60096020526000908152604090208054600182015460029092015490919083565b60408051938452602084019290925290820152606001610214565b60007fffffffff0000000000000000000000000000000000000000000000000000000082167f7965db0b00000000000000000000000000000000000000000000000000000000148061083757507f01ffc9a7000000000000000000000000000000000000000000000000000000007fffffffff000000000000000000000000000000000000000000000000000000008316145b92915050565b6000546001600160a01b0316331461089c5760405162461bcd60e51b815260206004820181905260248201527f4f776e61626c653a2063616c6c6572206973206e6f7420746865206f776e657260448201526064015b60405180910390fd5b6000818152600860205260409020600401544210156108e7576040517fcdf268ad00000000000000000000000000000000000000000000000000000000815260040160405180910390fd5b60006108f2826116d2565b6000838152600d6020526040812054919250906001600160a01b031660008481526008602052604080822080546002909101549151637921219560e11b81523060048201526001600160a01b038086166024830152604482018490526001606483015260a0608483015260a48201949094529394509190911691829063f242432a9060c401600060405180830381600087803b15801561099157600080fd5b505af11580156109a5573d6000803e3d6000fd5b5050604051637921219560e11b81523060048201526001600160a01b038781166024830152604482018590526001606483015260a06084830152600060a48301528516925063f242432a915060c401600060405180830381600087803b158015610a0e57600080fd5b505af1158015610a22573d6000803e3d6000fd5b5050600354604051637921219560e11b81523060048201526001600160a01b039182166024820152604481018590526001606482015260a06084820152600060a4820152908516925063f242432a915060c401600060405180830381600087803b158015610a8f57600080fd5b505af1158015610aa3573d6000803e3d6000fd5b505060048054604051637921219560e11b815230928101929092526001600160a01b039081166024830152604482018590526001606483015260a06084830152600060a48301528516925063f242432a915060c401600060405180830381600087803b158015610b1257600080fd5b505af1158015610b26573d6000803e3d6000fd5b505050505050505050565b6000600280541415610b855760405162461bcd60e51b815260206004820152601f60248201527f5265656e7472616e637947756172643a207265656e7472616e742063616c6c006044820152606401610893565b60028080558251600081815260086020818152604080842081516101008101835281546001600160a01b0390811682526001830154811682860152978201549281019290925260038101546060830152600481015460808301819052600582015460a0840152600682015490971660c08301526007015460e082015292849052529091421115610c41576040517fd328a25200000000000000000000000000000000000000000000000000000000815260040160405180910390fd5b6000828152600860209081526040909120600501549085015111610c91576040517f7957a08500000000000000000000000000000000000000000000000000000000815260040160405180910390fd5b60068054906000610ca183611dc9565b90915550504260408086019182526006546000908152600960209081528282208851815581890151600182018190559451600290910155858252600b815282822033835290529081208054909190610cfa908490611de4565b90915550506020808501516000848152600a90925260408220805491929091610d24908490611de4565b90915550506000828152600c6020908152604080832080546001810182559084528284200180546001600160a01b03191633908117909155858452600b83528184208185529092529091205460e083015160c0840151919290916001600160a01b03161415610e385785602001518360e001818151610da39190611de4565b905250600084815260086020908152604091829020855181546001600160a01b03199081166001600160a01b03928316178355928701516001830180548516918316919091179055928601516002820155606086015160038201556080860151600482015560a0860151600582015560c0860151600682018054909316931692909217905560e0840151600790910155610ef5565b80821115610ef55760e083018281526000858152600e602090815260408083208590553360c08801818152898552600d845282852080546001600160a01b0319908116909317905560088452938290208851815483166001600160a01b03918216178255938901516001820180548416918616919091179055918801516002830155606088015160038301556080880151600483015560a08801516005830155925160068201805490941692169190911790915590516007909101555b60075460035460208801516040517f23b872dd0000000000000000000000000000000000000000000000000000000081523360048201526001600160a01b03928316602482015260448101919091529116906323b872dd906064016020604051808303816000875af1158015610f6f573d6000803e3d6000fd5b505050506040513d601f19601f82011682018060405250810190610f939190611dfc565b50602080870151604080513381529283018790528201527fdd5f9bf5cf036a4da6a1035c7f29f422c275d1e6f6b9e2a552e3e54228b390a59060600160405180910390a150506006546001600255949350505050565b600082815260016020819052604090912001546110068133611767565b61101083836117e7565b505050565b6001600160a01b03811633146110935760405162461bcd60e51b815260206004820152602f60248201527f416363657373436f6e74726f6c3a2063616e206f6e6c792072656e6f756e636560448201527f20726f6c657320666f722073656c6600000000000000000000000000000000006064820152608401610893565b61109d828261186e565b5050565b6000546001600160a01b031633146110fb5760405162461bcd60e51b815260206004820181905260248201527f4f776e61626c653a2063616c6c6572206973206e6f7420746865206f776e65726044820152606401610893565b6111257f850d585eb7f024ccee5e68e55f2c26cc72e1e6ee456acf62135757a5eb9d4a10826117e7565b50565b6000546001600160a01b031633146111825760405162461bcd60e51b815260206004820181905260248201527f4f776e61626c653a2063616c6c6572206973206e6f7420746865206f776e65726044820152606401610893565b6001600160a01b0381166111a9576040516342bcdf7f60e11b815260040160405180910390fd5b600380546001600160a01b0319166001600160a01b0383169081179091556040519081527f99e7e8f551bb4a95839337c445d25c103e8b923f563ec440667dd5c1bb5fa329906020015b60405180910390a150565b6000546001600160a01b031633146112585760405162461bcd60e51b815260206004820181905260248201527f4f776e61626c653a2063616c6c6572206973206e6f7420746865206f776e65726044820152606401610893565b61126260006118f1565b565b600c602052816000526040600020818154811061128057600080fd5b6000918252602090912001546001600160a01b03169150829050565b6000818152600c60209081526040918290208054835181840281018401909452808452606093928301828280156112fc57602002820191906000526020600020905b81546001600160a01b031681526001909101906020018083116112de575b50505050509050919050565b60007f850d585eb7f024ccee5e68e55f2c26cc72e1e6ee456acf62135757a5eb9d4a106113358133611767565b8251608084015160608501511115611379576040517fd22dcab600000000000000000000000000000000000000000000000000000000815260040160405180910390fd5b6005805490600061138983611dc9565b909155505060058054600090815260086020908152604091829020875181546001600160a01b03199081166001600160a01b039283161783558984015160018401805483169184169190911790558985015160028401556060808b01516003850181905560808c01516004860181905560a08d015198860189905560c08d015160068701805490951695169490941790925560e08b0151600790940193909355845190815292830152918101929092527f9aa2065fb625f0039ef34f9a9cb1fe8e45055c5aa4d830c016505ee55a598a84910160405180910390a160208401516040808601519051637921219560e11b81526001600160a01b039283166004808301919091523060248301526044820192909252606481019190915260a06084820152600060a48201529082169063f242432a9060c401600060405180830381600087803b1580156114da57600080fd5b505af11580156114ee573d6000803e3d6000fd5b50506005549695505050505050565b6000546001600160a01b031633146115575760405162461bcd60e51b815260206004820181905260248201527f4f776e61626c653a2063616c6c6572206973206e6f7420746865206f776e65726044820152606401610893565b6001600160a01b03811661157e576040516342bcdf7f60e11b815260040160405180910390fd5b600480546001600160a01b0319166001600160a01b0383169081179091556040519081527fa099340b9009966c80f2d51f8425c15ffe5713a8c732f3d9e3b0d213ad03e35b906020016111f3565b600082815260016020819052604090912001546115e98133611767565b611010838361186e565b6000546001600160a01b0316331461164d5760405162461bcd60e51b815260206004820181905260248201527f4f776e61626c653a2063616c6c6572206973206e6f7420746865206f776e65726044820152606401610893565b6001600160a01b0381166116c95760405162461bcd60e51b815260206004820152602660248201527f4f776e61626c653a206e6577206f776e657220697320746865207a65726f206160448201527f64647265737300000000000000000000000000000000000000000000000000006064820152608401610893565b611125816118f1565b6000818152600c602090815260408083205481514281850152438184015244606082015260808082018790528351808303909101815260a0909101909252815191909201208290611724908390611e1e565b6000858152600c60205260408120805492935090918390811061174957611749611e40565b6000918252602090912001546001600160a01b031695945050505050565b60008281526001602090815260408083206001600160a01b038516845290915290205460ff1661109d576117a5816001600160a01b03166014611941565b6117b0836020611941565b6040516020016117c1929190611e86565b60408051601f198184030181529082905262461bcd60e51b825261089391600401611f07565b60008281526001602090815260408083206001600160a01b038516845290915290205460ff1661109d5760008281526001602081815260408084206001600160a01b0386168086529252808420805460ff19169093179092559051339285917f2f8788117e7eff1d82e926ec794901d17c78024a50270940304540a733656f0d9190a45050565b60008281526001602090815260408083206001600160a01b038516845290915290205460ff161561109d5760008281526001602090815260408083206001600160a01b0385168085529252808320805460ff1916905551339285917ff6391f5c32d9c69d2a47ea670b442974b53935d1edc7fd64eb21e047a839171b9190a45050565b600080546001600160a01b038381166001600160a01b0319831681178455604051919092169283917f8be0079c531659141344cd1fd0a4f28419497f9722a3daafe3b4186f6b6457e09190a35050565b60606000611950836002611f3a565b61195b906002611de4565b67ffffffffffffffff81111561197357611973611b84565b6040519080825280601f01601f19166020018201604052801561199d576020820181803683370190505b5090507f3000000000000000000000000000000000000000000000000000000000000000816000815181106119d4576119d4611e40565b60200101906001600160f81b031916908160001a9053507f780000000000000000000000000000000000000000000000000000000000000081600181518110611a1f57611a1f611e40565b60200101906001600160f81b031916908160001a9053506000611a43846002611f3a565b611a4e906001611de4565b90505b6001811115611ad3577f303132333435363738396162636465660000000000000000000000000000000085600f1660108110611a8f57611a8f611e40565b1a60f81b828281518110611aa557611aa5611e40565b60200101906001600160f81b031916908160001a90535060049490941c93611acc81611f59565b9050611a51565b508315611b225760405162461bcd60e51b815260206004820181905260248201527f537472696e67733a20686578206c656e67746820696e73756666696369656e746044820152606401610893565b9392505050565b600060208284031215611b3b57600080fd5b81357fffffffff0000000000000000000000000000000000000000000000000000000081168114611b2257600080fd5b600060208284031215611b7d57600080fd5b5035919050565b634e487b7160e01b600052604160045260246000fd5b600060608284031215611bac57600080fd5b6040516060810181811067ffffffffffffffff82111715611bdd57634e487b7160e01b600052604160045260246000fd5b80604052508235815260208301356020820152604083013560408201528091505092915050565b80356001600160a01b0381168114611c1b57600080fd5b919050565b60008060408385031215611c3357600080fd5b82359150611c4360208401611c04565b90509250929050565b600060208284031215611c5e57600080fd5b611b2282611c04565b60008060408385031215611c7a57600080fd5b50508035926020909101359150565b6020808252825182820181905260009190848201906040850190845b81811015611cca5783516001600160a01b031683529284019291840191600101611ca5565b50909695505050505050565b6000610100808385031215611cea57600080fd5b6040519081019067ffffffffffffffff82118183101715611d1b57634e487b7160e01b600052604160045260246000fd5b81604052611d2884611c04565b8152611d3660208501611c04565b602082015260408401356040820152606084013560608201526080840135608082015260a084013560a0820152611d6f60c08501611c04565b60c082015260e084013560e0820152809250505092915050565b60008060408385031215611d9c57600080fd5b611da583611c04565b946020939093013593505050565b634e487b7160e01b600052601160045260246000fd5b6000600019821415611ddd57611ddd611db3565b5060010190565b60008219821115611df757611df7611db3565b500190565b600060208284031215611e0e57600080fd5b81518015158114611b2257600080fd5b600082611e3b57634e487b7160e01b600052601260045260246000fd5b500690565b634e487b7160e01b600052603260045260246000fd5b60005b83811015611e71578181015183820152602001611e59565b83811115611e80576000848401525b50505050565b7f416363657373436f6e74726f6c3a206163636f756e7420000000000000000000815260008351611ebe816017850160208801611e56565b7f206973206d697373696e6720726f6c65200000000000000000000000000000006017918401918201528351611efb816028840160208801611e56565b01602801949350505050565b6020815260008251806020840152611f26816040850160208701611e56565b601f01601f19169190910160400192915050565b6000816000190483118215151615611f5457611f54611db3565b500290565b600081611f6857611f68611db3565b50600019019056fea2646970667358221220a2fcce2d2873151f69f6bae31b331eccfa0d5afe82dce8d8b5d9bbbbe0d79dfe64736f6c634300080b0033",
  "linkReferences": {},
  "deployedLinkReferences": {}
}