{
  "_format": "hh-sol-artifact-1",
  "contractName": "RewardNFT",
  "sourceName": "contracts/RewardNFT.sol",
  "abi": [
    {
      "inputs": [],
      "stateMutability": "nonpayable",
      "type": "constructor"
    },
    {
      "anonymous": false,
      "inputs": [
        {
          "indexed": true,
          "internalType": "address",
          "name": "account",
          "type": "address"
        },
        {
          "indexed": true,
          "internalType": "address",
          "name": "operator",
          "type": "address"
        },
        {
          "indexed": false,
          "internalType": "bool",
          "name": "approved",
          "type": "bool"
        }
      ],
      "name": "ApprovalForAll",
      "type": "event"
    },
    {
      "anonymous": false,
      "inputs": [
        {
          "indexed": true,
          "internalType": "address",
          "name": "previousOwner",
          "type": "address"
        },
        {
          "indexed": true,
          "internalType": "address",
          "name": "newOwner",
          "type": "address"
        }
      ],
      "name": "OwnershipTransferred",
      "type": "event"
    },
    {
      "anonymous": false,
      "inputs": [
        {
          "indexed": true,
          "internalType": "address",
          "name": "operator",
          "type": "address"
        },
        {
          "indexed": true,
          "internalType": "address",
          "name": "from",
          "type": "address"
        },
        {
          "indexed": true,
          "internalType": "address",
          "name": "to",
          "type": "address"
        },
        {
          "indexed": false,
          "internalType": "uint256[]",
          "name": "ids",
          "type": "uint256[]"
        },
        {
          "indexed": false,
          "internalType": "uint256[]",
          "name": "values",
          "type": "uint256[]"
        }
      ],
      "name": "TransferBatch",
      "type": "event"
    },
    {
      "anonymous": false,
      "inputs": [
        {
          "indexed": true,
          "internalType": "address",
          "name": "operator",
          "type": "address"
        },
        {
          "indexed": true,
          "internalType": "address",
          "name": "from",
          "type": "address"
        },
        {
          "indexed": true,
          "internalType": "address",
          "name": "to",
          "type": "address"
        },
        {
          "indexed": false,
          "internalType": "uint256",
          "name": "id",
          "type": "uint256"
        },
        {
          "indexed": false,
          "internalType": "uint256",
          "name": "value",
          "type": "uint256"
        }
      ],
      "name": "TransferSingle",
      "type": "event"
    },
    {
      "anonymous": false,
      "inputs": [
        {
          "indexed": false,
          "internalType": "string",
          "name": "value",
          "type": "string"
        },
        {
          "indexed": true,
          "internalType": "uint256",
          "name": "id",
          "type": "uint256"
        }
      ],
      "name": "URI",
      "type": "event"
    },
    {
      "inputs": [
        {
          "internalType": "address",
          "name": "account",
          "type": "address"
        },
        {
          "internalType": "uint256",
          "name": "id",
          "type": "uint256"
        }
      ],
      "name": "balanceOf",
      "outputs": [
        {
          "internalType": "uint256",
          "name": "",
          "type": "uint256"
        }
      ],
      "stateMutability": "view",
      "type": "function"
    },
    {
      "inputs": [
        {
          "internalType": "address[]",
          "name": "accounts",
          "type": "address[]"
        },
        {
          "internalType": "uint256[]",
          "name": "ids",
          "type": "uint256[]"
        }
      ],
      "name": "balanceOfBatch",
      "outputs": [
        {
          "internalType": "uint256[]",
          "name": "",
          "type": "uint256[]"
        }
      ],
      "stateMutability": "view",
      "type": "function"
    },
    {
      "inputs": [
        {
          "internalType": "address",
          "name": "to",
          "type": "address"
        },
        {
          "internalType": "uint256[]",
          "name": "ids",
          "type": "uint256[]"
        },
        {
          "internalType": "uint256[]",
          "name": "amounts",
          "type": "uint256[]"
        },
        {
          "internalType": "bytes",
          "name": "data",
          "type": "bytes"
        }
      ],
      "name": "batchMint",
      "outputs": [],
      "stateMutability": "nonpayable",
      "type": "function"
    },
    {
      "inputs": [
        {
          "internalType": "address",
          "name": "account",
          "type": "address"
        },
        {
          "internalType": "address",
          "name": "operator",
          "type": "address"
        }
      ],
      "name": "isApprovedForAll",
      "outputs": [
        {
          "internalType": "bool",
          "name": "",
          "type": "bool"
        }
      ],
      "stateMutability": "view",
      "type": "function"
    },
    {
      "inputs": [
        {
          "internalType": "address",
          "name": "to",
          "type": "address"
        },
        {
          "internalType": "uint256",
          "name": "id",
          "type": "uint256"
        },
        {
          "internalType": "uint256",
          "name": "amount",
          "type": "uint256"
        },
        {
          "internalType": "bytes",
          "name": "data",
          "type": "bytes"
        }
      ],
      "name": "mint",
      "outputs": [],
      "stateMutability": "nonpayable",
      "type": "function"
    },
    {
      "inputs": [],
      "name": "owner",
      "outputs": [
        {
          "internalType": "address",
          "name": "",
          "type": "address"
        }
      ],
      "stateMutability": "view",
      "type": "function"
    },
    {
      "inputs": [],
      "name": "renounceOwnership",
      "outputs": [],
      "stateMutability": "nonpayable",
      "type": "function"
    },
    {
      "inputs": [
        {
          "internalType": "address",
          "name": "from",
          "type": "address"
        },
        {
          "internalType": "address",
          "name": "to",
          "type": "address"
        },
        {
          "internalType": "uint256[]",
          "name": "ids",
          "type": "uint256[]"
        },
        {
          "internalType": "uint256[]",
          "name": "amounts",
          "type": "uint256[]"
        },
        {
          "internalType": "bytes",
          "name": "data",
          "type": "bytes"
        }
      ],
      "name": "safeBatchTransferFrom",
      "outputs": [],
      "stateMutability": "nonpayable",
      "type": "function"
    },
    {
      "inputs": [
        {
          "internalType": "address",
          "name": "from",
          "type": "address"
        },
        {
          "internalType": "address",
          "name": "to",
          "type": "address"
        },
        {
          "internalType": "uint256",
          "name": "id",
          "type": "uint256"
        },
        {
          "internalType": "uint256",
          "name": "amount",
          "type": "uint256"
        },
        {
          "internalType": "bytes",
          "name": "data",
          "type": "bytes"
        }
      ],
      "name": "safeTransferFrom",
      "outputs": [],
      "stateMutability": "nonpayable",
      "type": "function"
    },
    {
      "inputs": [
        {
          "internalType": "address",
          "name": "operator",
          "type": "address"
        },
        {
          "internalType": "bool",
          "name": "approved",
          "type": "bool"
        }
      ],
      "name": "setApprovalForAll",
      "outputs": [],
      "stateMutability": "nonpayable",
      "type": "function"
    },
    {
      "inputs": [
        {
          "internalType": "string",
          "name": "newuri",
          "type": "string"
        }
      ],
      "name": "setURI",
      "outputs": [],
      "stateMutability": "nonpayable",
      "type": "function"
    },
    {
      "inputs": [
        {
          "internalType": "bytes4",
          "name": "interfaceId",
          "type": "bytes4"
        }
      ],
      "name": "supportsInterface",
      "outputs": [
        {
          "internalType": "bool",
          "name": "",
          "type": "bool"
        }
      ],
      "stateMutability": "view",
      "type": "function"
    },
    {
      "inputs": [
        {
          "internalType": "address",
          "name": "newOwner",
          "type": "address"
        }
      ],
      "name": "transferOwnership",
      "outputs": [],
      "stateMutability": "nonpayable",
      "type": "function"
    },
    {
      "inputs": [
        {
          "internalType": "uint256",
          "name": "",
          "type": "uint256"
        }
      ],
      "name": "uri",
      "outputs": [
        {
          "internalType": "string",
          "name": "",
          "type": "string"
        }
      ],
      "stateMutability": "view",
      "type": "function"
    }
  ],
  "bytecode": "0x60806040523480156200001157600080fd5b506040518060200160405280600081525062000033816200008e60201b60201c565b506200005462000048620000aa60201b60201c565b620000b260201b60201c565b620000887f2c09f67c3ac2e4e503a81d98283159c5898822dae37c7803da7780bd4c6474ad60001b6200017860201b60201c565b62000290565b8060029080519060200190620000a69291906200017b565b5050565b600033905090565b6000600360009054906101000a900473ffffffffffffffffffffffffffffffffffffffff16905081600360006101000a81548173ffffffffffffffffffffffffffffffffffffffff021916908373ffffffffffffffffffffffffffffffffffffffff1602179055508173ffffffffffffffffffffffffffffffffffffffff168173ffffffffffffffffffffffffffffffffffffffff167f8be0079c531659141344cd1fd0a4f28419497f9722a3daafe3b4186f6b6457e060405160405180910390a35050565b50565b82805462000189906200025a565b90600052602060002090601f016020900481019282620001ad5760008555620001f9565b82601f10620001c857805160ff1916838001178555620001f9565b82800160010185558215620001f9579182015b82811115620001f8578251825591602001919060010190620001db565b5b5090506200020891906200020c565b5090565b5b80821115620002275760008160009055506001016200020d565b5090565b7f4e487b7100000000000000000000000000000000000000000000000000000000600052602260045260246000fd5b600060028204905060018216806200027357607f821691505b602082108114156200028a57620002896200022b565b5b50919050565b61361080620002a06000396000f3fe608060405234801561001057600080fd5b50600436106100e95760003560e01c8063731133e91161008c578063b48ab8b611610066578063b48ab8b614610246578063e985e9c514610262578063f242432a14610292578063f2fde38b146102ae576100e9565b8063731133e9146101f05780638da5cb5b1461020c578063a22cb4651461022a576100e9565b80630e89341c116100c85780630e89341c1461016a5780632eb2c2d61461019a5780634e1273f4146101b6578063715018a6146101e6576100e9565b8062fdd58e146100ee57806301ffc9a71461011e57806302fe53051461014e575b600080fd5b61010860048036038101906101039190612004565b6102ca565b6040516101159190612053565b60405180910390f35b610138600480360381019061013391906120c6565b610393565b604051610145919061210e565b60405180910390f35b6101686004803603810190610163919061226f565b610475565b005b610184600480360381019061017f91906122b8565b610581565b604051610191919061236d565b60405180910390f35b6101b460048036038101906101af91906124f8565b610615565b005b6101d060048036038101906101cb919061268a565b6107ea565b6040516101dd91906127c0565b60405180910390f35b6101ee610903565b005b61020a600480360381019061020591906127e2565b61098b565b005b610214610a21565b6040516102219190612874565b60405180910390f35b610244600480360381019061023f91906128bb565b610a4b565b005b610260600480360381019061025b91906128fb565b610a61565b005b61027c600480360381019061027791906129b6565b610af7565b604051610289919061210e565b60405180910390f35b6102ac60048036038101906102a791906129f6565b610b8b565b005b6102c860048036038101906102c39190612a8d565b610d60565b005b60008073ffffffffffffffffffffffffffffffffffffffff168373ffffffffffffffffffffffffffffffffffffffff16141561033b576040517f08c379a000000000000000000000000000000000000000000000000000000000815260040161033290612b2c565b60405180910390fd5b60008083815260200190815260200160002060008473ffffffffffffffffffffffffffffffffffffffff1673ffffffffffffffffffffffffffffffffffffffff16815260200190815260200160002054905092915050565b60007fd9b67a26000000000000000000000000000000000000000000000000000000007bffffffffffffffffffffffffffffffffffffffffffffffffffffffff1916827bffffffffffffffffffffffffffffffffffffffffffffffffffffffff1916148061045e57507f0e89341c000000000000000000000000000000000000000000000000000000007bffffffffffffffffffffffffffffffffffffffffffffffffffffffff1916827bffffffffffffffffffffffffffffffffffffffffffffffffffffffff1916145b8061046e575061046d82610e58565b5b9050919050565b61047d610ec2565b73ffffffffffffffffffffffffffffffffffffffff1661049b610a21565b73ffffffffffffffffffffffffffffffffffffffff16146104f1576040517f08c379a00000000000000000000000000000000000000000000000000000000081526004016104e890612b98565b60405180910390fd5b61051d7f253e1bafee0b13f08ce3dcba662d34716301632494beacf793243e6043fdba8460001b610eca565b6105497f9b2b6e744e1c1d6deedc40486b42e378ae00cc5cde40c672f5c25da69f48ef5560001b610eca565b6105757fd18882dbb739c896cfbfd49193cf870a36c5d6637f88770e9fe368bdfbf9e34660001b610eca565b61057e81610ecd565b50565b60606002805461059090612be7565b80601f01602080910402602001604051908101604052809291908181526020018280546105bc90612be7565b80156106095780601f106105de57610100808354040283529160200191610609565b820191906000526020600020905b8154815290600101906020018083116105ec57829003601f168201915b50505050509050919050565b6106417f6127aef160b775631ff2dbaea6c896a88e3c9fac4b73f167000db7284ba8198c60001b610eca565b61066d7f232ed71a1fa53da36c0668616fed173043a4d272da6c00db84fc1cbf7c54c5ae60001b610eca565b6106997f8a7014445f78bf0e0ca311ed233a576842b4b7e1f5e109116cb8f38bb51c939e60001b610eca565b6106c57fa64d68e4af8fa677dc44a5d31a431f38998417923a7e02f47dbd36eda127075460001b610eca565b6106cd610ec2565b73ffffffffffffffffffffffffffffffffffffffff168573ffffffffffffffffffffffffffffffffffffffff16148061071357506107128561070d610ec2565b610af7565b5b610752576040517f08c379a000000000000000000000000000000000000000000000000000000000815260040161074990612c8b565b60405180910390fd5b61077e7f163e78941f888553b768c33200b3adb1695286d21be5fc1439cc673e51d8976c60001b610eca565b6107aa7fbf00ddec063e1653bbb0aea15090935b8c046d42dd1ff0bf10668f05c88e55f960001b610eca565b6107d67ffd1c4e5c24c17bbba3c239715e68990eefafe64222bcb7de1a5e0f087409040b60001b610eca565b6107e38585858585610ee7565b5050505050565b60608151835114610830576040517f08c379a000000000000000000000000000000000000000000000000000000000815260040161082790612d1d565b60405180910390fd5b6000835167ffffffffffffffff81111561084d5761084c612144565b5b60405190808252806020026020018201604052801561087b5781602001602082028036833780820191505090505b50905060005b84518110156108f8576108c88582815181106108a05761089f612d3d565b5b60200260200101518583815181106108bb576108ba612d3d565b5b60200260200101516102ca565b8282815181106108db576108da612d3d565b5b602002602001018181525050806108f190612d9b565b9050610881565b508091505092915050565b61090b610ec2565b73ffffffffffffffffffffffffffffffffffffffff16610929610a21565b73ffffffffffffffffffffffffffffffffffffffff161461097f576040517f08c379a000000000000000000000000000000000000000000000000000000000815260040161097690612b98565b60405180910390fd5b61098960006111fb565b565b6109b77f64a88a665b99933e401ee6cc407053ed16faae550cac61f93b4da2d1f1bafd4860001b610eca565b6109e37f1d6aac8428dab45ab9b1804c7b3a5d64edb1b9db8c330171ab9aaaef13f2b04560001b610eca565b610a0f7f5be22b6d1d960c195060943089f714fa64a824eb0e352d04a6ae22d3bb1ad58260001b610eca565b610a1b848484846112c1565b50505050565b6000600360009054906101000a900473ffffffffffffffffffffffffffffffffffffffff16905090565b610a5d610a56610ec2565b8383611457565b5050565b610a8d7f3798668d82b1fe266b74e21b60c20ced535ee68ff807ac4283620d30ec92153d60001b610eca565b610ab97f1ec2e0893f7519082a1cdca2d4e9552394070fa61fb623481b4ce592d462c91860001b610eca565b610ae57fdbffaa64f5ee4c275cbbbad8764e8bec7d41f7fb2901bf587b6903b510d4326160001b610eca565b610af1848484846115c4565b50505050565b6000600160008473ffffffffffffffffffffffffffffffffffffffff1673ffffffffffffffffffffffffffffffffffffffff16815260200190815260200160002060008373ffffffffffffffffffffffffffffffffffffffff1673ffffffffffffffffffffffffffffffffffffffff16815260200190815260200160002060009054906101000a900460ff16905092915050565b610bb77f76b1feded35b71a2b7955e4b8ac80b57866b6629eadf1b46ccdc715c6a3aff5560001b610eca565b610be37f7b5fb5f88b7ccbd1220a19caee7475332e098faf968635eef8587b8b8016c4fd60001b610eca565b610c0f7f50eaed202a007ee199f19e9a3d62c41d7acd522c87583e9cc0d15a9d2127205160001b610eca565b610c3b7f2a6e3502781790e636266814744f3694fa302516bdac18655b997412d5bbea3160001b610eca565b610c43610ec2565b73ffffffffffffffffffffffffffffffffffffffff168573ffffffffffffffffffffffffffffffffffffffff161480610c895750610c8885610c83610ec2565b610af7565b5b610cc8576040517f08c379a0000000000000000000000000000000000000000000000000000000008152600401610cbf90612e56565b60405180910390fd5b610cf47fbf220f115a9d2410c16f6d0406553b8418dfce947ed2dd6c4e1f1dbf2038877a60001b610eca565b610d207fdfc2a3581908db978a2b0524d96b68c3925037d73c7d6ecf8b85e24f2da28ab860001b610eca565b610d4c7ff3f23384ae137d487929a9c54e4cb1150b0483da7f0fe3c478a6b944e8d54e4260001b610eca565b610d5985858585856117e2565b5050505050565b610d68610ec2565b73ffffffffffffffffffffffffffffffffffffffff16610d86610a21565b73ffffffffffffffffffffffffffffffffffffffff1614610ddc576040517f08c379a0000000000000000000000000000000000000000000000000000000008152600401610dd390612b98565b60405180910390fd5b600073ffffffffffffffffffffffffffffffffffffffff168173ffffffffffffffffffffffffffffffffffffffff161415610e4c576040517f08c379a0000000000000000000000000000000000000000000000000000000008152600401610e4390612ee8565b60405180910390fd5b610e55816111fb565b50565b60007f01ffc9a7000000000000000000000000000000000000000000000000000000007bffffffffffffffffffffffffffffffffffffffffffffffffffffffff1916827bffffffffffffffffffffffffffffffffffffffffffffffffffffffff1916149050919050565b600033905090565b50565b8060029080519060200190610ee3929190611eb9565b5050565b8151835114610f2b576040517f08c379a0000000000000000000000000000000000000000000000000000000008152600401610f2290612f7a565b60405180910390fd5b600073ffffffffffffffffffffffffffffffffffffffff168473ffffffffffffffffffffffffffffffffffffffff161415610f9b576040517f08c379a0000000000000000000000000000000000000000000000000000000008152600401610f929061300c565b60405180910390fd5b6000610fa5610ec2565b9050610fb5818787878787611a64565b60005b8451811015611166576000858281518110610fd657610fd5612d3d565b5b602002602001015190506000858381518110610ff557610ff4612d3d565b5b60200260200101519050600080600084815260200190815260200160002060008b73ffffffffffffffffffffffffffffffffffffffff1673ffffffffffffffffffffffffffffffffffffffff16815260200190815260200160002054905081811015611096576040517f08c379a000000000000000000000000000000000000000000000000000000000815260040161108d9061309e565b60405180910390fd5b81810360008085815260200190815260200160002060008c73ffffffffffffffffffffffffffffffffffffffff1673ffffffffffffffffffffffffffffffffffffffff168152602001908152602001600020819055508160008085815260200190815260200160002060008b73ffffffffffffffffffffffffffffffffffffffff1673ffffffffffffffffffffffffffffffffffffffff168152602001908152602001600020600082825461114b91906130be565b925050819055505050508061115f90612d9b565b9050610fb8565b508473ffffffffffffffffffffffffffffffffffffffff168673ffffffffffffffffffffffffffffffffffffffff168273ffffffffffffffffffffffffffffffffffffffff167f4a39dc06d4c0dbc64b70af90fd698a233a518aa5d07e595d983b8c0526c8f7fb87876040516111dd929190613114565b60405180910390a46111f3818787878787611a6c565b505050505050565b6000600360009054906101000a900473ffffffffffffffffffffffffffffffffffffffff16905081600360006101000a81548173ffffffffffffffffffffffffffffffffffffffff021916908373ffffffffffffffffffffffffffffffffffffffff1602179055508173ffffffffffffffffffffffffffffffffffffffff168173ffffffffffffffffffffffffffffffffffffffff167f8be0079c531659141344cd1fd0a4f28419497f9722a3daafe3b4186f6b6457e060405160405180910390a35050565b600073ffffffffffffffffffffffffffffffffffffffff168473ffffffffffffffffffffffffffffffffffffffff161415611331576040517f08c379a0000000000000000000000000000000000000000000000000000000008152600401611328906131bd565b60405180910390fd5b600061133b610ec2565b905061135c8160008761134d88611c44565b61135688611c44565b87611a64565b8260008086815260200190815260200160002060008773ffffffffffffffffffffffffffffffffffffffff1673ffffffffffffffffffffffffffffffffffffffff16815260200190815260200160002060008282546113bb91906130be565b925050819055508473ffffffffffffffffffffffffffffffffffffffff16600073ffffffffffffffffffffffffffffffffffffffff168273ffffffffffffffffffffffffffffffffffffffff167fc3d58168c5ae7397731d063d5bbf3d657854427343f4c083240f7aacaa2d0f6287876040516114399291906131dd565b60405180910390a461145081600087878787611cbe565b5050505050565b8173ffffffffffffffffffffffffffffffffffffffff168373ffffffffffffffffffffffffffffffffffffffff1614156114c6576040517f08c379a00000000000000000000000000000000000000000000000000000000081526004016114bd90613278565b60405180910390fd5b80600160008573ffffffffffffffffffffffffffffffffffffffff1673ffffffffffffffffffffffffffffffffffffffff16815260200190815260200160002060008473ffffffffffffffffffffffffffffffffffffffff1673ffffffffffffffffffffffffffffffffffffffff16815260200190815260200160002060006101000a81548160ff0219169083151502179055508173ffffffffffffffffffffffffffffffffffffffff168373ffffffffffffffffffffffffffffffffffffffff167f17307eab39ab6107e8899845ad3d59bd9653f200f220920489ca2b5937696c31836040516115b7919061210e565b60405180910390a3505050565b600073ffffffffffffffffffffffffffffffffffffffff168473ffffffffffffffffffffffffffffffffffffffff161415611634576040517f08c379a000000000000000000000000000000000000000000000000000000000815260040161162b906131bd565b60405180910390fd5b8151835114611678576040517f08c379a000000000000000000000000000000000000000000000000000000000815260040161166f90612f7a565b60405180910390fd5b6000611682610ec2565b905061169381600087878787611a64565b60005b845181101561174c578381815181106116b2576116b1612d3d565b5b60200260200101516000808784815181106116d0576116cf612d3d565b5b6020026020010151815260200190815260200160002060008873ffffffffffffffffffffffffffffffffffffffff1673ffffffffffffffffffffffffffffffffffffffff168152602001908152602001600020600082825461173291906130be565b92505081905550808061174490612d9b565b915050611696565b508473ffffffffffffffffffffffffffffffffffffffff16600073ffffffffffffffffffffffffffffffffffffffff168273ffffffffffffffffffffffffffffffffffffffff167f4a39dc06d4c0dbc64b70af90fd698a233a518aa5d07e595d983b8c0526c8f7fb87876040516117c4929190613114565b60405180910390a46117db81600087878787611a6c565b5050505050565b600073ffffffffffffffffffffffffffffffffffffffff168473ffffffffffffffffffffffffffffffffffffffff161415611852576040517f08c379a00000000000000000000000000000000000000000000000000000000081526004016118499061300c565b60405180910390fd5b600061185c610ec2565b905061187c81878761186d88611c44565b61187688611c44565b87611a64565b600080600086815260200190815260200160002060008873ffffffffffffffffffffffffffffffffffffffff1673ffffffffffffffffffffffffffffffffffffffff16815260200190815260200160002054905083811015611913576040517f08c379a000000000000000000000000000000000000000000000000000000000815260040161190a9061309e565b60405180910390fd5b83810360008087815260200190815260200160002060008973ffffffffffffffffffffffffffffffffffffffff1673ffffffffffffffffffffffffffffffffffffffff168152602001908152602001600020819055508360008087815260200190815260200160002060008873ffffffffffffffffffffffffffffffffffffffff1673ffffffffffffffffffffffffffffffffffffffff16815260200190815260200160002060008282546119c891906130be565b925050819055508573ffffffffffffffffffffffffffffffffffffffff168773ffffffffffffffffffffffffffffffffffffffff168373ffffffffffffffffffffffffffffffffffffffff167fc3d58168c5ae7397731d063d5bbf3d657854427343f4c083240f7aacaa2d0f628888604051611a459291906131dd565b60405180910390a4611a5b828888888888611cbe565b50505050505050565b505050505050565b611a8b8473ffffffffffffffffffffffffffffffffffffffff16611e96565b15611c3c578373ffffffffffffffffffffffffffffffffffffffff1663bc197c8187878686866040518663ffffffff1660e01b8152600401611ad19594939291906132ed565b6020604051808303816000875af1925050508015611b0d57506040513d601f19601f82011682018060405250810190611b0a919061336a565b60015b611bb357611b196133a4565b806308c379a01415611b765750611b2e6133c6565b80611b395750611b78565b806040517f08c379a0000000000000000000000000000000000000000000000000000000008152600401611b6d919061236d565b60405180910390fd5b505b6040517f08c379a0000000000000000000000000000000000000000000000000000000008152600401611baa906134ce565b60405180910390fd5b63bc197c8160e01b7bffffffffffffffffffffffffffffffffffffffffffffffffffffffff1916817bffffffffffffffffffffffffffffffffffffffffffffffffffffffff191614611c3a576040517f08c379a0000000000000000000000000000000000000000000000000000000008152600401611c3190613560565b60405180910390fd5b505b505050505050565b60606000600167ffffffffffffffff811115611c6357611c62612144565b5b604051908082528060200260200182016040528015611c915781602001602082028036833780820191505090505b5090508281600081518110611ca957611ca8612d3d565b5b60200260200101818152505080915050919050565b611cdd8473ffffffffffffffffffffffffffffffffffffffff16611e96565b15611e8e578373ffffffffffffffffffffffffffffffffffffffff1663f23a6e6187878686866040518663ffffffff1660e01b8152600401611d23959493929190613580565b6020604051808303816000875af1925050508015611d5f57506040513d601f19601f82011682018060405250810190611d5c919061336a565b60015b611e0557611d6b6133a4565b806308c379a01415611dc85750611d806133c6565b80611d8b5750611dca565b806040517f08c379a0000000000000000000000000000000000000000000000000000000008152600401611dbf919061236d565b60405180910390fd5b505b6040517f08c379a0000000000000000000000000000000000000000000000000000000008152600401611dfc906134ce565b60405180910390fd5b63f23a6e6160e01b7bffffffffffffffffffffffffffffffffffffffffffffffffffffffff1916817bffffffffffffffffffffffffffffffffffffffffffffffffffffffff191614611e8c576040517f08c379a0000000000000000000000000000000000000000000000000000000008152600401611e8390613560565b60405180910390fd5b505b505050505050565b6000808273ffffffffffffffffffffffffffffffffffffffff163b119050919050565b828054611ec590612be7565b90600052602060002090601f016020900481019282611ee75760008555611f2e565b82601f10611f0057805160ff1916838001178555611f2e565b82800160010185558215611f2e579182015b82811115611f2d578251825591602001919060010190611f12565b5b509050611f3b9190611f3f565b5090565b5b80821115611f58576000816000905550600101611f40565b5090565b6000604051905090565b600080fd5b600080fd5b600073ffffffffffffffffffffffffffffffffffffffff82169050919050565b6000611f9b82611f70565b9050919050565b611fab81611f90565b8114611fb657600080fd5b50565b600081359050611fc881611fa2565b92915050565b6000819050919050565b611fe181611fce565b8114611fec57600080fd5b50565b600081359050611ffe81611fd8565b92915050565b6000806040838503121561201b5761201a611f66565b5b600061202985828601611fb9565b925050602061203a85828601611fef565b9150509250929050565b61204d81611fce565b82525050565b60006020820190506120686000830184612044565b92915050565b60007fffffffff0000000000000000000000000000000000000000000000000000000082169050919050565b6120a38161206e565b81146120ae57600080fd5b50565b6000813590506120c08161209a565b92915050565b6000602082840312156120dc576120db611f66565b5b60006120ea848285016120b1565b91505092915050565b60008115159050919050565b612108816120f3565b82525050565b600060208201905061212360008301846120ff565b92915050565b600080fd5b600080fd5b6000601f19601f8301169050919050565b7f4e487b7100000000000000000000000000000000000000000000000000000000600052604160045260246000fd5b61217c82612133565b810181811067ffffffffffffffff8211171561219b5761219a612144565b5b80604052505050565b60006121ae611f5c565b90506121ba8282612173565b919050565b600067ffffffffffffffff8211156121da576121d9612144565b5b6121e382612133565b9050602081019050919050565b82818337600083830152505050565b600061221261220d846121bf565b6121a4565b90508281526020810184848401111561222e5761222d61212e565b5b6122398482856121f0565b509392505050565b600082601f83011261225657612255612129565b5b81356122668482602086016121ff565b91505092915050565b60006020828403121561228557612284611f66565b5b600082013567ffffffffffffffff8111156122a3576122a2611f6b565b5b6122af84828501612241565b91505092915050565b6000602082840312156122ce576122cd611f66565b5b60006122dc84828501611fef565b91505092915050565b600081519050919050565b600082825260208201905092915050565b60005b8381101561231f578082015181840152602081019050612304565b8381111561232e576000848401525b50505050565b600061233f826122e5565b61234981856122f0565b9350612359818560208601612301565b61236281612133565b840191505092915050565b600060208201905081810360008301526123878184612334565b905092915050565b600067ffffffffffffffff8211156123aa576123a9612144565b5b602082029050602081019050919050565b600080fd5b60006123d36123ce8461238f565b6121a4565b905080838252602082019050602084028301858111156123f6576123f56123bb565b5b835b8181101561241f578061240b8882611fef565b8452602084019350506020810190506123f8565b5050509392505050565b600082601f83011261243e5761243d612129565b5b813561244e8482602086016123c0565b91505092915050565b600067ffffffffffffffff82111561247257612471612144565b5b61247b82612133565b9050602081019050919050565b600061249b61249684612457565b6121a4565b9050828152602081018484840111156124b7576124b661212e565b5b6124c28482856121f0565b509392505050565b600082601f8301126124df576124de612129565b5b81356124ef848260208601612488565b91505092915050565b600080600080600060a0868803121561251457612513611f66565b5b600061252288828901611fb9565b955050602061253388828901611fb9565b945050604086013567ffffffffffffffff81111561255457612553611f6b565b5b61256088828901612429565b935050606086013567ffffffffffffffff81111561258157612580611f6b565b5b61258d88828901612429565b925050608086013567ffffffffffffffff8111156125ae576125ad611f6b565b5b6125ba888289016124ca565b9150509295509295909350565b600067ffffffffffffffff8211156125e2576125e1612144565b5b602082029050602081019050919050565b6000612606612601846125c7565b6121a4565b90508083825260208201905060208402830185811115612629576126286123bb565b5b835b81811015612652578061263e8882611fb9565b84526020840193505060208101905061262b565b5050509392505050565b600082601f83011261267157612670612129565b5b81356126818482602086016125f3565b91505092915050565b600080604083850312156126a1576126a0611f66565b5b600083013567ffffffffffffffff8111156126bf576126be611f6b565b5b6126cb8582860161265c565b925050602083013567ffffffffffffffff8111156126ec576126eb611f6b565b5b6126f885828601612429565b9150509250929050565b600081519050919050565b600082825260208201905092915050565b6000819050602082019050919050565b61273781611fce565b82525050565b6000612749838361272e565b60208301905092915050565b6000602082019050919050565b600061276d82612702565b612777818561270d565b93506127828361271e565b8060005b838110156127b357815161279a888261273d565b97506127a583612755565b925050600181019050612786565b5085935050505092915050565b600060208201905081810360008301526127da8184612762565b905092915050565b600080600080608085870312156127fc576127fb611f66565b5b600061280a87828801611fb9565b945050602061281b87828801611fef565b935050604061282c87828801611fef565b925050606085013567ffffffffffffffff81111561284d5761284c611f6b565b5b612859878288016124ca565b91505092959194509250565b61286e81611f90565b82525050565b60006020820190506128896000830184612865565b92915050565b612898816120f3565b81146128a357600080fd5b50565b6000813590506128b58161288f565b92915050565b600080604083850312156128d2576128d1611f66565b5b60006128e085828601611fb9565b92505060206128f1858286016128a6565b9150509250929050565b6000806000806080858703121561291557612914611f66565b5b600061292387828801611fb9565b945050602085013567ffffffffffffffff81111561294457612943611f6b565b5b61295087828801612429565b935050604085013567ffffffffffffffff81111561297157612970611f6b565b5b61297d87828801612429565b925050606085013567ffffffffffffffff81111561299e5761299d611f6b565b5b6129aa878288016124ca565b91505092959194509250565b600080604083850312156129cd576129cc611f66565b5b60006129db85828601611fb9565b92505060206129ec85828601611fb9565b9150509250929050565b600080600080600060a08688031215612a1257612a11611f66565b5b6000612a2088828901611fb9565b9550506020612a3188828901611fb9565b9450506040612a4288828901611fef565b9350506060612a5388828901611fef565b925050608086013567ffffffffffffffff811115612a7457612a73611f6b565b5b612a80888289016124ca565b9150509295509295909350565b600060208284031215612aa357612aa2611f66565b5b6000612ab184828501611fb9565b91505092915050565b7f455243313135353a2062616c616e636520717565727920666f7220746865207a60008201527f65726f2061646472657373000000000000000000000000000000000000000000602082015250565b6000612b16602b836122f0565b9150612b2182612aba565b604082019050919050565b60006020820190508181036000830152612b4581612b09565b9050919050565b7f4f776e61626c653a2063616c6c6572206973206e6f7420746865206f776e6572600082015250565b6000612b826020836122f0565b9150612b8d82612b4c565b602082019050919050565b60006020820190508181036000830152612bb181612b75565b9050919050565b7f4e487b7100000000000000000000000000000000000000000000000000000000600052602260045260246000fd5b60006002820490506001821680612bff57607f821691505b60208210811415612c1357612c12612bb8565b5b50919050565b7f455243313135353a207472616e736665722063616c6c6572206973206e6f742060008201527f6f776e6572206e6f7220617070726f7665640000000000000000000000000000602082015250565b6000612c756032836122f0565b9150612c8082612c19565b604082019050919050565b60006020820190508181036000830152612ca481612c68565b9050919050565b7f455243313135353a206163636f756e747320616e6420696473206c656e67746860008201527f206d69736d617463680000000000000000000000000000000000000000000000602082015250565b6000612d076029836122f0565b9150612d1282612cab565b604082019050919050565b60006020820190508181036000830152612d3681612cfa565b9050919050565b7f4e487b7100000000000000000000000000000000000000000000000000000000600052603260045260246000fd5b7f4e487b7100000000000000000000000000000000000000000000000000000000600052601160045260246000fd5b6000612da682611fce565b91507fffffffffffffffffffffffffffffffffffffffffffffffffffffffffffffffff821415612dd957612dd8612d6c565b5b600182019050919050565b7f455243313135353a2063616c6c6572206973206e6f74206f776e6572206e6f7260008201527f20617070726f7665640000000000000000000000000000000000000000000000602082015250565b6000612e406029836122f0565b9150612e4b82612de4565b604082019050919050565b60006020820190508181036000830152612e6f81612e33565b9050919050565b7f4f776e61626c653a206e6577206f776e657220697320746865207a65726f206160008201527f6464726573730000000000000000000000000000000000000000000000000000602082015250565b6000612ed26026836122f0565b9150612edd82612e76565b604082019050919050565b60006020820190508181036000830152612f0181612ec5565b9050919050565b7f455243313135353a2069647320616e6420616d6f756e7473206c656e6774682060008201527f6d69736d61746368000000000000000000000000000000000000000000000000602082015250565b6000612f646028836122f0565b9150612f6f82612f08565b604082019050919050565b60006020820190508181036000830152612f9381612f57565b9050919050565b7f455243313135353a207472616e7366657220746f20746865207a65726f20616460008201527f6472657373000000000000000000000000000000000000000000000000000000602082015250565b6000612ff66025836122f0565b915061300182612f9a565b604082019050919050565b6000602082019050818103600083015261302581612fe9565b9050919050565b7f455243313135353a20696e73756666696369656e742062616c616e636520666f60008201527f72207472616e7366657200000000000000000000000000000000000000000000602082015250565b6000613088602a836122f0565b91506130938261302c565b604082019050919050565b600060208201905081810360008301526130b78161307b565b9050919050565b60006130c982611fce565b91506130d483611fce565b9250827fffffffffffffffffffffffffffffffffffffffffffffffffffffffffffffffff0382111561310957613108612d6c565b5b828201905092915050565b6000604082019050818103600083015261312e8185612762565b905081810360208301526131428184612762565b90509392505050565b7f455243313135353a206d696e7420746f20746865207a65726f2061646472657360008201527f7300000000000000000000000000000000000000000000000000000000000000602082015250565b60006131a76021836122f0565b91506131b28261314b565b604082019050919050565b600060208201905081810360008301526131d68161319a565b9050919050565b60006040820190506131f26000830185612044565b6131ff6020830184612044565b9392505050565b7f455243313135353a2073657474696e6720617070726f76616c2073746174757360008201527f20666f722073656c660000000000000000000000000000000000000000000000602082015250565b60006132626029836122f0565b915061326d82613206565b604082019050919050565b6000602082019050818103600083015261329181613255565b9050919050565b600081519050919050565b600082825260208201905092915050565b60006132bf82613298565b6132c981856132a3565b93506132d9818560208601612301565b6132e281612133565b840191505092915050565b600060a0820190506133026000830188612865565b61330f6020830187612865565b81810360408301526133218186612762565b905081810360608301526133358185612762565b9050818103608083015261334981846132b4565b90509695505050505050565b6000815190506133648161209a565b92915050565b6000602082840312156133805761337f611f66565b5b600061338e84828501613355565b91505092915050565b60008160e01c9050919050565b600060033d11156133c35760046000803e6133c0600051613397565b90505b90565b600060443d10156133d657613459565b6133de611f5c565b60043d036004823e80513d602482011167ffffffffffffffff82111715613406575050613459565b808201805167ffffffffffffffff8111156134245750505050613459565b80602083010160043d038501811115613441575050505050613459565b61345082602001850186612173565b82955050505050505b90565b7f455243313135353a207472616e7366657220746f206e6f6e204552433131353560008201527f526563656976657220696d706c656d656e746572000000000000000000000000602082015250565b60006134b86034836122f0565b91506134c38261345c565b604082019050919050565b600060208201905081810360008301526134e7816134ab565b9050919050565b7f455243313135353a204552433131353552656365697665722072656a6563746560008201527f6420746f6b656e73000000000000000000000000000000000000000000000000602082015250565b600061354a6028836122f0565b9150613555826134ee565b604082019050919050565b600060208201905081810360008301526135798161353d565b9050919050565b600060a0820190506135956000830188612865565b6135a26020830187612865565b6135af6040830186612044565b6135bc6060830185612044565b81810360808301526135ce81846132b4565b9050969550505050505056fea2646970667358221220e5929a69b26cf8ac68e2440959a2cd9b505bb7e27c81d3d192635d9c54a2092c64736f6c634300080b0033",
  "linkReferences": {},
  "deployedLinkReferences": {}
}