{
  "_format": "hh-sol-artifact-1",
  "contractName": "RewardNFT",
  "sourceName": "contracts/RewardNFT.sol",
  "abi": [
    {
      "inputs": [],
      "stateMutability": "nonpayable",
      "type": "constructor"
    },
    {
      "anonymous": false,
      "inputs": [
        {
          "indexed": true,
          "internalType": "address",
          "name": "account",
          "type": "address"
        },
        {
          "indexed": true,
          "internalType": "address",
          "name": "operator",
          "type": "address"
        },
        {
          "indexed": false,
          "internalType": "bool",
          "name": "approved",
          "type": "bool"
        }
      ],
      "name": "ApprovalForAll",
      "type": "event"
    },
    {
      "anonymous": false,
      "inputs": [
        {
          "indexed": true,
          "internalType": "address",
          "name": "previousOwner",
          "type": "address"
        },
        {
          "indexed": true,
          "internalType": "address",
          "name": "newOwner",
          "type": "address"
        }
      ],
      "name": "OwnershipTransferred",
      "type": "event"
    },
    {
      "anonymous": false,
      "inputs": [
        {
          "indexed": true,
          "internalType": "address",
          "name": "operator",
          "type": "address"
        },
        {
          "indexed": true,
          "internalType": "address",
          "name": "from",
          "type": "address"
        },
        {
          "indexed": true,
          "internalType": "address",
          "name": "to",
          "type": "address"
        },
        {
          "indexed": false,
          "internalType": "uint256[]",
          "name": "ids",
          "type": "uint256[]"
        },
        {
          "indexed": false,
          "internalType": "uint256[]",
          "name": "values",
          "type": "uint256[]"
        }
      ],
      "name": "TransferBatch",
      "type": "event"
    },
    {
      "anonymous": false,
      "inputs": [
        {
          "indexed": true,
          "internalType": "address",
          "name": "operator",
          "type": "address"
        },
        {
          "indexed": true,
          "internalType": "address",
          "name": "from",
          "type": "address"
        },
        {
          "indexed": true,
          "internalType": "address",
          "name": "to",
          "type": "address"
        },
        {
          "indexed": false,
          "internalType": "uint256",
          "name": "id",
          "type": "uint256"
        },
        {
          "indexed": false,
          "internalType": "uint256",
          "name": "value",
          "type": "uint256"
        }
      ],
      "name": "TransferSingle",
      "type": "event"
    },
    {
      "anonymous": false,
      "inputs": [
        {
          "indexed": false,
          "internalType": "string",
          "name": "value",
          "type": "string"
        },
        {
          "indexed": true,
          "internalType": "uint256",
          "name": "id",
          "type": "uint256"
        }
      ],
      "name": "URI",
      "type": "event"
    },
    {
      "inputs": [
        {
          "internalType": "address",
          "name": "account",
          "type": "address"
        },
        {
          "internalType": "uint256",
          "name": "id",
          "type": "uint256"
        }
      ],
      "name": "balanceOf",
      "outputs": [
        {
          "internalType": "uint256",
          "name": "",
          "type": "uint256"
        }
      ],
      "stateMutability": "view",
      "type": "function"
    },
    {
      "inputs": [
        {
          "internalType": "address[]",
          "name": "accounts",
          "type": "address[]"
        },
        {
          "internalType": "uint256[]",
          "name": "ids",
          "type": "uint256[]"
        }
      ],
      "name": "balanceOfBatch",
      "outputs": [
        {
          "internalType": "uint256[]",
          "name": "",
          "type": "uint256[]"
        }
      ],
      "stateMutability": "view",
      "type": "function"
    },
    {
      "inputs": [
        {
          "internalType": "address",
          "name": "to",
          "type": "address"
        },
        {
          "internalType": "uint256[]",
          "name": "ids",
          "type": "uint256[]"
        },
        {
          "internalType": "uint256[]",
          "name": "amounts",
          "type": "uint256[]"
        },
        {
          "internalType": "bytes",
          "name": "data",
          "type": "bytes"
        }
      ],
      "name": "batchMint",
      "outputs": [],
      "stateMutability": "nonpayable",
      "type": "function"
    },
    {
      "inputs": [
        {
          "internalType": "address",
          "name": "account",
          "type": "address"
        },
        {
          "internalType": "address",
          "name": "operator",
          "type": "address"
        }
      ],
      "name": "isApprovedForAll",
      "outputs": [
        {
          "internalType": "bool",
          "name": "",
          "type": "bool"
        }
      ],
      "stateMutability": "view",
      "type": "function"
    },
    {
      "inputs": [
        {
          "internalType": "address",
          "name": "to",
          "type": "address"
        },
        {
          "internalType": "uint256",
          "name": "id",
          "type": "uint256"
        },
        {
          "internalType": "uint256",
          "name": "amount",
          "type": "uint256"
        },
        {
          "internalType": "bytes",
          "name": "data",
          "type": "bytes"
        }
      ],
      "name": "mint",
      "outputs": [],
      "stateMutability": "nonpayable",
      "type": "function"
    },
    {
      "inputs": [],
      "name": "owner",
      "outputs": [
        {
          "internalType": "address",
          "name": "",
          "type": "address"
        }
      ],
      "stateMutability": "view",
      "type": "function"
    },
    {
      "inputs": [],
      "name": "renounceOwnership",
      "outputs": [],
      "stateMutability": "nonpayable",
      "type": "function"
    },
    {
      "inputs": [
        {
          "internalType": "address",
          "name": "from",
          "type": "address"
        },
        {
          "internalType": "address",
          "name": "to",
          "type": "address"
        },
        {
          "internalType": "uint256[]",
          "name": "ids",
          "type": "uint256[]"
        },
        {
          "internalType": "uint256[]",
          "name": "amounts",
          "type": "uint256[]"
        },
        {
          "internalType": "bytes",
          "name": "data",
          "type": "bytes"
        }
      ],
      "name": "safeBatchTransferFrom",
      "outputs": [],
      "stateMutability": "nonpayable",
      "type": "function"
    },
    {
      "inputs": [
        {
          "internalType": "address",
          "name": "from",
          "type": "address"
        },
        {
          "internalType": "address",
          "name": "to",
          "type": "address"
        },
        {
          "internalType": "uint256",
          "name": "id",
          "type": "uint256"
        },
        {
          "internalType": "uint256",
          "name": "amount",
          "type": "uint256"
        },
        {
          "internalType": "bytes",
          "name": "data",
          "type": "bytes"
        }
      ],
      "name": "safeTransferFrom",
      "outputs": [],
      "stateMutability": "nonpayable",
      "type": "function"
    },
    {
      "inputs": [
        {
          "internalType": "address",
          "name": "operator",
          "type": "address"
        },
        {
          "internalType": "bool",
          "name": "approved",
          "type": "bool"
        }
      ],
      "name": "setApprovalForAll",
      "outputs": [],
      "stateMutability": "nonpayable",
      "type": "function"
    },
    {
      "inputs": [
        {
          "internalType": "string",
          "name": "newuri",
          "type": "string"
        }
      ],
      "name": "setURI",
      "outputs": [],
      "stateMutability": "nonpayable",
      "type": "function"
    },
    {
      "inputs": [
        {
          "internalType": "bytes4",
          "name": "interfaceId",
          "type": "bytes4"
        }
      ],
      "name": "supportsInterface",
      "outputs": [
        {
          "internalType": "bool",
          "name": "",
          "type": "bool"
        }
      ],
      "stateMutability": "view",
      "type": "function"
    },
    {
      "inputs": [
        {
          "internalType": "address",
          "name": "newOwner",
          "type": "address"
        }
      ],
      "name": "transferOwnership",
      "outputs": [],
      "stateMutability": "nonpayable",
      "type": "function"
    },
    {
      "inputs": [
        {
          "internalType": "uint256",
          "name": "",
          "type": "uint256"
        }
      ],
      "name": "uri",
      "outputs": [
        {
          "internalType": "string",
          "name": "",
          "type": "string"
        }
      ],
      "stateMutability": "view",
      "type": "function"
    }
  ],
  "bytecode": "0x60806040523480156200001157600080fd5b506040805160208101909152600081526200002c816200003e565b50620000383362000057565b6200018c565b805162000053906002906020840190620000a9565b5050565b600380546001600160a01b038381166001600160a01b0319831681179093556040519116919082907f8be0079c531659141344cd1fd0a4f28419497f9722a3daafe3b4186f6b6457e090600090a35050565b828054620000b7906200014f565b90600052602060002090601f016020900481019282620000db576000855562000126565b82601f10620000f657805160ff191683800117855562000126565b8280016001018555821562000126579182015b828111156200012657825182559160200191906001019062000109565b506200013492915062000138565b5090565b5b8082111562000134576000815560010162000139565b600181811c908216806200016457607f821691505b602082108114156200018657634e487b7160e01b600052602260045260246000fd5b50919050565b611cf0806200019c6000396000f3fe608060405234801561001057600080fd5b50600436106100e95760003560e01c8063731133e91161008c578063b48ab8b611610066578063b48ab8b6146101e8578063e985e9c5146101fb578063f242432a14610237578063f2fde38b1461024a57600080fd5b8063731133e9146101a75780638da5cb5b146101ba578063a22cb465146101d557600080fd5b80630e89341c116100c85780630e89341c1461014c5780632eb2c2d61461016c5780634e1273f41461017f578063715018a61461019f57600080fd5b8062fdd58e146100ee57806301ffc9a71461011457806302fe530514610137575b600080fd5b6101016100fc36600461146a565b61025d565b6040519081526020015b60405180910390f35b6101276101223660046114aa565b610306565b604051901515815260200161010b565b61014a61014536600461156f565b6103a3565b005b61015f61015a3660046115c0565b610409565b60405161010b9190611626565b61014a61017a3660046116ee565b61049d565b61019261018d366004611798565b61053f565b60405161010b919061189e565b61014a61067d565b61014a6101b53660046118b1565b6106e3565b6003546040516001600160a01b03909116815260200161010b565b61014a6101e3366004611912565b6106f5565b61014a6101f636600461194e565b610704565b6101276102093660046119db565b6001600160a01b03918216600090815260016020908152604080832093909416825291909152205460ff1690565b61014a610245366004611a0e565b610710565b61014a610258366004611a73565b6107ab565b60006001600160a01b0383166102e05760405162461bcd60e51b815260206004820152602b60248201527f455243313135353a2062616c616e636520717565727920666f7220746865207a60448201527f65726f206164647265737300000000000000000000000000000000000000000060648201526084015b60405180910390fd5b506000908152602081815260408083206001600160a01b03949094168352929052205490565b60006001600160e01b031982167fd9b67a2600000000000000000000000000000000000000000000000000000000148061036957506001600160e01b031982167f0e89341c00000000000000000000000000000000000000000000000000000000145b8061039d57507f01ffc9a7000000000000000000000000000000000000000000000000000000006001600160e01b03198316145b92915050565b6003546001600160a01b031633146103fd5760405162461bcd60e51b815260206004820181905260248201527f4f776e61626c653a2063616c6c6572206973206e6f7420746865206f776e657260448201526064016102d7565b6104068161088a565b50565b60606002805461041890611a8e565b80601f016020809104026020016040519081016040528092919081815260200182805461044490611a8e565b80156104915780601f1061046657610100808354040283529160200191610491565b820191906000526020600020905b81548152906001019060200180831161047457829003601f168201915b50505050509050919050565b6001600160a01b0385163314806104b957506104b98533610209565b61052b5760405162461bcd60e51b815260206004820152603260248201527f455243313135353a207472616e736665722063616c6c6572206973206e6f742060448201527f6f776e6572206e6f7220617070726f766564000000000000000000000000000060648201526084016102d7565b610538858585858561089d565b5050505050565b606081518351146105b85760405162461bcd60e51b815260206004820152602960248201527f455243313135353a206163636f756e747320616e6420696473206c656e67746860448201527f206d69736d61746368000000000000000000000000000000000000000000000060648201526084016102d7565b6000835167ffffffffffffffff8111156105d4576105d46114ce565b6040519080825280602002602001820160405280156105fd578160200160208202803683370190505b50905060005b84518110156106755761064885828151811061062157610621611ac9565b602002602001015185838151811061063b5761063b611ac9565b602002602001015161025d565b82828151811061065a5761065a611ac9565b602090810291909101015261066e81611af5565b9050610603565b509392505050565b6003546001600160a01b031633146106d75760405162461bcd60e51b815260206004820181905260248201527f4f776e61626c653a2063616c6c6572206973206e6f7420746865206f776e657260448201526064016102d7565b6106e16000610afb565b565b6106ef84848484610b65565b50505050565b610700338383610c6f565b5050565b6106ef84848484610d64565b6001600160a01b03851633148061072c575061072c8533610209565b61079e5760405162461bcd60e51b815260206004820152602960248201527f455243313135353a2063616c6c6572206973206e6f74206f776e6572206e6f7260448201527f20617070726f766564000000000000000000000000000000000000000000000060648201526084016102d7565b6105388585858585610f2a565b6003546001600160a01b031633146108055760405162461bcd60e51b815260206004820181905260248201527f4f776e61626c653a2063616c6c6572206973206e6f7420746865206f776e657260448201526064016102d7565b6001600160a01b0381166108815760405162461bcd60e51b815260206004820152602660248201527f4f776e61626c653a206e6577206f776e657220697320746865207a65726f206160448201527f646472657373000000000000000000000000000000000000000000000000000060648201526084016102d7565b61040681610afb565b80516107009060029060208401906113b5565b81518351146108ff5760405162461bcd60e51b815260206004820152602860248201527f455243313135353a2069647320616e6420616d6f756e7473206c656e677468206044820152670dad2e6dac2e8c6d60c31b60648201526084016102d7565b6001600160a01b0384166109635760405162461bcd60e51b815260206004820152602560248201527f455243313135353a207472616e7366657220746f20746865207a65726f206164604482015264647265737360d81b60648201526084016102d7565b3360005b8451811015610a8d57600085828151811061098457610984611ac9565b6020026020010151905060008583815181106109a2576109a2611ac9565b602090810291909101810151600084815280835260408082206001600160a01b038e168352909352919091205490915081811015610a355760405162461bcd60e51b815260206004820152602a60248201527f455243313135353a20696e73756666696369656e742062616c616e636520666f60448201526939103a3930b739b332b960b11b60648201526084016102d7565b6000838152602081815260408083206001600160a01b038e8116855292528083208585039055908b16825281208054849290610a72908490611b10565b9250508190555050505080610a8690611af5565b9050610967565b50846001600160a01b0316866001600160a01b0316826001600160a01b03167f4a39dc06d4c0dbc64b70af90fd698a233a518aa5d07e595d983b8c0526c8f7fb8787604051610add929190611b28565b60405180910390a4610af38187878787876110c8565b505050505050565b600380546001600160a01b038381167fffffffffffffffffffffffff0000000000000000000000000000000000000000831681179093556040519116919082907f8be0079c531659141344cd1fd0a4f28419497f9722a3daafe3b4186f6b6457e090600090a35050565b6001600160a01b038416610bc55760405162461bcd60e51b815260206004820152602160248201527f455243313135353a206d696e7420746f20746865207a65726f206164647265736044820152607360f81b60648201526084016102d7565b33610bdf81600087610bd68861126e565b6105388861126e565b6000848152602081815260408083206001600160a01b038916845290915281208054859290610c0f908490611b10565b909155505060408051858152602081018590526001600160a01b0380881692600092918516917fc3d58168c5ae7397731d063d5bbf3d657854427343f4c083240f7aacaa2d0f62910160405180910390a4610538816000878787876112b9565b816001600160a01b0316836001600160a01b03161415610cf75760405162461bcd60e51b815260206004820152602960248201527f455243313135353a2073657474696e6720617070726f76616c2073746174757360448201527f20666f722073656c66000000000000000000000000000000000000000000000060648201526084016102d7565b6001600160a01b03838116600081815260016020908152604080832094871680845294825291829020805460ff191686151590811790915591519182527f17307eab39ab6107e8899845ad3d59bd9653f200f220920489ca2b5937696c31910160405180910390a3505050565b6001600160a01b038416610dc45760405162461bcd60e51b815260206004820152602160248201527f455243313135353a206d696e7420746f20746865207a65726f206164647265736044820152607360f81b60648201526084016102d7565b8151835114610e265760405162461bcd60e51b815260206004820152602860248201527f455243313135353a2069647320616e6420616d6f756e7473206c656e677468206044820152670dad2e6dac2e8c6d60c31b60648201526084016102d7565b3360005b8451811015610ec257838181518110610e4557610e45611ac9565b6020026020010151600080878481518110610e6257610e62611ac9565b602002602001015181526020019081526020016000206000886001600160a01b03166001600160a01b031681526020019081526020016000206000828254610eaa9190611b10565b90915550819050610eba81611af5565b915050610e2a565b50846001600160a01b031660006001600160a01b0316826001600160a01b03167f4a39dc06d4c0dbc64b70af90fd698a233a518aa5d07e595d983b8c0526c8f7fb8787604051610f13929190611b28565b60405180910390a4610538816000878787876110c8565b6001600160a01b038416610f8e5760405162461bcd60e51b815260206004820152602560248201527f455243313135353a207472616e7366657220746f20746865207a65726f206164604482015264647265737360d81b60648201526084016102d7565b33610f9e818787610bd68861126e565b6000848152602081815260408083206001600160a01b038a168452909152902054838110156110225760405162461bcd60e51b815260206004820152602a60248201527f455243313135353a20696e73756666696369656e742062616c616e636520666f60448201526939103a3930b739b332b960b11b60648201526084016102d7565b6000858152602081815260408083206001600160a01b038b811685529252808320878503905590881682528120805486929061105f908490611b10565b909155505060408051868152602081018690526001600160a01b03808916928a821692918616917fc3d58168c5ae7397731d063d5bbf3d657854427343f4c083240f7aacaa2d0f62910160405180910390a46110bf8288888888886112b9565b50505050505050565b6001600160a01b0384163b15610af35760405163bc197c8160e01b81526001600160a01b0385169063bc197c819061110c9089908990889088908890600401611b56565b6020604051808303816000875af1925050508015611147575060408051601f3d908101601f1916820190925261114491810190611bb4565b60015b6111fd57611153611bd1565b806308c379a0141561118d5750611168611bed565b80611173575061118f565b8060405162461bcd60e51b81526004016102d79190611626565b505b60405162461bcd60e51b815260206004820152603460248201527f455243313135353a207472616e7366657220746f206e6f6e204552433131353560448201527f526563656976657220696d706c656d656e74657200000000000000000000000060648201526084016102d7565b6001600160e01b0319811663bc197c8160e01b146110bf5760405162461bcd60e51b815260206004820152602860248201527f455243313135353a204552433131353552656365697665722072656a656374656044820152676420746f6b656e7360c01b60648201526084016102d7565b604080516001808252818301909252606091600091906020808301908036833701905050905082816000815181106112a8576112a8611ac9565b602090810291909101015292915050565b6001600160a01b0384163b15610af35760405163f23a6e6160e01b81526001600160a01b0385169063f23a6e61906112fd9089908990889088908890600401611c77565b6020604051808303816000875af1925050508015611338575060408051601f3d908101601f1916820190925261133591810190611bb4565b60015b61134457611153611bd1565b6001600160e01b0319811663f23a6e6160e01b146110bf5760405162461bcd60e51b815260206004820152602860248201527f455243313135353a204552433131353552656365697665722072656a656374656044820152676420746f6b656e7360c01b60648201526084016102d7565b8280546113c190611a8e565b90600052602060002090601f0160209004810192826113e35760008555611429565b82601f106113fc57805160ff1916838001178555611429565b82800160010185558215611429579182015b8281111561142957825182559160200191906001019061140e565b50611435929150611439565b5090565b5b80821115611435576000815560010161143a565b80356001600160a01b038116811461146557600080fd5b919050565b6000806040838503121561147d57600080fd5b6114868361144e565b946020939093013593505050565b6001600160e01b03198116811461040657600080fd5b6000602082840312156114bc57600080fd5b81356114c781611494565b9392505050565b634e487b7160e01b600052604160045260246000fd5b601f8201601f1916810167ffffffffffffffff8111828210171561150a5761150a6114ce565b6040525050565b600067ffffffffffffffff83111561152b5761152b6114ce565b604051611542601f8501601f1916602001826114e4565b80915083815284848401111561155757600080fd5b83836020830137600060208583010152509392505050565b60006020828403121561158157600080fd5b813567ffffffffffffffff81111561159857600080fd5b8201601f810184136115a957600080fd5b6115b884823560208401611511565b949350505050565b6000602082840312156115d257600080fd5b5035919050565b6000815180845260005b818110156115ff576020818501810151868301820152016115e3565b81811115611611576000602083870101525b50601f01601f19169290920160200192915050565b6020815260006114c760208301846115d9565b600067ffffffffffffffff821115611653576116536114ce565b5060051b60200190565b600082601f83011261166e57600080fd5b8135602061167b82611639565b60405161168882826114e4565b83815260059390931b85018201928281019150868411156116a857600080fd5b8286015b848110156116c357803583529183019183016116ac565b509695505050505050565b600082601f8301126116df57600080fd5b6114c783833560208501611511565b600080600080600060a0868803121561170657600080fd5b61170f8661144e565b945061171d6020870161144e565b9350604086013567ffffffffffffffff8082111561173a57600080fd5b61174689838a0161165d565b9450606088013591508082111561175c57600080fd5b61176889838a0161165d565b9350608088013591508082111561177e57600080fd5b5061178b888289016116ce565b9150509295509295909350565b600080604083850312156117ab57600080fd5b823567ffffffffffffffff808211156117c357600080fd5b818501915085601f8301126117d757600080fd5b813560206117e482611639565b6040516117f182826114e4565b83815260059390931b850182019282810191508984111561181157600080fd5b948201945b83861015611836576118278661144e565b82529482019490820190611816565b9650508601359250508082111561184c57600080fd5b506118598582860161165d565b9150509250929050565b600081518084526020808501945080840160005b8381101561189357815187529582019590820190600101611877565b509495945050505050565b6020815260006114c76020830184611863565b600080600080608085870312156118c757600080fd5b6118d08561144e565b93506020850135925060408501359150606085013567ffffffffffffffff8111156118fa57600080fd5b611906878288016116ce565b91505092959194509250565b6000806040838503121561192557600080fd5b61192e8361144e565b91506020830135801515811461194357600080fd5b809150509250929050565b6000806000806080858703121561196457600080fd5b61196d8561144e565b9350602085013567ffffffffffffffff8082111561198a57600080fd5b6119968883890161165d565b945060408701359150808211156119ac57600080fd5b6119b88883890161165d565b935060608701359150808211156119ce57600080fd5b50611906878288016116ce565b600080604083850312156119ee57600080fd5b6119f78361144e565b9150611a056020840161144e565b90509250929050565b600080600080600060a08688031215611a2657600080fd5b611a2f8661144e565b9450611a3d6020870161144e565b93506040860135925060608601359150608086013567ffffffffffffffff811115611a6757600080fd5b61178b888289016116ce565b600060208284031215611a8557600080fd5b6114c78261144e565b600181811c90821680611aa257607f821691505b60208210811415611ac357634e487b7160e01b600052602260045260246000fd5b50919050565b634e487b7160e01b600052603260045260246000fd5b634e487b7160e01b600052601160045260246000fd5b6000600019821415611b0957611b09611adf565b5060010190565b60008219821115611b2357611b23611adf565b500190565b604081526000611b3b6040830185611863565b8281036020840152611b4d8185611863565b95945050505050565b60006001600160a01b03808816835280871660208401525060a06040830152611b8260a0830186611863565b8281036060840152611b948186611863565b90508281036080840152611ba881856115d9565b98975050505050505050565b600060208284031215611bc657600080fd5b81516114c781611494565b600060033d1115611bea5760046000803e5060005160e01c5b90565b600060443d1015611bfb5790565b6040516003193d81016004833e81513d67ffffffffffffffff8160248401118184111715611c2b57505050505090565b8285019150815181811115611c435750505050505090565b843d8701016020828501011115611c5d5750505050505090565b611c6c602082860101876114e4565b509095945050505050565b60006001600160a01b03808816835280871660208401525084604083015283606083015260a06080830152611caf60a08301846115d9565b97965050505050505056fea2646970667358221220ab44881c9f4f7b450391415a68c2cde44bf321079cfdd5aa5c83d64df9cca86564736f6c634300080b0033",
  "linkReferences": {},
  "deployedLinkReferences": {}
}